:020000040000FA
:100000000C943B010C946C010C946C010C946C01ED
:100010000C946C010C946C010C946C010C946C01AC
:100020000C946C010C946C010C946C010C946C019C
:100030000C946C010C946C010C946C010C946C018C
:100040000C946C010C945E060C946C010C946C0185
:100050000C946C010C946C010C946C010C948A054A
:100060000C946C010C9454050C942A050C946C01AE
:100070000C946C010C946C010C946C010C946C014C
:100080000C9430060C946C010C946C010C946C0173
:100090000C946C010C946C010C946C010C946C012C
:1000A0000C946C010C946C010C9402060C946C0181
:1000B0000C946C010C946C010C946C010C94D405A0
:1000C0000C946C010C946C010C946C010C946C01FC
:1000D0000C946C010C946C010C946C010C946C01EC
:1000E0000C946C010C941A030C94CA030C94CD026A
:1000F0000C9437020C94FB030C9464020C94B6032A
:100100000C9497030C94C9030C94CE030C948702AF
:100110000C94BC030C949B030C94B2030C94C40386
:100120000C948C060C94AE030C946C040C948F030A
:100130000C9489030C949E030C94A8030C949502D0
:100140000C94A4030C9473020C9493030C942C044D
:100150000C94C00300002100240027002A002D0079
:100160003000330001010000040107010A01000012
:100170002200250028002B002E003100340002014F
:100180000000050108010B010000200023002600EB
:1001900029002C002F00320000010000030106019D
:1001A00009010505050507050808080802020202FD
:1001B0000A0A080804040404010101010101010103
:1001C0000303030303030303040707070C0C0C0CCE
:1001D0000C0C0C0C020202020606060606060606B7
:1001E0000B0B0B0B0B0B0B0B010210202008081044
:1001F0002040102040800201020108040201010297
:10020000040810204080804020100804020180046F
:1002100002018040201008040201080402010102CA
:1002200004081020408001020408102040800000D3
:100230000A0B02090C0D0E08070304010000000060
:1002400000000000000000000000000000000000AE
:10025000000000000000000000001211100000006B
:10026000000000000000000000000000000000008E
:10027000000000008C0611241FBECFEFD1E2DEBFCC
:10028000CDBF00E00CBF12E0A0E0B2E0EAEFF8E181
:1002900000E00BBF02C007900D92A833B107D9F759
:1002A00023E0A8E3B2E001C01D92A13FB207E1F74D
:1002B00011E0CBE3D1E000E006C021970109802FD7
:1002C000FE010E94730CCA33D10780E00807A9F72A
:1002D0000E9434070C947B0C0C940000E091EE0318
:1002E000E03388F54091EF0328E830E0241B310922
:1002F00047FD3395220F331F220F331F82179307B9
:1003000084F04091F00328E532E0241B310947FDD9
:100310003395220F331F220F331F821793070CF4DC
:100320009C0122503109220F331F4FB7F8948E2FB2
:1003300090E0FC01EE0FFF1FE80FF91FE251FD4FA7
:10034000328321834FBF089596E0899FD001112405
:10035000A158BC4F90967C936E935F9791E09196D5
:100360009C939197E091EC03F091ED039091EB0356
:10037000992339F0309751F0811108C080919B0387
:100380001994309719F05C968C91FACF0895CF921A
:10039000DF92EF92FF920F931F9396E0899FF001F7
:1003A0001124E158FC4F11A2278D30A121303105D5
:1003B00051F178F02230310509F451C02330310574
:1003C00009F452C01F910F91FF90EF90DF90CF90F2
:1003D00008956623B9F361E070E00E94A4012FB78D
:1003E000F89480914D0290914E02A0914F02B091ED
:1003F00050022FBF8093D7039093D803A093D903C3
:10040000B093DA03DFCF9FB7F894C0904D02D0903D
:100410004E02E0904F02F09050029FBF0091D70330
:100420001091D8032091D9033091DA03C01AD10A70
:10043000E20AF30A0091E9031091EA0330E020E0B8
:100440000C151D052E053F0550F462E070E01F916C
:100450000F91FF90EF90DF90CF900C94A401611169
:10046000B1CF63E070E0F3CF70E060E0F0CFAF9227
:10047000BF92CF92DF92EF92FF920F931F93CF9391
:10048000DF936C017B018B01040F151FEB015E01F3
:10049000AE18BF08C017D10759F06991D601ED9188
:1004A000FC910190F081E02DC6011995892B79F717
:1004B000C501DF91CF911F910F91FF90EF90DF90D9
:1004C000CF90BF90AF900895FC01538D448D252FA0
:1004D00030E0842F90E0821B930B541710F0CF96DE
:1004E000089501970895FC01918D828D981761F010
:1004F000A28DAE0FBF2FB11D5D968C91928D9F5F27
:100500009F73928F90E008958FEF9FEF0895FC0105
:10051000918D828D981731F0828DE80FF11D858DB8
:1005200090E008958FEF9FEF0895FC01918D228D4B
:10053000892F90E0805C9F4F821B91098F739927D0
:10054000089581E592E00E94950221E0892B09F44B
:1005500020E0822F0895FC01A48DA80FB92FB11DB2
:10056000A35ABF4F2C91848D90E001968F739927E9
:10057000848FA689B7892C93A089B1898C918370C7
:1005800080648C93938D848D981306C00288F389C0
:10059000E02D80818F7D80830895EF92FF920F93ED
:1005A0001F93CF93DF93EC0181E0888F9B8D8C8D1F
:1005B00098131AC0E889F989808185FF15C09FB713
:1005C000F894EE89FF896083E889F98980818370D6
:1005D000806480839FBF81E090E0DF91CF911F9185
:1005E0000F91FF90EF900895F62E0B8D10E00F5FA6
:1005F0001F4F0F731127E02E8C8D8E110CC00FB67C
:1006000007FCFACFE889F989808185FFF5CFCE0113
:100610000E94AB02F1CFEB8DEC0FFD2FF11DE35AE1
:10062000FF4FF0829FB7F8940B8FEA89FB89808196
:100630008062CFCFCF93DF93EC01888D8823B9F010
:10064000AA89BB89E889F9898C9185FD03C08081DD
:1006500086FD0DC00FB607FCF7CF8C9185FFF2CF5A
:10066000808185FFEDCFCE010E94AB02E9CFDF9103
:10067000CF91089580E090E0892B29F00E94A1029B
:1006800081110E94000080E090E0892B49F080E019
:1006900090E0892B29F00E94000081110E94000047
:1006A00080E090E0892B49F080E090E0892B29F0F0
:1006B0000E94000081110E94000080E090E0892BE0
:1006C00049F080E090E0892B29F00E940000811120
:1006D0000C94000008958150823108F05AC0E82F30
:1006E000F0E08827E958FC4F8F4F0C94730C970368
:1006F0009B0389038F039303C9039E03A403A803E9
:10070000AE03B203B603BC03C003C903C403CA03E8
:10071000CE03809180008F77809380000895809130
:1007200080008F7DF9CF80918000877FF5CF84B5E1
:100730008F7784BD089584B58F7DFBCF8091B00005
:100740008F778093B00008958091B0008F7DF9CFAE
:10075000809190008F778093900008958091900011
:100760008F7DF9CF80919000877FF5CF8091A00099
:100770008F778093A00008958091A0008F7DF9CF9E
:100780008091A000877FF5CF809120018F778093A3
:1007900020010895809120018F7DF9CF8091200163
:1007A000877FF5CFCF93DF93282F30E0F901E25D0B
:1007B000FD4F8491F901E851FE4FD491F901EE55B6
:1007C000FE4FC491CC23A1F081110E946B03EC2F4A
:1007D000F0E0EE0FFF1FE857FE4FA591B491EC91AA
:1007E000ED2381E090E009F480E0DF91CF9108955E
:1007F00080E090E0FACF862F0C94D2031F93CF9322
:10080000DF93282F30E0F901E25DFD4F8491F9017B
:10081000E851FE4FD491F901EE55FE4FC491CC231F
:10082000A9F0162F81110E946B03EC2FF0E0EE0F60
:10083000FF1FE259FE4FA591B4918FB7F894EC9148
:10084000111108C0D095DE23DC938FBFDF91CF91CB
:100850001F910895DE2BF8CF862F642F0C94FE0392
:10086000CF93DF9390E0FC01E851FE4F24918E5529
:100870009E4FFC0184918823C9F090E0880F991F56
:10088000FC01EC5AFE4FA591B491FC01E259FE4FD8
:10089000C591D49161110DC09FB7F8948C912095AA
:1008A00082238C938881282328839FBFDF91CF9157
:1008B0000895623051F49FB7F8943C91822F80954F
:1008C00083238C93E8812E2BEFCF8FB7F894EC9194
:1008D0002E2B2C938FBFEACF862F642F0C943004DD
:1008E000AF92BF92CF92DF92EF92FF920F931F933E
:1008F000CF93DF936B017A01EC01C85CDD4F288157
:100900003CE0389F8001399F100D1124A0907E0398
:10091000B12C27FF1FC0FB011182108288818F5FDD
:10092000888388819801280F311D87FD3A95F6014B
:100930002A153B051CF488818C30C4F1808191819B
:10094000049680349C4908F473C0F601808191813B
:10095000049670C088819801280F311D87FD3A9553
:100960002A153B05DCF68881A801480F511D87FD3B
:100970005A95FA01EE0FFF1FE40FF51FE251FD4FEC
:10098000808186FFCBCF8881F801E80FF11D87FDBC
:10099000FA95CF01EE0FFF1FE80FF91FE251FD4F4F
:1009A000808160E08F730E94FE03B8CF80819181C7
:1009B0002881A801420F511D27FD5A959A01FA017D
:1009C000EE0FFF1FE20FF31FE251FD4F2181328135
:1009D000820F931FF7019183808388819801280FEC
:1009E000311D87FD3A95F901EE0FFF1FE20FF31F4E
:1009F000E251FD4F808186FF22C08881080F111DC2
:100A000087FD1A95F801EE0FFF1FE00FF11FE2516D
:100A1000FD4F808161E08F73DF91CF911F910F9126
:100A2000FF90EF90DF90CF90BF90AF900C94FE03BB
:100A300080E49CE9F701918380838FEF8883DF91C5
:100A4000CF911F910F91FF90EF90DF90CF90BF90CB
:100A5000AF9008951F920F920FB60F9211240BB60C
:100A60000F922F933F934F935F936F937F938F9347
:100A70009F93AF93BF93EF93FF9381E592E00E9422
:100A8000AB02FF91EF91BF91AF919F918F917F91B9
:100A90006F915F914F913F912F910F900BBE0F90EF
:100AA0000FBE0F901F9018951F920F920FB60F92C6
:100AB00011240BB60F922F938F939F93EF93FF9375
:100AC000E0916102F09162028081E0916702F09111
:100AD000680282FD1DC0908180916A028F5F8F73D2
:100AE00020916B02821741F0E0916A02F0E0EF5A28
:100AF000FD4F958F80936A02FF91EF919F918F91A7
:100B00002F910F900BBE0F900FBE0F901F90189556
:100B10008081F2CF1F920F920FB60F9211242F9364
:100B20003F938F939F93AF93BF9380914D0290918A
:100B30004E02A0914F02B09150023091400223E04A
:100B4000230F2D3758F50196A11DB11D20934002AA
:100B500080934D0290934E02A0934F02B0935002A7
:100B600080913C0290913D02A0913E02B0913F02E3
:100B70000196A11DB11D80933C0290933D02A0936C
:100B80003E02B0933F02BF91AF919F918F913F91F1
:100B90002F910F900FBE0F901F90189526E8230FEE
:100BA0000296A11DB11DD2CF1F920F920FB60F92C8
:100BB00011240BB60F922F933F934F935F936F9334
:100BC0007F938F939F93AF93BF93EF93FF9348E2ED
:100BD00051E064E271E090E080E00E947004FF91D7
:100BE000EF91BF91AF919F918F917F916F915F91A5
:100BF0004F913F912F910F900BBE0F900FBE0F9012
:100C00001F9018951F920F920FB60F9211240BB6DA
:100C10000F922F933F934F935F936F937F938F9395
:100C20009F93AF93BF93EF93FF9348EA50E064EA3A
:100C300070E083E090E00E947004FF91EF91BF911B
:100C4000AF919F918F917F916F915F914F913F9164
:100C50002F910F900BBE0F900FBE0F901F90189505
:100C60001F920F920FB60F9211240BB60F922F9373
:100C70003F934F935F936F937F938F939F93AF9324
:100C8000BF93EF93FF9348E950E064E970E082E09E
:100C900090E00E947004FF91EF91BF91AF919F91FE
:100CA0008F917F916F915F914F913F912F910F9015
:100CB0000BBE0F900FBE0F901F9018951F920F92B2
:100CC0000FB60F9211240BB60F922F933F934F93B1
:100CD0005F936F937F938F939F93AF93BF93EF93A4
:100CE000FF9348E850E064E870E081E090E00E9403
:100CF0007004FF91EF91BF91AF919F918F917F9180
:100D00006F915F914F913F912F910F900BBE0F907C
:100D10000FBE0F901F90189510925402109253021C
:100D200088EE93E0A0E0B0E08093550290935602E5
:100D3000A0935702B09358028CE192E09093520234
:100D40008093510285EC90E090935E0280935D0267
:100D500084EC90E09093600280935F0280EC90E0DE
:100D6000909362028093610281EC90E09093640220
:100D70008093630282EC90E0909366028093650218
:100D800086EC90E0909368028093670210926A026A
:100D900010926B0210926C0210926D0280917E0391
:100DA000803308F05DC091E0980F90937E038093AC
:100DB000EE0390E0FC01EE0FFF1FE80FF91FE25178
:100DC000FD4F88EB9BE09283818310928103109208
:100DD000850310928403109286038EE292E0909332
:100DE000800380937F03EBE9F3E010821482138287
:100DF0001582369683E0E73DF807B9F784E092E084
:100E00009093E2038093E10380E092E09093E40307
:100E10008093E30384E08093E5038093E60388E016
:100E200092E09093E0038093DF038AE090E0909358
:100E3000E8038093E70384EF91E09093EA038093C3
:100E4000E9031092ED031092EC031092DB03109271
:100E5000DC031092DD031092DE031092EB03089581
:100E60008FEF8093EE03B1CF789484B5826084BD18
:100E700084B5816084BD85B5826085BD85B581609E
:100E800085BD80916E00816080936E00109281001C
:100E900080918100826080938100809181008160D7
:100EA0008093810080918000816080938000809198
:100EB000B10084608093B1008091B0008160809324
:100EC000B0008091910082608093910080919100A8
:100ED0008160809391008091900081608093900068
:100EE0008091A10082608093A1008091A100816027
:100EF0008093A1008091A00081608093A0008091E8
:100F00002101826080932101809121018160809381
:100F100021018091200181608093200180917A00DD
:100F2000846080937A0080917A00826080937A0056
:100F300080917A00816080937A0080917A00806845
:100F400080937A001092C100E0916102F0916202F8
:100F500082E08083E0915D02F0915E021082E09178
:100F60005F02F09160028FEC808310926902E09141
:100F70006502F091660286E08083E0916302F09161
:100F80006402808180618083E0916302F091640259
:100F9000808188608083E0916302F09164028081A7
:100FA00080688083E0916302F091640280818F7D8C
:100FB00080838091EE03803308F052C061E089E0C5
:100FC0000E9430048091EE03282F30E0F901EE0FEB
:100FD000FF1FE20FF31FE251FD4F9081907C99605B
:100FE00090831092EF031092F0032CE0622F0E9486
:100FF000670C829FB001112430E020E0AB01420F6A
:10100000531FFA01EE0FFF1FE40FF51FE251FD4FD2
:10101000908196FD17C02F5F3F4F2C30310571F73F
:10102000813009F062C01092800082E080938100DC
:101030001092850010928400B19A80916F008260B6
:1010400080936F00E091EE038E2F90E0FC01EE0F95
:10105000FF1FE80FF91FE251FD4F808180648083FC
:1010600010924C0210924B02C12CD12C7601C394E9
:1010700058E6852E99249394A12CB12C21E020933D
:10108000EB038FB7F89440914D0250914E0260915E
:101090004F02709150028FBF8091DB039091DC036F
:1010A000A091DD03B091DE03481B590B6A0B7B0B4B
:1010B0008091E7039091E803B0E0A0E084179507E2
:1010C000A607B70708F03EC1C0E08091E503C81746
:1010D000C0F5E091E103F091E203EC0FF11D62E055
:1010E00080810E943004CF5FF0CF823061F4109293
:1010F000900080939100109295001092940088BB0C
:10110000809371009FCF833069F41092A00082E039
:101110008093A1001092A5001092A40089BB809337
:10112000720090CF81118ECF1092200182E08093C7
:10113000210110922501109224018ABB8093730033
:1011400081CF712C8091E603781608F060C0C72D1E
:10115000D0E0E091E303F091E403EC0FFD1F61E0C8
:1011600080810E943004E091E303F091E403EC0FEE
:10117000FD1F60E080810E94FE03D701C601072C9D
:1011800004C0880F991FAA1FBB1F0A94D2F71C0125
:101190002C0140945094612C8091E503681608F569
:1011A000062D10E0E091E103F091E203E00FF11F62
:1011B00080810E94D2030C5F1F4F000F111FF801A6
:1011C000E158FC4F892B41F4808191818229932938
:1011D000918380836394E0CF8081918184219521E4
:1011E000F7CFE091E303F091E403EC0FFD1F61E022
:1011F00080810E94FE038091E3039091E403C80F75
:10120000D91F60E088810E94300473949BCF0FE760
:1012100013E0E8018F8D98A1892B31F41C8E4FEFDC
:101220005FEF5E8F4D8F19A2269653E0CB3BD5071B
:1012300089F7612C8091E503681608F053C0712C82
:10124000862D90E0880F991FFC01E957FC4F2F0174
:101250002091E603721608F043C0F20160817181AB
:10126000072C02C0769567950A94E2F7629E90017A
:101270001124270D311DEFE7F3E080E0458D568DF9
:101280002417350709F4EBC08F5F36968A30B1F723
:1012900060FF24C0EFE7F3E090E080E0448D41116F
:1012A00018C0E091DF03F091E003E20FF31F4081EB
:1012B00056E0589FF001599FF00D1124E158FC4F62
:1012C000448F368F258F10A2178E61E00E94C701D0
:1012D00005C0019636968A30910501F77394B8CF10
:1012E0006394A8CF80E0F80191A19111892F0A5F42
:1012F0001F4FC017D107B9F79FB7F89440914D021F
:1013000050914E0260914F02709150029FBF4093E6
:10131000DB035093DC036093DD037093DE038823CB
:1013200089F08091A003882369F080919E039091B9
:101330009F03019739F4C0919B03C11106C00E941D
:101340003A039CCE1092EB03FACFC33469F442E027
:1013500050E064E372E081E592E00E94370210926F
:101360004C0210924B02EBCF6C2F81E592E00E9471
:10137000CD0280914B0290914C02FC01EF5BFD4F3E
:10138000CD3309F065C0CF01815492400A9714F41F
:101390001192F9CF81E492E00E94310A1092410249
:1013A000109242021092430210924402109245029F
:1013B000109246021092470210924802109249027F
:1013C00010924A02BC01990F880B990B10924C02A3
:1013D00010924B02643B710581059105D4F40E9483
:1013E0006E0B20E030E044E353E40E94C40A20E0A6
:1013F00030E04AEF53E40E94FA0B20E030E84BEB78
:1014000054E40E94580A0E94360BCB010E946E01E0
:1014100096CFA5019401261B370B480B590BCA0127
:10142000B9010E946E0B20E030E044E353E40E94D7
:10143000C40A20E030E04AEF53E40E94FA0B9B011B
:10144000AC0160E070E88BEB94E40E94570ADBCFBC
:10145000C083019690934C0280934B0270CF6170D1
:1014600035CFFC0188279927E89421912032E9F3B0
:10147000293010F02E30C8F32B3241F02D3239F4E0
:10148000689404C00E944F0A820F911D219120533D
:101490002A30C0F31EF4909581959F4F08957AE00D
:1014A000979F902D879F802D910D1124089550585E
:1014B000BB27AA270E946F0A0C94C00B0E94B20B94
:1014C00038F00E94B90B20F039F49F3F19F426F44C
:1014D0000C94AF0B0EF4E095E7FB0C94A90BE92FED
:1014E0000E94D10B58F3BA17620773078407950758
:1014F00020F079F4A6F50C94F30B0EF4E0950B2E86
:10150000BA2FA02D0B01B90190010C01CA01A00155
:101510001124FF27591B99F0593F50F4503E68F1B0
:101520001A16F040A22F232F342F4427585FF3CFF1
:10153000469537952795A795F0405395C9F77EF4C2
:101540001F16BA0B620B730B840BBAF09150A1F00B
:10155000FF0FBB1F661F771F881FC2F70EC0BA0F91
:10156000621F731F841F48F4879577956795B79519
:10157000F7959E3F08F0B0CF9395880F08F0992714
:10158000EE0F9795879508950E94D80A0C94C00B8A
:101590000E94B90B58F00E94B20B40F029F45F3F53
:1015A00029F00C94A90B51110C94F40B0C94AF0B73
:1015B0000E94D10B68F39923B1F3552391F3951B46
:1015C000550BBB27AA2762177307840738F09F5F64
:1015D0005F4F220F331F441FAA1FA9F335D00E2ED1
:1015E0003AF0E0E832D091505040E695001CCAF73E
:1015F0002BD0FE2F29D0660F771F881FBB1F261701
:1016000037074807AB07B0E809F0BB0B802DBF01D7
:10161000FF2793585F4F3AF09E3F510578F00C94A6
:10162000A90B0C94F40B5F3FE4F3983ED4F386953A
:1016300077956795B795F7959F5FC9F7880F911DC7
:101640009695879597F90895E1E0660F771F881FB3
:10165000BB1F621773078407BA0720F0621B730B66
:10166000840BBA0BEE1F88F7E09508950E943D0B9E
:101670006894B1110C94F40B08950E94D90B88F072
:101680009F5798F0B92F9927B751B0F0E1F0660F46
:10169000771F881F991F1AF0BA95C9F714C0B13087
:1016A00091F00E94F30BB1E008950C94F30B672FB7
:1016B000782F8827B85F39F0B93FCCF386957795B6
:1016C0006795B395D9F73EF490958095709561959F
:1016D0007F4F8F4F9F4F0895E89409C097FB3EF4CA
:1016E00090958095709561957F4F8F4F9F4F99236F
:1016F000A9F0F92F96E9BB279395F69587957795ED
:101700006795B795F111F8CFFAF4BB0F11F460FFAC
:101710001BC06F5F7F4F8F4F9F4F16C0882311F004
:1017200096E911C0772321F09EE8872F762F05C018
:10173000662371F096E8862F70E060E02AF09A95B3
:10174000660F771F881FDAF7880F9695879597F9A8
:10175000089597F99F6780E870E060E008959FEF33
:1017600080EC089500240A94161617061806090638
:10177000089500240A941216130614060506089507
:10178000092E0394000C11F4882352F0BB0F40F48F
:10179000BF2B11F460FF04C06F5F7F4F8F4F9F4FCF
:1017A000089557FD9058440F551F59F05F3F71F051
:1017B0004795880F97FB991F61F09F3F79F08795B8
:1017C0000895121613061406551FF2CF4695F1DF41
:1017D00008C0161617061806991FF1CF86957105D1
:1017E000610508940895E894BB2766277727CB0105
:1017F00097F908950E940D0C0C94C00B0E94B20B37
:1018000038F00E94B90B20F0952311F00C94A90B2D
:101810000C94AF0B11240C94F40B0E94D10B70F3B9
:10182000959FC1F3950F50E0551F629FF001729F85
:10183000BB27F00DB11D639FAA27F00DB11DAA1F94
:10184000649F6627B00DA11D661F829F2227B00DE1
:10185000A11D621F739FB00DA11D621F839FA00D6C
:10186000611D221F749F3327A00D611D231F849FBC
:10187000600D211D822F762F6A2F11249F57504013
:101880009AF0F1F088234AF0EE0FFF1FBB1F661F8E
:10189000771F881F91505040A9F79E3F510580F057
:1018A0000C94A90B0C94F40B5F3FE4F3983ED4F333
:1018B000869577956795B795F795E7959F5FC1F7FB
:1018C000FE2B880F911D9695879597F90895991B82
:1018D00079E004C0991F961708F0961B881F7A9527
:1018E000C9F780950895EE0FFF1F881F8BBF0790E3
:1018F000F691E02D1994F894FFCF1F212325171995
:101900001B1D3738392F3435362A3132332D4330C9
:101910003D2B00000000CD02370264021A0395023D
:1019200073028702000000006C042C04FB030D0A04
:021930000000B5
:10E000000D9489F10D94B2F10D94B2F10D94B2F129
:10E010000D94B2F10D94B2F10D94B2F10D94B2F1F0
:10E020000D94B2F10D94B2F10D94B2F10D94B2F1E0
:10E030000D94B2F10D94B2F10D94B2F10D94B2F1D0
:10E040000D94B2F10D94B2F10D94B2F10D94B2F1C0
:10E050000D94B2F10D94B2F10D94B2F10D94B2F1B0
:10E060000D94B2F10D94B2F10D94B2F10D94B2F1A0
:10E070000D94B2F10D94B2F10D94B2F10D94B2F190
:10E080000D94B2F10D94B2F10D94B2F10D94B2F180
:10E090000D94B2F10D94B2F10D94B2F10D94B2F170
:10E0A0000D94B2F10D94B2F10D94B2F10D94B2F160
:10E0B0000D94B2F10D94B2F10D94B2F10D94B2F150
:10E0C0000D94B2F10D94B2F10D94B2F10D94B2F140
:10E0D0000D94B2F10D94B2F10D94B2F10D94B2F130
:10E0E0000D94B2F141546D656761323536300041AF
:10E0F000726475696E6F206578706C6F72657220DE
:10E1000073746B3530305632206279204D4C530099
:10E11000426F6F746C6F616465723E004875683F52
:10E1200000436F6D70696C6564206F6E203D200048
:10E130004350552054797065202020203D20005FF9
:10E140005F4156525F415243485F5F3D2000415658
:10E1500052204C696243205665723D20004743437C
:10E160002056657273696F6E203D20004350552024
:10E1700049442020202020203D20004C6F7720663D
:10E18000757365202020203D20004869676820665F
:10E190007573652020203D200045787420667573D6
:10E1A00065202020203D20004C6F636B2066757336
:10E1B000652020203D20004D617220203720323024
:10E1C000313300312E362E3800342E332E350056A2
:10E1D00023202020414444522020206F7020636F70
:10E1E00064652020202020696E73747275637469E1
:10E1F0006F6E2061646472202020496E74657272B3
:10E20000757074006E6F20766563746F7200726A49
:10E210006D702020006A6D70200057686174207056
:10E220006F72743A00506F7274206E6F7420737541
:10E2300070706F72746564004D7573742062652030
:10E2400061206C6574746572002000577269747483
:10E25000696E672045450052656164696E672045B7
:10E26000450045452065727220636E743D00504F35
:10E27000525400303D5A65726F2061646472003FF1
:10E280003D43505520737461747300403D454550C3
:10E29000524F4D207465737400423D426C696E6B41
:10E2A000204C454400453D44756D70204545505215
:10E2B0004F4D00463D44756D7020464C415348001B
:10E2C000483D48656C70004C3D4C69737420492F83
:10E2D0004F20506F72747300513D51756974005234
:10E2E0003D44756D702052414D00563D73686F7707
:10E2F00020696E7465727275707420566563746FF0
:10E30000727300593D506F727420626C696E6B00BD
:10E310002A0011241FBECFEFD1E2DEBFCDBF01E046
:10E320000CBF12E0A0E0B2E0EEE1FDEF03E00BBFB6
:10E3300002C007900D92A030B107D9F712E0A0E01B
:10E34000B2E001C01D92AE30B107E1F70F9460F367
:10E350000D948DFE01E20EBF0FEF0DBF11241FBE05
:10E360000D9460F30D9400F020E030E040ED57E0B4
:10E3700005C0FA013197F1F72F5F3F4F2817390792
:10E38000C0F308959C01260F311DC901A0E0B0E043
:10E390002F5F3F4FABBFFC018791882361F08093D3
:10E3A000C6008091C00086FFFCCF8091C0008064D1
:10E3B0008093C000EACF08958DE08093C6008091DD
:10E3C000C00086FFFCCF8091C00080648093C000B5
:10E3D0008AE08093C6008091C00086FFFCCF8091C8
:10E3E000C00080648093C00008950F94C2F10F9420
:10E3F000DCF10895FC019081992359F09093C600B7
:10E400008091C00086FFFCCF8091C0008064809323
:10E41000C0003196992379F70895282F982F929567
:10E420009F70892F805D8A3308F0895F8093C600D2
:10E430008091C00086FFFCCF8091C00080648093F3
:10E44000C000822F8F70982F905D9A3308F0995FEB
:10E450009093C6008091C00086FFFCCF8091C000E1
:10E4600080648093C00008959C01FB01853691056E
:10E470001CF46330710594F0C90164E670E00F94F8
:10E480002EFE605D7F4F6093C6008091C00086FFC6
:10E49000FCCF8091C00080648093C0002B30310598
:10E4A00014F43297B4F0C90164E670E00F942EFEC4
:10E4B0006AE070E00F942EFE605D7F4F6093C600AF
:10E4C0008091C00086FFFCCF8091C0008064809363
:10E4D000C000C9016AE070E00F942EFEC0968093E0
:10E4E000C6008091C00086FFFCCF8091C000806490
:10E4F0008093C00008951F93182F8EE692EE60E07F
:10E500000F94C2F11093C6008091C00086FFFCCF2B
:10E510008091C00080648093C0000F94DCF11F9153
:10E5200008952F923F924F925F926F927F928F92B7
:10E530009F92AF92BF92CF92DF92EF92FF920F9392
:10E540001F93DF93CF93CDB7DEB762970FB6F894E2
:10E55000DEBF0FBECDBF382E622ECA01DB015C01CB
:10E560006D01772420E2222E2E010894411C511CBB
:10E570008BC081E0A81680E0B80681E0C80680E084
:10E58000D80628F0C601AA27BB270F940DF2BB2797
:10E59000AD2D9C2D8B2D0F940DF28A2D0F940DF225
:10E5A0002092C6008091C00086FFFCCF8091C00001
:10E5B00080648093C0009DE29093C6008091C0006B
:10E5C00086FFFCCF8091C00080648093C0002092C1
:10E5D000C6008091C00086FFFCCF8091C00080649F
:10E5E0008093C00019828601750188249924A1E0D6
:10E5F0003A1651F03A1620F0B2E03B1661F409C029
:10E600000BBFF701779007C0C7010F9477FE782EF4
:10E6100002C0F7017080872D0F940DF22092C60082
:10E620008091C00086FFFCCF8091C0008064809301
:10E63000C000872D8052F401EF70F0708F3520F408
:10E64000E40DF51D708204C0E40DF51D8EE280839B
:10E650000894E11CF11C011D111D0894811C911CE2
:10E6600090E18916910409F0C2CF80E190E0A0E02A
:10E67000B0E0A80EB91ECA1EDB1E198AC2010F9493
:10E68000FAF10F94DCF16A94662009F072CF629679
:10E690000FB6F894DEBF0FBECDBFCF91DF911F91B3
:10E6A0000F91FF90EF90DF90CF90BF90AF909F9031
:10E6B0008F907F906F905F904F903F902F90089534
:10E6C0002F923F924F925F926F927F928F929F9282
:10E6D000AF92BF92CF92DF92EF92FF920F931F9370
:10E6E000DF93CF93CDB7DEB7CD53D1400FB6F894BB
:10E6F000DEBF0FBECDBF01E20EBF0FEF0DBF94B75F
:10E70000F894A89514BE80916000886180936000A1
:10E7100010926000789493FF05C0E0910002F091A0
:10E7200001021995279A2F9A8091C00082608093E8
:10E73000C00080E18093C40088E18093C1000000A4
:10E74000EE24FF24870144E0A42EB12CCC24DD2448
:10E7500024C0C5010197F1F70894E11CF11C011DCB
:10E76000111D21E2E2162EE4F20620E0020720E06D
:10E77000120718F031E0C32ED12CC801B70127ECE5
:10E780003BE140E050E00F9441FE611571058105C9
:10E79000910519F485B1805885B98091C00087FD35
:10E7A00003C0C114D104A9F2A6014F5F5F4FC25E3E
:10E7B000DE4F59834883CE51D140C25EDE4F8881FF
:10E7C0009981CE51D140019711F00D9410FEC05D9A
:10E7D000DE4F19821882C053D14060E0C15DDE4F28
:10E7E0001882CF52D14088249924C35DDE4F19820C
:10E7F0001882CD52D140C05EDE4F188219821A8233
:10E800001B82C052D140CE5CDE4F188219821A8220
:10E810001B82C253D140EE24FF2487010BBFF701B6
:10E8200007911691C45CDE4F19830883CC53D14005
:10E830000D940BFEC25EDE4F28813981CE51D1404E
:10E840002130310509F52091C600C25EDE4F1982E4
:10E850001882CE51D14022C02F5F3F4F4F4F5F4FA4
:10E86000213082E138078AE7480780E0580780F0C6
:10E87000C45CDE4FE881F981CC53D140EF5FFF4F9C
:10E8800019F0EE27FF27099420E030E040E050E047
:10E890008091C00087FFE0CF2091C600C35DDE4FAE
:10E8A00048815981CD52D1404F5F5F4FC35DDE4FEC
:10E8B00059834883CD52D140213209F063C64A3092
:10E8C000510508F05FC60894811C911C53E0851621
:10E8D000910409F059C600E010E018C081E280936D
:10E8E000C6008091C00086FFFCCF8091C00080648C
:10E8F0008093C0002F5F3F4F2931310579F70F9486
:10E90000DCF10F5F1F4F0530110519F020E030E0FA
:10E91000E5CF10920A0210920B0210920C02109294
:10E920000D02109206021092070210920802109235
:10E930000902109202021092030210920402109235
:10E9400005028FEE90EE60E00F94F5F180E191EE1C
:10E9500060E00F94C2F18091C00087FFFCCF9091DE
:10E96000C600903608F09F759032B8F09093C600BC
:10E970008091C00086FFFCCF8091C00080648093AE
:10E98000C000A0E2A093C6008091C00086FFFCCF2B
:10E990008091C00080648093C000983409F4D7C18E
:10E9A0009934B8F4923409F459C1933458F490333B
:10E9B00019F1903308F4E3C59F33A1F1903409F0C5
:10E9C000DEC5BDC0953409F470C1963409F0D7C5D1
:10E9D00098C1923509F42BC2933538F49C3409F46C
:10E9E000F5C1913509F0CBC518C2963509F445C279
:10E9F000993509F0C4C567C483E792EE62E00F94CD
:10EA0000F5F110920602109207021092080210927D
:10EA1000090210920A0210920B0210920C0210923C
:10EA20000D0213C18FE792EE62E00F94F5F18FEEC5
:10EA300090EE60E00F94F5F181E291EE60E00F94CA
:10EA4000C2F187EB91EE60E00F94F5F180E391EE77
:10EA500060E00F94C2F184EE90EE60E00F94F5F167
:10EA60008FE391EE60E00F94C2F186E090E061E008
:10EA700070E00F9434F20F94DCF18DE591EE60E0DC
:10EA80000F94C2F189EC91EE60E00F94F5F18EE401
:10EA900091EE60E00F94C2F183EC91EE60E00F9490
:10EAA000F5F18CE691EE60E00F94C2F18EE10F94E7
:10EAB0000DF288E90F940DF281E00F940DF20F949E
:10EAC000DCF18BE791EE60E00F94C2F119E0E0E039
:10EAD000F0E010935700E4918E2F0F940DF20F94F5
:10EAE000DCF18AE891EE60E00F94C2F1E3E0F0E03F
:10EAF00010935700E4918E2F0F940DF20F94DCF1D8
:10EB000089E991EE60E00F94C2F1E2E0F0E0109349
:10EB10005700E4918E2F0F940DF20F94DCF188EAE8
:10EB200091EE60E00F94C2F1E1E0F0E01093570045
:10EB30001491812F0F940DF20F94DCF107CF8BE825
:10EB400092EE62E00F94F5F18BE492EE60E00F94A8
:10EB5000F5F10F94DCF100E010E019C0C8016F2D51
:10EB60000F947FFEFF2031F489E492EE60E00F9471
:10EB7000C2F10BC0F092C6008091C00086FFFCCFAE
:10EB80008091C00080648093C0000F5F1F4FC80158
:10EB900081519F41A0E0B0E0ABBFFC01F790BAE229
:10EBA000FB1621F0E2E000301E07C1F60F94DCF105
:10EBB0000F94DCF187E592EE60E00F94F5F10F948D
:10EBC000DCF1CC24DD2400E010E01EC0C8010F946D
:10EBD00077FEF82E882331F489E492EE60E00F94FA
:10EBE000C2F10BC08093C6008091C00086FFFCCFAD
:10EBF0008091C00080648093C000FE1419F00894D6
:10EC0000C11CD11C0F5F1F4FC80181519F41A0E063
:10EC1000B0E0ABBFFC01E790FAE2EF1621F022E092
:10EC20000030120799F60F94DCF10F94DCF182E6C4
:10EC300092EE60E00F94C2F1C60161E070E00F94C3
:10EC400034F20F94DCF10F94DCF110920202109276
:10EC50000302109204021092050278CE89E992EE26
:10EC600062E00F94F5F1279A2F9A16C02F9880E052
:10EC700090E0E0EDF7E03197F1F7019684369105E9
:10EC8000C1F72F9A80E090E0E0EDF7E03197F1F7DF
:10EC9000019684369105C1F78091C00087FFE6CFC9
:10ECA0008091C00087FFFCCF64C485EA92EE62E0E9
:10ECB0000F94F5F140910202509103026091040219
:10ECC0007091050281E020E10F9491F2809102029F
:10ECD00090910302A0910402B091050280509F4FD1
:10ECE000AF4FBF4F8093020290930302A0930402A0
:10ECF000B093050280509041A040B04008F426CE69
:10ED0000A4CF83EB92EE62E00F94F5F140910602FE
:10ED100050910702609108027091090280E020E1A1
:10ED20000F9491F28091060290910702A09108023F
:10ED3000B091090280509F4FAF4FBF4F80930602A2
:10ED400090930702A0930802B0930902FFCD80ECD4
:10ED500092EE62E00F94F5F183E792EE60E00F949B
:10ED6000F5F18FE792EE60E00F94F5F18BE892EE0B
:10ED700060E00F94F5F189E992EE60E00F94F5F10F
:10ED800085EA92EE60E00F94F5F183EB92EE60E09D
:10ED90000F94F5F180EC92EE60E00F94F5F187ECC2
:10EDA00092EE60E00F94F5F188ED92EE60E00F9442
:10EDB000F5F18FED92EE60E00F94F5F18AEE92EEB0
:10EDC00060E00F94F5F183E093EEBDCD87EC92EE19
:10EDD00062E00F94F5F181E40F947BF282E40F94EA
:10EDE0007BF283E40F947BF284E40F947BF285E45E
:10EDF0000F947BF286E40F947BF287E40F947BF20E
:10EE000088E40F947BF28AE40F947BF28BE40F94F6
:10EE10007BF28CE40F947BF299CD88ED92EE62E068
:10EE20000F94F5F1772473948824992409C48FED05
:10EE300092EE62E00F94F5F140910A0250910B02BC
:10EE400060910C0270910D0282E020E10F9491F22A
:10EE500080910A0290910B02A0910C02B0910D02D8
:10EE600080509F4FAF4FBF4F80930A0290930B0289
:10EE7000A0930C02B0930D0269CD8AEE92EE62E08F
:10EE80000F94F5F184EE90EE60E00F94F5F18FECC5
:10EE900091EE60E00F94F5F1662477244301CC5D98
:10EEA000DE4F19821882C452D140D401C301B695F5
:10EEB000A79597958795CA5DDE4F88839983AA8326
:10EEC000BB83C652D140CC5DDE4FA881B981C4520C
:10EED000D1401196CC5DDE4FB983A883C452D14096
:10EEE000CD0162E070E00F9434F2B0E2B093C6005E
:10EEF0008091C00086FFFCCF8091C0008064809329
:10EF0000C000EDE2E093C6008091C00086FFFCCF18
:10EF10008091C00080648093C000F0E2F093C6004E
:10EF20008091C00086FFFCCF8091C00080648093F8
:10EF3000C000CA5DDE4FE880F9800A811B81C6529D
:10EF4000D140BB27A12F902F8F2D0F940DF2CA5DBA
:10EF5000DE4F8881C652D1400F940DF2B0E2FB2EF5
:10EF6000F092C6008091C00086FFFCCF8091C00067
:10EF700080648093C0000DE30093C6008091C000C0
:10EF800086FFFCCF8091C00080648093C00010E2B7
:10EF90001093C6008091C00086FFFCCF8091C00016
:10EFA00080648093C0008BBEF3012791C65DDE4F65
:10EFB0002883CA52D140A22EBB24CC24DD2408943D
:10EFC000611C711C811C911C8BBEF3018791282E42
:10EFD0003324442455240894611C711C811C911C09
:10EFE0008BBEF3013791C55DDE4F3883CB52D140E4
:10EFF0000894611C711C811C911C8BBEF30147910C
:10F00000C45DDE4F4883CC52D140ADEFEA2EAFEF66
:10F01000FA2EAFEF0A2FAFEF1A2F6E0C7F1C801E57
:10F02000911E142D032DF22CEE24EA0CFB1C0C1D5A
:10F030001D1D0F940DF220E22093C6008091C000A8
:10F0400086FFFCCF8091C00080648093C000C65DC5
:10F05000DE4F8881CA52D1400F940DF230E23093D6
:10F06000C6008091C00086FFFCCF8091C000806404
:10F070008093C000C45DDE4F8881CC52D1400F9494
:10F080000DF240E24093C6008091C00086FFFCCFA5
:10F090008091C00080648093C000C55DDE4F888190
:10F0A000CB52D1400F940DF250E25093C6008091A4
:10F0B000C00086FFFCCF8091C00080648093C000B8
:10F0C0008FEFE8168FEFF80680E0080780E018075A
:10F0D00031F484E092EE60E00F94C2F1DFC0D80119
:10F0E000C7018070907CA070B0708050904CA040A0
:10F0F000B040D1F52FEF3FE340E050E0E222F322B1
:10F1000004231523CA5DDE4FA880B980CA80DB8046
:10F11000C652D140AE0CBF1CC01ED11EAA0CBB1CD7
:10F12000CC1CDD1C8EE092EE60E00F94C2F1BB2798
:10F13000A12F902F8F2D0F940DF28E2D0F940DF285
:10F1400030E23093C6008091C00086FFFCCF8091F2
:10F15000C00080648093C0004EE34093C60080915D
:10F16000C00086FFFCCF87C08EE09EEFA0E0B0E03D
:10F17000E822F9220A231B239CE0E91694E9F90608
:10F1800090E0090790E0190709F088C0C45DDE4FE0
:10F19000A881CC52D140EA2EFF2400E010E0102FCD
:10F1A0000F2DFE2CEE24C55DDE4FB881CB52D14031
:10F1B000EB0EF11C011D111DD601C501817090706F
:10F1C000A070B070DC0199278827E80EF91E0A1F8D
:10F1D0001B1F20EF30E040E050E0A222B322C42207
:10F1E000D52241E1AA0CBB1CCC1CDD1C4A95D1F7F1
:10F1F000EA0CFB1C0C1D1D1D81E090E0A0E0B0E0BE
:10F20000282239224A225B2235E1220C331C441C7D
:10F21000551C3A95D1F7E20CF31C041D151D57013E
:10F220006801AA0CBB1CCC1CDD1C85E192EE60E0E1
:10F230000F94C2F1C801AA27BB270F940DF2BB2778
:10F24000A12F902F8F2D0F940DF28E2D0F940DF274
:10F2500090E29093C6008091C00086FFFCCF809121
:10F26000C00080648093C000AEE3A093C60080918C
:10F27000C00086FFFCCF8091C00080648093C000F6
:10F28000C601AA27BB270F940DF2BB27AD2D9C2DDD
:10F290008B2D0F940DF28A2D0F940DF20F94DCF14B
:10F2A000CC5DDE4FE881F981C452D140F99709F471
:10F2B0004DCBF4E0EF2EF12C012D112D6E0C7F1CA7
:10F2C000801E911EF2CD83E093EE62E00F94F5F183
:10F2D0008AE192EE60E00F94C2F18091C00087FF56
:10F2E000FCCF1091C6001F751093C6008091C0001E
:10F2F00086FFFCCF8091C00080648093C0000F9493
:10F30000DCF1812F81548A3108F036C1163409F4BA
:10F3100095C0173490F4133409F44EC0143430F40B
:10F320001134F1F0123409F01DC130C0143409F465
:10F3300059C0153409F016C16BC01A3409F4C4C0A1
:10F340001B3438F4173409F48FC0183409F00AC19B
:10F35000A1C01B3409F4D2C01C3409F003C1E8C0B9
:10F360008FEF81B90DC082B1809582B980E090E0C5
:10F37000E0EDF7E03197F1F70196883C9105C1F790
:10F380008091C00087FFEFCF12B8EFC08FEF84B934
:10F390000DC085B1809585B980E090E0E0EDF7E0A3
:10F3A0003197F1F70196883C9105C1F78091C00033
:10F3B00087FFEFCF15B8D9C08FEF87B90DC088B1DF
:10F3C000809588B980E090E0E0EDF7E03197F1F7C3
:10F3D0000196883C9105C1F78091C00087FFEFCF6F
:10F3E00018B8C3C08FEF8AB90DC08BB180958BB9A7
:10F3F00080E090E0E0EDF7E03197F1F70196883C8E
:10F400009105C1F78091C00087FFEFCF1BB8ADC059
:10F410008FEF8DB90DC08EB180958EB980E090E0F0
:10F42000E0EDF7E03197F1F70196883C9105C1F7DF
:10F430008091C00087FFEFCF1EB897C08FEF80BBD1
:10F440000DC081B3809581BB80E090E0E0EDF7E0F6
:10F450003197F1F70196883C9105C1F78091C00082
:10F4600087FFEFCF11BA81C08FEF83BB0DC084B38C
:10F47000809584BB80E090E0E0EDF7E03197F1F714
:10F480000196883C9105C1F78091C00087FFEFCFBE
:10F4900014BA6BC08FEF809301010FC080910201FD
:10F4A00080958093020180E090E0E0EDF7E03197F5
:10F4B000F1F70196883C9105C1F78091C00087FF64
:10F4C000EDCF1092020151C08FEF809304010FC065
:10F4D0008091050180958093050180E090E0E0ED4A
:10F4E000F7E03197F1F70196883C9105C1F78091DB
:10F4F000C00087FFEDCF1092050137C08FEF8093DA
:10F5000007010FC08091080180958093080180E079
:10F5100090E0E0EDF7E03197F1F70196883C910536
:10F52000C1F78091C00087FFEDCF109208011DC088
:10F530008FEF80930A010FC080910B01809580931B
:10F540000B0180E090E0E0EDF7E03197F1F70196F4
:10F55000883C9105C1F78091C00087FFEDCF1092E4
:10F560000B0103C085E292EEEEC98091C00087FFD7
:10F57000FCCF8091C600EAC988E392EEE4C98CE131
:10F5800091EEE1C988249924933011F1943028F444
:10F59000913089F09230B8F408C0953061F195301F
:10F5A000F0F0963009F048C043C02B3109F042C951
:10F5B00091E06BE13FC96227C15DDE4F2883CF52E6
:10F5C000D14092E037C9B22FA0E0622793E032C960
:10F5D000822F90E0A82BB92B622794E02BC92E3004
:10F5E00009F039C3622795E0C05DDE4F19821882A9
:10F5F000C053D1401FC9E1E0F0E0EC0FFD1FC05D3A
:10F60000DE4F08811981C053D140E00FF11F2083E4
:10F610000F5F1F4FC05DDE4F19830883C053D14079
:10F6200062270A171B0709F005C9D80196E002C92D
:10F63000261709F010C303C0973009F0FBC87724E0
:10F640009981933109F412C19431C8F4963009F4C8
:10F65000D8C0973050F4923009F406C1933009F4C1
:10F660006DC0913009F059C253C0913109F477C08F
:10F67000923108F0BBC0903109F04FC2F5C098310B
:10F6800009F487C0993150F4953109F4EFC09531F0
:10F6900008F4C6C1963109F040C2C2C19A3109F4DA
:10F6A0006CC09A3108F491C09B3109F45BC09D3164
:10F6B00009F033C29D81903359F48F81882311F46E
:10F6C0009EE11CC0813011F091E018C098E916C08D
:10F6D000892F807591F0903539F4E0E0F0E089E011
:10F6E0008093570094910AC0983539F4E3E0F0E034
:10F6F00089E080935700949101C090E01A821B82A8
:10F700008D818C831D829E831F8227E030E009C299
:10F710001A8288E08B8381E48C8386E58D8382E581
:10F720008E8389E48F8383E5888780E589878FE5E9
:10F730008A8782E38B872BE030E0F3C18A818139AD
:10F7400041F0823941F0803911F48FE005C080E04A
:10F7500003C082E001C08AE01A828B8344C0772410
:10F76000739482C08D81882311F48EE12CC0813086
:10F7700011F081E028C088E926C01A82E1E0F0E0BB
:10F7800089E08093570084918B831C8224E030E0D1
:10F79000C8C18B81803589F48C81883039F4E2E0EE
:10F7A000F0E089E08093570084910DC0E0E0F0E044
:10F7B00089E080935700849106C0E3E0F0E089E09F
:10F7C0008093570084911A82DFCF8D81836C99E0FA
:10F7D000E1E0F0E0082E90935700E89507B600FCB2
:10F7E000FDCF1A821B8223E030E09BC180EC8A832C
:10F7F000CE5CDE4F188219821A821B82C253D1401E
:10F800008EC18A8190E0A0E0B0E0582F44273327D2
:10F8100022278B8190E0A0E0B0E0DC0199278827C7
:10F82000282B392B4A2B5B2B8D8190E0A0E0B0E098
:10F83000282B392B4A2B5B2B8C8190E0A0E0B0E089
:10F84000BA2FA92F982F8827282B392B4A2B5B2BCF
:10F85000220F331F441F551FC05EDE4F288339839C
:10F860004A835B83C052D1401A8259C13A81C95C34
:10F87000DE4F3883C753D140CA5CDE4F1882C6536F
:10F88000D1408B81C82EDD24CA5CDE4F488159816E
:10F89000C653D140C42AD52A933109F082C0CE5C28
:10F8A000DE4F88819981AA81BB81C253D1408050AB
:10F8B000904CA340B04030F583E0CE5CDE4FE88052
:10F8C000F9800A811B81C253D140F70100935B008C
:10F8D00080935700E89507B600FCFDCFCE5CDE4F65
:10F8E000088119812A813B81C253D14000501F4FAA
:10F8F0002F4F3F4FCE5CDE4F088319832A833B8313
:10F90000C253D140C05EDE4F488159816A817B81FC
:10F91000C052D140DE011B9631E08C9111962C91A2
:10F9200011971296C75CDE4F2883C953D140C85C3B
:10F93000DE4F1882C853D14090E0C85CDE4FE881AA
:10F94000F981C853D1408E2B9F2B0C01FA01609393
:10F950005B0030935700E89511244E5F5F4F6F4F67
:10F960007F4F0EEFE02E0FEFF02ECE0CDF1CC114F8
:10F97000D10499F685E0C05EDE4F088119812A81A5
:10F980003B81C052D140F80120935B008093570027
:10F99000E89507B600FCFDCF81E180935700E8951C
:10F9A00035C0C05EDE4F88819981AA81BB81C0527B
:10F9B000D140B695A795979587957C018601ABE0D8
:10F9C000AA2EB12CAC0EBD1E0BC0D5016D915D01F0
:10F9D000C7010F947FFE0894E11CF11C01501040F8
:10F9E0000115110591F7A60160E070E0440F551F65
:10F9F000661F771FC05EDE4FE880F9800A811B8199
:10FA0000C052D1404E0D5F1D601F711F1A82C05E33
:10FA1000DE4F488359836A837B83C052D1407FC0C5
:10FA2000FA80C55CDE4FF882CB53D140C65CDE4F16
:10FA30001882CA53D1408B81C82EDD24C65CDE4FAC
:10FA400008811981CA53D140C02AD12A1A828981DA
:10FA5000BE016D5F7F4F843121F59601C05EDE4FA0
:10FA6000E880F9800A811B81C052D1400BBFF701A9
:10FA700087919691DB018C9311969C936E5F7F4FDB
:10FA8000D801C7010296A11DB11DC05EDE4F88835B
:10FA90009983AA83BB83C052D14022503040F1F6F3
:10FAA00036C0C05EDE4F288139814A815B81C052F9
:10FAB000D1400894C108D108760100E010E0089414
:10FAC000C11CD11C0894E11CF11C011D111DE20E8A
:10FAD000F31E041F151F21BDBB27A52F942F832FB5
:10FAE00082BD2F5F3F4F4F4F5F4FF89A80B5DB01CC
:10FAF0008D93BD012E153F054007510761F7C05E8C
:10FB0000DE4F288339834A835B83C052D1409601FC
:10FB10002D5F3F4FFB01108204C080EC8A8322E0FE
:10FB200030E08BE18093C6008091C00086FFFCCF5F
:10FB30008091C00080648093C000C15DDE4FF88179
:10FB4000CF52D140F093C6008091C00086FFFCCF19
:10FB50008091C00080648093C000432F3093C60022
:10FB60008091C00086FFFCCF8091C00080648093AC
:10FB7000C000922F2093C6008091C00086FFFCCF6A
:10FB80008091C00080648093C0008EE08093C600A6
:10FB90008091C00086FFFCCF8091C000806480937C
:10FBA000C00065E1C15DDE4FE880CF52D1406E25D7
:10FBB00069276427FE01319610C090819093C6009A
:10FBC0008091C00086FFFCCF31968091C000806498
:10FBD0008093C0006927215030402115310569F715
:10FBE0006093C6008091C00086FFFCCF8091C0006A
:10FBF00080648093C00085B1805885B9772081F4F6
:10FC0000C15DDE4F0881CF52D1400F5FC15DDE4F35
:10FC10000883CF52D14090E0A0E0B0E00D941AF4F8
:10FC200027982F9880E090E020ED37E0F901319798
:10FC3000F1F7019684369105C9F700008091C00064
:10FC40008D7F8093C00081E180935700E895EE2777
:10FC5000FF270994FFCF90E00D941AF497FB092E2B
:10FC600007260AD077FD04D02ED006D000201AF443
:10FC7000709561957F4F0895F6F7909581959F4F08
:10FC80000895A1E21A2EAA1BBB1BFD010DC0AA1FDD
:10FC9000BB1FEE1FFF1FA217B307E407F50720F0F5
:10FCA000A21BB30BE40BF50B661F771F881F991F70
:10FCB0001A9469F760957095809590959B01AC01B9
:10FCC000BD01CF010895AA1BBB1B51E107C0AA1FAC
:10FCD000BB1FA617B70710F0A61BB70B881F991FED
:10FCE0005A95A9F780959095BC01CD010895F99991
:10FCF000FECF92BD81BDF89A992780B50895262F31
:10FD0000F999FECF1FBA92BD81BD20BD0FB6F89400
:0EFD1000FA9AF99A0FBE01960895F894FFCF63
:00000001FF
