:100000000C943B010C946C010C946C010C946C01ED
:100010000C946C010C946C010C946C010C946C01AC
:100020000C946C010C946C010C946C010C946C019C
:100030000C946C010C946C010C946C010C946C018C
:100040000C946C010C945E060C946C010C946C0185
:100050000C946C010C946C010C946C010C948A054A
:100060000C946C010C9454050C942A050C946C01AE
:100070000C946C010C946C010C946C010C946C014C
:100080000C9430060C946C010C946C010C946C0173
:100090000C946C010C946C010C946C010C946C012C
:1000A0000C946C010C946C010C9402060C946C0181
:1000B0000C946C010C946C010C946C010C94D405A0
:1000C0000C946C010C946C010C946C010C946C01FC
:1000D0000C946C010C946C010C946C010C946C01EC
:1000E0000C946C010C941A030C94CA030C94CD026A
:1000F0000C9437020C94FB030C9464020C94B6032A
:100100000C9497030C94C9030C94CE030C948702AF
:100110000C94BC030C949B030C94B2030C94C40386
:100120000C948C060C94AE030C946C040C948F030A
:100130000C9489030C949E030C94A8030C949502D0
:100140000C94A4030C9473020C9493030C942C044D
:100150000C94C00300002100240027002A002D0079
:100160003000330001010000040107010A01000012
:100170002200250028002B002E003100340002014F
:100180000000050108010B010000200023002600EB
:1001900029002C002F00320000010000030106019D
:1001A00009010505050507050808080802020202FD
:1001B0000A0A080804040404010101010101010103
:1001C0000303030303030303040707070C0C0C0CCE
:1001D0000C0C0C0C020202020606060606060606B7
:1001E0000B0B0B0B0B0B0B0B010210202008081044
:1001F0002040102040800201020108040201010297
:10020000040810204080804020100804020180046F
:1002100002018040201008040201080402010102CA
:1002200004081020408001020408102040800000D3
:100230000A0B02090C0D0E08070304010000000060
:1002400000000000000000000000000000000000AE
:10025000000000000000000000001211100000006B
:10026000000000000000000000000000000000008E
:10027000000000008C0611241FBECFEFD1E2DEBFCC
:10028000CDBF00E00CBF12E0A0E0B2E0EAEFF8E181
:1002900000E00BBF02C007900D92A833B107D9F759
:1002A00023E0A8E3B2E001C01D92A13FB207E1F74D
:1002B00011E0CBE3D1E000E006C021970109802FD7
:1002C000FE010E94730CCA33D10780E00807A9F72A
:1002D0000E9434070C947B0C0C940000E091EE0318
:1002E000E03388F54091EF0328E830E0241B310922
:1002F00047FD3395220F331F220F331F82179307B9
:1003000084F04091F00328E532E0241B310947FDD9
:100310003395220F331F220F331F821793070CF4DC
:100320009C0122503109220F331F4FB7F8948E2FB2
:1003300090E0FC01EE0FFF1FE80FF91FE251FD4FA7
:10034000328321834FBF089596E0899FD001112405
:10035000A158BC4F90967C936E935F9791E09196D5
:100360009C939197E091EC03F091ED039091EB0356
:10037000992339F0309751F0811108C080919B0387
:100380001994309719F05C968C91FACF0895CF921A
:10039000DF92EF92FF920F931F9396E0899FF001F7
:1003A0001124E158FC4F11A2278D30A121303105D5
:1003B00051F178F02230310509F451C02330310574
:1003C00009F452C01F910F91FF90EF90DF90CF90F2
:1003D00008956623B9F361E070E00E94A4012FB78D
:1003E000F89480914D0290914E02A0914F02B091ED
:1003F00050022FBF8093D7039093D803A093D903C3
:10040000B093DA03DFCF9FB7F894C0904D02D0903D
:100410004E02E0904F02F09050029FBF0091D70330
:100420001091D8032091D9033091DA03C01AD10A70
:10043000E20AF30A0091E9031091EA0330E020E0B8
:100440000C151D052E053F0550F462E070E01F916C
:100450000F91FF90EF90DF90CF900C94A401611169
:10046000B1CF63E070E0F3CF70E060E0F0CFAF9227
:10047000BF92CF92DF92EF92FF920F931F93CF9391
:10048000DF936C017B018B01040F151FEB015E01F3
:10049000AE18BF08C017D10759F06991D601ED9188
:1004A000FC910190F081E02DC6011995892B79F717
:1004B000C501DF91CF911F910F91FF90EF90DF90D9
:1004C000CF90BF90AF900895FC01538D448D252FA0
:1004D00030E0842F90E0821B930B541710F0CF96DE
:1004E000089501970895FC01918D828D981761F010
:1004F000A28DAE0FBF2FB11D5D968C91928D9F5F27
:100500009F73928F90E008958FEF9FEF0895FC0105
:10051000918D828D981731F0828DE80FF11D858DB8
:1005200090E008958FEF9FEF0895FC01918D228D4B
:10053000892F90E0805C9F4F821B91098F739927D0
:10054000089581E592E00E94950221E0892B09F44B
:1005500020E0822F0895FC01A48DA80FB92FB11DB2
:10056000A35ABF4F2C91848D90E001968F739927E9
:10057000848FA689B7892C93A089B1898C918370C7
:1005800080648C93938D848D981306C00288F389C0
:10059000E02D80818F7D80830895EF92FF920F93ED
:1005A0001F93CF93DF93EC0181E0888F9B8D8C8D1F
:1005B00098131AC0E889F989808185FF15C09FB713
:1005C000F894EE89FF896083E889F98980818370D6
:1005D000806480839FBF81E090E0DF91CF911F9185
:1005E0000F91FF90EF900895F62E0B8D10E00F5FA6
:1005F0001F4F0F731127E02E8C8D8E110CC00FB67C
:1006000007FCFACFE889F989808185FFF5CFCE0113
:100610000E94AB02F1CFEB8DEC0FFD2FF11DE35AE1
:10062000FF4FF0829FB7F8940B8FEA89FB89808196
:100630008062CFCFCF93DF93EC01888D8823B9F010
:10064000AA89BB89E889F9898C9185FD03C08081DD
:1006500086FD0DC00FB607FCF7CF8C9185FFF2CF5A
:10066000808185FFEDCFCE010E94AB02E9CFDF9103
:10067000CF91089580E090E0892B29F00E94A1029B
:1006800081110E94000080E090E0892B49F080E019
:1006900090E0892B29F00E94000081110E94000047
:1006A00080E090E0892B49F080E090E0892B29F0F0
:1006B0000E94000081110E94000080E090E0892BE0
:1006C00049F080E090E0892B29F00E940000811120
:1006D0000C94000008958150823108F05AC0E82F30
:1006E000F0E08827E958FC4F8F4F0C94730C970368
:1006F0009B0389038F039303C9039E03A403A803E9
:10070000AE03B203B603BC03C003C903C403CA03E8
:10071000CE03809180008F77809380000895809130
:1007200080008F7DF9CF80918000877FF5CF84B5E1
:100730008F7784BD089584B58F7DFBCF8091B00005
:100740008F778093B00008958091B0008F7DF9CFAE
:10075000809190008F778093900008958091900011
:100760008F7DF9CF80919000877FF5CF8091A00099
:100770008F778093A00008958091A0008F7DF9CF9E
:100780008091A000877FF5CF809120018F778093A3
:1007900020010895809120018F7DF9CF8091200163
:1007A000877FF5CFCF93DF93282F30E0F901E25D0B
:1007B000FD4F8491F901E851FE4FD491F901EE55B6
:1007C000FE4FC491CC23A1F081110E946B03EC2F4A
:1007D000F0E0EE0FFF1FE857FE4FA591B491EC91AA
:1007E000ED2381E090E009F480E0DF91CF9108955E
:1007F00080E090E0FACF862F0C94D2031F93CF9322
:10080000DF93282F30E0F901E25DFD4F8491F9017B
:10081000E851FE4FD491F901EE55FE4FC491CC231F
:10082000A9F0162F81110E946B03EC2FF0E0EE0F60
:10083000FF1FE259FE4FA591B4918FB7F894EC9148
:10084000111108C0D095DE23DC938FBFDF91CF91CB
:100850001F910895DE2BF8CF862F642F0C94FE0392
:10086000CF93DF9390E0FC01E851FE4F24918E5529
:100870009E4FFC0184918823C9F090E0880F991F56
:10088000FC01EC5AFE4FA591B491FC01E259FE4FD8
:10089000C591D49161110DC09FB7F8948C912095AA
:1008A00082238C938881282328839FBFDF91CF9157
:1008B0000895623051F49FB7F8943C91822F80954F
:1008C00083238C93E8812E2BEFCF8FB7F894EC9194
:1008D0002E2B2C938FBFEACF862F642F0C943004DD
:1008E000AF92BF92CF92DF92EF92FF920F931F933E
:1008F000CF93DF936B017A01EC01C85CDD4F288157
:100900003CE0389F8001399F100D1124A0907E0398
:10091000B12C27FF1FC0FB011182108288818F5FDD
:10092000888388819801280F311D87FD3A95F6014B
:100930002A153B051CF488818C30C4F1808191819B
:10094000049680349C4908F473C0F601808191813B
:10095000049670C088819801280F311D87FD3A9553
:100960002A153B05DCF68881A801480F511D87FD3B
:100970005A95FA01EE0FFF1FE40FF51FE251FD4FEC
:10098000808186FFCBCF8881F801E80FF11D87FDBC
:10099000FA95CF01EE0FFF1FE80FF91FE251FD4F4F
:1009A000808160E08F730E94FE03B8CF80819181C7
:1009B0002881A801420F511D27FD5A959A01FA017D
:1009C000EE0FFF1FE20FF31FE251FD4F2181328135
:1009D000820F931FF7019183808388819801280FEC
:1009E000311D87FD3A95F901EE0FFF1FE20FF31F4E
:1009F000E251FD4F808186FF22C08881080F111DC2
:100A000087FD1A95F801EE0FFF1FE00FF11FE2516D
:100A1000FD4F808161E08F73DF91CF911F910F9126
:100A2000FF90EF90DF90CF90BF90AF900C94FE03BB
:100A300080E49CE9F701918380838FEF8883DF91C5
:100A4000CF911F910F91FF90EF90DF90CF90BF90CB
:100A5000AF9008951F920F920FB60F9211240BB60C
:100A60000F922F933F934F935F936F937F938F9347
:100A70009F93AF93BF93EF93FF9381E592E00E9422
:100A8000AB02FF91EF91BF91AF919F918F917F91B9
:100A90006F915F914F913F912F910F900BBE0F90EF
:100AA0000FBE0F901F9018951F920F920FB60F92C6
:100AB00011240BB60F922F938F939F93EF93FF9375
:100AC000E0916102F09162028081E0916702F09111
:100AD000680282FD1DC0908180916A028F5F8F73D2
:100AE00020916B02821741F0E0916A02F0E0EF5A28
:100AF000FD4F958F80936A02FF91EF919F918F91A7
:100B00002F910F900BBE0F900FBE0F901F90189556
:100B10008081F2CF1F920F920FB60F9211242F9364
:100B20003F938F939F93AF93BF9380914D0290918A
:100B30004E02A0914F02B09150023091400223E04A
:100B4000230F2D3758F50196A11DB11D20934002AA
:100B500080934D0290934E02A0934F02B0935002A7
:100B600080913C0290913D02A0913E02B0913F02E3
:100B70000196A11DB11D80933C0290933D02A0936C
:100B80003E02B0933F02BF91AF919F918F913F91F1
:100B90002F910F900FBE0F901F90189526E8230FEE
:100BA0000296A11DB11DD2CF1F920F920FB60F92C8
:100BB00011240BB60F922F933F934F935F936F9334
:100BC0007F938F939F93AF93BF93EF93FF9348E2ED
:100BD00051E064E271E090E080E00E947004FF91D7
:100BE000EF91BF91AF919F918F917F916F915F91A5
:100BF0004F913F912F910F900BBE0F900FBE0F9012
:100C00001F9018951F920F920FB60F9211240BB6DA
:100C10000F922F933F934F935F936F937F938F9395
:100C20009F93AF93BF93EF93FF9348EA50E064EA3A
:100C300070E083E090E00E947004FF91EF91BF911B
:100C4000AF919F918F917F916F915F914F913F9164
:100C50002F910F900BBE0F900FBE0F901F90189505
:100C60001F920F920FB60F9211240BB60F922F9373
:100C70003F934F935F936F937F938F939F93AF9324
:100C8000BF93EF93FF9348E950E064E970E082E09E
:100C900090E00E947004FF91EF91BF91AF919F91FE
:100CA0008F917F916F915F914F913F912F910F9015
:100CB0000BBE0F900FBE0F901F9018951F920F92B2
:100CC0000FB60F9211240BB60F922F933F934F93B1
:100CD0005F936F937F938F939F93AF93BF93EF93A4
:100CE000FF9348E850E064E870E081E090E00E9403
:100CF0007004FF91EF91BF91AF919F918F917F9180
:100D00006F915F914F913F912F910F900BBE0F907C
:100D10000FBE0F901F90189510925402109253021C
:100D200088EE93E0A0E0B0E08093550290935602E5
:100D3000A0935702B09358028CE192E09093520234
:100D40008093510285EC90E090935E0280935D0267
:100D500084EC90E09093600280935F0280EC90E0DE
:100D6000909362028093610281EC90E09093640220
:100D70008093630282EC90E0909366028093650218
:100D800086EC90E0909368028093670210926A026A
:100D900010926B0210926C0210926D0280917E0391
:100DA000803308F05DC091E0980F90937E038093AC
:100DB000EE0390E0FC01EE0FFF1FE80FF91FE25178
:100DC000FD4F88EB9BE09283818310928103109208
:100DD000850310928403109286038EE292E0909332
:100DE000800380937F03EBE9F3E010821482138287
:100DF0001582369683E0E73DF807B9F784E092E084
:100E00009093E2038093E10380E092E09093E40307
:100E10008093E30384E08093E5038093E60388E016
:100E200092E09093E0038093DF038AE090E0909358
:100E3000E8038093E70384EF91E09093EA038093C3
:100E4000E9031092ED031092EC031092DB03109271
:100E5000DC031092DD031092DE031092EB03089581
:100E60008FEF8093EE03B1CF789484B5826084BD18
:100E700084B5816084BD85B5826085BD85B581609E
:100E800085BD80916E00816080936E00109281001C
:100E900080918100826080938100809181008160D7
:100EA0008093810080918000816080938000809198
:100EB000B10084608093B1008091B0008160809324
:100EC000B0008091910082608093910080919100A8
:100ED0008160809391008091900081608093900068
:100EE0008091A10082608093A1008091A100816027
:100EF0008093A1008091A00081608093A0008091E8
:100F00002101826080932101809121018160809381
:100F100021018091200181608093200180917A00DD
:100F2000846080937A0080917A00826080937A0056
:100F300080917A00816080937A0080917A00806845
:100F400080937A001092C100E0916102F0916202F8
:100F500082E08083E0915D02F0915E021082E09178
:100F60005F02F09160028FEC808310926902E09141
:100F70006502F091660286E08083E0916302F09161
:100F80006402808180618083E0916302F091640259
:100F9000808188608083E0916302F09164028081A7
:100FA00080688083E0916302F091640280818F7D8C
:100FB00080838091EE03803308F052C061E089E0C5
:100FC0000E9430048091EE03282F30E0F901EE0FEB
:100FD000FF1FE20FF31FE251FD4F9081907C99605B
:100FE00090831092EF031092F0032CE0622F0E9486
:100FF000670C829FB001112430E020E0AB01420F6A
:10100000531FFA01EE0FFF1FE40FF51FE251FD4FD2
:10101000908196FD17C02F5F3F4F2C30310571F73F
:10102000813009F062C01092800082E080938100DC
:101030001092850010928400B19A80916F008260B6
:1010400080936F00E091EE038E2F90E0FC01EE0F95
:10105000FF1FE80FF91FE251FD4F808180648083FC
:1010600010924C0210924B02C12CD12C7601C394E9
:1010700058E6852E99249394A12CB12C21E020933D
:10108000EB038FB7F89440914D0250914E0260915E
:101090004F02709150028FBF8091DB039091DC036F
:1010A000A091DD03B091DE03481B590B6A0B7B0B4B
:1010B0008091E7039091E803B0E0A0E084179507E2
:1010C000A607B70708F03EC1C0E08091E503C81746
:1010D000C0F5E091E103F091E203EC0FF11D62E055
:1010E00080810E943004CF5FF0CF823061F4109293
:1010F000900080939100109295001092940088BB0C
:10110000809371009FCF833069F41092A00082E039
:101110008093A1001092A5001092A40089BB809337
:10112000720090CF81118ECF1092200182E08093C7
:10113000210110922501109224018ABB8093730033
:1011400081CF712C8091E603781608F060C0C72D1E
:10115000D0E0E091E303F091E403EC0FFD1F61E0C8
:1011600080810E943004E091E303F091E403EC0FEE
:10117000FD1F60E080810E94FE03D701C601072C9D
:1011800004C0880F991FAA1FBB1F0A94D2F71C0125
:101190002C0140945094612C8091E503681608F569
:1011A000062D10E0E091E103F091E203E00FF11F62
:1011B00080810E94D2030C5F1F4F000F111FF801A6
:1011C000E158FC4F892B41F4808191818229932938
:1011D000918380836394E0CF8081918184219521E4
:1011E000F7CFE091E303F091E403EC0FFD1F61E022
:1011F00080810E94FE038091E3039091E403C80F75
:10120000D91F60E088810E94300473949BCF0FE760
:1012100013E0E8018F8D98A1892B31F41C8E4FEFDC
:101220005FEF5E8F4D8F19A2269653E0CB3BD5071B
:1012300089F7612C8091E503681608F053C0712C82
:10124000862D90E0880F991FFC01E957FC4F2F0174
:101250002091E603721608F043C0F20160817181AB
:10126000072C02C0769567950A94E2F7629E90017A
:101270001124270D311DEFE7F3E080E0458D568DF9
:101280002417350709F4EBC08F5F36968A30B1F723
:1012900060FF24C0EFE7F3E090E080E0448D41116F
:1012A00018C0E091DF03F091E003E20FF31F4081EB
:1012B00056E0589FF001599FF00D1124E158FC4F62
:1012C000448F368F258F10A2178E61E00E94C701D0
:1012D00005C0019636968A30910501F77394B8CF10
:1012E0006394A8CF80E0F80191A19111892F0A5F42
:1012F0001F4FC017D107B9F79FB7F89440914D021F
:1013000050914E0260914F02709150029FBF4093E6
:10131000DB035093DC036093DD037093DE038823CB
:1013200089F08091A003882369F080919E039091B9
:101330009F03019739F4C0919B03C11106C00E941D
:101340003A039CCE1092EB03FACFC33469F442E027
:1013500050E064E372E081E592E00E94370210926F
:101360004C0210924B02EBCF6C2F81E592E00E9471
:10137000CD0280914B0290914C02FC01EF5BFD4F3E
:10138000CD3309F065C0CF01815492400A9714F41F
:101390001192F9CF81E492E00E94310A1092410249
:1013A000109242021092430210924402109245029F
:1013B000109246021092470210924802109249027F
:1013C00010924A02BC01990F880B990B10924C02A3
:1013D00010924B02643B710581059105D4F40E9483
:1013E0006E0B20E030E044E353E40E94C40A20E0A6
:1013F00030E04AEF53E40E94FA0B20E030E84BEB78
:1014000054E40E94580A0E94360BCB010E946E01E0
:1014100096CFA5019401261B370B480B590BCA0127
:10142000B9010E946E0B20E030E044E353E40E94D7
:10143000C40A20E030E04AEF53E40E94FA0B9B011B
:10144000AC0160E070E88BEB94E40E94570ADBCFBC
:10145000C083019690934C0280934B0270CF6170D1
:1014600035CFFC0188279927E89421912032E9F3B0
:10147000293010F02E30C8F32B3241F02D3239F4E0
:10148000689404C00E944F0A820F911D219120533D
:101490002A30C0F31EF4909581959F4F08957AE00D
:1014A000979F902D879F802D910D1124089550585E
:1014B000BB27AA270E946F0A0C94C00B0E94B20B94
:1014C00038F00E94B90B20F039F49F3F19F426F44C
:1014D0000C94AF0B0EF4E095E7FB0C94A90BE92FED
:1014E0000E94D10B58F3BA17620773078407950758
:1014F00020F079F4A6F50C94F30B0EF4E0950B2E86
:10150000BA2FA02D0B01B90190010C01CA01A00155
:101510001124FF27591B99F0593F50F4503E68F1B0
:101520001A16F040A22F232F342F4427585FF3CFF1
:10153000469537952795A795F0405395C9F77EF4C2
:101540001F16BA0B620B730B840BBAF09150A1F00B
:10155000FF0FBB1F661F771F881FC2F70EC0BA0F91
:10156000621F731F841F48F4879577956795B79519
:10157000F7959E3F08F0B0CF9395880F08F0992714
:10158000EE0F9795879508950E94D80A0C94C00B8A
:101590000E94B90B58F00E94B20B40F029F45F3F53
:1015A00029F00C94A90B51110C94F40B0C94AF0B73
:1015B0000E94D10B68F39923B1F3552391F3951B46
:1015C000550BBB27AA2762177307840738F09F5F64
:1015D0005F4F220F331F441FAA1FA9F335D00E2ED1
:1015E0003AF0E0E832D091505040E695001CCAF73E
:1015F0002BD0FE2F29D0660F771F881FBB1F261701
:1016000037074807AB07B0E809F0BB0B802DBF01D7
:10161000FF2793585F4F3AF09E3F510578F00C94A6
:10162000A90B0C94F40B5F3FE4F3983ED4F386953A
:1016300077956795B795F7959F5FC9F7880F911DC7
:101640009695879597F90895E1E0660F771F881FB3
:10165000BB1F621773078407BA0720F0621B730B66
:10166000840BBA0BEE1F88F7E09508950E943D0B9E
:101670006894B1110C94F40B08950E94D90B88F072
:101680009F5798F0B92F9927B751B0F0E1F0660F46
:10169000771F881F991F1AF0BA95C9F714C0B13087
:1016A00091F00E94F30BB1E008950C94F30B672FB7
:1016B000782F8827B85F39F0B93FCCF386957795B6
:1016C0006795B395D9F73EF490958095709561959F
:1016D0007F4F8F4F9F4F0895E89409C097FB3EF4CA
:1016E00090958095709561957F4F8F4F9F4F99236F
:1016F000A9F0F92F96E9BB279395F69587957795ED
:101700006795B795F111F8CFFAF4BB0F11F460FFAC
:101710001BC06F5F7F4F8F4F9F4F16C0882311F004
:1017200096E911C0772321F09EE8872F762F05C018
:10173000662371F096E8862F70E060E02AF09A95B3
:10174000660F771F881FDAF7880F9695879597F9A8
:10175000089597F99F6780E870E060E008959FEF33
:1017600080EC089500240A94161617061806090638
:10177000089500240A941216130614060506089507
:10178000092E0394000C11F4882352F0BB0F40F48F
:10179000BF2B11F460FF04C06F5F7F4F8F4F9F4FCF
:1017A000089557FD9058440F551F59F05F3F71F051
:1017B0004795880F97FB991F61F09F3F79F08795B8
:1017C0000895121613061406551FF2CF4695F1DF41
:1017D00008C0161617061806991FF1CF86957105D1
:1017E000610508940895E894BB2766277727CB0105
:1017F00097F908950E940D0C0C94C00B0E94B20B37
:1018000038F00E94B90B20F0952311F00C94A90B2D
:101810000C94AF0B11240C94F40B0E94D10B70F3B9
:10182000959FC1F3950F50E0551F629FF001729F85
:10183000BB27F00DB11D639FAA27F00DB11DAA1F94
:10184000649F6627B00DA11D661F829F2227B00DE1
:10185000A11D621F739FB00DA11D621F839FA00D6C
:10186000611D221F749F3327A00D611D231F849FBC
:10187000600D211D822F762F6A2F11249F57504013
:101880009AF0F1F088234AF0EE0FFF1FBB1F661F8E
:10189000771F881F91505040A9F79E3F510580F057
:1018A0000C94A90B0C94F40B5F3FE4F3983ED4F333
:1018B000869577956795B795F795E7959F5FC1F7FB
:1018C000FE2B880F911D9695879597F90895991B82
:1018D00079E004C0991F961708F0961B881F7A9527
:1018E000C9F780950895EE0FFF1F881F8BBF0790E3
:0A18F000F691E02D1994F894FFCF53
:1018FA001F21232517191B1D3738392F3435362A4E
:10190A003132332D43303D2B00000000CD02370227
:10191A0064021A03950273028702000000006C0435
:08192A002C04FB030D0A000070
:00000001FF
