:020000040000FA
:100000000C9451010C9482010C9482010C94820195
:100010000C9482010C9482010C9482010C94820154
:100020000C9482010C9482010C9482010C94820144
:100030000C9482010C9482010C9482010C94820134
:100040000C9482010C9482010C9482010C94820124
:100050000C9482010C9482010C9482010C943F0B4D
:100060000C9482010C94090B0C94DF0A0C9482010D
:100070000C9482010C9482010C9482010C948201F4
:100080000C9482010C9482010C9482010C948201E4
:100090000C9482010C9482010C9482010C94890BC3
:1000A0000C9482010C9482010C9482010C948201C4
:1000B0000C9482010C9482010C9482010C948201B4
:1000C0000C9482010C9482010C9482010C948201A4
:1000D0000C9482010C9482010C9482010C94820194
:1000E0000C9482010C9485070C9475030C94900376
:1000F0000C94FC020C945B070C944E040C94B0031B
:100100000C940E040C9418020C9498030C9479032C
:100110000C9477020C9494030C94E7070C94AF02B0
:100120000C946B030C94AC030C9480030C94690244
:100130000C94DD030C9498090C94AB030C9471039C
:100140000C94AD0C0C946B070C94A6030C949E03BA
:100150000C9419020C94E6070C94A2030C947D03F2
:100160000C9446020C947E070C945C070C94860356
:100170000C9455020C9417020C948A030C94B20749
:1001800000002100240027002A002D003000330049
:1001900001010000040107010A01000022002500FE
:1001A00028002B002E003100340002010000050160
:1001B00008010B01000020002300260029002C006C
:1001C0002F003200000100000301060109010505AE
:1001D0000505070508080808020202020A0A0808BD
:1001E00004040404010101010101010103030303EB
:1001F00003030303040707070C0C0C0C0C0C0C0C7A
:100200000202020206060606060606060B0B0B0B8A
:100210000B0B0B0B010210202008081020401020AF
:1002200040800201020108040201010204081020BA
:1002300040808040201008040201800402018040B8
:100240002010080402010804020101020408102021
:100250004080010204081020408000000A0B0209BF
:100260000C0D0E0807030401000000000000000050
:10027000000000000000000000000000000000007E
:10028000000000000000121110000000000000003B
:10029000000000000000000000000000000000005E
:1002A000AD0C11241FBECFEFD1E2DEBFCDBF00E009
:1002B0000CBF12E0A0E0B2E0EEE9F0E200E00BBF1C
:1002C00002C007900D92AC38B107D9F724E0ACE832
:1002D000B2E001C01D92A038B207E1F711E0C1E51C
:1002E000D1E000E006C021970109802FFE010E94A5
:1002F0004510C035D10780E00807A9F70E94780DA6
:100300000C944D100C94000096E0899FD0011124AC
:10031000A750BC4F90967C936E935F9791E0919617
:100320009C939197E0916604F09167049091650425
:10033000992339F0309751F0811108C0809115044C
:100340001994309719F05C968C91FACF0895CF925A
:10035000DF92EF92FF920F931F9396E0899FF00137
:100360001124E750FC4F11A2278D30A12130310517
:1003700051F178F02230310509F451C023303105B4
:1003800009F452C01F910F91FF90EF90DF90CF9032
:1003900008956623B9F361E070E00E9484012FB7ED
:1003A000F8948091FC029091FD02A091FE02B09120
:1003B000FF022FBF8093510490935204A0935304E3
:1003C000B0935404DFCF9FB7F894C090FC02D09054
:1003D000FD02E090FE02F090FF029FBF00915104E9
:1003E000109152042091530430915404C01AD10A40
:1003F000E20AF30A009163041091640430E020E003
:100400000C151D052E053F0550F462E070E01F91AC
:100410000F91FF90EF90DF90CF900C9484016111C9
:10042000B1CF63E070E0F3CF70E060E0F0CF08950B
:100430000895AF92BF92CF92DF92EF92FF920F9307
:100440001F93CF93DF936C017B018B01040F151F6A
:10045000EB015E01AE18BF08C017D10759F06991D2
:10046000D601ED91FC910190F081E02DC601199526
:10047000892B79F7C501DF91CF911F910F91FF90E3
:10048000EF90DF90CF90BF90AF900895FC01538D17
:10049000448D252F30E0842F90E0821B930B54175E
:1004A00010F0CF96089501970895FC01918D828DEB
:1004B000981761F0A28DAE0FBF2FB11D5D968C9184
:1004C000928D9F5F9F73928F90E008958FEF9FEFC3
:1004D0000895FC01918D828D981731F0828DE80F7F
:1004E000F11D858D90E008958FEF9FEF0895FC0139
:1004F000918D228D892F90E0805C9F4F821B910906
:100500008F739927089580E593E00E94770221E098
:10051000892B09F420E0822F0895FC01A48DA80FF7
:10052000B92FB11DA35ABF4F2C91848D90E0019635
:100530008F739927848FA689B7892C93A089B18955
:100540008C91837080648C93938D848D981306C0F6
:100550000288F389E02D80818F7D80830895EF925A
:10056000FF920F931F93CF93DF93EC0181E0888F6D
:100570009B8D8C8D98131AC0E889F989808185FF3D
:1005800015C09FB7F894EE89FF896083E889F989DF
:1005900080818370806480839FBF81E090E0DF91E1
:1005A000CF911F910F91FF90EF900895F62E0B8D34
:1005B00010E00F5F1F4F0F731127E02E8C8D8E11EF
:1005C0000CC00FB607FCFACFE889F989808185FF56
:1005D000F5CFCE010E948D02F1CFEB8DEC0FFD2FF8
:1005E000F11DE35AFF4FF0829FB7F8940B8FEA8911
:1005F000FB8980818062CFCFCF93DF93EC01888D20
:100600008823B9F0AA89BB89E889F9898C9185FD8D
:1006100003C0808186FD0DC00FB607FCF7CF8C911B
:1006200085FFF2CF808185FFEDCFCE010E948D0244
:10063000E9CFDF91CF91089580E090E0892B29F0F8
:100640000E94830281110E94000080E090E0892BCB
:1006500049F080E090E0892B29F00E940000811190
:100660000E94000080E090E0892B49F080E090E05B
:10067000892B29F00E94000081110E94000080E077
:1006800090E0892B49F080E090E0892B29F00E94CE
:10069000000081110C94000008958150823108F00F
:1006A0005AC0E82FF0E08827E75AFC4F8F4F0C9490
:1006B000451079037D036B0371037503AB0380035E
:1006C00086038A039003940398039E03A203AB035B
:1006D000A603AC03B003809180008F7780938000E5
:1006E0000895809180008F7DF9CF80918000877F71
:1006F000F5CF84B58F7784BD089584B58F7DFBCF0A
:100700008091B0008F778093B00008958091B00001
:100710008F7DF9CF809190008F778093900008951E
:10072000809190008F7DF9CF80919000877FF5CFE9
:100730008091A0008F778093A00008958091A00001
:100740008F7DF9CF8091A000877FF5CF8091200128
:100750008F77809320010895809120018F7DF9CFBC
:1007600080912001877FF5CFCF93DF93282F30E052
:10077000F901E65AFD4F8491F901EC5EFD4FD491E9
:10078000F901E253FE4FC491CC23A1F081110E94E4
:100790004D03EC2FF0E0EE0FFF1FEC54FE4FA59140
:1007A000B491EC91ED2381E090E009F480E0DF91D9
:1007B000CF91089580E090E0FACF862F0C94B40397
:1007C0001F93CF93DF93282F30E0F901E65AFD4FB6
:1007D0008491F901EC5EFD4FD491F901E253FE4F93
:1007E000C491CC23A9F0162F81110E944D03EC2F48
:1007F000F0E0EE0FFF1FE656FE4FA591B4918FB7C4
:10080000F894EC91111108C0D095DE23DC938FBFD2
:10081000DF91CF911F910895DE2BF8CF862F642FA3
:100820000C94E003CF93DF9390E0FC01EC5EFD4F6E
:10083000249182539E4FFC0184918823C9F090E05B
:10084000880F991FFC01E058FE4FA591B491FC015F
:10085000E656FE4FC591D49161110DC09FB7F89433
:100860008C91209582238C938881282328839FBF95
:10087000DF91CF910895623051F49FB7F8943C9185
:10088000822F809583238C93E8812E2BEFCF8FB717
:10089000F894EC912E2B2C938FBFEACF862F642FE8
:1008A0000C9412046F927F928F929F92AF92BF929C
:1008B000CF92DF92EF92FF920F931F93CF93DF932C
:1008C00081E0809365048FB7F8944091FC025091C9
:1008D000FD026091FE027091FF028FBF809155046E
:1008E00090915604A0915704B0915804481B590B9D
:1008F0006A0B7B0B8091610490916204B0E0A0E0F0
:1009000084179507A607B70708F01DC1C0E08091BE
:100910005F04C81760F4E0915B04F0915C04EC0F95
:10092000F11D62E080810E941204CF5FF0CF712C34
:10093000812C912C5401839480916004781608F0E6
:100940005FC0072D10E0E0915D04F0915E04E00FC0
:10095000F11F61E080810E941204E0915D04F0913A
:100960005E04E00FF11F60E080810E94E003D5018A
:10097000C401072C04C0880F991FAA1FBB1F0A942B
:10098000D2F76C017C01E094F094612C80915F04BB
:100990006816F8F4C62DD0E0E0915B04F0915C0499
:1009A000EC0FFD1F80810E94B4032496CC0FDD1F45
:1009B000C750DC4F892B41F4888199818C299D296E
:1009C000998388836394E2CF888199818E219F21C6
:1009D000F7CFE0915D04F0915E04E00FF11F61E05C
:1009E00080810E94E00380915D0490915E04080F75
:1009F000191F60E0F80180810E94120473949CCF5B
:100A0000C9EFD3E0FE018FEF9FEF278D30A1232B9D
:100A100021F4148E968F858F11A2369624E0E5334B
:100A2000F20799F7F12C96E0D92E80915F04F81621
:100A300008F050C0E12C0F2D10E0000F111F0F5FC8
:100A40001B4F20916004E21608F042C0F80160815B
:100A500071810E2C02C0769567950A94E2F7F29E9A
:100A6000900111242E0D311DE9EFF3E080E0458D5A
:100A7000568D2417350709F46AC08F5F36968A3081
:100A8000B1F760FF23C0E9EFF3E090E080E0448D30
:100A9000411117C0E0915904F0915A04E20FF31F7D
:100AA0004081D89EF001D99EF00D1124E750FC4FF3
:100AB000448F368F258F10A2178E61E00E94A70108
:100AC00005C0019636968A30910509F7E394B9CFAF
:100AD000F394ABCF80E099A19111892F2696F4E091
:100AE000C533DF07C1F79FB7F8944091FC025091DE
:100AF000FD026091FE027091FF029FBF409355047A
:100B00005093560460935704709358048823D9F087
:100B100080911A048823B9F08091180490911904E7
:100B2000019789F480911504DF91CF911F910F9166
:100B3000FF90EF90DF90CF90BF90AF909F908F90FD
:100B40007F906F9008951092650480E0EDCF617002
:100B5000B5CF0E9452048823E1F308953FB7F8947B
:100B60008091F1029091F202A091F302B091F4020F
:100B700026B5A89B05C02F3F19F00196A11DB11DF8
:100B80003FBFBA2FA92F982F8827BC01CD01620F34
:100B9000711D811D911D42E0660F771F881F991FEF
:100BA0004A95D1F708958F929F92AF92BF92CF92BC
:100BB000DF92EF92FF924B015C010E94AE056B0148
:100BC0007C010E94AE056C197D098E099F09683E63
:100BD000734081059105A8F321E0821A9108A108CC
:100BE000B10888EEC80E83E0D81EE11CF11C811408
:100BF0009104A104B10429F7FF90EF90DF90CF900A
:100C0000BF90AF909F908F9008952091CD02260FB6
:100C10003327331F21323105ECF420912603FC01E8
:100C200090E080E0243069F082E00895A091CD0248
:100C30002191AC0143555D4FA40FB52FB11D2C93ED
:100C40000196861798F38091CD02680F6093CD02CC
:100C500080E0089581E008951092260381E080935A
:100C600025031092000361E084E10E94E00361E04B
:100C700085E10E94E003E9EBF0E080818E7F8083D4
:100C800080818D7F808388E48093B80085E48093A1
:100C9000BC000895CF93DF9391E09093AC0288233A
:100CA000B9F0C091B800D091BA008091BC008A7BA5
:100CB0008093BC0060E084E10E94E00360E085E195
:100CC0000E94E0030E942C06D093BA00C093B800A3
:100CD000DF91CF9108958F929F92AF92BF92CF9262
:100CE000DF92EF92FF920F931F93CF93DF93D091F8
:100CF0004F03D13208F0D7C0182FC0914E030E9485
:100D0000AE056B017C018091260381116BC082E0EE
:100D100080932603109325038FEF80932403109272
:100D20002303D0932203AEE2B3E0E2E0F3E080E0FD
:100D3000D81391C01092010380910103CC0FC82BEE
:100D4000C093010380910003813009F088C01092A4
:100D500000030E94AE056B017C018091010380932A
:100D6000BB008091280390912903A0912A03B091A0
:100D70002B03892B8A2B8B2BA1F00E94AE050091AF
:100D800028031091290320912A0330912B036C1919
:100D90007D098E099F09061717072807390708F4E8
:100DA00042C08091BC0083FDD8CF85EC8093BC000D
:100DB0000E94AE056B017C0180912603823009F40C
:100DC00050C0809124038F3F09F46FC080912403A9
:100DD000803209F46CC080912403803309F469C027
:100DE00084E026C08091280390912903A0912A03D2
:100DF000B0912B03892B8A2B8B2B09F484CF0E9473
:100E0000AE058090280390902903A0902A03B0900B
:100E10002B036C197D098E099F0986169706A80673
:100E2000B90608F070CF809127030E944A0685E03A
:100E300010922D0310924F0310922C03DF91CF914B
:100E40001F910F91FF90EF90DF90CF90BF90AF90E8
:100E50009F908F9008959D9191938F5F69CF85EEBC
:100E6000A5CF8091280390912903A0912A03B091E6
:100E70002B03892B8A2B8B2B09F49ECF0E94AE0566
:100E8000009128031091290320912A0330912B030C
:100E90006C197D098E099F0906171707280739075E
:100EA00008F08ACFC0CF81E0C3CF80E0C1CF82E01D
:100EB000BFCF83E0BDCF0895E091FA028091F9029F
:100EC000E81730F4F0E0E457FD4F808190E008959A
:100ED0008FEF9FEF08959091FA028091F9022FEF22
:100EE0003FEF981748F4E92FF0E0E457FD4F2081D9
:100EF00030E09F5F9093FA02C90108958091F90252
:100F00009091FA02891B990B0895CF92DF92EF928C
:100F1000FF920F931F93CF93DF937C01CB018A0144
:100F200020912C03222389F0EB016B01C40ED51E06
:100F3000CC15DD0569F06991D701ED91FC91019027
:100F4000F081E02DC7011995F3CF642F0E940506AB
:100F5000C801DF91CF911F910F91FF90EF90DF902B
:100F6000CF900895CF93DF931F92CDB7DEB76983FB
:100F700020912C032223F9F020914F03203258F0C6
:100F800021E030E0FC013383228390E080E00F9089
:100F9000DF91CF91089580912D03E82FF0E0E25D7D
:100FA000FC4F998190838F5F80932D0380934F0333
:100FB00081E090E0ECCF61E0CE0101960E94050651
:100FC000F7CF682F8DEE93E00C94B207089590E070
:100FD00080E008958F929F92AF92BF920F931F93DC
:100FE000CF93DF93CDB7DEB7A1970FB6F894DEBFEE
:100FF0000FBECDBF19A2423008F44AE08E010F5D4A
:101000001F4F842E912CB12CA12CA50194010E947C
:101010002310E62FB901CA01EA3044F5E05DD8019A
:10102000EE938D01232B242B252B79F790E080E084
:10103000109769F0FD0101900020E9F73197AF01A9
:101040004A1B5B0BBD0188E694E00E941902A19641
:101050000FB6F894DEBF0FBECDBFDF91CF911F91C9
:101060000F91BF90AF909F908F900895E95CD7CF7C
:10107000FC0101900020E9F73197AF01481B590BA3
:10108000BC0188E694E00C941902CF93DF93EC0145
:1010900060E08E810E94E00361E08E810E94E003A7
:1010A00060E08E810E94E0038BE891E00197F1F708
:1010B000DF91CF910895CF92DF92EF92FF920F933D
:1010C0001F93CF93DF936C017C0187E0E80EF11C46
:1010D000D0E0C0E0062F10E0B8010C2E02C07595DC
:1010E00067950A94E2F76170F70181917F010E9490
:1010F000E0032196C430D10579F7C601DF91CF9185
:101100001F910F91FF90EF90DF90CF900C944508C6
:10111000CF92DF92EF92FF920F931F93CF93DF93C3
:10112000EC01F62E642F8C810E94E0038D818F3FAD
:1011300019F060E00E94E0030F2D10E08F8584FF1E
:1011400025C06E0187E0C80ED11CF12CE12CB8013E
:101150000E2C02C0759567950A94E2F76170F6014E
:1011600081916F010E94E003FFEFEF1AFF0A88E010
:10117000E816F10461F7CE01DF91CF911F910F9135
:10118000FF90EF90DF90CF900C944508B80184E079
:10119000759567958A95E1F7CE010E945B086F2DE2
:1011A000CE01DF91CF911F910F91FF90EF90DF90D3
:1011B000CF900C945B0840E0682F88E694E00C9494
:1011C000880881E00E94DB088BE39FE10197F1F73B
:1011D0000895CF93DF93823029F49091770498603B
:1011E0009093770480937B0410927C0480E4809336
:1011F0007D0480E180937E0480E580937F0461E03C
:1012000080916C040E94120480916D048F3F19F04C
:1012100061E00E94120461E080916E040E94120459
:10122000C8E6D4E09E01285634408091770484FDBE
:101230000BC084E090E021962817390744F461E060
:101240008E810E941204EECF88E090E0F4CF8BE311
:101250009DE00197F1F760E080916C040E94E0034B
:1012600060E080916E040E94E00380916D048F3FE6
:1012700019F060E00E94E0038091770484FD34C09F
:1012800063E088E694E00E945B08CBE4D6E4CE01FC
:101290000197F1F763E088E694E00E945B082197EC
:1012A000F1F763E088E694E00E945B0883E592E052
:1012B0000197F1F762E088E694E00E945B08809174
:1012C000770480620E94DB0884E0809378048CE0DD
:1012D0000E94DB080E94E10882E08093790486E0A6
:1012E000DF91CF910C94DB0880620E94DB088BE4D5
:1012F00096E40197F1F78091770480620E94DB0801
:1013000083E592E00197F1F78091770480620E9473
:10131000DB08D5CF90917B04891710F08FEF890FF0
:10132000E82FF0E0E859FB4F848980680C94DB08D3
:1013300041E00E94880881E090E00895CF92DF921A
:10134000EF92FF926C01990FEE08FF08F7FE16C0AE
:1013500041E06DE288E694E00E94880866277727DE
:10136000CB016C197D098E099F094AE00E94EA07AA
:101370000196FF90EF90DF90CF9008954AE0C7016B
:10138000B601FF90EF90DF90CF900C94EA07CF92D8
:10139000DF92EF92FF920F931F9381E080932C03D3
:1013A00080E580934E0310922D0310924F0390E03E
:1013B00080E00E94E1078AEA90E00E94E10781E074
:1013C0000E946B060E94AE056B017C018091260392
:1013D000811163C081E080932603809325039FEFF2
:1013E000909324031092230310922203809301030D
:1013F00080910103806A8093010380910003813012
:1014000009F07FC0109200030E94AE056B017C01C1
:10141000809101038093BB00809128039091290360
:10142000A0912A03B0912B03892B8A2B8B2BA1F03F
:101430000E94AE05009128031091290320912A03F0
:1014400030912B036C197D098E099F090617170728
:101450002807390708F442C08091BC0083FDD8CF2B
:1014600085EC8093BC000E94AE056B017C018091ED
:101470002603813009F447C080912303811165C0A0
:1014800080912303A2E0B3E0ECE8F2E090E098174B
:1014900051F12D9121939F5FFACF80912803909174
:1014A0002903A0912A03B0912B03892B8A2B8B2B24
:1014B00009F48CCF0E94AE050091280310912903F6
:1014C00020912A0330912B036C197D098E099F0905
:1014D000061717072807390708F078CF80912703E8
:1014E0000E944A0680E01092FA028093F9028DEE83
:1014F00093E01F910F91FF90EF90DF90CF900C94AD
:101500006B0785EEAECF8091280390912903A091BF
:101510002A03B0912B03892B8A2B8B2B09F4A7CF9D
:101520000E94AE05009128031091290320912A03FF
:1015300030912B036C197D098E099F090617170737
:101540002807390708F093CFC9CF81E09BCF85EDFD
:101550008093BC008091280390912903A0912A03D5
:10156000B0912B030796A11DB11D23E0B695A79559
:10157000979587952A95D1F72091BC0024FD03C04B
:1015800010922603089540912803509129036091F9
:101590002A0370912B03452B462B472B69F30097A9
:1015A000A105B10541F025E32A95F1F70000019767
:1015B000A109B109E1CF809127030C944A061F923B
:1015C0000F920FB60F9211240BB60F922F933F93E9
:1015D0004F935F936F937F938F939F93AF93BF933B
:1015E000EF93FF9380E593E00E948D02FF91EF91CE
:1015F000BF91AF919F918F917F916F915F914F912B
:101600003F912F910F900BBE0F900FBE0F901F9028
:1016100018951F920F920FB60F9211240BB60F92CE
:101620002F938F939F93EF93FF93E0916003F0913B
:1016300061038081E0916603F091670382FD1DC024
:101640009081809169038F5F8F7320916A03821765
:1016500041F0E0916903F0E0E05BFC4F958F8093EF
:101660006903FF91EF919F918F912F910F900BBE86
:101670000F900FBE0F901F9018958081F2CF1F9290
:101680000F920FB60F9211242F933F938F939F9336
:10169000AF93BF938091FC029091FD02A091FE0256
:1016A000B091FF023091F00223E0230F2D3758F55F
:1016B0000196A11DB11D2093F0028093FC0290932E
:1016C000FD02A093FE02B093FF028091F10290917F
:1016D000F202A091F302B091F4020196A11DB11D96
:1016E0008093F1029093F202A093F302B093F4027C
:1016F000BF91AF919F918F913F912F910F900FBE0E
:101700000F901F90189526E8230F0296A11DB11D7A
:10171000D2CF1F920F920FB60F9211240BB60F92D9
:101720002F933F934F935F936F937F938F939F93E9
:10173000AF93BF93EF93FF938091B900887F80367A
:1017400009F44DC008F040C0883209F4A9C028F55A
:10175000803109F49DC0C8F4882309F4FBC08830A7
:1017600009F496C0FF91EF91BF91AF919F918F9136
:101770007F916F915F914F913F912F910F900BBE91
:101780000F900FBE0F901F901895883109F488C0F4
:10179000803241F78093240314C0803409F49DC043
:1017A00040F48033B9F38833E9F68093240385EC61
:1017B000B0C0803509F485C0883509F496C08834F6
:1017C00089F60E94A70ACECF883909F48CC038F573
:1017D000883729F050F4883611F0803719F683E005
:1017E000809326031092EF0257C0883809F47BC01B
:1017F000803919F0803809F0B5CF8091EF0280323E
:1018000008F071C0E091EF0281E08E0F8093EF024B
:101810008091BB00F0E0E153FD4F80833DC0803BF1
:1018200039F0E0F4803A09F479C0883A09F09ACFA7
:1018300084E0809326031092CE021092CD02E091B4
:10184000F702F091F80219958091CD0281110FC035
:1018500081E08093CD021092AD0209C0803C09F472
:10186000A6CF883C09F4A3CF883B09F07BCFE09159
:10187000CE0281E08E0F8093CE02F0E0E355FD4F63
:1018800080818093BB009091CE028091CD0229C0CF
:10189000809101038093BB0085EC8093BC0062CFF4
:1018A0009091230380912203981758F5E091230328
:1018B00081E08E0F80932303F0E0EE5FFC4F808188
:1018C000E9CFE091230381E08E0F80932303809181
:1018D000BB00F0E0EE5FFC4F80839091230380918A
:1018E00022039817C8F285E8D8CFE091230381E05E
:1018F0008E0F809323038091BB00F0E0EE5FFC4FDE
:1019000080838091250381115CCF81E08093000367
:1019100084EA8093BC001092260324CF85EC809348
:10192000BC00109226038091EF02803230F4E091E7
:10193000EF02F0E0E153FD4F10826091EF0270E0A2
:10194000E091F502F091F6028FEC92E01995109279
:10195000EF0208CF1092240334CF10925303109259
:10196000520388EE93E0A0E0B0E08093540390939C
:101970005503A0935603B093570320E232E030930F
:1019800051032093500325EC30E030935D03209306
:101990005C0324EC30E030935F0320935E0320EC83
:1019A00030E0309361032093600321EC30E030930A
:1019B00063032093620322EC30E0309365032093AD
:1019C000640326EC30E030936703209366031092A3
:1019D000690310926A0310926B0310926C031092C9
:1019E000F0031092EF038093F1039093F203A0931E
:1019F000F303B093F40382E392E09093EE038093B9
:101A0000ED0310926B0410926A048EE492E09093BE
:101A100069048093680486E180936C048FEF80935F
:101A20006D0487E180936E0488E180936F0489E1FF
:101A3000809370048AE1809371048BE18093720437
:101A4000109273041092740410927504109276042C
:101A50001092770481E00E94E9081092FB03109233
:101A6000FF031092FE031092000484E492E090932E
:101A7000FA038093F903E5E1F4E010821482138203
:101A80001582369684E0E135F807B9F78AE592E0E9
:101A900090935C0480935B0486E592E090935E04EF
:101AA00080935D0484E080935F04809360048CE005
:101AB00092E090935A04809359048AE090E09093C6
:101AC00062048093610484EF91E0909364048093B6
:101AD00063041092670410926604109255041092E9
:101AE00056041092570410925804109265040895F9
:101AF000789484B5826084BD84B5816084BD85B5E9
:101B0000826085BD85B5816085BD80916E008160F4
:101B100080936E001092810080918100826080939A
:101B2000810080918100816080938100809180009C
:101B30008160809380008091B10084608093B100C7
:101B40008091B00081608093B000809191008260AC
:101B500080939100809191008160809391008091A9
:101B600090008160809390008091A10082608093BA
:101B7000A1008091A10081608093A1008091A000CC
:101B800081608093A0008091210182608093210177
:101B900080912101816080932101809120018160E9
:101BA0008093200180917A00846080937A008091F4
:101BB0007A00826080937A0080917A0081608093BD
:101BC0007A0080917A00806880937A001092C10038
:101BD000E0916003F091610382E08083E0915C0317
:101BE000F0915D031082E0915E03F0915F038FEC52
:101BF000808310926803E0916403F091650386E0AE
:101C00008083E0916203F09163038081806180832F
:101C1000E0916203F0916303808188608083E091AA
:101C20006203F0916303808180688083E0916203A6
:101C3000F091630380818F7D808382E00E94E908B8
:101C40000E94E1081092FA021092F90210922D03FC
:101C500010924F030E942C0687E192E09093F802C5
:101C60008093F70288E192E09093F6028093F50268
:101C700061E08CE10E94120461E08DE10E94120497
:101C800061E08EE10E94120461E08FE10E94120483
:101C90000E94C70990930B0280930A020197049750
:101CA00030F081E090E090930B0280930A028091E3
:101CB0000A0290910B029093010280930002DAE0F5
:101CC00080E5B82E80910A0290910B0200910802E3
:101CD00010910902CCE181309105D1F0009106020A
:101CE00010910702CDE18230910591F0009104023C
:101CF00010910502CEE18330910551F0009102026E
:101D000010910302CFE1049719F0C0E010E000E069
:101D100061E08C2F0E94E003D12CC12CC016D106AB
:101D20000CF002C10E9452048093FB020E94E10861
:101D300080E00E948A098EE592E00E943808809136
:101D40000002909101020E949E0981E00E948A098E
:101D500082E792E00E943808C8018C199D090E9410
:101D60009E098091FB028A3291F40E94A90580931A
:101D7000FB028091FB028A32C1F78FEFC81AD80AA2
:101D800064E670E080E090E00E94D305C7CF8D321A
:101D9000A1F70E94E10880E00E948A098EE692E0A5
:101DA0000E9438080E94A905F82E8093FB0281E06A
:101DB0000E948A0941E06F2D88E694E00E9488081D
:101DC00064EF71E080E090E00E94D30581E3F812B7
:101DD00033C00E94A9058093FB02082E000C990BCA
:101DE000C09790930902809308020E94A9058093EE
:101DF000FB022091080230910902D29F7001D39F0B
:101E0000F00C1124E80EF11C87FDFA9480E3E81A27
:101E1000F108F0920902E09208020E94E10880E0D5
:101E20000E948A09C7010E949E0964EF71E080E068
:101E300090E00E94D305A1CF82E3F81225C00E9452
:101E4000A9058093FB02082E000C990BC097909374
:101E50000702809306020E94A9058093FB0220914D
:101E6000060230910702D29F7001D39FF00C11241B
:101E7000E80EF11C87FDFA9480E3E81AF108F0926D
:101E80000702E0920602C9CF83E3F81225C00E9440
:101E9000A9058093FB02082E000C990BC097909324
:101EA0000502809304020E94A9058093FB02209101
:101EB000040230910502D29F7001D39FF00C1124CF
:101EC000E80EF11C87FDFA9480E3E81AF108F0921D
:101ED0000502E0920402A1CF84E3F8124ECF0E94E3
:101EE000A9058093FB02082E000C990BC0979093D4
:101EF0000302809302020E94A9058093FB022091B5
:101F0000020230910302D29F7001D39FF00C112482
:101F1000E80EF11C87FDFA9480E3E81AF108F092CC
:101F20000302E092020279CF60E08C2F0E94E0036E
:101F300080910A0290910B02019690930B0280937C
:101F40000A0205970CF47CC061E08CE10E94E0037A
:101F500061E08DE10E94E00361E08EE10E94E00318
:101F600061E08FE10E94E0030E94E10880E00E94AE
:101F70008A098AE792E00E9438080E94A9058093A6
:101F8000FB028091FB0296ED980F9230B0F78B32F6
:101F9000E9F50E94E10880E00E948A098FE792E05B
:101FA0000E9438080E94A905C82F8093FB0281E097
:101FB0000E948A0941E06C2F88E694E00E9488081C
:101FC00064E670E080E090E00E94D30581E08093B9
:101FD0002C03B0924E0310922D0310924F0390E009
:101FE00080E00E94E1078AEA90E00E94E1078C2FDE
:101FF000CC0F990BC0970E94E10781E00E946B060D
:1020000064E670E080E090E00E94D30560E08CE13F
:102010000E94E00360E087E20E94E00360E08EE15E
:102020000E94E00360E08FE10E94E0030E94C70984
:1020300090930B0280930A02909301028093000216
:102040000E941C033FCEA1E21A2EAA1BBB1BFD015E
:102050000DC0AA1FBB1FEE1FFF1FA217B307E40787
:10206000F50720F0A21BB30BE40BF50B661F771FDF
:10207000881F991F1A9469F76095709580959095BF
:102080009B01AC01BD01CF010895EE0FFF1F881F1A
:102090008BBF0790F691E02D1994F894FFCF0100C3
:1020A000630063006300630001003738392F343563
:1020B00036783132332D2A303D2B00000000AF023C
:1020C00019024602FC027702550269020000000074
:1020D000B2078507E7075B077E076B075C07000011
:1020E00000004E040E04DD030000000098091902F0
:1020F000E707E607323334352E2F303164656661E9
:10210000756C74206D6F6465203A200073657420CF
:1021100074696D65203A2000646F6E6500736574A4
:0A212000206D6F6465203A20000076
:10E000000D9489F10D94B2F10D94B2F10D94B2F129
:10E010000D94B2F10D94B2F10D94B2F10D94B2F1F0
:10E020000D94B2F10D94B2F10D94B2F10D94B2F1E0
:10E030000D94B2F10D94B2F10D94B2F10D94B2F1D0
:10E040000D94B2F10D94B2F10D94B2F10D94B2F1C0
:10E050000D94B2F10D94B2F10D94B2F10D94B2F1B0
:10E060000D94B2F10D94B2F10D94B2F10D94B2F1A0
:10E070000D94B2F10D94B2F10D94B2F10D94B2F190
:10E080000D94B2F10D94B2F10D94B2F10D94B2F180
:10E090000D94B2F10D94B2F10D94B2F10D94B2F170
:10E0A0000D94B2F10D94B2F10D94B2F10D94B2F160
:10E0B0000D94B2F10D94B2F10D94B2F10D94B2F150
:10E0C0000D94B2F10D94B2F10D94B2F10D94B2F140
:10E0D0000D94B2F10D94B2F10D94B2F10D94B2F130
:10E0E0000D94B2F141546D656761323536300041AF
:10E0F000726475696E6F206578706C6F72657220DE
:10E1000073746B3530305632206279204D4C530099
:10E11000426F6F746C6F616465723E004875683F52
:10E1200000436F6D70696C6564206F6E203D200048
:10E130004350552054797065202020203D20005FF9
:10E140005F4156525F415243485F5F3D2000415658
:10E1500052204C696243205665723D20004743437C
:10E160002056657273696F6E203D20004350552024
:10E1700049442020202020203D20004C6F7720663D
:10E18000757365202020203D20004869676820665F
:10E190007573652020203D200045787420667573D6
:10E1A00065202020203D20004C6F636B2066757336
:10E1B000652020203D20004D617220203720323024
:10E1C000313300312E362E3800342E332E350056A2
:10E1D00023202020414444522020206F7020636F70
:10E1E00064652020202020696E73747275637469E1
:10E1F0006F6E2061646472202020496E74657272B3
:10E20000757074006E6F20766563746F7200726A49
:10E210006D702020006A6D70200057686174207056
:10E220006F72743A00506F7274206E6F7420737541
:10E2300070706F72746564004D7573742062652030
:10E2400061206C6574746572002000577269747483
:10E25000696E672045450052656164696E672045B7
:10E26000450045452065727220636E743D00504F35
:10E27000525400303D5A65726F2061646472003FF1
:10E280003D43505520737461747300403D454550C3
:10E29000524F4D207465737400423D426C696E6B41
:10E2A000204C454400453D44756D70204545505215
:10E2B0004F4D00463D44756D7020464C415348001B
:10E2C000483D48656C70004C3D4C69737420492F83
:10E2D0004F20506F72747300513D51756974005234
:10E2E0003D44756D702052414D00563D73686F7707
:10E2F00020696E7465727275707420566563746FF0
:10E30000727300593D506F727420626C696E6B00BD
:10E310002A0011241FBECFEFD1E2DEBFCDBF01E046
:10E320000CBF12E0A0E0B2E0EEE1FDEF03E00BBFB6
:10E3300002C007900D92A030B107D9F712E0A0E01B
:10E34000B2E001C01D92AE30B107E1F70F9460F367
:10E350000D948DFE01E20EBF0FEF0DBF11241FBE05
:10E360000D9460F30D9400F020E030E040ED57E0B4
:10E3700005C0FA013197F1F72F5F3F4F2817390792
:10E38000C0F308959C01260F311DC901A0E0B0E043
:10E390002F5F3F4FABBFFC018791882361F08093D3
:10E3A000C6008091C00086FFFCCF8091C0008064D1
:10E3B0008093C000EACF08958DE08093C6008091DD
:10E3C000C00086FFFCCF8091C00080648093C000B5
:10E3D0008AE08093C6008091C00086FFFCCF8091C8
:10E3E000C00080648093C00008950F94C2F10F9420
:10E3F000DCF10895FC019081992359F09093C600B7
:10E400008091C00086FFFCCF8091C0008064809323
:10E41000C0003196992379F70895282F982F929567
:10E420009F70892F805D8A3308F0895F8093C600D2
:10E430008091C00086FFFCCF8091C00080648093F3
:10E44000C000822F8F70982F905D9A3308F0995FEB
:10E450009093C6008091C00086FFFCCF8091C000E1
:10E4600080648093C00008959C01FB01853691056E
:10E470001CF46330710594F0C90164E670E00F94F8
:10E480002EFE605D7F4F6093C6008091C00086FFC6
:10E49000FCCF8091C00080648093C0002B30310598
:10E4A00014F43297B4F0C90164E670E00F942EFEC4
:10E4B0006AE070E00F942EFE605D7F4F6093C600AF
:10E4C0008091C00086FFFCCF8091C0008064809363
:10E4D000C000C9016AE070E00F942EFEC0968093E0
:10E4E000C6008091C00086FFFCCF8091C000806490
:10E4F0008093C00008951F93182F8EE692EE60E07F
:10E500000F94C2F11093C6008091C00086FFFCCF2B
:10E510008091C00080648093C0000F94DCF11F9153
:10E5200008952F923F924F925F926F927F928F92B7
:10E530009F92AF92BF92CF92DF92EF92FF920F9392
:10E540001F93DF93CF93CDB7DEB762970FB6F894E2
:10E55000DEBF0FBECDBF382E622ECA01DB015C01CB
:10E560006D01772420E2222E2E010894411C511CBB
:10E570008BC081E0A81680E0B80681E0C80680E084
:10E58000D80628F0C601AA27BB270F940DF2BB2797
:10E59000AD2D9C2D8B2D0F940DF28A2D0F940DF225
:10E5A0002092C6008091C00086FFFCCF8091C00001
:10E5B00080648093C0009DE29093C6008091C0006B
:10E5C00086FFFCCF8091C00080648093C0002092C1
:10E5D000C6008091C00086FFFCCF8091C00080649F
:10E5E0008093C00019828601750188249924A1E0D6
:10E5F0003A1651F03A1620F0B2E03B1661F409C029
:10E600000BBFF701779007C0C7010F9477FE782EF4
:10E6100002C0F7017080872D0F940DF22092C60082
:10E620008091C00086FFFCCF8091C0008064809301
:10E63000C000872D8052F401EF70F0708F3520F408
:10E64000E40DF51D708204C0E40DF51D8EE280839B
:10E650000894E11CF11C011D111D0894811C911CE2
:10E6600090E18916910409F0C2CF80E190E0A0E02A
:10E67000B0E0A80EB91ECA1EDB1E198AC2010F9493
:10E68000FAF10F94DCF16A94662009F072CF629679
:10E690000FB6F894DEBF0FBECDBFCF91DF911F91B3
:10E6A0000F91FF90EF90DF90CF90BF90AF909F9031
:10E6B0008F907F906F905F904F903F902F90089534
:10E6C0002F923F924F925F926F927F928F929F9282
:10E6D000AF92BF92CF92DF92EF92FF920F931F9370
:10E6E000DF93CF93CDB7DEB7CD53D1400FB6F894BB
:10E6F000DEBF0FBECDBF01E20EBF0FEF0DBF94B75F
:10E70000F894A89514BE80916000886180936000A1
:10E7100010926000789493FF05C0E0910002F091A0
:10E7200001021995279A2F9A8091C00082608093E8
:10E73000C00080E18093C40088E18093C1000000A4
:10E74000EE24FF24870144E0A42EB12CCC24DD2448
:10E7500024C0C5010197F1F70894E11CF11C011DCB
:10E76000111D21E2E2162EE4F20620E0020720E06D
:10E77000120718F031E0C32ED12CC801B70127ECE5
:10E780003BE140E050E00F9441FE611571058105C9
:10E79000910519F485B1805885B98091C00087FD35
:10E7A00003C0C114D104A9F2A6014F5F5F4FC25E3E
:10E7B000DE4F59834883CE51D140C25EDE4F8881FF
:10E7C0009981CE51D140019711F00D9410FEC05D9A
:10E7D000DE4F19821882C053D14060E0C15DDE4F28
:10E7E0001882CF52D14088249924C35DDE4F19820C
:10E7F0001882CD52D140C05EDE4F188219821A8233
:10E800001B82C052D140CE5CDE4F188219821A8220
:10E810001B82C253D140EE24FF2487010BBFF701B6
:10E8200007911691C45CDE4F19830883CC53D14005
:10E830000D940BFEC25EDE4F28813981CE51D1404E
:10E840002130310509F52091C600C25EDE4F1982E4
:10E850001882CE51D14022C02F5F3F4F4F4F5F4FA4
:10E86000213082E138078AE7480780E0580780F0C6
:10E87000C45CDE4FE881F981CC53D140EF5FFF4F9C
:10E8800019F0EE27FF27099420E030E040E050E047
:10E890008091C00087FFE0CF2091C600C35DDE4FAE
:10E8A00048815981CD52D1404F5F5F4FC35DDE4FEC
:10E8B00059834883CD52D140213209F063C64A3092
:10E8C000510508F05FC60894811C911C53E0851621
:10E8D000910409F059C600E010E018C081E280936D
:10E8E000C6008091C00086FFFCCF8091C00080648C
:10E8F0008093C0002F5F3F4F2931310579F70F9486
:10E90000DCF10F5F1F4F0530110519F020E030E0FA
:10E91000E5CF10920A0210920B0210920C02109294
:10E920000D02109206021092070210920802109235
:10E930000902109202021092030210920402109235
:10E9400005028FEE90EE60E00F94F5F180E191EE1C
:10E9500060E00F94C2F18091C00087FFFCCF9091DE
:10E96000C600903608F09F759032B8F09093C600BC
:10E970008091C00086FFFCCF8091C00080648093AE
:10E98000C000A0E2A093C6008091C00086FFFCCF2B
:10E990008091C00080648093C000983409F4D7C18E
:10E9A0009934B8F4923409F459C1933458F490333B
:10E9B00019F1903308F4E3C59F33A1F1903409F0C5
:10E9C000DEC5BDC0953409F470C1963409F0D7C5D1
:10E9D00098C1923509F42BC2933538F49C3409F46C
:10E9E000F5C1913509F0CBC518C2963509F445C279
:10E9F000993509F0C4C567C483E792EE62E00F94CD
:10EA0000F5F110920602109207021092080210927D
:10EA1000090210920A0210920B0210920C0210923C
:10EA20000D0213C18FE792EE62E00F94F5F18FEEC5
:10EA300090EE60E00F94F5F181E291EE60E00F94CA
:10EA4000C2F187EB91EE60E00F94F5F180E391EE77
:10EA500060E00F94C2F184EE90EE60E00F94F5F167
:10EA60008FE391EE60E00F94C2F186E090E061E008
:10EA700070E00F9434F20F94DCF18DE591EE60E0DC
:10EA80000F94C2F189EC91EE60E00F94F5F18EE401
:10EA900091EE60E00F94C2F183EC91EE60E00F9490
:10EAA000F5F18CE691EE60E00F94C2F18EE10F94E7
:10EAB0000DF288E90F940DF281E00F940DF20F949E
:10EAC000DCF18BE791EE60E00F94C2F119E0E0E039
:10EAD000F0E010935700E4918E2F0F940DF20F94F5
:10EAE000DCF18AE891EE60E00F94C2F1E3E0F0E03F
:10EAF00010935700E4918E2F0F940DF20F94DCF1D8
:10EB000089E991EE60E00F94C2F1E2E0F0E0109349
:10EB10005700E4918E2F0F940DF20F94DCF188EAE8
:10EB200091EE60E00F94C2F1E1E0F0E01093570045
:10EB30001491812F0F940DF20F94DCF107CF8BE825
:10EB400092EE62E00F94F5F18BE492EE60E00F94A8
:10EB5000F5F10F94DCF100E010E019C0C8016F2D51
:10EB60000F947FFEFF2031F489E492EE60E00F9471
:10EB7000C2F10BC0F092C6008091C00086FFFCCFAE
:10EB80008091C00080648093C0000F5F1F4FC80158
:10EB900081519F41A0E0B0E0ABBFFC01F790BAE229
:10EBA000FB1621F0E2E000301E07C1F60F94DCF105
:10EBB0000F94DCF187E592EE60E00F94F5F10F948D
:10EBC000DCF1CC24DD2400E010E01EC0C8010F946D
:10EBD00077FEF82E882331F489E492EE60E00F94FA
:10EBE000C2F10BC08093C6008091C00086FFFCCFAD
:10EBF0008091C00080648093C000FE1419F00894D6
:10EC0000C11CD11C0F5F1F4FC80181519F41A0E063
:10EC1000B0E0ABBFFC01E790FAE2EF1621F022E092
:10EC20000030120799F60F94DCF10F94DCF182E6C4
:10EC300092EE60E00F94C2F1C60161E070E00F94C3
:10EC400034F20F94DCF10F94DCF110920202109276
:10EC50000302109204021092050278CE89E992EE26
:10EC600062E00F94F5F1279A2F9A16C02F9880E052
:10EC700090E0E0EDF7E03197F1F7019684369105E9
:10EC8000C1F72F9A80E090E0E0EDF7E03197F1F7DF
:10EC9000019684369105C1F78091C00087FFE6CFC9
:10ECA0008091C00087FFFCCF64C485EA92EE62E0E9
:10ECB0000F94F5F140910202509103026091040219
:10ECC0007091050281E020E10F9491F2809102029F
:10ECD00090910302A0910402B091050280509F4FD1
:10ECE000AF4FBF4F8093020290930302A0930402A0
:10ECF000B093050280509041A040B04008F426CE69
:10ED0000A4CF83EB92EE62E00F94F5F140910602FE
:10ED100050910702609108027091090280E020E1A1
:10ED20000F9491F28091060290910702A09108023F
:10ED3000B091090280509F4FAF4FBF4F80930602A2
:10ED400090930702A0930802B0930902FFCD80ECD4
:10ED500092EE62E00F94F5F183E792EE60E00F949B
:10ED6000F5F18FE792EE60E00F94F5F18BE892EE0B
:10ED700060E00F94F5F189E992EE60E00F94F5F10F
:10ED800085EA92EE60E00F94F5F183EB92EE60E09D
:10ED90000F94F5F180EC92EE60E00F94F5F187ECC2
:10EDA00092EE60E00F94F5F188ED92EE60E00F9442
:10EDB000F5F18FED92EE60E00F94F5F18AEE92EEB0
:10EDC00060E00F94F5F183E093EEBDCD87EC92EE19
:10EDD00062E00F94F5F181E40F947BF282E40F94EA
:10EDE0007BF283E40F947BF284E40F947BF285E45E
:10EDF0000F947BF286E40F947BF287E40F947BF20E
:10EE000088E40F947BF28AE40F947BF28BE40F94F6
:10EE10007BF28CE40F947BF299CD88ED92EE62E068
:10EE20000F94F5F1772473948824992409C48FED05
:10EE300092EE62E00F94F5F140910A0250910B02BC
:10EE400060910C0270910D0282E020E10F9491F22A
:10EE500080910A0290910B02A0910C02B0910D02D8
:10EE600080509F4FAF4FBF4F80930A0290930B0289
:10EE7000A0930C02B0930D0269CD8AEE92EE62E08F
:10EE80000F94F5F184EE90EE60E00F94F5F18FECC5
:10EE900091EE60E00F94F5F1662477244301CC5D98
:10EEA000DE4F19821882C452D140D401C301B695F5
:10EEB000A79597958795CA5DDE4F88839983AA8326
:10EEC000BB83C652D140CC5DDE4FA881B981C4520C
:10EED000D1401196CC5DDE4FB983A883C452D14096
:10EEE000CD0162E070E00F9434F2B0E2B093C6005E
:10EEF0008091C00086FFFCCF8091C0008064809329
:10EF0000C000EDE2E093C6008091C00086FFFCCF18
:10EF10008091C00080648093C000F0E2F093C6004E
:10EF20008091C00086FFFCCF8091C00080648093F8
:10EF3000C000CA5DDE4FE880F9800A811B81C6529D
:10EF4000D140BB27A12F902F8F2D0F940DF2CA5DBA
:10EF5000DE4F8881C652D1400F940DF2B0E2FB2EF5
:10EF6000F092C6008091C00086FFFCCF8091C00067
:10EF700080648093C0000DE30093C6008091C000C0
:10EF800086FFFCCF8091C00080648093C00010E2B7
:10EF90001093C6008091C00086FFFCCF8091C00016
:10EFA00080648093C0008BBEF3012791C65DDE4F65
:10EFB0002883CA52D140A22EBB24CC24DD2408943D
:10EFC000611C711C811C911C8BBEF3018791282E42
:10EFD0003324442455240894611C711C811C911C09
:10EFE0008BBEF3013791C55DDE4F3883CB52D140E4
:10EFF0000894611C711C811C911C8BBEF30147910C
:10F00000C45DDE4F4883CC52D140ADEFEA2EAFEF66
:10F01000FA2EAFEF0A2FAFEF1A2F6E0C7F1C801E57
:10F02000911E142D032DF22CEE24EA0CFB1C0C1D5A
:10F030001D1D0F940DF220E22093C6008091C000A8
:10F0400086FFFCCF8091C00080648093C000C65DC5
:10F05000DE4F8881CA52D1400F940DF230E23093D6
:10F06000C6008091C00086FFFCCF8091C000806404
:10F070008093C000C45DDE4F8881CC52D1400F9494
:10F080000DF240E24093C6008091C00086FFFCCFA5
:10F090008091C00080648093C000C55DDE4F888190
:10F0A000CB52D1400F940DF250E25093C6008091A4
:10F0B000C00086FFFCCF8091C00080648093C000B8
:10F0C0008FEFE8168FEFF80680E0080780E018075A
:10F0D00031F484E092EE60E00F94C2F1DFC0D80119
:10F0E000C7018070907CA070B0708050904CA040A0
:10F0F000B040D1F52FEF3FE340E050E0E222F322B1
:10F1000004231523CA5DDE4FA880B980CA80DB8046
:10F11000C652D140AE0CBF1CC01ED11EAA0CBB1CD7
:10F12000CC1CDD1C8EE092EE60E00F94C2F1BB2798
:10F13000A12F902F8F2D0F940DF28E2D0F940DF285
:10F1400030E23093C6008091C00086FFFCCF8091F2
:10F15000C00080648093C0004EE34093C60080915D
:10F16000C00086FFFCCF87C08EE09EEFA0E0B0E03D
:10F17000E822F9220A231B239CE0E91694E9F90608
:10F1800090E0090790E0190709F088C0C45DDE4FE0
:10F19000A881CC52D140EA2EFF2400E010E0102FCD
:10F1A0000F2DFE2CEE24C55DDE4FB881CB52D14031
:10F1B000EB0EF11C011D111DD601C501817090706F
:10F1C000A070B070DC0199278827E80EF91E0A1F8D
:10F1D0001B1F20EF30E040E050E0A222B322C42207
:10F1E000D52241E1AA0CBB1CCC1CDD1C4A95D1F7F1
:10F1F000EA0CFB1C0C1D1D1D81E090E0A0E0B0E0BE
:10F20000282239224A225B2235E1220C331C441C7D
:10F21000551C3A95D1F7E20CF31C041D151D57013E
:10F220006801AA0CBB1CCC1CDD1C85E192EE60E0E1
:10F230000F94C2F1C801AA27BB270F940DF2BB2778
:10F24000A12F902F8F2D0F940DF28E2D0F940DF274
:10F2500090E29093C6008091C00086FFFCCF809121
:10F26000C00080648093C000AEE3A093C60080918C
:10F27000C00086FFFCCF8091C00080648093C000F6
:10F28000C601AA27BB270F940DF2BB27AD2D9C2DDD
:10F290008B2D0F940DF28A2D0F940DF20F94DCF14B
:10F2A000CC5DDE4FE881F981C452D140F99709F471
:10F2B0004DCBF4E0EF2EF12C012D112D6E0C7F1CA7
:10F2C000801E911EF2CD83E093EE62E00F94F5F183
:10F2D0008AE192EE60E00F94C2F18091C00087FF56
:10F2E000FCCF1091C6001F751093C6008091C0001E
:10F2F00086FFFCCF8091C00080648093C0000F9493
:10F30000DCF1812F81548A3108F036C1163409F4BA
:10F3100095C0173490F4133409F44EC0143430F40B
:10F320001134F1F0123409F01DC130C0143409F465
:10F3300059C0153409F016C16BC01A3409F4C4C0A1
:10F340001B3438F4173409F48FC0183409F00AC19B
:10F35000A1C01B3409F4D2C01C3409F003C1E8C0B9
:10F360008FEF81B90DC082B1809582B980E090E0C5
:10F37000E0EDF7E03197F1F70196883C9105C1F790
:10F380008091C00087FFEFCF12B8EFC08FEF84B934
:10F390000DC085B1809585B980E090E0E0EDF7E0A3
:10F3A0003197F1F70196883C9105C1F78091C00033
:10F3B00087FFEFCF15B8D9C08FEF87B90DC088B1DF
:10F3C000809588B980E090E0E0EDF7E03197F1F7C3
:10F3D0000196883C9105C1F78091C00087FFEFCF6F
:10F3E00018B8C3C08FEF8AB90DC08BB180958BB9A7
:10F3F00080E090E0E0EDF7E03197F1F70196883C8E
:10F400009105C1F78091C00087FFEFCF1BB8ADC059
:10F410008FEF8DB90DC08EB180958EB980E090E0F0
:10F42000E0EDF7E03197F1F70196883C9105C1F7DF
:10F430008091C00087FFEFCF1EB897C08FEF80BBD1
:10F440000DC081B3809581BB80E090E0E0EDF7E0F6
:10F450003197F1F70196883C9105C1F78091C00082
:10F4600087FFEFCF11BA81C08FEF83BB0DC084B38C
:10F47000809584BB80E090E0E0EDF7E03197F1F714
:10F480000196883C9105C1F78091C00087FFEFCFBE
:10F4900014BA6BC08FEF809301010FC080910201FD
:10F4A00080958093020180E090E0E0EDF7E03197F5
:10F4B000F1F70196883C9105C1F78091C00087FF64
:10F4C000EDCF1092020151C08FEF809304010FC065
:10F4D0008091050180958093050180E090E0E0ED4A
:10F4E000F7E03197F1F70196883C9105C1F78091DB
:10F4F000C00087FFEDCF1092050137C08FEF8093DA
:10F5000007010FC08091080180958093080180E079
:10F5100090E0E0EDF7E03197F1F70196883C910536
:10F52000C1F78091C00087FFEDCF109208011DC088
:10F530008FEF80930A010FC080910B01809580931B
:10F540000B0180E090E0E0EDF7E03197F1F70196F4
:10F55000883C9105C1F78091C00087FFEDCF1092E4
:10F560000B0103C085E292EEEEC98091C00087FFD7
:10F57000FCCF8091C600EAC988E392EEE4C98CE131
:10F5800091EEE1C988249924933011F1943028F444
:10F59000913089F09230B8F408C0953061F195301F
:10F5A000F0F0963009F048C043C02B3109F042C951
:10F5B00091E06BE13FC96227C15DDE4F2883CF52E6
:10F5C000D14092E037C9B22FA0E0622793E032C960
:10F5D000822F90E0A82BB92B622794E02BC92E3004
:10F5E00009F039C3622795E0C05DDE4F19821882A9
:10F5F000C053D1401FC9E1E0F0E0EC0FFD1FC05D3A
:10F60000DE4F08811981C053D140E00FF11F2083E4
:10F610000F5F1F4FC05DDE4F19830883C053D14079
:10F6200062270A171B0709F005C9D80196E002C92D
:10F63000261709F010C303C0973009F0FBC87724E0
:10F640009981933109F412C19431C8F4963009F4C8
:10F65000D8C0973050F4923009F406C1933009F4C1
:10F660006DC0913009F059C253C0913109F477C08F
:10F67000923108F0BBC0903109F04FC2F5C098310B
:10F6800009F487C0993150F4953109F4EFC09531F0
:10F6900008F4C6C1963109F040C2C2C19A3109F4DA
:10F6A0006CC09A3108F491C09B3109F45BC09D3164
:10F6B00009F033C29D81903359F48F81882311F46E
:10F6C0009EE11CC0813011F091E018C098E916C08D
:10F6D000892F807591F0903539F4E0E0F0E089E011
:10F6E0008093570094910AC0983539F4E3E0F0E034
:10F6F00089E080935700949101C090E01A821B82A8
:10F700008D818C831D829E831F8227E030E009C299
:10F710001A8288E08B8381E48C8386E58D8382E581
:10F720008E8389E48F8383E5888780E589878FE5E9
:10F730008A8782E38B872BE030E0F3C18A818139AD
:10F7400041F0823941F0803911F48FE005C080E04A
:10F7500003C082E001C08AE01A828B8344C0772410
:10F76000739482C08D81882311F48EE12CC0813086
:10F7700011F081E028C088E926C01A82E1E0F0E0BB
:10F7800089E08093570084918B831C8224E030E0D1
:10F79000C8C18B81803589F48C81883039F4E2E0EE
:10F7A000F0E089E08093570084910DC0E0E0F0E044
:10F7B00089E080935700849106C0E3E0F0E089E09F
:10F7C0008093570084911A82DFCF8D81836C99E0FA
:10F7D000E1E0F0E0082E90935700E89507B600FCB2
:10F7E000FDCF1A821B8223E030E09BC180EC8A832C
:10F7F000CE5CDE4F188219821A821B82C253D1401E
:10F800008EC18A8190E0A0E0B0E0582F44273327D2
:10F8100022278B8190E0A0E0B0E0DC0199278827C7
:10F82000282B392B4A2B5B2B8D8190E0A0E0B0E098
:10F83000282B392B4A2B5B2B8C8190E0A0E0B0E089
:10F84000BA2FA92F982F8827282B392B4A2B5B2BCF
:10F85000220F331F441F551FC05EDE4F288339839C
:10F860004A835B83C052D1401A8259C13A81C95C34
:10F87000DE4F3883C753D140CA5CDE4F1882C6536F
:10F88000D1408B81C82EDD24CA5CDE4F488159816E
:10F89000C653D140C42AD52A933109F082C0CE5C28
:10F8A000DE4F88819981AA81BB81C253D1408050AB
:10F8B000904CA340B04030F583E0CE5CDE4FE88052
:10F8C000F9800A811B81C253D140F70100935B008C
:10F8D00080935700E89507B600FCFDCFCE5CDE4F65
:10F8E000088119812A813B81C253D14000501F4FAA
:10F8F0002F4F3F4FCE5CDE4F088319832A833B8313
:10F90000C253D140C05EDE4F488159816A817B81FC
:10F91000C052D140DE011B9631E08C9111962C91A2
:10F9200011971296C75CDE4F2883C953D140C85C3B
:10F93000DE4F1882C853D14090E0C85CDE4FE881AA
:10F94000F981C853D1408E2B9F2B0C01FA01609393
:10F950005B0030935700E89511244E5F5F4F6F4F67
:10F960007F4F0EEFE02E0FEFF02ECE0CDF1CC114F8
:10F97000D10499F685E0C05EDE4F088119812A81A5
:10F980003B81C052D140F80120935B008093570027
:10F99000E89507B600FCFDCF81E180935700E8951C
:10F9A00035C0C05EDE4F88819981AA81BB81C0527B
:10F9B000D140B695A795979587957C018601ABE0D8
:10F9C000AA2EB12CAC0EBD1E0BC0D5016D915D01F0
:10F9D000C7010F947FFE0894E11CF11C01501040F8
:10F9E0000115110591F7A60160E070E0440F551F65
:10F9F000661F771FC05EDE4FE880F9800A811B8199
:10FA0000C052D1404E0D5F1D601F711F1A82C05E33
:10FA1000DE4F488359836A837B83C052D1407FC0C5
:10FA2000FA80C55CDE4FF882CB53D140C65CDE4F16
:10FA30001882CA53D1408B81C82EDD24C65CDE4FAC
:10FA400008811981CA53D140C02AD12A1A828981DA
:10FA5000BE016D5F7F4F843121F59601C05EDE4FA0
:10FA6000E880F9800A811B81C052D1400BBFF701A9
:10FA700087919691DB018C9311969C936E5F7F4FDB
:10FA8000D801C7010296A11DB11DC05EDE4F88835B
:10FA90009983AA83BB83C052D14022503040F1F6F3
:10FAA00036C0C05EDE4F288139814A815B81C052F9
:10FAB000D1400894C108D108760100E010E0089414
:10FAC000C11CD11C0894E11CF11C011D111DE20E8A
:10FAD000F31E041F151F21BDBB27A52F942F832FB5
:10FAE00082BD2F5F3F4F4F4F5F4FF89A80B5DB01CC
:10FAF0008D93BD012E153F054007510761F7C05E8C
:10FB0000DE4F288339834A835B83C052D1409601FC
:10FB10002D5F3F4FFB01108204C080EC8A8322E0FE
:10FB200030E08BE18093C6008091C00086FFFCCF5F
:10FB30008091C00080648093C000C15DDE4FF88179
:10FB4000CF52D140F093C6008091C00086FFFCCF19
:10FB50008091C00080648093C000432F3093C60022
:10FB60008091C00086FFFCCF8091C00080648093AC
:10FB7000C000922F2093C6008091C00086FFFCCF6A
:10FB80008091C00080648093C0008EE08093C600A6
:10FB90008091C00086FFFCCF8091C000806480937C
:10FBA000C00065E1C15DDE4FE880CF52D1406E25D7
:10FBB00069276427FE01319610C090819093C6009A
:10FBC0008091C00086FFFCCF31968091C000806498
:10FBD0008093C0006927215030402115310569F715
:10FBE0006093C6008091C00086FFFCCF8091C0006A
:10FBF00080648093C00085B1805885B9772081F4F6
:10FC0000C15DDE4F0881CF52D1400F5FC15DDE4F35
:10FC10000883CF52D14090E0A0E0B0E00D941AF4F8
:10FC200027982F9880E090E020ED37E0F901319798
:10FC3000F1F7019684369105C9F700008091C00064
:10FC40008D7F8093C00081E180935700E895EE2777
:10FC5000FF270994FFCF90E00D941AF497FB092E2B
:10FC600007260AD077FD04D02ED006D000201AF443
:10FC7000709561957F4F0895F6F7909581959F4F08
:10FC80000895A1E21A2EAA1BBB1BFD010DC0AA1FDD
:10FC9000BB1FEE1FFF1FA217B307E407F50720F0F5
:10FCA000A21BB30BE40BF50B661F771F881F991F70
:10FCB0001A9469F760957095809590959B01AC01B9
:10FCC000BD01CF010895AA1BBB1B51E107C0AA1FAC
:10FCD000BB1FA617B70710F0A61BB70B881F991FED
:10FCE0005A95A9F780959095BC01CD010895F99991
:10FCF000FECF92BD81BDF89A992780B50895262F31
:10FD0000F999FECF1FBA92BD81BD20BD0FB6F89400
:0EFD1000FA9AF99A0FBE01960895F894FFCF63
:00000001FF
