:100000000C9451010C9482010C9482010C94820195
:100010000C9482010C9482010C9482010C94820154
:100020000C9482010C9482010C9482010C94820144
:100030000C9482010C9482010C9482010C94820134
:100040000C9482010C9482010C9482010C94820124
:100050000C9482010C9482010C9482010C943F0B4D
:100060000C9482010C94090B0C94DF0A0C9482010D
:100070000C9482010C9482010C9482010C948201F4
:100080000C9482010C9482010C9482010C948201E4
:100090000C9482010C9482010C9482010C94890BC3
:1000A0000C9482010C9482010C9482010C948201C4
:1000B0000C9482010C9482010C9482010C948201B4
:1000C0000C9482010C9482010C9482010C948201A4
:1000D0000C9482010C9482010C9482010C94820194
:1000E0000C9482010C9485070C9475030C94900376
:1000F0000C94FC020C945B070C944E040C94B0031B
:100100000C940E040C9418020C9498030C9479032C
:100110000C9477020C9494030C94E7070C94AF02B0
:100120000C946B030C94AC030C9480030C94690244
:100130000C94DD030C9498090C94AB030C9471039C
:100140000C94AD0C0C946B070C94A6030C949E03BA
:100150000C9419020C94E6070C94A2030C947D03F2
:100160000C9446020C947E070C945C070C94860356
:100170000C9455020C9417020C948A030C94B20749
:1001800000002100240027002A002D003000330049
:1001900001010000040107010A01000022002500FE
:1001A00028002B002E003100340002010000050160
:1001B00008010B01000020002300260029002C006C
:1001C0002F003200000100000301060109010505AE
:1001D0000505070508080808020202020A0A0808BD
:1001E00004040404010101010101010103030303EB
:1001F00003030303040707070C0C0C0C0C0C0C0C7A
:100200000202020206060606060606060B0B0B0B8A
:100210000B0B0B0B010210202008081020401020AF
:1002200040800201020108040201010204081020BA
:1002300040808040201008040201800402018040B8
:100240002010080402010804020101020408102021
:100250004080010204081020408000000A0B0209BF
:100260000C0D0E0807030401000000000000000050
:10027000000000000000000000000000000000007E
:10028000000000000000121110000000000000003B
:10029000000000000000000000000000000000005E
:1002A000AD0C11241FBECFEFD1E2DEBFCDBF00E009
:1002B0000CBF12E0A0E0B2E0EEE9F0E200E00BBF1C
:1002C00002C007900D92AC38B107D9F724E0ACE832
:1002D000B2E001C01D92A038B207E1F711E0C1E51C
:1002E000D1E000E006C021970109802FFE010E94A5
:1002F0004510C035D10780E00807A9F70E94780DA6
:100300000C944D100C94000096E0899FD0011124AC
:10031000A750BC4F90967C936E935F9791E0919617
:100320009C939197E0916604F09167049091650425
:10033000992339F0309751F0811108C0809115044C
:100340001994309719F05C968C91FACF0895CF925A
:10035000DF92EF92FF920F931F9396E0899FF00137
:100360001124E750FC4F11A2278D30A12130310517
:1003700051F178F02230310509F451C023303105B4
:1003800009F452C01F910F91FF90EF90DF90CF9032
:1003900008956623B9F361E070E00E9484012FB7ED
:1003A000F8948091FC029091FD02A091FE02B09120
:1003B000FF022FBF8093510490935204A0935304E3
:1003C000B0935404DFCF9FB7F894C090FC02D09054
:1003D000FD02E090FE02F090FF029FBF00915104E9
:1003E000109152042091530430915404C01AD10A40
:1003F000E20AF30A009163041091640430E020E003
:100400000C151D052E053F0550F462E070E01F91AC
:100410000F91FF90EF90DF90CF900C9484016111C9
:10042000B1CF63E070E0F3CF70E060E0F0CF08950B
:100430000895AF92BF92CF92DF92EF92FF920F9307
:100440001F93CF93DF936C017B018B01040F151F6A
:10045000EB015E01AE18BF08C017D10759F06991D2
:10046000D601ED91FC910190F081E02DC601199526
:10047000892B79F7C501DF91CF911F910F91FF90E3
:10048000EF90DF90CF90BF90AF900895FC01538D17
:10049000448D252F30E0842F90E0821B930B54175E
:1004A00010F0CF96089501970895FC01918D828DEB
:1004B000981761F0A28DAE0FBF2FB11D5D968C9184
:1004C000928D9F5F9F73928F90E008958FEF9FEFC3
:1004D0000895FC01918D828D981731F0828DE80F7F
:1004E000F11D858D90E008958FEF9FEF0895FC0139
:1004F000918D228D892F90E0805C9F4F821B910906
:100500008F739927089580E593E00E94770221E098
:10051000892B09F420E0822F0895FC01A48DA80FF7
:10052000B92FB11DA35ABF4F2C91848D90E0019635
:100530008F739927848FA689B7892C93A089B18955
:100540008C91837080648C93938D848D981306C0F6
:100550000288F389E02D80818F7D80830895EF925A
:10056000FF920F931F93CF93DF93EC0181E0888F6D
:100570009B8D8C8D98131AC0E889F989808185FF3D
:1005800015C09FB7F894EE89FF896083E889F989DF
:1005900080818370806480839FBF81E090E0DF91E1
:1005A000CF911F910F91FF90EF900895F62E0B8D34
:1005B00010E00F5F1F4F0F731127E02E8C8D8E11EF
:1005C0000CC00FB607FCFACFE889F989808185FF56
:1005D000F5CFCE010E948D02F1CFEB8DEC0FFD2FF8
:1005E000F11DE35AFF4FF0829FB7F8940B8FEA8911
:1005F000FB8980818062CFCFCF93DF93EC01888D20
:100600008823B9F0AA89BB89E889F9898C9185FD8D
:1006100003C0808186FD0DC00FB607FCF7CF8C911B
:1006200085FFF2CF808185FFEDCFCE010E948D0244
:10063000E9CFDF91CF91089580E090E0892B29F0F8
:100640000E94830281110E94000080E090E0892BCB
:1006500049F080E090E0892B29F00E940000811190
:100660000E94000080E090E0892B49F080E090E05B
:10067000892B29F00E94000081110E94000080E077
:1006800090E0892B49F080E090E0892B29F00E94CE
:10069000000081110C94000008958150823108F00F
:1006A0005AC0E82FF0E08827E75AFC4F8F4F0C9490
:1006B000451079037D036B0371037503AB0380035E
:1006C00086038A039003940398039E03A203AB035B
:1006D000A603AC03B003809180008F7780938000E5
:1006E0000895809180008F7DF9CF80918000877F71
:1006F000F5CF84B58F7784BD089584B58F7DFBCF0A
:100700008091B0008F778093B00008958091B00001
:100710008F7DF9CF809190008F778093900008951E
:10072000809190008F7DF9CF80919000877FF5CFE9
:100730008091A0008F778093A00008958091A00001
:100740008F7DF9CF8091A000877FF5CF8091200128
:100750008F77809320010895809120018F7DF9CFBC
:1007600080912001877FF5CFCF93DF93282F30E052
:10077000F901E65AFD4F8491F901EC5EFD4FD491E9
:10078000F901E253FE4FC491CC23A1F081110E94E4
:100790004D03EC2FF0E0EE0FFF1FEC54FE4FA59140
:1007A000B491EC91ED2381E090E009F480E0DF91D9
:1007B000CF91089580E090E0FACF862F0C94B40397
:1007C0001F93CF93DF93282F30E0F901E65AFD4FB6
:1007D0008491F901EC5EFD4FD491F901E253FE4F93
:1007E000C491CC23A9F0162F81110E944D03EC2F48
:1007F000F0E0EE0FFF1FE656FE4FA591B4918FB7C4
:10080000F894EC91111108C0D095DE23DC938FBFD2
:10081000DF91CF911F910895DE2BF8CF862F642FA3
:100820000C94E003CF93DF9390E0FC01EC5EFD4F6E
:10083000249182539E4FFC0184918823C9F090E05B
:10084000880F991FFC01E058FE4FA591B491FC015F
:10085000E656FE4FC591D49161110DC09FB7F89433
:100860008C91209582238C938881282328839FBF95
:10087000DF91CF910895623051F49FB7F8943C9185
:10088000822F809583238C93E8812E2BEFCF8FB717
:10089000F894EC912E2B2C938FBFEACF862F642FE8
:1008A0000C9412046F927F928F929F92AF92BF929C
:1008B000CF92DF92EF92FF920F931F93CF93DF932C
:1008C00081E0809365048FB7F8944091FC025091C9
:1008D000FD026091FE027091FF028FBF809155046E
:1008E00090915604A0915704B0915804481B590B9D
:1008F0006A0B7B0B8091610490916204B0E0A0E0F0
:1009000084179507A607B70708F01DC1C0E08091BE
:100910005F04C81760F4E0915B04F0915C04EC0F95
:10092000F11D62E080810E941204CF5FF0CF712C34
:10093000812C912C5401839480916004781608F0E6
:100940005FC0072D10E0E0915D04F0915E04E00FC0
:10095000F11F61E080810E941204E0915D04F0913A
:100960005E04E00FF11F60E080810E94E003D5018A
:10097000C401072C04C0880F991FAA1FBB1F0A942B
:10098000D2F76C017C01E094F094612C80915F04BB
:100990006816F8F4C62DD0E0E0915B04F0915C0499
:1009A000EC0FFD1F80810E94B4032496CC0FDD1F45
:1009B000C750DC4F892B41F4888199818C299D296E
:1009C000998388836394E2CF888199818E219F21C6
:1009D000F7CFE0915D04F0915E04E00FF11F61E05C
:1009E00080810E94E00380915D0490915E04080F75
:1009F000191F60E0F80180810E94120473949CCF5B
:100A0000C9EFD3E0FE018FEF9FEF278D30A1232B9D
:100A100021F4148E968F858F11A2369624E0E5334B
:100A2000F20799F7F12C96E0D92E80915F04F81621
:100A300008F050C0E12C0F2D10E0000F111F0F5FC8
:100A40001B4F20916004E21608F042C0F80160815B
:100A500071810E2C02C0769567950A94E2F7F29E9A
:100A6000900111242E0D311DE9EFF3E080E0458D5A
:100A7000568D2417350709F46AC08F5F36968A3081
:100A8000B1F760FF23C0E9EFF3E090E080E0448D30
:100A9000411117C0E0915904F0915A04E20FF31F7D
:100AA0004081D89EF001D99EF00D1124E750FC4FF3
:100AB000448F368F258F10A2178E61E00E94A70108
:100AC00005C0019636968A30910509F7E394B9CFAF
:100AD000F394ABCF80E099A19111892F2696F4E091
:100AE000C533DF07C1F79FB7F8944091FC025091DE
:100AF000FD026091FE027091FF029FBF409355047A
:100B00005093560460935704709358048823D9F087
:100B100080911A048823B9F08091180490911904E7
:100B2000019789F480911504DF91CF911F910F9166
:100B3000FF90EF90DF90CF90BF90AF909F908F90FD
:100B40007F906F9008951092650480E0EDCF617002
:100B5000B5CF0E9452048823E1F308953FB7F8947B
:100B60008091F1029091F202A091F302B091F4020F
:100B700026B5A89B05C02F3F19F00196A11DB11DF8
:100B80003FBFBA2FA92F982F8827BC01CD01620F34
:100B9000711D811D911D42E0660F771F881F991FEF
:100BA0004A95D1F708958F929F92AF92BF92CF92BC
:100BB000DF92EF92FF924B015C010E94AE056B0148
:100BC0007C010E94AE056C197D098E099F09683E63
:100BD000734081059105A8F321E0821A9108A108CC
:100BE000B10888EEC80E83E0D81EE11CF11C811408
:100BF0009104A104B10429F7FF90EF90DF90CF900A
:100C0000BF90AF909F908F9008952091CD02260FB6
:100C10003327331F21323105ECF420912603FC01E8
:100C200090E080E0243069F082E00895A091CD0248
:100C30002191AC0143555D4FA40FB52FB11D2C93ED
:100C40000196861798F38091CD02680F6093CD02CC
:100C500080E0089581E008951092260381E080935A
:100C600025031092000361E084E10E94E00361E04B
:100C700085E10E94E003E9EBF0E080818E7F8083D4
:100C800080818D7F808388E48093B80085E48093A1
:100C9000BC000895CF93DF9391E09093AC0288233A
:100CA000B9F0C091B800D091BA008091BC008A7BA5
:100CB0008093BC0060E084E10E94E00360E085E195
:100CC0000E94E0030E942C06D093BA00C093B800A3
:100CD000DF91CF9108958F929F92AF92BF92CF9262
:100CE000DF92EF92FF920F931F93CF93DF93D091F8
:100CF0004F03D13208F0D7C0182FC0914E030E9485
:100D0000AE056B017C018091260381116BC082E0EE
:100D100080932603109325038FEF80932403109272
:100D20002303D0932203AEE2B3E0E2E0F3E080E0FD
:100D3000D81391C01092010380910103CC0FC82BEE
:100D4000C093010380910003813009F088C01092A4
:100D500000030E94AE056B017C018091010380932A
:100D6000BB008091280390912903A0912A03B091A0
:100D70002B03892B8A2B8B2BA1F00E94AE050091AF
:100D800028031091290320912A0330912B036C1919
:100D90007D098E099F09061717072807390708F4E8
:100DA00042C08091BC0083FDD8CF85EC8093BC000D
:100DB0000E94AE056B017C0180912603823009F40C
:100DC00050C0809124038F3F09F46FC080912403A9
:100DD000803209F46CC080912403803309F469C027
:100DE00084E026C08091280390912903A0912A03D2
:100DF000B0912B03892B8A2B8B2B09F484CF0E9473
:100E0000AE058090280390902903A0902A03B0900B
:100E10002B036C197D098E099F0986169706A80673
:100E2000B90608F070CF809127030E944A0685E03A
:100E300010922D0310924F0310922C03DF91CF914B
:100E40001F910F91FF90EF90DF90CF90BF90AF90E8
:100E50009F908F9008959D9191938F5F69CF85EEBC
:100E6000A5CF8091280390912903A0912A03B091E6
:100E70002B03892B8A2B8B2B09F49ECF0E94AE0566
:100E8000009128031091290320912A0330912B030C
:100E90006C197D098E099F0906171707280739075E
:100EA00008F08ACFC0CF81E0C3CF80E0C1CF82E01D
:100EB000BFCF83E0BDCF0895E091FA028091F9029F
:100EC000E81730F4F0E0E457FD4F808190E008959A
:100ED0008FEF9FEF08959091FA028091F9022FEF22
:100EE0003FEF981748F4E92FF0E0E457FD4F2081D9
:100EF00030E09F5F9093FA02C90108958091F90252
:100F00009091FA02891B990B0895CF92DF92EF928C
:100F1000FF920F931F93CF93DF937C01CB018A0144
:100F200020912C03222389F0EB016B01C40ED51E06
:100F3000CC15DD0569F06991D701ED91FC91019027
:100F4000F081E02DC7011995F3CF642F0E940506AB
:100F5000C801DF91CF911F910F91FF90EF90DF902B
:100F6000CF900895CF93DF931F92CDB7DEB76983FB
:100F700020912C032223F9F020914F03203258F0C6
:100F800021E030E0FC013383228390E080E00F9089
:100F9000DF91CF91089580912D03E82FF0E0E25D7D
:100FA000FC4F998190838F5F80932D0380934F0333
:100FB00081E090E0ECCF61E0CE0101960E94050651
:100FC000F7CF682F8DEE93E00C94B207089590E070
:100FD00080E008958F929F92AF92BF920F931F93DC
:100FE000CF93DF93CDB7DEB7A1970FB6F894DEBFEE
:100FF0000FBECDBF19A2423008F44AE08E010F5D4A
:101000001F4F842E912CB12CA12CA50194010E947C
:101010002310E62FB901CA01EA3044F5E05DD8019A
:10102000EE938D01232B242B252B79F790E080E084
:10103000109769F0FD0101900020E9F73197AF01A9
:101040004A1B5B0BBD0188E694E00E941902A19641
:101050000FB6F894DEBF0FBECDBFDF91CF911F91C9
:101060000F91BF90AF909F908F900895E95CD7CF7C
:10107000FC0101900020E9F73197AF01481B590BA3
:10108000BC0188E694E00C941902CF93DF93EC0145
:1010900060E08E810E94E00361E08E810E94E003A7
:1010A00060E08E810E94E0038BE891E00197F1F708
:1010B000DF91CF910895CF92DF92EF92FF920F933D
:1010C0001F93CF93DF936C017C0187E0E80EF11C46
:1010D000D0E0C0E0062F10E0B8010C2E02C07595DC
:1010E00067950A94E2F76170F70181917F010E9490
:1010F000E0032196C430D10579F7C601DF91CF9185
:101100001F910F91FF90EF90DF90CF900C944508C6
:10111000CF92DF92EF92FF920F931F93CF93DF93C3
:10112000EC01F62E642F8C810E94E0038D818F3FAD
:1011300019F060E00E94E0030F2D10E08F8584FF1E
:1011400025C06E0187E0C80ED11CF12CE12CB8013E
:101150000E2C02C0759567950A94E2F76170F6014E
:1011600081916F010E94E003FFEFEF1AFF0A88E010
:10117000E816F10461F7CE01DF91CF911F910F9135
:10118000FF90EF90DF90CF900C944508B80184E079
:10119000759567958A95E1F7CE010E945B086F2DE2
:1011A000CE01DF91CF911F910F91FF90EF90DF90D3
:1011B000CF900C945B0840E0682F88E694E00C9494
:1011C000880881E00E94DB088BE39FE10197F1F73B
:1011D0000895CF93DF93823029F49091770498603B
:1011E0009093770480937B0410927C0480E4809336
:1011F0007D0480E180937E0480E580937F0461E03C
:1012000080916C040E94120480916D048F3F19F04C
:1012100061E00E94120461E080916E040E94120459
:10122000C8E6D4E09E01285634408091770484FDBE
:101230000BC084E090E021962817390744F461E060
:101240008E810E941204EECF88E090E0F4CF8BE311
:101250009DE00197F1F760E080916C040E94E0034B
:1012600060E080916E040E94E00380916D048F3FE6
:1012700019F060E00E94E0038091770484FD34C09F
:1012800063E088E694E00E945B08CBE4D6E4CE01FC
:101290000197F1F763E088E694E00E945B082197EC
:1012A000F1F763E088E694E00E945B0883E592E052
:1012B0000197F1F762E088E694E00E945B08809174
:1012C000770480620E94DB0884E0809378048CE0DD
:1012D0000E94DB080E94E10882E08093790486E0A6
:1012E000DF91CF910C94DB0880620E94DB088BE4D5
:1012F00096E40197F1F78091770480620E94DB0801
:1013000083E592E00197F1F78091770480620E9473
:10131000DB08D5CF90917B04891710F08FEF890FF0
:10132000E82FF0E0E859FB4F848980680C94DB08D3
:1013300041E00E94880881E090E00895CF92DF921A
:10134000EF92FF926C01990FEE08FF08F7FE16C0AE
:1013500041E06DE288E694E00E94880866277727DE
:10136000CB016C197D098E099F094AE00E94EA07AA
:101370000196FF90EF90DF90CF9008954AE0C7016B
:10138000B601FF90EF90DF90CF900C94EA07CF92D8
:10139000DF92EF92FF920F931F9381E080932C03D3
:1013A00080E580934E0310922D0310924F0390E03E
:1013B00080E00E94E1078AEA90E00E94E10781E074
:1013C0000E946B060E94AE056B017C018091260392
:1013D000811163C081E080932603809325039FEFF2
:1013E000909324031092230310922203809301030D
:1013F00080910103806A8093010380910003813012
:1014000009F07FC0109200030E94AE056B017C01C1
:10141000809101038093BB00809128039091290360
:10142000A0912A03B0912B03892B8A2B8B2BA1F03F
:101430000E94AE05009128031091290320912A03F0
:1014400030912B036C197D098E099F090617170728
:101450002807390708F442C08091BC0083FDD8CF2B
:1014600085EC8093BC000E94AE056B017C018091ED
:101470002603813009F447C080912303811165C0A0
:1014800080912303A2E0B3E0ECE8F2E090E098174B
:1014900051F12D9121939F5FFACF80912803909174
:1014A0002903A0912A03B0912B03892B8A2B8B2B24
:1014B00009F48CCF0E94AE050091280310912903F6
:1014C00020912A0330912B036C197D098E099F0905
:1014D000061717072807390708F078CF80912703E8
:1014E0000E944A0680E01092FA028093F9028DEE83
:1014F00093E01F910F91FF90EF90DF90CF900C94AD
:101500006B0785EEAECF8091280390912903A091BF
:101510002A03B0912B03892B8A2B8B2B09F4A7CF9D
:101520000E94AE05009128031091290320912A03FF
:1015300030912B036C197D098E099F090617170737
:101540002807390708F093CFC9CF81E09BCF85EDFD
:101550008093BC008091280390912903A0912A03D5
:10156000B0912B030796A11DB11D23E0B695A79559
:10157000979587952A95D1F72091BC0024FD03C04B
:1015800010922603089540912803509129036091F9
:101590002A0370912B03452B462B472B69F30097A9
:1015A000A105B10541F025E32A95F1F70000019767
:1015B000A109B109E1CF809127030C944A061F923B
:1015C0000F920FB60F9211240BB60F922F933F93E9
:1015D0004F935F936F937F938F939F93AF93BF933B
:1015E000EF93FF9380E593E00E948D02FF91EF91CE
:1015F000BF91AF919F918F917F916F915F914F912B
:101600003F912F910F900BBE0F900FBE0F901F9028
:1016100018951F920F920FB60F9211240BB60F92CE
:101620002F938F939F93EF93FF93E0916003F0913B
:1016300061038081E0916603F091670382FD1DC024
:101640009081809169038F5F8F7320916A03821765
:1016500041F0E0916903F0E0E05BFC4F958F8093EF
:101660006903FF91EF919F918F912F910F900BBE86
:101670000F900FBE0F901F9018958081F2CF1F9290
:101680000F920FB60F9211242F933F938F939F9336
:10169000AF93BF938091FC029091FD02A091FE0256
:1016A000B091FF023091F00223E0230F2D3758F55F
:1016B0000196A11DB11D2093F0028093FC0290932E
:1016C000FD02A093FE02B093FF028091F10290917F
:1016D000F202A091F302B091F4020196A11DB11D96
:1016E0008093F1029093F202A093F302B093F4027C
:1016F000BF91AF919F918F913F912F910F900FBE0E
:101700000F901F90189526E8230F0296A11DB11D7A
:10171000D2CF1F920F920FB60F9211240BB60F92D9
:101720002F933F934F935F936F937F938F939F93E9
:10173000AF93BF93EF93FF938091B900887F80367A
:1017400009F44DC008F040C0883209F4A9C028F55A
:10175000803109F49DC0C8F4882309F4FBC08830A7
:1017600009F496C0FF91EF91BF91AF919F918F9136
:101770007F916F915F914F913F912F910F900BBE91
:101780000F900FBE0F901F901895883109F488C0F4
:10179000803241F78093240314C0803409F49DC043
:1017A00040F48033B9F38833E9F68093240385EC61
:1017B000B0C0803509F485C0883509F496C08834F6
:1017C00089F60E94A70ACECF883909F48CC038F573
:1017D000883729F050F4883611F0803719F683E005
:1017E000809326031092EF0257C0883809F47BC01B
:1017F000803919F0803809F0B5CF8091EF0280323E
:1018000008F071C0E091EF0281E08E0F8093EF024B
:101810008091BB00F0E0E153FD4F80833DC0803BF1
:1018200039F0E0F4803A09F479C0883A09F09ACFA7
:1018300084E0809326031092CE021092CD02E091B4
:10184000F702F091F80219958091CD0281110FC035
:1018500081E08093CD021092AD0209C0803C09F472
:10186000A6CF883C09F4A3CF883B09F07BCFE09159
:10187000CE0281E08E0F8093CE02F0E0E355FD4F63
:1018800080818093BB009091CE028091CD0229C0CF
:10189000809101038093BB0085EC8093BC0062CFF4
:1018A0009091230380912203981758F5E091230328
:1018B00081E08E0F80932303F0E0EE5FFC4F808188
:1018C000E9CFE091230381E08E0F80932303809181
:1018D000BB00F0E0EE5FFC4F80839091230380918A
:1018E00022039817C8F285E8D8CFE091230381E05E
:1018F0008E0F809323038091BB00F0E0EE5FFC4FDE
:1019000080838091250381115CCF81E08093000367
:1019100084EA8093BC001092260324CF85EC809348
:10192000BC00109226038091EF02803230F4E091E7
:10193000EF02F0E0E153FD4F10826091EF0270E0A2
:10194000E091F502F091F6028FEC92E01995109279
:10195000EF0208CF1092240334CF10925303109259
:10196000520388EE93E0A0E0B0E08093540390939C
:101970005503A0935603B093570320E232E030930F
:1019800051032093500325EC30E030935D03209306
:101990005C0324EC30E030935F0320935E0320EC83
:1019A00030E0309361032093600321EC30E030930A
:1019B00063032093620322EC30E0309365032093AD
:1019C000640326EC30E030936703209366031092A3
:1019D000690310926A0310926B0310926C031092C9
:1019E000F0031092EF038093F1039093F203A0931E
:1019F000F303B093F40382E392E09093EE038093B9
:101A0000ED0310926B0410926A048EE492E09093BE
:101A100069048093680486E180936C048FEF80935F
:101A20006D0487E180936E0488E180936F0489E1FF
:101A3000809370048AE1809371048BE18093720437
:101A4000109273041092740410927504109276042C
:101A50001092770481E00E94E9081092FB03109233
:101A6000FF031092FE031092000484E492E090932E
:101A7000FA038093F903E5E1F4E010821482138203
:101A80001582369684E0E135F807B9F78AE592E0E9
:101A900090935C0480935B0486E592E090935E04EF
:101AA00080935D0484E080935F04809360048CE005
:101AB00092E090935A04809359048AE090E09093C6
:101AC00062048093610484EF91E0909364048093B6
:101AD00063041092670410926604109255041092E9
:101AE00056041092570410925804109265040895F9
:101AF000789484B5826084BD84B5816084BD85B5E9
:101B0000826085BD85B5816085BD80916E008160F4
:101B100080936E001092810080918100826080939A
:101B2000810080918100816080938100809180009C
:101B30008160809380008091B10084608093B100C7
:101B40008091B00081608093B000809191008260AC
:101B500080939100809191008160809391008091A9
:101B600090008160809390008091A10082608093BA
:101B7000A1008091A10081608093A1008091A000CC
:101B800081608093A0008091210182608093210177
:101B900080912101816080932101809120018160E9
:101BA0008093200180917A00846080937A008091F4
:101BB0007A00826080937A0080917A0081608093BD
:101BC0007A0080917A00806880937A001092C10038
:101BD000E0916003F091610382E08083E0915C0317
:101BE000F0915D031082E0915E03F0915F038FEC52
:101BF000808310926803E0916403F091650386E0AE
:101C00008083E0916203F09163038081806180832F
:101C1000E0916203F0916303808188608083E091AA
:101C20006203F0916303808180688083E0916203A6
:101C3000F091630380818F7D808382E00E94E908B8
:101C40000E94E1081092FA021092F90210922D03FC
:101C500010924F030E942C0687E192E09093F802C5
:101C60008093F70288E192E09093F6028093F50268
:101C700061E08CE10E94120461E08DE10E94120497
:101C800061E08EE10E94120461E08FE10E94120483
:101C90000E94C70990930B0280930A020197049750
:101CA00030F081E090E090930B0280930A028091E3
:101CB0000A0290910B029093010280930002DAE0F5
:101CC00080E5B82E80910A0290910B0200910802E3
:101CD00010910902CCE181309105D1F0009106020A
:101CE00010910702CDE18230910591F0009104023C
:101CF00010910502CEE18330910551F0009102026E
:101D000010910302CFE1049719F0C0E010E000E069
:101D100061E08C2F0E94E003D12CC12CC016D106AB
:101D20000CF002C10E9452048093FB020E94E10861
:101D300080E00E948A098EE592E00E943808809136
:101D40000002909101020E949E0981E00E948A098E
:101D500082E792E00E943808C8018C199D090E9410
:101D60009E098091FB028A3291F40E94A90580931A
:101D7000FB028091FB028A32C1F78FEFC81AD80AA2
:101D800064E670E080E090E00E94D305C7CF8D321A
:101D9000A1F70E94E10880E00E948A098EE692E0A5
:101DA0000E9438080E94A905F82E8093FB0281E06A
:101DB0000E948A0941E06F2D88E694E00E9488081D
:101DC00064EF71E080E090E00E94D30581E3F812B7
:101DD00033C00E94A9058093FB02082E000C990BCA
:101DE000C09790930902809308020E94A9058093EE
:101DF000FB022091080230910902D29F7001D39F0B
:101E0000F00C1124E80EF11C87FDFA9480E3E81A27
:101E1000F108F0920902E09208020E94E10880E0D5
:101E20000E948A09C7010E949E0964EF71E080E068
:101E300090E00E94D305A1CF82E3F81225C00E9452
:101E4000A9058093FB02082E000C990BC097909374
:101E50000702809306020E94A9058093FB0220914D
:101E6000060230910702D29F7001D39FF00C11241B
:101E7000E80EF11C87FDFA9480E3E81AF108F0926D
:101E80000702E0920602C9CF83E3F81225C00E9440
:101E9000A9058093FB02082E000C990BC097909324
:101EA0000502809304020E94A9058093FB02209101
:101EB000040230910502D29F7001D39FF00C1124CF
:101EC000E80EF11C87FDFA9480E3E81AF108F0921D
:101ED0000502E0920402A1CF84E3F8124ECF0E94E3
:101EE000A9058093FB02082E000C990BC0979093D4
:101EF0000302809302020E94A9058093FB022091B5
:101F0000020230910302D29F7001D39FF00C112482
:101F1000E80EF11C87FDFA9480E3E81AF108F092CC
:101F20000302E092020279CF60E08C2F0E94E0036E
:101F300080910A0290910B02019690930B0280937C
:101F40000A0205970CF47CC061E08CE10E94E0037A
:101F500061E08DE10E94E00361E08EE10E94E00318
:101F600061E08FE10E94E0030E94E10880E00E94AE
:101F70008A098AE792E00E9438080E94A9058093A6
:101F8000FB028091FB0296ED980F9230B0F78B32F6
:101F9000E9F50E94E10880E00E948A098FE792E05B
:101FA0000E9438080E94A905C82F8093FB0281E097
:101FB0000E948A0941E06C2F88E694E00E9488081C
:101FC00064E670E080E090E00E94D30581E08093B9
:101FD0002C03B0924E0310922D0310924F0390E009
:101FE00080E00E94E1078AEA90E00E94E1078C2FDE
:101FF000CC0F990BC0970E94E10781E00E946B060D
:1020000064E670E080E090E00E94D30560E08CE13F
:102010000E94E00360E087E20E94E00360E08EE15E
:102020000E94E00360E08FE10E94E0030E94C70984
:1020300090930B0280930A02909301028093000216
:102040000E941C033FCEA1E21A2EAA1BBB1BFD015E
:102050000DC0AA1FBB1FEE1FFF1FA217B307E40787
:10206000F50720F0A21BB30BE40BF50B661F771FDF
:10207000881F991F1A9469F76095709580959095BF
:102080009B01AC01BD01CF010895EE0FFF1F881F1A
:0E2090008BBF0790F691E02D1994F894FFCFC6
:10209E000100630063006300630001003738392FCD
:1020AE00343536783132332D2A303D2B0000000086
:1020BE00AF0219024602FC027702550269020000C5
:1020CE000000B2078507E7075B077E076B075C0713
:1020DE00000000004E040E04DD030000000098090D
:1020EE001902E707E607323334352E2F3031646597
:1020FE006661756C74206D6F6465203A200073659F
:10210E00742074696D65203A2000646F6E650073EB
:0C211E006574206D6F6465203A2000009D
:00000001FF
