:100000000C9428010C9459010C9459010C94590139
:100010000C9459010C9459010C9459010C945901F8
:100020000C9459010C9459010C9459010C945901E8
:100030000C9459010C9459010C9459010C945901D8
:100040000C9459010C9459010C9459010C945901C8
:100050000C9459010C9459010C9459010C943C05D1
:100060000C9459010C9459010C9459010C945901A8
:100070000C9459010C9459010C9459010C94590198
:100080000C9459010C9459010C9459010C94590188
:100090000C9459010C9459010C9459010C94590178
:1000A0000C9459010C9459010C9459010C94590168
:1000B0000C9459010C9459010C9459010C94590158
:1000C0000C9459010C9459010C9459010C94590148
:1000D0000C9459010C9459010C9406050C94DC0401
:1000E0000C9459010C942A030C94CA010C947A01C3
:1000F0000C9401030C940A030C94F9020C94300341
:100100000C94F5020C940E030C9426030C944507F2
:100110000C94A7010C9410020C945D020C9418032B
:100120000C9414030C94E3020C9404030C94B60195
:100130000C9434030C9422030C94DE020C941C03E4
:100140000C94FD020C94D80100000A0B02090C0D5E
:100150000E0807030401000000000000000000007A
:10016000000000000000000000000000000000008F
:10017000000000001211100000000000000000004C
:10018000000000000000000000000000000000006F
:100190002200250028002B002E003100340002012F
:1001A0000000050108010B010000210024002700C8
:1001B0002A002D0030003300010100000401070176
:1001C0000A010505050507050808080802020202DC
:1001D0000A0A0808040404040101010101010101E3
:1001E0000303030303030303040707070C0C0C0CAE
:1001F0000C0C0C0C02020202060606060606060697
:100200000B0B0B0B0B0B0B0B010210202008081023
:100210002040102040800201020108040201010276
:10022000040810204080804020100804020180044F
:1002300002018040201008040201080402010102AA
:100240000408102040800102040810204080450767
:1002500011241FBECFEFD1E2DEBFCDBF00E00CBF47
:1002600012E0A0E0B2E0E4E3F4E100E00BBF02C082
:1002700007900D92A233B107D9F722E0A2E3B2E0D2
:1002800001C01D92A53EB207E1F711E0C8E2D1E03E
:1002900000E006C021970109802FFE010E94100A8C
:1002A000C732D10780E00807A9F70E9486050C94A1
:1002B000180A0C94000090E0FC01E85FFD4F2491C7
:1002C0008E539E4FFC018491882399F090E0880F13
:1002D000991FFC01E855FE4FA591B491FC01E2572E
:1002E000FE4F859194918FB7F894EC91E22BEC93AB
:1002F0008FBF0895AF92BF92CF92DF92EF92FF929D
:100300000F931F93CF93DF936C017B018B01040F3D
:10031000151FEB015E01AE18BF08C017D10759F0D9
:100320006991D601ED91FC910190F081E02DC6011B
:100330001995892B79F7C501DF91CF911F910F9105
:10034000FF90EF90DF90CF90BF90AF900895FC01A9
:10035000538D448D252F30E0842F90E0821B930B2A
:10036000541710F0CF96089501970895FC01918DD0
:10037000828D981761F0A28DAE0FBF2FB11D5D96D3
:100380008C91928D9F5F9F73928F90E008958FEF75
:100390009FEF0895FC01918D828D981731F0828D29
:1003A000E80FF11D858D90E008958FEF9FEF089580
:1003B000FC01918D228D892F90E0805C9F4F821BE4
:1003C00091098F739927089588E492E00E94D801DB
:1003D00021E0892B09F420E0822F0895FC01A48DEF
:1003E000A80FB92FB11DA35ABF4F2C91848D90E057
:1003F00001968F739927848FA689B7892C93A0893A
:10040000B1898C91837080648C93938D848D9813C3
:1004100006C00288F389E02D80818F7D8083089556
:10042000EF92FF920F931F93CF93DF93EC0181E044
:10043000888F9B8D8C8D98131AC0E889F9898081EB
:1004400085FF15C09FB7F894EE89FF896083E8891E
:10045000F98980818370806480839FBF81E090E010
:10046000DF91CF911F910F91FF90EF900895F62E9D
:100470000B8D10E00F5F1F4F0F731127E02E8C8D37
:100480008E110CC00FB607FCFACFE889F98980817C
:1004900085FFF5CFCE010E94EE01F1CFEB8DEC0F81
:1004A000FD2FF11DE35AFF4FF0829FB7F8940B8F99
:1004B000EA89FB8980818062CFCFCF93DF93EC0103
:1004C000888D8823B9F0AA89BB89E889F9898C913C
:1004D00085FD03C0808186FD0DC00FB607FCF7CFF8
:1004E0008C9185FFF2CF808185FFEDCFCE010E94F8
:1004F000EE01E9CFDF91CF91089580E090E0892B64
:1005000049F080E090E0892B29F00E9400008111E1
:100510000E94000080E090E0892B49F080E090E0AC
:10052000892B29F00E94000081110E94000080E0C8
:1005300090E0892B49F080E090E0892B29F00E941F
:10054000000081110E94000080E090E0892B29F0DA
:100550000E94E40181110C9400000895282F30E0DE
:10056000F901E85BFE4F9491F901E85FFD4F44917A
:100570002E533E4FF9012491222309F435C09923CB
:1005800011F191509231F8F4E92FF0E08827E4530B
:10059000FD4F8F4F0C94100AFD020103DE02F5029D
:1005A000F902E30204030A030E03140318031C03F5
:1005B00022032603E3022A033003340380918000E0
:1005C0008F7780938000E22FF0E0EE0FFF1FE2575D
:1005D000FE4FA591B4918FB7F894EC91611148C08A
:1005E00040954E234C938FBF0895809180008F7D5E
:1005F000E8CF80918000877FE4CF84B58F7784BD7A
:10060000E2CF84B58F7DFBCF8091B0008F77809350
:10061000B000D9CF8091B0008F7DF9CF809190004C
:100620008F7780939000CFCF809190008F7DF9CF0E
:1006300080919000877FF5CF8091A0008F77809385
:10064000A000C1CF8091A0008F7DF9CF8091A00044
:10065000877FF5CF809120018F7780932001B3CFE2
:10066000809120018F7DF9CF80912001877FF5CF88
:100670004E2BB8CF90917B00977F90937B00865351
:10068000806480937C0080917A00806480937A00FB
:1006900080917A0086FDFCCF80917800909179005E
:1006A00008953FB7F8948091370290913802A09155
:1006B0003902B0913A0226B5A89B05C02F3F19F028
:1006C0000196A11DB11D3FBFBA2FA92F982F8827D2
:1006D000BC01CD01620F711D811D911D42E0660FAD
:1006E000771F881F991F4A95D1F708958F929F927F
:1006F000AF92BF92CF92DF92EF92FF924B015C01DB
:100700000E9451036B017C010E9451036C197D0909
:100710008E099F09683E734081059105A8F321E089
:10072000821A9108A108B10888EEC80E83E0D81E8D
:10073000E11CF11C81149104A104B10429F7FF907C
:10074000EF90DF90CF90BF90AF909F908F900895E3
:100750008EBD00000DB407FEFDCF8EB50895FC01DF
:1007600001900020E9F73197AF01481B590BBC01FC
:1007700088E492E00C947A018F929F92AF92BF929C
:100780000F931F93CF93DF93CDB7DEB7A1970FB62B
:10079000F894DEBF0FBECDBF19A2423008F44AE084
:1007A0008E010F5D1F4F842E912CB12CA12CA50121
:1007B00094010E949C07E62FB901CA01EA30F4F4C3
:1007C000E05DD801EE938D01232B242B252B79F7A7
:1007D00090E080E0109719F0CD010E94AF03A19640
:1007E0000FB6F894DEBF0FBECDBFDF91CF911F9142
:1007F0000F91BF90AF909F908F900895E95CE1CFEB
:100800004F925F926F927F928F929F92AF92BF9220
:10081000CF92DF92EF92FF920F931F93CF936B01D2
:100820007C01742EAC019B010E940B0A882399F075
:1008300082E192E0CF911F910F91FF90EF90DF90B6
:10084000CF90BF90AF909F908F907F906F905F9070
:100850004F900C94AF0346015701E894B7F82FEF7F
:100860003FEF4FE75FE7C501B4010E940B0A81111A
:100870000DC02FEF3FEF4FE75FE7C501B4010E94C6
:100880003A0818161CF486E192E0D4CF2FEF3FEF20
:100890004FE75FE4C701B6010E94990918161CF4DE
:1008A0008AE192E0C7CF2FEF3FEF4FE75FECC70140
:1008B000B6010E943A0887FDF3CF20E030E0A9019D
:1008C000C701B6010E943A0810E000E087FF0AC0A5
:1008D0006DE288E492E00E9410028C01F7FAF09435
:1008E000F7F8F094C0E060E070E080E09FE37C16F1
:1008F00041F020E030E040E251E40E943F08CF5F49
:10090000F6CFA70196010E94CE072B013C010E9461
:10091000B8084B015C014AE00E94BC037C01E00E78
:10092000F11ECC23C1F1C501B4010E94E7089B016F
:10093000AC01C301B2010E94CD074B015C016EE224
:1009400088E492E00E941002E80EF91EC15018F1EE
:1009500020E030E040E251E4C501B4010E949E096C
:100960002B013C010E94B8084B01B12CA12C4AE09C
:10097000C501B4010E94BC03E80EF91EC501B40113
:100980000E94E7089B01AC01C301B2010E94CD07A0
:100990004B015C01DBCFC701CF911F910F91FF90FD
:1009A000EF90DF90CF90BF90AF909F908F907F900F
:1009B0006F905F904F9008951F920F920FB60F9215
:1009C00011240BB60F922F933F934F935F936F9326
:1009D0007F938F939F93AF93BF93EF93FF9388E49D
:1009E00092E00E94EE01FF91EF91BF91AF919F9134
:1009F0008F917F916F915F914F913F912F910F90C8
:100A00000BBE0F900FBE0F901F9018951F920F9264
:100A10000FB60F9211240BB60F922F938F939F93C3
:100A2000EF93FF93E0915802F09159028081E09199
:100A30005E02F0915F0282FD1DC090818091610293
:100A40008F5F8F7320916202821741F0E091610203
:100A5000F0E0E85BFD4F958F80936102FF91EF918D
:100A60009F918F912F910F900BBE0F900FBE0F9003
:100A70001F9018958081F2CF1F920F920FB60F92A0
:100A800011242F933F938F939F93AF93BF938091A4
:100A9000330290913402A0913502B0913602309128
:100AA000320223E0230F2D3758F50196A11DB11D09
:100AB000209332028093330290933402A093350244
:100AC000B09336028091370290913802A09139029A
:100AD000B0913A020196A11DB11D80933702909307
:100AE0003802A0933902B0933A02BF91AF919F911F
:100AF0008F913F912F910F900FBE0F901F901895DF
:100B000026E8230F0296A11DB11DD2CF789484B59B
:100B1000826084BD84B5816084BD85B5826085BDF9
:100B200085B5816085BD80916E00816080936E0087
:100B30001092810080918100826080938100809179
:100B4000810081608093810080918000816080932A
:100B500080008091B10084608093B1008091B000EA
:100B600081608093B00080919100826080939100B9
:100B700080919100816080939100809190008160CC
:100B8000809390008091A10082608093A100809169
:100B9000A10081608093A1008091A000816080937A
:100BA000A000809121018260809321018091210128
:100BB00081608093210180912001816080932001D8
:100BC00080917A00846080937A0080917A008260BC
:100BD00080937A0080917A00816080937A0080917E
:100BE0007A00806880937A001092C100E0915802E8
:100BF000F091590282E08083E0915402F091550215
:100C00001082E0915602F09157028FEC808310928F
:100C10006002E0915C02F0915D0286E08083E091E9
:100C20005A02F0915B02808180618083E0915A02D8
:100C3000F0915B02808188608083E0915A02F0919C
:100C40005B02808180688083E0915A02F0915B02B0
:100C500080818F7D80838DE20E945B018EE20E9405
:100C60005B0161E08DE20E94AE0261E08EE20E94D3
:100C7000AE02CFB7F89480913B02811124C0E7EF18
:100C8000F1E08491EDE3F2E09491E82FF0E0EE0FD3
:100C9000FF1FE855FE4FA591B491EC91E92321F493
:100CA00061E085E30E94AE0285E30E945B018CB5A2
:100CB00080618CBD8CB580648CBD84E30E945B0137
:100CC00083E30E945B0180913B028F5F80933B0234
:100CD000CFBF8CB58C7F81608CBD8DB581608DBDA3
:100CE0008FE1C82E87E0D82EE12CF12C87E30E94FB
:100CF0003A038C0186E30E943A03EC01012E000CBA
:100D0000220B330BA9019801205E3C4F4F4F5F4FE0
:100D1000A4E6B0E00E949107A70196010E94720725
:100D2000CA01B9010E94E908609344027093450228
:100D30008093460290934702BE01DD0F880B990B0A
:100D40000E94E90820E030E040E251E40E943F08C0
:100D50006093400270934102809342029093430259
:100D60008EE192E00E94AF036091400270914102D7
:100D7000809142029091430242E00E94000486E288
:100D800092E00E94AF0389E292E00E94AF0360917B
:100D9000440270914502809146029091470242E0E0
:100DA0000E94000486E292E00E94AF03809040021D
:100DB00090904102A0904202B0904302C501B4015C
:100DC0000E94B808062F60933E02C501B4010E943C
:100DD000B108172F70933F02809044029090450213
:100DE000A0904602B0904702C501B4010E94B80825
:100DF000D62F60933C02C501B4010E94B108C72FF1
:100E000070933D0260E08DE20E94AE0268EC70E0FB
:100E100080E090E00E947603802F0E94A803812F3B
:100E20000E94A8036AE070E080E090E00E947603F0
:100E300061E08DE20E94AE0268EC70E080E090E03C
:100E40000E94760360E08EE20E94AE026AE070E0EB
:100E500080E090E00E9476038D2F0E94A8038C2FE3
:100E60000E94A8036AE070E080E090E00E947603B0
:100E700061E08EE20E94AE0268EC70E080E090E0FB
:100E80000E9476030E947D0231CFE8E4F2E01382F3
:100E9000128288EE93E0A0E0B0E084839583A6837D
:100EA000B78384E092E09183808385E391E0958726
:100EB000848784E391E09787868780E391E0918B34
:100EC000808B81E391E0938B828B82E391E0958B21
:100ED000848B86E391E0978B868B118E128E138E16
:100EE000148E0895052E97FB1EF400940E94890726
:100EF00057FD07D00E949C0707FC03D04EF40C94CA
:100F0000890750954095309521953F4F4F4F5F4F42
:100F1000089590958095709561957F4F8F4F9F4F65
:100F200008950E94BE07A59F900DB49F900DA49FA9
:100F3000800D911D11240895A1E21A2EAA1BBB1B3E
:100F4000FD010DC0AA1FBB1FEE1FFF1FA217B30795
:100F5000E407F50720F0A21BB30BE40BF50B661FAB
:100F6000771F881F991F1A9469F76095709580956F
:100F700090959B01AC01BD01CF010895A29FB001E6
:100F8000B39FC001A39F700D811D1124911DB29FBD
:100F9000700D811D1124911D08955058BB27AA275B
:100FA0000E94E5070C945F090E94510938F00E94E5
:100FB000580920F039F49F3F19F426F40C944E0997
:100FC0000EF4E095E7FB0C944809E92F0E947009A4
:100FD00058F3BA17620773078407950720F079F46E
:100FE000A6F50C9492090EF4E0950B2EBA2FA02DC5
:100FF0000B01B90190010C01CA01A0011124FF27C6
:10100000591B99F0593F50F4503E68F11A16F040C0
:10101000A22F232F342F4427585FF3CF46953795BF
:101020002795A795F0405395C9F77EF41F16BA0B84
:10103000620B730B840BBAF09150A1F0FF0FBB1F32
:10104000661F771F881FC2F70EC0BA0F621F731F7B
:10105000841F48F4879577956795B795F7959E3FD8
:1010600008F0B0CF9395880F08F09927EE0F979569
:10107000879508950E94240908F481E008950E944C
:1010800053080C945F090E94580958F00E945109B6
:1010900040F029F45F3F29F00C94480951110C9459
:1010A00093090C944E090E94700968F39923B1F3D7
:1010B000552391F3951B550BBB27AA27621773077E
:1010C000840738F09F5F5F4F220F331F441FAA1F12
:1010D000A9F335D00E2E3AF0E0E832D091505040CE
:1010E000E695001CCAF72BD0FE2F29D0660F771F7C
:1010F000881FBB1F261737074807AB07B0E809F062
:10110000BB0B802DBF01FF2793585F4F3AF09E3FE6
:10111000510578F00C9448090C9493095F3FE4F36F
:10112000983ED4F3869577956795B795F7959F5F29
:10113000C9F7880F911D9695879597F90895E1E075
:10114000660F771F881FBB1F621773078407BA07D4
:1011500020F0621B730B840BBA0BEE1F88F7E0952F
:1011600008950E94B8086894B1110C9493090895E9
:101170000E94780988F09F5798F0B92F9927B751A6
:10118000B0F0E1F0660F771F881F991F1AF0BA952B
:10119000C9F714C0B13091F00E949209B1E00895EE
:1011A0000C949209672F782F8827B85F39F0B93FE0
:1011B000CCF3869577956795B395D9F73EF49095DE
:1011C0008095709561957F4F8F4F9F4F0895E8945C
:1011D00009C097FB3EF490958095709561957F4F7F
:1011E0008F4F9F4F9923A9F0F92F96E9BB2793952D
:1011F000F695879577956795B795F111F8CFFAF43D
:10120000BB0F11F460FF1BC06F5F7F4F8F4F9F4F6D
:1012100016C0882311F096E911C0772321F09EE8CB
:10122000872F762F05C0662371F096E8862F70E031
:1012300060E02AF09A95660F771F881FDAF7880F0B
:101240009695879597F90895990F0008550FAA0B61
:10125000E0E8FEEF16161706E807F907C0F01216C9
:101260001306E407F50798F0621B730B840B950BCC
:1012700039F40A2661F0232B242B252B21F4089521
:101280000A2609F4A140A6958FEF811D811D0895BE
:1012900097F99F6780E870E060E008959FEF80EC29
:1012A000089500240A9416161706180609060895CC
:1012B00000240A9412161306140605060895092E32
:1012C0000394000C11F4882352F0BB0F40F4BF2BA1
:1012D00011F460FF04C06F5F7F4F8F4F9F4F0895E1
:1012E00057FD9058440F551F59F05F3F71F04795D7
:1012F000880F97FB991F61F09F3F79F087950895BC
:10130000121613061406551FF2CF4695F1DF08C0DA
:10131000161617061806991FF1CF869571056105F7
:1013200008940895E894BB2766277727CB0197F99F
:1013300008950E94240908F48FEF08950E94B109CE
:101340000C945F090E94510938F00E94580920F05E
:10135000952311F00C9448090C944E0911240C9417
:1013600093090E94700970F3959FC1F3950F50E0A7
:10137000551F629FF001729FBB27F00DB11D639F47
:10138000AA27F00DB11DAA1F649F6627B00DA11DED
:10139000661F829F2227B00DA11D621F739FB00D93
:1013A000A11D621F839FA00D611D221F749F332703
:1013B000A00D611D231F849F600D211D822F762F9C
:1013C0006A2F11249F5750409AF0F1F088234AF079
:1013D000EE0FFF1FBB1F661F771F881F91505040E5
:1013E000A9F79E3F510580F00C9448090C9493098D
:1013F0005F3FE4F3983ED4F3869577956795B7956C
:10140000F795E7959F5FC1F7FE2B880F911D969585
:10141000879597F908950E942409880B990B0895E0
:10142000EE0FFF1F881F8BBF0790F691E02D1994D8
:04143000F894FFCF5E
:101434000000000010027A01A7015D02D801B60184
:10144400CA016E616E00696E66006F76660074652F
:101454006D70203D20000D0A006C69676874203DA2
:02146400200066
:00000001FF
