:020000040000FA
:100000000C943C010C946D010C946D010C946D01E9
:100010000C946D010C946D010C946D010C946D01A8
:100020000C946D010C946D010C946D010C946D0198
:100030000C946D010C9450080C946D010C946D019E
:100040000C946D010C946D010C946D010C946D0178
:100050000C946D010C946D010C946D010C941009BD
:100060000C946D010C946D010C946D010C946D0158
:100070000C946D010C946D010C946D010C946D0148
:100080000C946D010C946D010C946D010C946D0138
:100090000C946D010C946D010C946D010C946D0128
:1000A0000C946D010C946D010C946D010C946D0118
:1000B0000C946D010C946D010C946D010C946D0108
:1000C0000C946D010C946D010C946D010C946D01F8
:1000D0000C946D010C946D010C94DA080C94B0082A
:1000E0000C946D010C945E030C945A090C947303E8
:1000F0000C9494030C9454030C9479030C947D0396
:100100000C9460020C943E020C9402020C94810345
:100110000C945A030C9469030C94F7030C94980202
:100120000C948F030C948B030C94E5020C949903AC
:100130000C94B6070C9452020C9495030C946F0324
:100140000C9466030C942F020C9462030C948703A6
:100150000C94C60300002100240027002A002D0073
:100160003000330001010000040107010A01000012
:1001700020002300260029002C002F00320000015F
:10018000000003010601090100000A0B02090C0D21
:100190000E0807030401000000000000000000003A
:1001A000000000000000000000000000000000004F
:1001B000000000001211100000000000000000000C
:1001C000000000000000000000000000000001022C
:1001D0001020200808102040102040800201020159
:1001E0000804020101020408102040808040201011
:1001F000080402018004020180402010080402016A
:1002000008040201010204081020408001020408D1
:100210001020408000002200250028002B002E0026
:100220003100340002010000050108010B01050541
:100230000505070508080808020202020A0A08085C
:10024000040404040101010101010101030303038A
:1002500003030303040707070C0C0C0C0C0C0C0C19
:100260000202020206060606060606060B0B0B0B2A
:100270000B0B0B0B02005A0911241FBECFEFD1E26A
:10028000DEBFCDBF00E00CBF18E0A0E0B2E0E2E4CA
:10029000FFE100E00BBF02C007900D92A235B1074D
:1002A000D9F729E0A2E5B8E001C01D92AA38B2074B
:1002B000E1F711E0CCE3D1E000E006C021970109AD
:1002C000802FFE010E947C0FCB33D10780E008070E
:1002D000A9F70E94E7090C949F0F0C94000096E088
:1002E000899FD0011124A55EB64F90967C936E93A2
:1002F0005F9791E091969C939197E0918809F09196
:10030000890990918709992339F0309751F081112B
:1003100008C0809137091994309719F05C968C9138
:10032000FACF0895CF92DF92EF92FF920F931F932F
:1003300096E0899FF0011124E55EF64F11A2278D0A
:1003400030A12130310551F178F02230310509F426
:1003500051C02330310509F452C01F910F91FF9015
:10036000EF90DF90CF9008956623B9F361E070E0DD
:100370000E946F012FB7F89480915A0890915B0802
:10038000A0915C08B0915D082FBF80937309909392
:100390007409A0937509B0937609DFCF9FB7F894DD
:1003A000C0905A08D0905B08E0905C08F0905D081F
:1003B0009FBF0091730910917409209175093091C4
:1003C0007609C01AD10AE20AF30A00918509109150
:1003D000860930E020E00C151D052E053F0550F480
:1003E00062E070E01F910F91FF90EF90DF90CF904F
:1003F0000C946F016111B1CF63E070E0F3CF70E056
:1004000060E0F0CFAF92BF92CF92DF92EF92FF9277
:100410000F931F93CF93DF936C017B018B01040F2C
:10042000151FEB015E01AE18BF08C017D10759F0C8
:100430006991D601ED91FC910190F081E02DC6010A
:100440001995892B79F7C501DF91CF911F910F91F4
:10045000FF90EF90DF90CF90BF90AF900895FC0198
:10046000538D448D252F30E0842F90E0821B930B19
:10047000541710F0CF96089501970895FC01918DBF
:10048000828D981761F0A28DAE0FBF2FB11D5D96C2
:100490008C91928D9F5F9F73928F90E008958FEF64
:1004A0009FEF0895FC01918D828D981731F0828D18
:1004B000E80FF11D858D90E008958FEF9FEF08956F
:1004C000FC01918D228D892F90E0805C9F4F821BD3
:1004D00091098F73992708958EE798E00E94600232
:1004E00021E0892B09F420E0822F0895FC01A48DDE
:1004F000A80FB92FB11DA35ABF4F2C91848D90E046
:1005000001968F739927848FA689B7892C93A08928
:10051000B1898C91837080648C93938D848D9813B2
:1005200006C00288F389E02D80818F7D8083089545
:10053000EF92FF920F931F93CF93DF93EC0181E033
:10054000888F9B8D8C8D98131AC0E889F9898081DA
:1005500085FF15C09FB7F894EE89FF896083E8890D
:10056000F98980818370806480839FBF81E090E0FF
:10057000DF91CF911F910F91FF90EF900895F62E8C
:100580000B8D10E00F5F1F4F0F731127E02E8C8D26
:100590008E110CC00FB607FCFACFE889F98980816B
:1005A00085FFF5CFCE010E947602F1CFEB8DEC0FE7
:1005B000FD2FF11DE35AFF4FF0829FB7F8940B8F88
:1005C000EA89FB8980818062CFCFCF93DF93EC01F2
:1005D000888D8823B9F0AA89BB89E889F9898C912B
:1005E00085FD03C0808186FD0DC00FB607FCF7CFE7
:1005F0008C9185FFF2CF808185FFEDCFCE010E94E7
:100600007602E9CFDF91CF91089580E090E0892BC9
:1006100049F080E090E0892B29F00E9400008111D0
:100620000E94000080E090E0892B49F080E090E09B
:10063000892B29F00E94000081110E94000080E0B7
:1006400090E0892B49F080E090E0892B29F00E940E
:10065000000081110E94000080E090E0892B29F0C9
:100660000E946C0281110C94000008958150823127
:1006700008F05AC0E82FF0E08827EE5BFC4F8F4F60
:100680000C947C0F6203660354035A035E039403C5
:1006900069036F03730379037D03810387038B036E
:1006A00094038F0395039903809180008F77809343
:1006B00080000895809180008F7DF9CF8091800027
:1006C000877FF5CF84B58F7784BD089584B58F7DFE
:1006D000FBCF8091B0008F778093B0000895809118
:1006E000B0008F7DF9CF809190008F77809390003C
:1006F0000895809190008F7DF9CF80919000877F41
:10070000F5CF8091A0008F778093A000089580910D
:10071000A0008F7DF9CF8091A000877FF5CF8091D9
:1007200020018F77809320010895809120018F7D93
:10073000F9CF80912001877FF5CFCF93DF93282FCA
:1007400030E0F901E857FE4F8491F901E253FE4F82
:10075000D491F901E25DFD4FC491CC23A1F0811148
:100760000E943603EC2FF0E0EE0FFF1FE259FE4F20
:10077000A591B491EC91ED2381E090E009F480E043
:10078000DF91CF91089580E090E0FACF862F0C940E
:100790009D031F93CF93DF93282F30E0F901E85793
:1007A000FE4F8491F901E253FE4FD491F901E25DCD
:1007B000FD4FC491CC23A9F0162F81110E9436035E
:1007C000EC2FF0E0EE0FFF1FEC5EFD4FA591B49112
:1007D0008FB7F894EC91111108C0D095DE23DC930B
:1007E0008FBFDF91CF911F910895DE2BF8CF862F19
:1007F000642F0C94C9039091010289130DC0E4E7A2
:10080000F2E0E4919FEF90930102E230E1F038F4DE
:10081000EE2381F0E13089F060E00C94C903E4300C
:1008200049F110F1E530C1F7909173009D7F9093ED
:100830007300F2CF10926E00EFCF90916F009D7F0A
:1008400090936F00E9CF909170009D7F909370001E
:1008500091E09093B0009091B100987F9460909354
:10086000B1001092B300D8CF909171009D7F90930A
:100870007100D2CF909172009D7F90937200CCCF87
:10088000CF93DF9390E0FC01E253FE4F2491825D11
:100890009D4FFC0184918823C9F090E0880F991F37
:1008A000FC01EC5AFE4FA591B491FC01EC5EFD4FAA
:1008B000C591D49161110DC09FB7F8948C9120958A
:1008C00082238C938881282328839FBFDF91CF9137
:1008D0000895623051F49FB7F8943C91822F80952F
:1008E00083238C93E8812E2BEFCF8FB7F894EC9174
:1008F0002E2B2C938FBFEACF4F925F926F927F92F5
:100900008F929F92AF92BF92CF92DF92EF92FF921F
:100910000F931F93CF93DF9300D01F921F92CDB7F9
:10092000DEB78C012A013B01809101028830C9F0B9
:100930008F3F09F492C00F900F900F900F900F907F
:10094000DF91CF911F910F91FF90EF90DF90CF90AB
:10095000BF90AF909F908F907F906F905F904F90DF
:100960000895E4E7F2E084918D8387FDE4CF61E0B0
:1009700088E00E9440049D81992321F08D8182307E
:1009800009F0D2C14801B12CA12C60E072E18AE7E4
:1009900090E0A50198010E94140E29833A834B83AD
:1009A0005C8369017A0191E0C91AD108E108F10874
:1009B0008FEFC816D104E104F10409F00CF483C1EF
:1009C00060E472E48FE090E0A50198010E94140EAB
:1009D00069017A0191E0C91AD108E108F1088D8115
:1009E000823009F011C182E09FEFC916D104E10401
:1009F000F10409F00CF460C160E970ED83E090E06F
:100A0000A50198010E94140E69017A0181E0C81ABB
:100A1000D108E108F10883E09FEFC916D104E10491
:100A2000F10409F00CF448C168E478EE81E090E04C
:100A3000A50198010E94140E69017A0191E0C91A7A
:100A4000D108E108F1088FEFC816D104E104F104E0
:100A500011F00CF019C184E02FC188E080930102ED
:100A6000E4E7F2E094919D83892F9F3F09F463CFDF
:100A7000923009F469C060F4992381F1913009F44E
:100A800045C087FD58CF61E088E00E94400476CFE2
:100A90009D81943009F49AC008F478C0953089F7A4
:100AA0001092200110922101809121018860809391
:100AB000210180912101816080932101E6E3F2E030
:100AC000E491F0E0EE0FFF1FEC5EFD4F85919491F5
:100AD000E6EDF1E0E491E0935E0849CF14BC15BC6B
:100AE00084B5826084BD85B5816085BDE6E3F2E0B2
:100AF000E491F0E0EE0FFF1FEC5EFD4F85919491C5
:100B0000E6EDF1E0E491E093650831CF10928000CA
:100B10001092810080918100886080938100809193
:100B20008100816080938100E6E3F2E0E491F0E0EF
:100B3000EE0FFF1FEC5EFD4F85919491E6EDF1E025
:100B4000E491E093640813CF1092B0001092B100CA
:100B50008091B00082608093B0008091B10081608C
:100B60008093B100E6E3F2E0E491F0E0EE0FFF1FC6
:100B7000EC5EFD4F85919491909363088093620899
:100B8000E6EDF1E0E491E0936108F1CE109290007F
:100B900010929100809191008860809391008091E3
:100BA0009100816080939100E6E3F2E0E491F0E04F
:100BB000EE0FFF1FEC5EFD4F85919491E6EDF1E0A5
:100BC000E491E093600883E08D83D1CE1092A00081
:100BD0001092A1008091A10088608093A100809173
:100BE000A10081608093A100E6E3F2E0E491F0E0EF
:100BF000EE0FFF1FEC5EFD4F85919491E6EDF1E065
:100C0000E491E0935F08B3CE8FEFC816D104E104FE
:100C1000F10409F00CF486C068E478EE81E090E01D
:100C2000A50198010E94140E69017A0191E0C91A88
:100C3000D108E108F1088D81882309F48DC18FEF77
:100C4000C816D104E104F10409F00CF404CF62E108
:100C50007AE780E090E0A50194010E94140E6901FA
:100C60007A0191E0C91AD108E108F1088D81882341
:100C700009F447C18FEFC816D104E104F10411F063
:100C800008F048C186E018C064E274EF80E090E0AC
:100C9000A50194010E94140E69017A0191E0C91A1C
:100CA000D108E108F1088FEFC816D104E104F1047E
:100CB00011F008F041C185E09091B100987F892B37
:100CC0008093B10008C081E09D819111F5CF95B569
:100CD000987F892B85BD2FEF3FEFA9014114510467
:100CE0006104710409F049C09D81923009F4E7C0A4
:100CF0000CF0CEC0992309F4D3C0913009F01BCE7B
:100D0000D0928900C09288002093760830937708AB
:100D1000409378085093790880916F0082608093A7
:100D20006F0009CE82E0D0CFB12CA12C60E072E13F
:100D30008AE790E0A50198010E94140E69017A01EA
:100D400081E0C81AD108E108F108C114D10491E08A
:100D5000E906F10404F591E08D81813069F5809117
:100D60008100887F892B809381002FEF3FEFA901BD
:100D7000411451046104710419F2D801AA0FBB1F78
:100D8000A30192010E94330E28EE33E040E050E0D0
:100D90000E943E0EA9CF68E478EE81E090E0A501C4
:100DA00098010E94140E69017A0181E0C81AD108E5
:100DB000E108F10893E0D0CF8D81833001F5809177
:100DC0009100887F892B809391002FEF3FEFA9013D
:100DD000411451046104710481F6D0929900C092CB
:100DE000980020936E0830936F08409370085093DA
:100DF0007108809171008260809371009CCD8D811B
:100E0000843009F58091A100887F892B8093A1000F
:100E10002FEF3FEFA901411451046104710409F05F
:100E2000ACCFD092A900C092A80020936A0830935A
:100E30006B0840936C0850936D088091720082603B
:100E40008093720078CD8D81853009F044CF8091F8
:100E50002101887F892B809321012FEF3FEFA9018A
:100E6000411451046104710409F087CFD092290123
:100E7000C092280120936608309367084093680861
:100E8000509369088091730082608093730053CD02
:100E90008D81843031F20CF4A0CF853039F34BCD05
:100EA000C7BC20937A0830937B0840937C0850930A
:100EB0007D0880916E00826080936E003CCDC09270
:100EC000B3002093720830937308409374085093D2
:100ED0007508809170008260809370002CCDC9806D
:100EE000DA80EB80FC809AE0F594E794D794C7947D
:100EF0009A95D1F791E0C91AD108E108F10885E087
:100F0000E6CE8FEFC816D104E104F10409F038F7FA
:100F100084E0DDCEC980DA80EB80FC808AE0F59445
:100F2000E794D794C7948A95D1F791E0C91AD1086C
:100F3000E108F10887E0C0CE62E17AE780E090E066
:100F4000A50194010E94140E69017A0191E0C91A69
:100F5000D108E108F1088ECE83E09FEFC916D104D5
:100F6000E104F10411F00CF072CEB1CE862F642FA3
:100F70000C944004863309F480E020917B00982F84
:100F80009870277F922B90937B002091000290E431
:100F9000299F900111248770822B80937C0080917F
:100FA0007A00806480937A0080917A0086FDFCCF7D
:100FB000809178009091790008953FB7F8948091DE
:100FC000530890915408A0915508B091560826B541
:100FD000A89B05C02F3F19F00196A11DB11D3FBF71
:100FE000BA2FA92F982F8827BC01CD01620F711D40
:100FF000811D911D42E0660F771F881F991F4A953A
:10100000D1F708958F929F92AF92BF92CF92DF92C5
:10101000EF92FF926B017C010E94DD074B015C01A6
:10102000C114D104E104F104B9F00E94DD0768198C
:1010300079098A099B09683E73408105910580F30F
:1010400021E0C21AD108E108F10888EE880E83E099
:10105000981EA11CB11CE4CFFF90EF90DF90CF90C1
:10106000BF90AF909F908F900895FC010190002059
:10107000E9F73197AF01481B590BBC018EE798E0A7
:101080000C940202CF93DF930E943508EC018CE2AE
:1010900098E00E9435088C0F9D1FDF91CF91089535
:1010A0001F920F920FB60F9211240BB60F922F932F
:1010B0003F934F935F936F937F938F939F93AF93E0
:1010C000BF93EF93FF938091720890917308A09162
:1010D0007408B0917508892B8A2B8B2BE1F19091C4
:1010E0006108E0916208F09163088081892780831C
:1010F0008091720890917308A0917408B09175085E
:10110000181619061A061B069CF480917208909115
:101110007308A0917408B09175080197A109B109ED
:101120008093720890937308A0937408B093750825
:10113000FF91EF91BF91AF919F918F917F916F91AF
:101140005F914F913F912F910F900BBE0F900FBE6B
:101150000F901F901895809101020E94FB03E8CF29
:101160001F920F920FB60F9211240BB60F922F936E
:101170003F934F935F936F937F938F939F93AF931F
:10118000BF93EF93FF938EE798E00E947602FF9162
:10119000EF91BF91AF919F918F917F916F915F91EF
:1011A0004F913F912F910F900BBE0F900FBE0F905C
:1011B0001F9018951F920F920FB60F9211240BB625
:1011C0000F922F938F939F93EF93FF93E0918E084D
:1011D000F0918F088081E0919408F091950882FD4C
:1011E0001DC09081809197088F5F8F732091980820
:1011F000821741F0E0919708F0E0E258F74F958FA1
:1012000080939708FF91EF919F918F912F910F906D
:101210000BBE0F900FBE0F901F9018958081F2CFDC
:101220001F920F920FB60F9211242F933F938F931B
:101230009F93AF93BF9380915A0890915B08A091C0
:101240005C08B0915D083091520823E0230F2D37E0
:1012500058F50196A11DB11D2093520880935A089C
:1012600090935B08A0935C08B0935D08809153084D
:1012700090915408A0915508B09156080196A11D6F
:10128000B11D8093530890935408A0935508B093D0
:101290005608BF91AF919F918F913F912F910F90E1
:1012A0000FBE0F901F90189526E8230F0296A11DE0
:1012B000B11DD2CF109281081092800888EE93E081
:1012C000A0E0B0E08093820890938308A093840804
:1012D000B09385088CE098E090937F0880937E0817
:1012E00085E391E090938B0880938A0884E391E0F2
:1012F00090938D0880938C0880E391E090938F0801
:1013000080938E0881E391E09093910880939008F8
:1013100082E391E0909393088093920886E391E0B2
:1013200090939508809394081092970810929808CB
:101330001092990810929A0810921D091092210992
:1013400010922009109222098EE198E090931C09D6
:1013500080931B09E7E3F9E010821482138215825F
:10136000369689E0E337F807B9F788E298E090937A
:101370007E0980937D0984E298E0909380098093B0
:101380007F0984E0809381098093820982E092E062
:1013900090937C0980937B098AE090E09093840984
:1013A0008093830984EF91E0909386098093850967
:1013B0001092890910928809109277091092780981
:1013C0001092790910927A09109287090895CF93A3
:1013D000DF93CDB7DEB7A1970FB6F894DEBF0FBE8F
:1013E000CDBF789484B5826084BD84B5816084BDAE
:1013F00085B5826085BD85B5816085BD80916E00B3
:10140000816080936E0010928100809181008260E3
:101410008093810080918100816080938100809120
:1014200080008160809380008091B100846080930F
:10143000B1008091B00081608093B00080919100F4
:1014400082608093910080919100816080939100EF
:10145000809190008160809390008091A1008260D3
:101460008093A1008091A10081608093A100809170
:10147000A00081608093A000809121018260809310
:1014800021018091210181608093210180912001BF
:1014900081608093200180917A00846080937A003B
:1014A00080917A00826080937A0080917A008160D6
:1014B00080937A0080917A00806880937A001092FD
:1014C000C100E0918E08F0918F0892E09083E09146
:1014D0008A08F0918B081082E0918C08F0918D08B9
:1014E0008FEC808310929608E0919208F091930817
:1014F00086E08083E0919008F0919108808180617E
:101500008083E0919008F0919108808188608083C9
:10151000E0919008F0919108808180688083E0914B
:101520009008F091910880818F7D808390930002D4
:101530008FE298E00E94420802E212E082E1E82E87
:1015400082E0F82E92E3A92E92E0B92E2CE2C22E70
:10155000DD24D394A016B10609F4EBC2D8016D9135
:101560007D918D01C6010E94680F4B01F701219109
:1015700031917F01AB01770F660B770B8091570894
:1015800090915808DC012A9FC0012B9F900D3A9F33
:10159000900D11240E947C04B401660F771F072E62
:1015A000000C880B990B0E94020888E00E94FB0344
:1015B000D1CFA701960119A28E010F5D1F4FCA015D
:1015C000B9012AE030E040E050E00E943E0E605D4C
:1015D000D8016E938D01211531054105510579F72B
:1015E000DFC2712C80918209781608F063C0E72C65
:1015F000F12CE0917F09F0918009EE0DFF1D61E073
:1016000080810E944004E0917F09F0918009EE0DF5
:10161000FF1D60E080810E94C90381E090E0A0E0AE
:10162000B0E0072C04C0880F991FAA1FBB1F0A94A3
:10163000D2F74C016C01C094D094612C8091810947
:10164000681608F5062D10E0E0917D09F0917E09FD
:10165000E00FF11F80810E949D030C5F1F4F000F60
:10166000111FF801E55EF64F892B41F480819181CD
:1016700088299929918380836394E0CF8081918127
:101680008C219D21F7CFE0917F09F0918009EE0D2B
:10169000FF1D61E080810E94C90380917F099091C4
:1016A0008009E80EF91E60E0F70180810E94400485
:1016B000739498CFEBE1EE2EE9E0FE2E8701D8017E
:1016C0005F968D919C919097892B59F45C961C9212
:1016D0005C97EFEFFFEF5E96FC93EE935D9791962C
:1016E0001C920A5F1F4F87E599E08017910739F731
:1016F000D12C80918109D81608F052C0C12C8D2CB4
:10170000912C880C991CD401AD5DB64F4D012091F0
:101710008209C21608F042C0F401608171810C2C6C
:1017200002C0769567950A94E2F7D29E9001112443
:101730002C0D311DEBE1F9E080E0458D568D24172D
:10174000350709F46FC28F5F36968A30B1F760FFB4
:1017500023C0EBE1F9E090E080E0448D411117C037
:10176000E0917B09F0917C09E20FF31F4081A89E74
:10177000F001A99EF00D1124E55EF64F448F368FDF
:10178000258F10A2178E61E00E94920105C001967C
:1017900036968A30910509F7C394B9CFD394A9CF6F
:1017A00080E0D70191969C919111892FB6E0EB0EC4
:1017B000F11C0E151F05A9F79FB7F89440915A0820
:1017C00050915B0860915C0870915D089FBF4093E9
:1017D0007709509378096093790970937A0988237F
:1017E00009F4EAC180913C09882309F4E5C180919C
:1017F0003A0990913B09019709F0DEC180913709C0
:10180000882309F4D9C18093590895C1813309F01F
:101810004DC08AE498E00E94420846E6E42E47E084
:10182000F42E54ECC52E56E0D52E6CE2862E99246B
:101830009394E8E0EE16E8E0FE0609F475C186E34D
:101840000E94BA07FC01D7016D917D917D01C40111
:101850000E94680F8B01D601AD90BD906D012B01E8
:10186000770F6608770825E030E0DF010E94840FDB
:101870002FEF33E040E050E00E94140EA29EC00122
:10188000A39E900DB29E900D1124B301A2010E945F
:101890007C04B801660F771F072E000C880B990B8C
:1018A0000E94020888E00E94FB03C3CF823309F044
:1018B0004FC08AE498E00E94420800E1E02E06E072
:1018C000F02E8EE5682E85E0782E92EC892E96E03B
:1018D000992E2CE2A22EBB24B3948E149F0409F4FB
:1018E00023C186E30E94BA07FC01D7016D917D9167
:1018F0007D01C5010E94680F8B01D301CD90DD9061
:101900003D011B01770F4408550825E030E0DF0159
:101910000E94840F2FEF33E040E050E00E94140E4D
:10192000C29EC001C39E900DD29E900D1124B201A3
:10193000A1010E947C04B801660F771F072E000CDE
:10194000880B990B0E94020888E00E94FB03C5CF18
:10195000833309F04DC08AE498E00E944208F2EC1B
:10196000EF2EF4E0FF2EA6E2CA2EA4E0DA2EBCE2AF
:101970008B2E99249394BEE5EB16B5E0FB0609F493
:10198000D3C086E30E94BA07FC01D7016D917D9117
:101990007D01C4010E94680F8B01D601AD90BD90FE
:1019A0006D012B01770F6608770825E030E0DF0135
:1019B0000E94840F2FEF33E040E050E00E94140EAD
:1019C000A29EC001A39E900DB29E900D1124B30162
:1019D000A2010E947C04B801660F771F072E000C3D
:1019E000880B990B0E94020888E00E94FB03C3CF7A
:1019F000843309F04DC08AE498E00E94420836EB37
:101A0000E32E33E0F32E46E4C42E43E0D42E5CE212
:101A1000852E99249394B6E2EB16B4E0FB0609F404
:101A200083C086E30E94BA07FC01D7016D917D91C6
:101A30007D01C4010E94680F8B01D601AD90BD905D
:101A40006D012B01770F6608770825E030E0DF0194
:101A50000E94840F2FEF33E040E050E00E94140E0C
:101A6000A29EC001A39E900DB29E900D1124B301C1
:101A7000A2010E947C04B801660F771F072E000C9C
:101A8000880B990B0E94020888E00E94FB03C3CFD9
:101A90008AE498E00E9442080EE812E092E3292EC0
:101AA00092E0392EE6E4F3E0E017F107E9F186E38E
:101AB0000E94BA076C01D8012D913D914D915D9125
:101AC0008D0160E070E086E993E40E946F0E0E9451
:101AD000E10E2B01F101E190F1901F014B01770F15
:101AE000AA08BB0825E030E0D6010E94840F2FEF42
:101AF00033E040E050E00E94140EE29EC001E39EFD
:101B0000900DF29E900D1124B501A4010E947C0459
:101B1000440C551CB201550C880B990B0E9402080D
:101B200088E00E94FB03BECF80E3809359080E94A7
:101B30000503A6E0AA2E809159089FEC980F9530D6
:101B400008F464CE8DE00E94BA0790935808809301
:101B500057086C01990FEE08FF08F7FE2ACD6DE2D9
:101B60008EE798E00E94980222273327A9012C19BA
:101B70003D094E095F0919A28E010F5D1F4FCA0171
:101B8000B9012AE030E040E050E00E943E0E605D86
:101B9000F80162938F01211531054105510579F74F
:101BA0000115110519F0C8010E9435088CE298E072
:101BB0000E943508BB24B394B09287098FB7F8947C
:101BC00040915A0850915B0860915C0870915D08E3
:101BD0008FBF8091770990917809A0917909B09190
:101BE0007A09481B590B6A0B7B0B809183099091F2
:101BF0008409B0E0A0E084179507A607B707E0F6D0
:101C000010E080918109181708F0EBCCE0917D0974
:101C1000F0917E09E10FF11D62E080810E94400495
:101C20001F5FEFCF6170B0CD052E97FB1EF40094BF
:101C30000E942B0E57FD07D00E943E0E07FC03D0DA
:101C40004EF40C942B0E50954095309521953F4FB6
:101C50004F4F5F4F089590958095709561957F4F98
:101C60008F4F9F4F08950E94600EA59F900DB49FC7
:101C7000900DA49F800D911D11240895A1E21A2EAC
:101C8000AA1BBB1BFD010DC0AA1FBB1FEE1FFF1F20
:101C9000A217B307E407F50720F0A21BB30BE40B70
:101CA000F50B661F771F881F991F1A9469F76095B7
:101CB0007095809590959B01AC01BD01CF01089571
:101CC000A29FB001B39FC001A39F700D811D11247D
:101CD000911DB29F700D811D1124911D08950E94C8
:101CE000830E0C942E0F0E94270F58F00E94200F95
:101CF00040F029F45F3F29F00C94170F51110C9418
:101D0000620F0C941D0F0E943F0F68F39923B1F3EB
:101D1000552391F3951B550BBB27AA276217730711
:101D2000840738F09F5F5F4F220F331F441FAA1FA5
:101D3000A9F335D00E2E3AF0E0E832D09150504061
:101D4000E695001CCAF72BD0FE2F29D0660F771F0F
:101D5000881FBB1F261737074807AB07B0E809F0F5
:101D6000BB0B802DBF01FF2793585F4F3AF09E3F7A
:101D7000510578F00C94170F0C94620F5F3FE4F359
:101D8000983ED4F3869577956795B795F7959F5FBD
:101D9000C9F7880F911D9695879597F90895E1E009
:101DA000660F771F881FBB1F621773078407BA0768
:101DB00020F0621B730B840BBA0BEE1F88F7E095C3
:101DC00008950E94E80E6894B1110C94620F089572
:101DD0000E94470F88F09F5798F0B92F9927B75165
:101DE000B0F0E1F0660F771F881F991F1AF0BA95BF
:101DF000C9F714C0B13091F00E94610FB1E00895AD
:101E00000C94610F672F782F8827B85F39F0B93F9E
:101E1000CCF3869577956795B395D9F73EF4909571
:101E20008095709561957F4F8F4F9F4F089597F9DB
:101E30009F6780E870E060E008959FEF80EC089570
:101E400000240A9416161706180609060895002499
:101E50000A9412161306140605060895092E039413
:101E6000000C11F4882352F0BB0F40F4BF2B11F487
:101E700060FF04C06F5F7F4F8F4F9F4F089557FDE6
:101E80009058440F551F59F05F3F71F04795880FE8
:101E900097FB991F61F09F3F79F08795089512167F
:101EA00013061406551FF2CF4695F1DF08C016162B
:101EB00017061806991FF1CF8695710561050894DC
:101EC0000895E894BB2766277727CB0197F90895F3
:101ED00097FB072E16F4009407D077FD09D00E94D7
:101EE0008B0F07FC05D03EF4909581959F4F089588
:101EF000709561957F4F0895EE0FFF1F881F8BBF70
:101F00000790F691E02D19940E94600EB7FF089596
:101F1000821B930B0895AA1BBB1B51E107C0AA1F8C
:101F2000BB1FA617B70710F0A61BB70B881F991F7A
:101F30005A95A9F780959095BC01CD010895F89424
:101F4000FFCF01FF3738392F343536783132332D12
:101F50002A303D2B0601C400C400DC00C400000090
:101F6000F700060104000800080004000400040053
:101F7000040004004A014A015D01880188015D01F5
:101F80004A0126010601060126014A014A012601ED
:101F900026014A014A015D01880188015D014A016B
:101FA00026010601060126014A0126010601060155
:101FB000260126014A01060126014A015D014A0166
:101FC000060126014A015D014A012601060126019A
:101FD0000000004000000040000000400000004001
:101FE00000000040000000400000004000000040F1
:101FF0000000803F0000803F0000004000000040E3
:1020000000000000000080400000803F0000004011
:1020100000000040000000400000004000000040C0
:102020000000004000000040000000400000803F31
:102030000000803F00000040000000400000803FA2
:102040000000803F000040400000004000000040D1
:10205000000000400000803F000000400000804081
:1020600000008040000000400000803F0000004071
:102070000000804000008040000000400000004060
:102080000000803F0000004006010B02DC00B801A8
:10209000E900D2010000000006010B02DC00B801DB
:1020A000E900D20100000000AF005D0193002601AD
:1020B0009C00370100000000AF005D019300260185
:1020C0009C003701000000003701150126011501B1
:1020D00037013701D000C4001501060172015D010E
:1020E000A500D201B8019F013701F700E900DC002B
:1020F000D0000000000000000C000C000C000C00E0
:102100000C000C00060003000C000C000C000C007E
:102110000C000C00060003000C000C000C000C006E
:102120000C000C00060003000C000C000C000C005E
:102130000C000C000600060012001200120006003F
:10214000060006000600060006001200120012003B
:102150001200120012000A000A000A000A000A0017
:102160000A000300030003004D0A4D0A00004D0A57
:1021700000002D084D0A0000400C00000000000087
:1021800020060000000000002D08000000002006CE
:1021900000000000270500000000E0060000B8076E
:1021A00000004907E006000020064D0A400CC00D63
:1021B0000000EA0A400C00004D0A00002D082D091D
:1021C000B807000000002D080000000020060000F5
:1021D0000000270500000000E0060000B80700002E
:1021E0004907E006000020064D0A400CC00D000023
:1021F000EA0A400C00004D0A00002D082D09B8071E
:10220000000000000C000C000C000C000C000C0086
:102210000C000C000C000C000C000C000C000C005E
:102220000C000C000C000C000C000C000C000C004E
:102230000C000C000C000C000C000C000C000C003E
:102240000C000C000900090009000C000C000C0037
:102250000C000C000C000C000C000C000C000C001E
:102260000C000C000C000C000C000C000C000C000E
:102270000C000C000C000C000C000C000C000C00FE
:102280000C000900090009000C000C000C000C00F7
:102290000C000C000C000C000C000C000C000C00DE
:1022A00026012601260126012601260126012601F6
:1022B00026012601260126012601260126012601E6
:1022C00026012601260126012601260126012601D6
:1022D000DC0006012601260126014A015D015D019F
:1022E0005D0188014A014A01260106010601260115
:1022F0000000DC000601F7002601F7004A015D013D
:102300005D010601060106010601260106012601FE
:1023100000000000DC0006012601260126015D0107
:10232000880188018801B801B801B801B8018801A5
:10233000B801260100002601A5005D015D018801AC
:10234000B8012601000026015D014A014A015D0134
:10235000260104000800040008000400080008002A
:102360000800080004000800040008000400080039
:102370000800080008000400080004000800040029
:102380000800080008000800040004000800080015
:10239000040004000800080004000400080008000D
:1023A00008000400080008000800040004000800F9
:1023B00008000400040008000800040004000800ED
:1023C00004000400080008000800080004000400DD
:1023D00008000800040004000800080004000400CD
:1023E00008000800080004000800080008000400B5
:1023F00004000400080004000800080008000400AD
:102400000400080008002601B801B801B80126013F
:102410002601B801B801B8012601B801D2010B02AA
:10242000B8014B020B020B02D201D201B801B80174
:1024300088015D0188010B02B80126010601260111
:102440004A015D014A015D018801B8010B02D20118
:10245000B80188015D014A01260106018801880151
:102460008801B801D201B80188015D018801B80175
:1024700088015D014A015D0188015D014A01260173
:10248000D201B801B801880188015D015D014A01EE
:10249000B801880188015D015D014A014A012601F8
:1024A0005D015D018801B801040008000800040016
:1024B00004000400080008000400040004000800F0
:1024C00008000200080008000800080008000800D2
:1024D00008000800040008000800020008000800C6
:1024E00008000800080008000800080008000800AC
:1024F00008000800080008000800080004000800A0
:10250000080004000400040008000800040004009F
:10251000040008000800040004000400080008008B
:102520000200080008000800080008000800080071
:10253000080008000800080008000800080008005B
:1025400008000400080008000200000000009802D3
:1025500002022F02E50260023E0252020000000069
:10256000B607F703C603323334352E2F30310D0A48
:102570000077656C636F6D6520707265737320669C
:10258000726F6D203120746F203520006D6172698B
:042590006F0A0000CE
:10E000000D9489F10D94B2F10D94B2F10D94B2F129
:10E010000D94B2F10D94B2F10D94B2F10D94B2F1F0
:10E020000D94B2F10D94B2F10D94B2F10D94B2F1E0
:10E030000D94B2F10D94B2F10D94B2F10D94B2F1D0
:10E040000D94B2F10D94B2F10D94B2F10D94B2F1C0
:10E050000D94B2F10D94B2F10D94B2F10D94B2F1B0
:10E060000D94B2F10D94B2F10D94B2F10D94B2F1A0
:10E070000D94B2F10D94B2F10D94B2F10D94B2F190
:10E080000D94B2F10D94B2F10D94B2F10D94B2F180
:10E090000D94B2F10D94B2F10D94B2F10D94B2F170
:10E0A0000D94B2F10D94B2F10D94B2F10D94B2F160
:10E0B0000D94B2F10D94B2F10D94B2F10D94B2F150
:10E0C0000D94B2F10D94B2F10D94B2F10D94B2F140
:10E0D0000D94B2F10D94B2F10D94B2F10D94B2F130
:10E0E0000D94B2F141546D656761323536300041AF
:10E0F000726475696E6F206578706C6F72657220DE
:10E1000073746B3530305632206279204D4C530099
:10E11000426F6F746C6F616465723E004875683F52
:10E1200000436F6D70696C6564206F6E203D200048
:10E130004350552054797065202020203D20005FF9
:10E140005F4156525F415243485F5F3D2000415658
:10E1500052204C696243205665723D20004743437C
:10E160002056657273696F6E203D20004350552024
:10E1700049442020202020203D20004C6F7720663D
:10E18000757365202020203D20004869676820665F
:10E190007573652020203D200045787420667573D6
:10E1A00065202020203D20004C6F636B2066757336
:10E1B000652020203D20004D617220203720323024
:10E1C000313300312E362E3800342E332E350056A2
:10E1D00023202020414444522020206F7020636F70
:10E1E00064652020202020696E73747275637469E1
:10E1F0006F6E2061646472202020496E74657272B3
:10E20000757074006E6F20766563746F7200726A49
:10E210006D702020006A6D70200057686174207056
:10E220006F72743A00506F7274206E6F7420737541
:10E2300070706F72746564004D7573742062652030
:10E2400061206C6574746572002000577269747483
:10E25000696E672045450052656164696E672045B7
:10E26000450045452065727220636E743D00504F35
:10E27000525400303D5A65726F2061646472003FF1
:10E280003D43505520737461747300403D454550C3
:10E29000524F4D207465737400423D426C696E6B41
:10E2A000204C454400453D44756D70204545505215
:10E2B0004F4D00463D44756D7020464C415348001B
:10E2C000483D48656C70004C3D4C69737420492F83
:10E2D0004F20506F72747300513D51756974005234
:10E2E0003D44756D702052414D00563D73686F7707
:10E2F00020696E7465727275707420566563746FF0
:10E30000727300593D506F727420626C696E6B00BD
:10E310002A0011241FBECFEFD1E2DEBFCDBF01E046
:10E320000CBF12E0A0E0B2E0EEE1FDEF03E00BBFB6
:10E3300002C007900D92A030B107D9F712E0A0E01B
:10E34000B2E001C01D92AE30B107E1F70F9460F367
:10E350000D948DFE01E20EBF0FEF0DBF11241FBE05
:10E360000D9460F30D9400F020E030E040ED57E0B4
:10E3700005C0FA013197F1F72F5F3F4F2817390792
:10E38000C0F308959C01260F311DC901A0E0B0E043
:10E390002F5F3F4FABBFFC018791882361F08093D3
:10E3A000C6008091C00086FFFCCF8091C0008064D1
:10E3B0008093C000EACF08958DE08093C6008091DD
:10E3C000C00086FFFCCF8091C00080648093C000B5
:10E3D0008AE08093C6008091C00086FFFCCF8091C8
:10E3E000C00080648093C00008950F94C2F10F9420
:10E3F000DCF10895FC019081992359F09093C600B7
:10E400008091C00086FFFCCF8091C0008064809323
:10E41000C0003196992379F70895282F982F929567
:10E420009F70892F805D8A3308F0895F8093C600D2
:10E430008091C00086FFFCCF8091C00080648093F3
:10E44000C000822F8F70982F905D9A3308F0995FEB
:10E450009093C6008091C00086FFFCCF8091C000E1
:10E4600080648093C00008959C01FB01853691056E
:10E470001CF46330710594F0C90164E670E00F94F8
:10E480002EFE605D7F4F6093C6008091C00086FFC6
:10E49000FCCF8091C00080648093C0002B30310598
:10E4A00014F43297B4F0C90164E670E00F942EFEC4
:10E4B0006AE070E00F942EFE605D7F4F6093C600AF
:10E4C0008091C00086FFFCCF8091C0008064809363
:10E4D000C000C9016AE070E00F942EFEC0968093E0
:10E4E000C6008091C00086FFFCCF8091C000806490
:10E4F0008093C00008951F93182F8EE692EE60E07F
:10E500000F94C2F11093C6008091C00086FFFCCF2B
:10E510008091C00080648093C0000F94DCF11F9153
:10E5200008952F923F924F925F926F927F928F92B7
:10E530009F92AF92BF92CF92DF92EF92FF920F9392
:10E540001F93DF93CF93CDB7DEB762970FB6F894E2
:10E55000DEBF0FBECDBF382E622ECA01DB015C01CB
:10E560006D01772420E2222E2E010894411C511CBB
:10E570008BC081E0A81680E0B80681E0C80680E084
:10E58000D80628F0C601AA27BB270F940DF2BB2797
:10E59000AD2D9C2D8B2D0F940DF28A2D0F940DF225
:10E5A0002092C6008091C00086FFFCCF8091C00001
:10E5B00080648093C0009DE29093C6008091C0006B
:10E5C00086FFFCCF8091C00080648093C0002092C1
:10E5D000C6008091C00086FFFCCF8091C00080649F
:10E5E0008093C00019828601750188249924A1E0D6
:10E5F0003A1651F03A1620F0B2E03B1661F409C029
:10E600000BBFF701779007C0C7010F9477FE782EF4
:10E6100002C0F7017080872D0F940DF22092C60082
:10E620008091C00086FFFCCF8091C0008064809301
:10E63000C000872D8052F401EF70F0708F3520F408
:10E64000E40DF51D708204C0E40DF51D8EE280839B
:10E650000894E11CF11C011D111D0894811C911CE2
:10E6600090E18916910409F0C2CF80E190E0A0E02A
:10E67000B0E0A80EB91ECA1EDB1E198AC2010F9493
:10E68000FAF10F94DCF16A94662009F072CF629679
:10E690000FB6F894DEBF0FBECDBFCF91DF911F91B3
:10E6A0000F91FF90EF90DF90CF90BF90AF909F9031
:10E6B0008F907F906F905F904F903F902F90089534
:10E6C0002F923F924F925F926F927F928F929F9282
:10E6D000AF92BF92CF92DF92EF92FF920F931F9370
:10E6E000DF93CF93CDB7DEB7CD53D1400FB6F894BB
:10E6F000DEBF0FBECDBF01E20EBF0FEF0DBF94B75F
:10E70000F894A89514BE80916000886180936000A1
:10E7100010926000789493FF05C0E0910002F091A0
:10E7200001021995279A2F9A8091C00082608093E8
:10E73000C00080E18093C40088E18093C1000000A4
:10E74000EE24FF24870144E0A42EB12CCC24DD2448
:10E7500024C0C5010197F1F70894E11CF11C011DCB
:10E76000111D21E2E2162EE4F20620E0020720E06D
:10E77000120718F031E0C32ED12CC801B70127ECE5
:10E780003BE140E050E00F9441FE611571058105C9
:10E79000910519F485B1805885B98091C00087FD35
:10E7A00003C0C114D104A9F2A6014F5F5F4FC25E3E
:10E7B000DE4F59834883CE51D140C25EDE4F8881FF
:10E7C0009981CE51D140019711F00D9410FEC05D9A
:10E7D000DE4F19821882C053D14060E0C15DDE4F28
:10E7E0001882CF52D14088249924C35DDE4F19820C
:10E7F0001882CD52D140C05EDE4F188219821A8233
:10E800001B82C052D140CE5CDE4F188219821A8220
:10E810001B82C253D140EE24FF2487010BBFF701B6
:10E8200007911691C45CDE4F19830883CC53D14005
:10E830000D940BFEC25EDE4F28813981CE51D1404E
:10E840002130310509F52091C600C25EDE4F1982E4
:10E850001882CE51D14022C02F5F3F4F4F4F5F4FA4
:10E86000213082E138078AE7480780E0580780F0C6
:10E87000C45CDE4FE881F981CC53D140EF5FFF4F9C
:10E8800019F0EE27FF27099420E030E040E050E047
:10E890008091C00087FFE0CF2091C600C35DDE4FAE
:10E8A00048815981CD52D1404F5F5F4FC35DDE4FEC
:10E8B00059834883CD52D140213209F063C64A3092
:10E8C000510508F05FC60894811C911C53E0851621
:10E8D000910409F059C600E010E018C081E280936D
:10E8E000C6008091C00086FFFCCF8091C00080648C
:10E8F0008093C0002F5F3F4F2931310579F70F9486
:10E90000DCF10F5F1F4F0530110519F020E030E0FA
:10E91000E5CF10920A0210920B0210920C02109294
:10E920000D02109206021092070210920802109235
:10E930000902109202021092030210920402109235
:10E9400005028FEE90EE60E00F94F5F180E191EE1C
:10E9500060E00F94C2F18091C00087FFFCCF9091DE
:10E96000C600903608F09F759032B8F09093C600BC
:10E970008091C00086FFFCCF8091C00080648093AE
:10E98000C000A0E2A093C6008091C00086FFFCCF2B
:10E990008091C00080648093C000983409F4D7C18E
:10E9A0009934B8F4923409F459C1933458F490333B
:10E9B00019F1903308F4E3C59F33A1F1903409F0C5
:10E9C000DEC5BDC0953409F470C1963409F0D7C5D1
:10E9D00098C1923509F42BC2933538F49C3409F46C
:10E9E000F5C1913509F0CBC518C2963509F445C279
:10E9F000993509F0C4C567C483E792EE62E00F94CD
:10EA0000F5F110920602109207021092080210927D
:10EA1000090210920A0210920B0210920C0210923C
:10EA20000D0213C18FE792EE62E00F94F5F18FEEC5
:10EA300090EE60E00F94F5F181E291EE60E00F94CA
:10EA4000C2F187EB91EE60E00F94F5F180E391EE77
:10EA500060E00F94C2F184EE90EE60E00F94F5F167
:10EA60008FE391EE60E00F94C2F186E090E061E008
:10EA700070E00F9434F20F94DCF18DE591EE60E0DC
:10EA80000F94C2F189EC91EE60E00F94F5F18EE401
:10EA900091EE60E00F94C2F183EC91EE60E00F9490
:10EAA000F5F18CE691EE60E00F94C2F18EE10F94E7
:10EAB0000DF288E90F940DF281E00F940DF20F949E
:10EAC000DCF18BE791EE60E00F94C2F119E0E0E039
:10EAD000F0E010935700E4918E2F0F940DF20F94F5
:10EAE000DCF18AE891EE60E00F94C2F1E3E0F0E03F
:10EAF00010935700E4918E2F0F940DF20F94DCF1D8
:10EB000089E991EE60E00F94C2F1E2E0F0E0109349
:10EB10005700E4918E2F0F940DF20F94DCF188EAE8
:10EB200091EE60E00F94C2F1E1E0F0E01093570045
:10EB30001491812F0F940DF20F94DCF107CF8BE825
:10EB400092EE62E00F94F5F18BE492EE60E00F94A8
:10EB5000F5F10F94DCF100E010E019C0C8016F2D51
:10EB60000F947FFEFF2031F489E492EE60E00F9471
:10EB7000C2F10BC0F092C6008091C00086FFFCCFAE
:10EB80008091C00080648093C0000F5F1F4FC80158
:10EB900081519F41A0E0B0E0ABBFFC01F790BAE229
:10EBA000FB1621F0E2E000301E07C1F60F94DCF105
:10EBB0000F94DCF187E592EE60E00F94F5F10F948D
:10EBC000DCF1CC24DD2400E010E01EC0C8010F946D
:10EBD00077FEF82E882331F489E492EE60E00F94FA
:10EBE000C2F10BC08093C6008091C00086FFFCCFAD
:10EBF0008091C00080648093C000FE1419F00894D6
:10EC0000C11CD11C0F5F1F4FC80181519F41A0E063
:10EC1000B0E0ABBFFC01E790FAE2EF1621F022E092
:10EC20000030120799F60F94DCF10F94DCF182E6C4
:10EC300092EE60E00F94C2F1C60161E070E00F94C3
:10EC400034F20F94DCF10F94DCF110920202109276
:10EC50000302109204021092050278CE89E992EE26
:10EC600062E00F94F5F1279A2F9A16C02F9880E052
:10EC700090E0E0EDF7E03197F1F7019684369105E9
:10EC8000C1F72F9A80E090E0E0EDF7E03197F1F7DF
:10EC9000019684369105C1F78091C00087FFE6CFC9
:10ECA0008091C00087FFFCCF64C485EA92EE62E0E9
:10ECB0000F94F5F140910202509103026091040219
:10ECC0007091050281E020E10F9491F2809102029F
:10ECD00090910302A0910402B091050280509F4FD1
:10ECE000AF4FBF4F8093020290930302A0930402A0
:10ECF000B093050280509041A040B04008F426CE69
:10ED0000A4CF83EB92EE62E00F94F5F140910602FE
:10ED100050910702609108027091090280E020E1A1
:10ED20000F9491F28091060290910702A09108023F
:10ED3000B091090280509F4FAF4FBF4F80930602A2
:10ED400090930702A0930802B0930902FFCD80ECD4
:10ED500092EE62E00F94F5F183E792EE60E00F949B
:10ED6000F5F18FE792EE60E00F94F5F18BE892EE0B
:10ED700060E00F94F5F189E992EE60E00F94F5F10F
:10ED800085EA92EE60E00F94F5F183EB92EE60E09D
:10ED90000F94F5F180EC92EE60E00F94F5F187ECC2
:10EDA00092EE60E00F94F5F188ED92EE60E00F9442
:10EDB000F5F18FED92EE60E00F94F5F18AEE92EEB0
:10EDC00060E00F94F5F183E093EEBDCD87EC92EE19
:10EDD00062E00F94F5F181E40F947BF282E40F94EA
:10EDE0007BF283E40F947BF284E40F947BF285E45E
:10EDF0000F947BF286E40F947BF287E40F947BF20E
:10EE000088E40F947BF28AE40F947BF28BE40F94F6
:10EE10007BF28CE40F947BF299CD88ED92EE62E068
:10EE20000F94F5F1772473948824992409C48FED05
:10EE300092EE62E00F94F5F140910A0250910B02BC
:10EE400060910C0270910D0282E020E10F9491F22A
:10EE500080910A0290910B02A0910C02B0910D02D8
:10EE600080509F4FAF4FBF4F80930A0290930B0289
:10EE7000A0930C02B0930D0269CD8AEE92EE62E08F
:10EE80000F94F5F184EE90EE60E00F94F5F18FECC5
:10EE900091EE60E00F94F5F1662477244301CC5D98
:10EEA000DE4F19821882C452D140D401C301B695F5
:10EEB000A79597958795CA5DDE4F88839983AA8326
:10EEC000BB83C652D140CC5DDE4FA881B981C4520C
:10EED000D1401196CC5DDE4FB983A883C452D14096
:10EEE000CD0162E070E00F9434F2B0E2B093C6005E
:10EEF0008091C00086FFFCCF8091C0008064809329
:10EF0000C000EDE2E093C6008091C00086FFFCCF18
:10EF10008091C00080648093C000F0E2F093C6004E
:10EF20008091C00086FFFCCF8091C00080648093F8
:10EF3000C000CA5DDE4FE880F9800A811B81C6529D
:10EF4000D140BB27A12F902F8F2D0F940DF2CA5DBA
:10EF5000DE4F8881C652D1400F940DF2B0E2FB2EF5
:10EF6000F092C6008091C00086FFFCCF8091C00067
:10EF700080648093C0000DE30093C6008091C000C0
:10EF800086FFFCCF8091C00080648093C00010E2B7
:10EF90001093C6008091C00086FFFCCF8091C00016
:10EFA00080648093C0008BBEF3012791C65DDE4F65
:10EFB0002883CA52D140A22EBB24CC24DD2408943D
:10EFC000611C711C811C911C8BBEF3018791282E42
:10EFD0003324442455240894611C711C811C911C09
:10EFE0008BBEF3013791C55DDE4F3883CB52D140E4
:10EFF0000894611C711C811C911C8BBEF30147910C
:10F00000C45DDE4F4883CC52D140ADEFEA2EAFEF66
:10F01000FA2EAFEF0A2FAFEF1A2F6E0C7F1C801E57
:10F02000911E142D032DF22CEE24EA0CFB1C0C1D5A
:10F030001D1D0F940DF220E22093C6008091C000A8
:10F0400086FFFCCF8091C00080648093C000C65DC5
:10F05000DE4F8881CA52D1400F940DF230E23093D6
:10F06000C6008091C00086FFFCCF8091C000806404
:10F070008093C000C45DDE4F8881CC52D1400F9494
:10F080000DF240E24093C6008091C00086FFFCCFA5
:10F090008091C00080648093C000C55DDE4F888190
:10F0A000CB52D1400F940DF250E25093C6008091A4
:10F0B000C00086FFFCCF8091C00080648093C000B8
:10F0C0008FEFE8168FEFF80680E0080780E018075A
:10F0D00031F484E092EE60E00F94C2F1DFC0D80119
:10F0E000C7018070907CA070B0708050904CA040A0
:10F0F000B040D1F52FEF3FE340E050E0E222F322B1
:10F1000004231523CA5DDE4FA880B980CA80DB8046
:10F11000C652D140AE0CBF1CC01ED11EAA0CBB1CD7
:10F12000CC1CDD1C8EE092EE60E00F94C2F1BB2798
:10F13000A12F902F8F2D0F940DF28E2D0F940DF285
:10F1400030E23093C6008091C00086FFFCCF8091F2
:10F15000C00080648093C0004EE34093C60080915D
:10F16000C00086FFFCCF87C08EE09EEFA0E0B0E03D
:10F17000E822F9220A231B239CE0E91694E9F90608
:10F1800090E0090790E0190709F088C0C45DDE4FE0
:10F19000A881CC52D140EA2EFF2400E010E0102FCD
:10F1A0000F2DFE2CEE24C55DDE4FB881CB52D14031
:10F1B000EB0EF11C011D111DD601C501817090706F
:10F1C000A070B070DC0199278827E80EF91E0A1F8D
:10F1D0001B1F20EF30E040E050E0A222B322C42207
:10F1E000D52241E1AA0CBB1CCC1CDD1C4A95D1F7F1
:10F1F000EA0CFB1C0C1D1D1D81E090E0A0E0B0E0BE
:10F20000282239224A225B2235E1220C331C441C7D
:10F21000551C3A95D1F7E20CF31C041D151D57013E
:10F220006801AA0CBB1CCC1CDD1C85E192EE60E0E1
:10F230000F94C2F1C801AA27BB270F940DF2BB2778
:10F24000A12F902F8F2D0F940DF28E2D0F940DF274
:10F2500090E29093C6008091C00086FFFCCF809121
:10F26000C00080648093C000AEE3A093C60080918C
:10F27000C00086FFFCCF8091C00080648093C000F6
:10F28000C601AA27BB270F940DF2BB27AD2D9C2DDD
:10F290008B2D0F940DF28A2D0F940DF20F94DCF14B
:10F2A000CC5DDE4FE881F981C452D140F99709F471
:10F2B0004DCBF4E0EF2EF12C012D112D6E0C7F1CA7
:10F2C000801E911EF2CD83E093EE62E00F94F5F183
:10F2D0008AE192EE60E00F94C2F18091C00087FF56
:10F2E000FCCF1091C6001F751093C6008091C0001E
:10F2F00086FFFCCF8091C00080648093C0000F9493
:10F30000DCF1812F81548A3108F036C1163409F4BA
:10F3100095C0173490F4133409F44EC0143430F40B
:10F320001134F1F0123409F01DC130C0143409F465
:10F3300059C0153409F016C16BC01A3409F4C4C0A1
:10F340001B3438F4173409F48FC0183409F00AC19B
:10F35000A1C01B3409F4D2C01C3409F003C1E8C0B9
:10F360008FEF81B90DC082B1809582B980E090E0C5
:10F37000E0EDF7E03197F1F70196883C9105C1F790
:10F380008091C00087FFEFCF12B8EFC08FEF84B934
:10F390000DC085B1809585B980E090E0E0EDF7E0A3
:10F3A0003197F1F70196883C9105C1F78091C00033
:10F3B00087FFEFCF15B8D9C08FEF87B90DC088B1DF
:10F3C000809588B980E090E0E0EDF7E03197F1F7C3
:10F3D0000196883C9105C1F78091C00087FFEFCF6F
:10F3E00018B8C3C08FEF8AB90DC08BB180958BB9A7
:10F3F00080E090E0E0EDF7E03197F1F70196883C8E
:10F400009105C1F78091C00087FFEFCF1BB8ADC059
:10F410008FEF8DB90DC08EB180958EB980E090E0F0
:10F42000E0EDF7E03197F1F70196883C9105C1F7DF
:10F430008091C00087FFEFCF1EB897C08FEF80BBD1
:10F440000DC081B3809581BB80E090E0E0EDF7E0F6
:10F450003197F1F70196883C9105C1F78091C00082
:10F4600087FFEFCF11BA81C08FEF83BB0DC084B38C
:10F47000809584BB80E090E0E0EDF7E03197F1F714
:10F480000196883C9105C1F78091C00087FFEFCFBE
:10F4900014BA6BC08FEF809301010FC080910201FD
:10F4A00080958093020180E090E0E0EDF7E03197F5
:10F4B000F1F70196883C9105C1F78091C00087FF64
:10F4C000EDCF1092020151C08FEF809304010FC065
:10F4D0008091050180958093050180E090E0E0ED4A
:10F4E000F7E03197F1F70196883C9105C1F78091DB
:10F4F000C00087FFEDCF1092050137C08FEF8093DA
:10F5000007010FC08091080180958093080180E079
:10F5100090E0E0EDF7E03197F1F70196883C910536
:10F52000C1F78091C00087FFEDCF109208011DC088
:10F530008FEF80930A010FC080910B01809580931B
:10F540000B0180E090E0E0EDF7E03197F1F70196F4
:10F55000883C9105C1F78091C00087FFEDCF1092E4
:10F560000B0103C085E292EEEEC98091C00087FFD7
:10F57000FCCF8091C600EAC988E392EEE4C98CE131
:10F5800091EEE1C988249924933011F1943028F444
:10F59000913089F09230B8F408C0953061F195301F
:10F5A000F0F0963009F048C043C02B3109F042C951
:10F5B00091E06BE13FC96227C15DDE4F2883CF52E6
:10F5C000D14092E037C9B22FA0E0622793E032C960
:10F5D000822F90E0A82BB92B622794E02BC92E3004
:10F5E00009F039C3622795E0C05DDE4F19821882A9
:10F5F000C053D1401FC9E1E0F0E0EC0FFD1FC05D3A
:10F60000DE4F08811981C053D140E00FF11F2083E4
:10F610000F5F1F4FC05DDE4F19830883C053D14079
:10F6200062270A171B0709F005C9D80196E002C92D
:10F63000261709F010C303C0973009F0FBC87724E0
:10F640009981933109F412C19431C8F4963009F4C8
:10F65000D8C0973050F4923009F406C1933009F4C1
:10F660006DC0913009F059C253C0913109F477C08F
:10F67000923108F0BBC0903109F04FC2F5C098310B
:10F6800009F487C0993150F4953109F4EFC09531F0
:10F6900008F4C6C1963109F040C2C2C19A3109F4DA
:10F6A0006CC09A3108F491C09B3109F45BC09D3164
:10F6B00009F033C29D81903359F48F81882311F46E
:10F6C0009EE11CC0813011F091E018C098E916C08D
:10F6D000892F807591F0903539F4E0E0F0E089E011
:10F6E0008093570094910AC0983539F4E3E0F0E034
:10F6F00089E080935700949101C090E01A821B82A8
:10F700008D818C831D829E831F8227E030E009C299
:10F710001A8288E08B8381E48C8386E58D8382E581
:10F720008E8389E48F8383E5888780E589878FE5E9
:10F730008A8782E38B872BE030E0F3C18A818139AD
:10F7400041F0823941F0803911F48FE005C080E04A
:10F7500003C082E001C08AE01A828B8344C0772410
:10F76000739482C08D81882311F48EE12CC0813086
:10F7700011F081E028C088E926C01A82E1E0F0E0BB
:10F7800089E08093570084918B831C8224E030E0D1
:10F79000C8C18B81803589F48C81883039F4E2E0EE
:10F7A000F0E089E08093570084910DC0E0E0F0E044
:10F7B00089E080935700849106C0E3E0F0E089E09F
:10F7C0008093570084911A82DFCF8D81836C99E0FA
:10F7D000E1E0F0E0082E90935700E89507B600FCB2
:10F7E000FDCF1A821B8223E030E09BC180EC8A832C
:10F7F000CE5CDE4F188219821A821B82C253D1401E
:10F800008EC18A8190E0A0E0B0E0582F44273327D2
:10F8100022278B8190E0A0E0B0E0DC0199278827C7
:10F82000282B392B4A2B5B2B8D8190E0A0E0B0E098
:10F83000282B392B4A2B5B2B8C8190E0A0E0B0E089
:10F84000BA2FA92F982F8827282B392B4A2B5B2BCF
:10F85000220F331F441F551FC05EDE4F288339839C
:10F860004A835B83C052D1401A8259C13A81C95C34
:10F87000DE4F3883C753D140CA5CDE4F1882C6536F
:10F88000D1408B81C82EDD24CA5CDE4F488159816E
:10F89000C653D140C42AD52A933109F082C0CE5C28
:10F8A000DE4F88819981AA81BB81C253D1408050AB
:10F8B000904CA340B04030F583E0CE5CDE4FE88052
:10F8C000F9800A811B81C253D140F70100935B008C
:10F8D00080935700E89507B600FCFDCFCE5CDE4F65
:10F8E000088119812A813B81C253D14000501F4FAA
:10F8F0002F4F3F4FCE5CDE4F088319832A833B8313
:10F90000C253D140C05EDE4F488159816A817B81FC
:10F91000C052D140DE011B9631E08C9111962C91A2
:10F9200011971296C75CDE4F2883C953D140C85C3B
:10F93000DE4F1882C853D14090E0C85CDE4FE881AA
:10F94000F981C853D1408E2B9F2B0C01FA01609393
:10F950005B0030935700E89511244E5F5F4F6F4F67
:10F960007F4F0EEFE02E0FEFF02ECE0CDF1CC114F8
:10F97000D10499F685E0C05EDE4F088119812A81A5
:10F980003B81C052D140F80120935B008093570027
:10F99000E89507B600FCFDCF81E180935700E8951C
:10F9A00035C0C05EDE4F88819981AA81BB81C0527B
:10F9B000D140B695A795979587957C018601ABE0D8
:10F9C000AA2EB12CAC0EBD1E0BC0D5016D915D01F0
:10F9D000C7010F947FFE0894E11CF11C01501040F8
:10F9E0000115110591F7A60160E070E0440F551F65
:10F9F000661F771FC05EDE4FE880F9800A811B8199
:10FA0000C052D1404E0D5F1D601F711F1A82C05E33
:10FA1000DE4F488359836A837B83C052D1407FC0C5
:10FA2000FA80C55CDE4FF882CB53D140C65CDE4F16
:10FA30001882CA53D1408B81C82EDD24C65CDE4FAC
:10FA400008811981CA53D140C02AD12A1A828981DA
:10FA5000BE016D5F7F4F843121F59601C05EDE4FA0
:10FA6000E880F9800A811B81C052D1400BBFF701A9
:10FA700087919691DB018C9311969C936E5F7F4FDB
:10FA8000D801C7010296A11DB11DC05EDE4F88835B
:10FA90009983AA83BB83C052D14022503040F1F6F3
:10FAA00036C0C05EDE4F288139814A815B81C052F9
:10FAB000D1400894C108D108760100E010E0089414
:10FAC000C11CD11C0894E11CF11C011D111DE20E8A
:10FAD000F31E041F151F21BDBB27A52F942F832FB5
:10FAE00082BD2F5F3F4F4F4F5F4FF89A80B5DB01CC
:10FAF0008D93BD012E153F054007510761F7C05E8C
:10FB0000DE4F288339834A835B83C052D1409601FC
:10FB10002D5F3F4FFB01108204C080EC8A8322E0FE
:10FB200030E08BE18093C6008091C00086FFFCCF5F
:10FB30008091C00080648093C000C15DDE4FF88179
:10FB4000CF52D140F093C6008091C00086FFFCCF19
:10FB50008091C00080648093C000432F3093C60022
:10FB60008091C00086FFFCCF8091C00080648093AC
:10FB7000C000922F2093C6008091C00086FFFCCF6A
:10FB80008091C00080648093C0008EE08093C600A6
:10FB90008091C00086FFFCCF8091C000806480937C
:10FBA000C00065E1C15DDE4FE880CF52D1406E25D7
:10FBB00069276427FE01319610C090819093C6009A
:10FBC0008091C00086FFFCCF31968091C000806498
:10FBD0008093C0006927215030402115310569F715
:10FBE0006093C6008091C00086FFFCCF8091C0006A
:10FBF00080648093C00085B1805885B9772081F4F6
:10FC0000C15DDE4F0881CF52D1400F5FC15DDE4F35
:10FC10000883CF52D14090E0A0E0B0E00D941AF4F8
:10FC200027982F9880E090E020ED37E0F901319798
:10FC3000F1F7019684369105C9F700008091C00064
:10FC40008D7F8093C00081E180935700E895EE2777
:10FC5000FF270994FFCF90E00D941AF497FB092E2B
:10FC600007260AD077FD04D02ED006D000201AF443
:10FC7000709561957F4F0895F6F7909581959F4F08
:10FC80000895A1E21A2EAA1BBB1BFD010DC0AA1FDD
:10FC9000BB1FEE1FFF1FA217B307E407F50720F0F5
:10FCA000A21BB30BE40BF50B661F771F881F991F70
:10FCB0001A9469F760957095809590959B01AC01B9
:10FCC000BD01CF010895AA1BBB1B51E107C0AA1FAC
:10FCD000BB1FA617B70710F0A61BB70B881F991FED
:10FCE0005A95A9F780959095BC01CD010895F99991
:10FCF000FECF92BD81BDF89A992780B50895262F31
:10FD0000F999FECF1FBA92BD81BD20BD0FB6F89400
:0EFD1000FA9AF99A0FBE01960895F894FFCF63
:00000001FF
