:100000000C943C010C946D010C946D010C946D01E9
:100010000C946D010C946D010C946D010C946D01A8
:100020000C946D010C946D010C946D010C946D0198
:100030000C946D010C9450080C946D010C946D019E
:100040000C946D010C946D010C946D010C946D0178
:100050000C946D010C946D010C946D010C941009BD
:100060000C946D010C946D010C946D010C946D0158
:100070000C946D010C946D010C946D010C946D0148
:100080000C946D010C946D010C946D010C946D0138
:100090000C946D010C946D010C946D010C946D0128
:1000A0000C946D010C946D010C946D010C946D0118
:1000B0000C946D010C946D010C946D010C946D0108
:1000C0000C946D010C946D010C946D010C946D01F8
:1000D0000C946D010C946D010C94DA080C94B0082A
:1000E0000C946D010C945E030C945A090C947303E8
:1000F0000C9494030C9454030C9479030C947D0396
:100100000C9460020C943E020C9402020C94810345
:100110000C945A030C9469030C94F7030C94980202
:100120000C948F030C948B030C94E5020C949903AC
:100130000C94B6070C9452020C9495030C946F0324
:100140000C9466030C942F020C9462030C948703A6
:100150000C94C60300002100240027002A002D0073
:100160003000330001010000040107010A01000012
:1001700020002300260029002C002F00320000015F
:10018000000003010601090100000A0B02090C0D21
:100190000E0807030401000000000000000000003A
:1001A000000000000000000000000000000000004F
:1001B000000000001211100000000000000000000C
:1001C000000000000000000000000000000001022C
:1001D0001020200808102040102040800201020159
:1001E0000804020101020408102040808040201011
:1001F000080402018004020180402010080402016A
:1002000008040201010204081020408001020408D1
:100210001020408000002200250028002B002E0026
:100220003100340002010000050108010B01050541
:100230000505070508080808020202020A0A08085C
:10024000040404040101010101010101030303038A
:1002500003030303040707070C0C0C0C0C0C0C0C19
:100260000202020206060606060606060B0B0B0B2A
:100270000B0B0B0B02005A0911241FBECFEFD1E26A
:10028000DEBFCDBF00E00CBF18E0A0E0B2E0E2E4CA
:10029000FFE100E00BBF02C007900D92A235B1074D
:1002A000D9F729E0A2E5B8E001C01D92AA38B2074B
:1002B000E1F711E0CCE3D1E000E006C021970109AD
:1002C000802FFE010E947C0FCB33D10780E008070E
:1002D000A9F70E94E7090C949F0F0C94000096E088
:1002E000899FD0011124A55EB64F90967C936E93A2
:1002F0005F9791E091969C939197E0918809F09196
:10030000890990918709992339F0309751F081112B
:1003100008C0809137091994309719F05C968C9138
:10032000FACF0895CF92DF92EF92FF920F931F932F
:1003300096E0899FF0011124E55EF64F11A2278D0A
:1003400030A12130310551F178F02230310509F426
:1003500051C02330310509F452C01F910F91FF9015
:10036000EF90DF90CF9008956623B9F361E070E0DD
:100370000E946F012FB7F89480915A0890915B0802
:10038000A0915C08B0915D082FBF80937309909392
:100390007409A0937509B0937609DFCF9FB7F894DD
:1003A000C0905A08D0905B08E0905C08F0905D081F
:1003B0009FBF0091730910917409209175093091C4
:1003C0007609C01AD10AE20AF30A00918509109150
:1003D000860930E020E00C151D052E053F0550F480
:1003E00062E070E01F910F91FF90EF90DF90CF904F
:1003F0000C946F016111B1CF63E070E0F3CF70E056
:1004000060E0F0CFAF92BF92CF92DF92EF92FF9277
:100410000F931F93CF93DF936C017B018B01040F2C
:10042000151FEB015E01AE18BF08C017D10759F0C8
:100430006991D601ED91FC910190F081E02DC6010A
:100440001995892B79F7C501DF91CF911F910F91F4
:10045000FF90EF90DF90CF90BF90AF900895FC0198
:10046000538D448D252F30E0842F90E0821B930B19
:10047000541710F0CF96089501970895FC01918DBF
:10048000828D981761F0A28DAE0FBF2FB11D5D96C2
:100490008C91928D9F5F9F73928F90E008958FEF64
:1004A0009FEF0895FC01918D828D981731F0828D18
:1004B000E80FF11D858D90E008958FEF9FEF08956F
:1004C000FC01918D228D892F90E0805C9F4F821BD3
:1004D00091098F73992708958EE798E00E94600232
:1004E00021E0892B09F420E0822F0895FC01A48DDE
:1004F000A80FB92FB11DA35ABF4F2C91848D90E046
:1005000001968F739927848FA689B7892C93A08928
:10051000B1898C91837080648C93938D848D9813B2
:1005200006C00288F389E02D80818F7D8083089545
:10053000EF92FF920F931F93CF93DF93EC0181E033
:10054000888F9B8D8C8D98131AC0E889F9898081DA
:1005500085FF15C09FB7F894EE89FF896083E8890D
:10056000F98980818370806480839FBF81E090E0FF
:10057000DF91CF911F910F91FF90EF900895F62E8C
:100580000B8D10E00F5F1F4F0F731127E02E8C8D26
:100590008E110CC00FB607FCFACFE889F98980816B
:1005A00085FFF5CFCE010E947602F1CFEB8DEC0FE7
:1005B000FD2FF11DE35AFF4FF0829FB7F8940B8F88
:1005C000EA89FB8980818062CFCFCF93DF93EC01F2
:1005D000888D8823B9F0AA89BB89E889F9898C912B
:1005E00085FD03C0808186FD0DC00FB607FCF7CFE7
:1005F0008C9185FFF2CF808185FFEDCFCE010E94E7
:100600007602E9CFDF91CF91089580E090E0892BC9
:1006100049F080E090E0892B29F00E9400008111D0
:100620000E94000080E090E0892B49F080E090E09B
:10063000892B29F00E94000081110E94000080E0B7
:1006400090E0892B49F080E090E0892B29F00E940E
:10065000000081110E94000080E090E0892B29F0C9
:100660000E946C0281110C94000008958150823127
:1006700008F05AC0E82FF0E08827EE5BFC4F8F4F60
:100680000C947C0F6203660354035A035E039403C5
:1006900069036F03730379037D03810387038B036E
:1006A00094038F0395039903809180008F77809343
:1006B00080000895809180008F7DF9CF8091800027
:1006C000877FF5CF84B58F7784BD089584B58F7DFE
:1006D000FBCF8091B0008F778093B0000895809118
:1006E000B0008F7DF9CF809190008F77809390003C
:1006F0000895809190008F7DF9CF80919000877F41
:10070000F5CF8091A0008F778093A000089580910D
:10071000A0008F7DF9CF8091A000877FF5CF8091D9
:1007200020018F77809320010895809120018F7D93
:10073000F9CF80912001877FF5CFCF93DF93282FCA
:1007400030E0F901E857FE4F8491F901E253FE4F82
:10075000D491F901E25DFD4FC491CC23A1F0811148
:100760000E943603EC2FF0E0EE0FFF1FE259FE4F20
:10077000A591B491EC91ED2381E090E009F480E043
:10078000DF91CF91089580E090E0FACF862F0C940E
:100790009D031F93CF93DF93282F30E0F901E85793
:1007A000FE4F8491F901E253FE4FD491F901E25DCD
:1007B000FD4FC491CC23A9F0162F81110E9436035E
:1007C000EC2FF0E0EE0FFF1FEC5EFD4FA591B49112
:1007D0008FB7F894EC91111108C0D095DE23DC930B
:1007E0008FBFDF91CF911F910895DE2BF8CF862F19
:1007F000642F0C94C9039091010289130DC0E4E7A2
:10080000F2E0E4919FEF90930102E230E1F038F4DE
:10081000EE2381F0E13089F060E00C94C903E4300C
:1008200049F110F1E530C1F7909173009D7F9093ED
:100830007300F2CF10926E00EFCF90916F009D7F0A
:1008400090936F00E9CF909170009D7F909370001E
:1008500091E09093B0009091B100987F9460909354
:10086000B1001092B300D8CF909171009D7F90930A
:100870007100D2CF909172009D7F90937200CCCF87
:10088000CF93DF9390E0FC01E253FE4F2491825D11
:100890009D4FFC0184918823C9F090E0880F991F37
:1008A000FC01EC5AFE4FA591B491FC01EC5EFD4FAA
:1008B000C591D49161110DC09FB7F8948C9120958A
:1008C00082238C938881282328839FBFDF91CF9137
:1008D0000895623051F49FB7F8943C91822F80952F
:1008E00083238C93E8812E2BEFCF8FB7F894EC9174
:1008F0002E2B2C938FBFEACF4F925F926F927F92F5
:100900008F929F92AF92BF92CF92DF92EF92FF921F
:100910000F931F93CF93DF9300D01F921F92CDB7F9
:10092000DEB78C012A013B01809101028830C9F0B9
:100930008F3F09F492C00F900F900F900F900F907F
:10094000DF91CF911F910F91FF90EF90DF90CF90AB
:10095000BF90AF909F908F907F906F905F904F90DF
:100960000895E4E7F2E084918D8387FDE4CF61E0B0
:1009700088E00E9440049D81992321F08D8182307E
:1009800009F0D2C14801B12CA12C60E072E18AE7E4
:1009900090E0A50198010E94140E29833A834B83AD
:1009A0005C8369017A0191E0C91AD108E108F10874
:1009B0008FEFC816D104E104F10409F00CF483C1EF
:1009C00060E472E48FE090E0A50198010E94140EAB
:1009D00069017A0191E0C91AD108E108F1088D8115
:1009E000823009F011C182E09FEFC916D104E10401
:1009F000F10409F00CF460C160E970ED83E090E06F
:100A0000A50198010E94140E69017A0181E0C81ABB
:100A1000D108E108F10883E09FEFC916D104E10491
:100A2000F10409F00CF448C168E478EE81E090E04C
:100A3000A50198010E94140E69017A0191E0C91A7A
:100A4000D108E108F1088FEFC816D104E104F104E0
:100A500011F00CF019C184E02FC188E080930102ED
:100A6000E4E7F2E094919D83892F9F3F09F463CFDF
:100A7000923009F469C060F4992381F1913009F44E
:100A800045C087FD58CF61E088E00E94400476CFE2
:100A90009D81943009F49AC008F478C0953089F7A4
:100AA0001092200110922101809121018860809391
:100AB000210180912101816080932101E6E3F2E030
:100AC000E491F0E0EE0FFF1FEC5EFD4F85919491F5
:100AD000E6EDF1E0E491E0935E0849CF14BC15BC6B
:100AE00084B5826084BD85B5816085BDE6E3F2E0B2
:100AF000E491F0E0EE0FFF1FEC5EFD4F85919491C5
:100B0000E6EDF1E0E491E093650831CF10928000CA
:100B10001092810080918100886080938100809193
:100B20008100816080938100E6E3F2E0E491F0E0EF
:100B3000EE0FFF1FEC5EFD4F85919491E6EDF1E025
:100B4000E491E093640813CF1092B0001092B100CA
:100B50008091B00082608093B0008091B10081608C
:100B60008093B100E6E3F2E0E491F0E0EE0FFF1FC6
:100B7000EC5EFD4F85919491909363088093620899
:100B8000E6EDF1E0E491E0936108F1CE109290007F
:100B900010929100809191008860809391008091E3
:100BA0009100816080939100E6E3F2E0E491F0E04F
:100BB000EE0FFF1FEC5EFD4F85919491E6EDF1E0A5
:100BC000E491E093600883E08D83D1CE1092A00081
:100BD0001092A1008091A10088608093A100809173
:100BE000A10081608093A100E6E3F2E0E491F0E0EF
:100BF000EE0FFF1FEC5EFD4F85919491E6EDF1E065
:100C0000E491E0935F08B3CE8FEFC816D104E104FE
:100C1000F10409F00CF486C068E478EE81E090E01D
:100C2000A50198010E94140E69017A0191E0C91A88
:100C3000D108E108F1088D81882309F48DC18FEF77
:100C4000C816D104E104F10409F00CF404CF62E108
:100C50007AE780E090E0A50194010E94140E6901FA
:100C60007A0191E0C91AD108E108F1088D81882341
:100C700009F447C18FEFC816D104E104F10411F063
:100C800008F048C186E018C064E274EF80E090E0AC
:100C9000A50194010E94140E69017A0191E0C91A1C
:100CA000D108E108F1088FEFC816D104E104F1047E
:100CB00011F008F041C185E09091B100987F892B37
:100CC0008093B10008C081E09D819111F5CF95B569
:100CD000987F892B85BD2FEF3FEFA9014114510467
:100CE0006104710409F049C09D81923009F4E7C0A4
:100CF0000CF0CEC0992309F4D3C0913009F01BCE7B
:100D0000D0928900C09288002093760830937708AB
:100D1000409378085093790880916F0082608093A7
:100D20006F0009CE82E0D0CFB12CA12C60E072E13F
:100D30008AE790E0A50198010E94140E69017A01EA
:100D400081E0C81AD108E108F108C114D10491E08A
:100D5000E906F10404F591E08D81813069F5809117
:100D60008100887F892B809381002FEF3FEFA901BD
:100D7000411451046104710419F2D801AA0FBB1F78
:100D8000A30192010E94330E28EE33E040E050E0D0
:100D90000E943E0EA9CF68E478EE81E090E0A501C4
:100DA00098010E94140E69017A0181E0C81AD108E5
:100DB000E108F10893E0D0CF8D81833001F5809177
:100DC0009100887F892B809391002FEF3FEFA9013D
:100DD000411451046104710481F6D0929900C092CB
:100DE000980020936E0830936F08409370085093DA
:100DF0007108809171008260809371009CCD8D811B
:100E0000843009F58091A100887F892B8093A1000F
:100E10002FEF3FEFA901411451046104710409F05F
:100E2000ACCFD092A900C092A80020936A0830935A
:100E30006B0840936C0850936D088091720082603B
:100E40008093720078CD8D81853009F044CF8091F8
:100E50002101887F892B809321012FEF3FEFA9018A
:100E6000411451046104710409F087CFD092290123
:100E7000C092280120936608309367084093680861
:100E8000509369088091730082608093730053CD02
:100E90008D81843031F20CF4A0CF853039F34BCD05
:100EA000C7BC20937A0830937B0840937C0850930A
:100EB0007D0880916E00826080936E003CCDC09270
:100EC000B3002093720830937308409374085093D2
:100ED0007508809170008260809370002CCDC9806D
:100EE000DA80EB80FC809AE0F594E794D794C7947D
:100EF0009A95D1F791E0C91AD108E108F10885E087
:100F0000E6CE8FEFC816D104E104F10409F038F7FA
:100F100084E0DDCEC980DA80EB80FC808AE0F59445
:100F2000E794D794C7948A95D1F791E0C91AD1086C
:100F3000E108F10887E0C0CE62E17AE780E090E066
:100F4000A50194010E94140E69017A0191E0C91A69
:100F5000D108E108F1088ECE83E09FEFC916D104D5
:100F6000E104F10411F00CF072CEB1CE862F642FA3
:100F70000C944004863309F480E020917B00982F84
:100F80009870277F922B90937B002091000290E431
:100F9000299F900111248770822B80937C0080917F
:100FA0007A00806480937A0080917A0086FDFCCF7D
:100FB000809178009091790008953FB7F8948091DE
:100FC000530890915408A0915508B091560826B541
:100FD000A89B05C02F3F19F00196A11DB11D3FBF71
:100FE000BA2FA92F982F8827BC01CD01620F711D40
:100FF000811D911D42E0660F771F881F991F4A953A
:10100000D1F708958F929F92AF92BF92CF92DF92C5
:10101000EF92FF926B017C010E94DD074B015C01A6
:10102000C114D104E104F104B9F00E94DD0768198C
:1010300079098A099B09683E73408105910580F30F
:1010400021E0C21AD108E108F10888EE880E83E099
:10105000981EA11CB11CE4CFFF90EF90DF90CF90C1
:10106000BF90AF909F908F900895FC010190002059
:10107000E9F73197AF01481B590BBC018EE798E0A7
:101080000C940202CF93DF930E943508EC018CE2AE
:1010900098E00E9435088C0F9D1FDF91CF91089535
:1010A0001F920F920FB60F9211240BB60F922F932F
:1010B0003F934F935F936F937F938F939F93AF93E0
:1010C000BF93EF93FF938091720890917308A09162
:1010D0007408B0917508892B8A2B8B2BE1F19091C4
:1010E0006108E0916208F09163088081892780831C
:1010F0008091720890917308A0917408B09175085E
:10110000181619061A061B069CF480917208909115
:101110007308A0917408B09175080197A109B109ED
:101120008093720890937308A0937408B093750825
:10113000FF91EF91BF91AF919F918F917F916F91AF
:101140005F914F913F912F910F900BBE0F900FBE6B
:101150000F901F901895809101020E94FB03E8CF29
:101160001F920F920FB60F9211240BB60F922F936E
:101170003F934F935F936F937F938F939F93AF931F
:10118000BF93EF93FF938EE798E00E947602FF9162
:10119000EF91BF91AF919F918F917F916F915F91EF
:1011A0004F913F912F910F900BBE0F900FBE0F905C
:1011B0001F9018951F920F920FB60F9211240BB625
:1011C0000F922F938F939F93EF93FF93E0918E084D
:1011D000F0918F088081E0919408F091950882FD4C
:1011E0001DC09081809197088F5F8F732091980820
:1011F000821741F0E0919708F0E0E258F74F958FA1
:1012000080939708FF91EF919F918F912F910F906D
:101210000BBE0F900FBE0F901F9018958081F2CFDC
:101220001F920F920FB60F9211242F933F938F931B
:101230009F93AF93BF9380915A0890915B08A091C0
:101240005C08B0915D083091520823E0230F2D37E0
:1012500058F50196A11DB11D2093520880935A089C
:1012600090935B08A0935C08B0935D08809153084D
:1012700090915408A0915508B09156080196A11D6F
:10128000B11D8093530890935408A0935508B093D0
:101290005608BF91AF919F918F913F912F910F90E1
:1012A0000FBE0F901F90189526E8230F0296A11DE0
:1012B000B11DD2CF109281081092800888EE93E081
:1012C000A0E0B0E08093820890938308A093840804
:1012D000B09385088CE098E090937F0880937E0817
:1012E00085E391E090938B0880938A0884E391E0F2
:1012F00090938D0880938C0880E391E090938F0801
:1013000080938E0881E391E09093910880939008F8
:1013100082E391E0909393088093920886E391E0B2
:1013200090939508809394081092970810929808CB
:101330001092990810929A0810921D091092210992
:1013400010922009109222098EE198E090931C09D6
:1013500080931B09E7E3F9E010821482138215825F
:10136000369689E0E337F807B9F788E298E090937A
:101370007E0980937D0984E298E0909380098093B0
:101380007F0984E0809381098093820982E092E062
:1013900090937C0980937B098AE090E09093840984
:1013A0008093830984EF91E0909386098093850967
:1013B0001092890910928809109277091092780981
:1013C0001092790910927A09109287090895CF93A3
:1013D000DF93CDB7DEB7A1970FB6F894DEBF0FBE8F
:1013E000CDBF789484B5826084BD84B5816084BDAE
:1013F00085B5826085BD85B5816085BD80916E00B3
:10140000816080936E0010928100809181008260E3
:101410008093810080918100816080938100809120
:1014200080008160809380008091B100846080930F
:10143000B1008091B00081608093B00080919100F4
:1014400082608093910080919100816080939100EF
:10145000809190008160809390008091A1008260D3
:101460008093A1008091A10081608093A100809170
:10147000A00081608093A000809121018260809310
:1014800021018091210181608093210180912001BF
:1014900081608093200180917A00846080937A003B
:1014A00080917A00826080937A0080917A008160D6
:1014B00080937A0080917A00806880937A001092FD
:1014C000C100E0918E08F0918F0892E09083E09146
:1014D0008A08F0918B081082E0918C08F0918D08B9
:1014E0008FEC808310929608E0919208F091930817
:1014F00086E08083E0919008F0919108808180617E
:101500008083E0919008F0919108808188608083C9
:10151000E0919008F0919108808180688083E0914B
:101520009008F091910880818F7D808390930002D4
:101530008FE298E00E94420802E212E082E1E82E87
:1015400082E0F82E92E3A92E92E0B92E2CE2C22E70
:10155000DD24D394A016B10609F4EBC2D8016D9135
:101560007D918D01C6010E94680F4B01F701219109
:1015700031917F01AB01770F660B770B8091570894
:1015800090915808DC012A9FC0012B9F900D3A9F33
:10159000900D11240E947C04B401660F771F072E62
:1015A000000C880B990B0E94020888E00E94FB0344
:1015B000D1CFA701960119A28E010F5D1F4FCA015D
:1015C000B9012AE030E040E050E00E943E0E605D4C
:1015D000D8016E938D01211531054105510579F72B
:1015E000DFC2712C80918209781608F063C0E72C65
:1015F000F12CE0917F09F0918009EE0DFF1D61E073
:1016000080810E944004E0917F09F0918009EE0DF5
:10161000FF1D60E080810E94C90381E090E0A0E0AE
:10162000B0E0072C04C0880F991FAA1FBB1F0A94A3
:10163000D2F74C016C01C094D094612C8091810947
:10164000681608F5062D10E0E0917D09F0917E09FD
:10165000E00FF11F80810E949D030C5F1F4F000F60
:10166000111FF801E55EF64F892B41F480819181CD
:1016700088299929918380836394E0CF8081918127
:101680008C219D21F7CFE0917F09F0918009EE0D2B
:10169000FF1D61E080810E94C90380917F099091C4
:1016A0008009E80EF91E60E0F70180810E94400485
:1016B000739498CFEBE1EE2EE9E0FE2E8701D8017E
:1016C0005F968D919C919097892B59F45C961C9212
:1016D0005C97EFEFFFEF5E96FC93EE935D9791962C
:1016E0001C920A5F1F4F87E599E08017910739F731
:1016F000D12C80918109D81608F052C0C12C8D2CB4
:10170000912C880C991CD401AD5DB64F4D012091F0
:101710008209C21608F042C0F401608171810C2C6C
:1017200002C0769567950A94E2F7D29E9001112443
:101730002C0D311DEBE1F9E080E0458D568D24172D
:10174000350709F46FC28F5F36968A30B1F760FFB4
:1017500023C0EBE1F9E090E080E0448D411117C037
:10176000E0917B09F0917C09E20FF31F4081A89E74
:10177000F001A99EF00D1124E55EF64F448F368FDF
:10178000258F10A2178E61E00E94920105C001967C
:1017900036968A30910509F7C394B9CFD394A9CF6F
:1017A00080E0D70191969C919111892FB6E0EB0EC4
:1017B000F11C0E151F05A9F79FB7F89440915A0820
:1017C00050915B0860915C0870915D089FBF4093E9
:1017D0007709509378096093790970937A0988237F
:1017E00009F4EAC180913C09882309F4E5C180919C
:1017F0003A0990913B09019709F0DEC180913709C0
:10180000882309F4D9C18093590895C1813309F01F
:101810004DC08AE498E00E94420846E6E42E47E084
:10182000F42E54ECC52E56E0D52E6CE2862E99246B
:101830009394E8E0EE16E8E0FE0609F475C186E34D
:101840000E94BA07FC01D7016D917D917D01C40111
:101850000E94680F8B01D601AD90BD906D012B01E8
:10186000770F6608770825E030E0DF010E94840FDB
:101870002FEF33E040E050E00E94140EA29EC00122
:10188000A39E900DB29E900D1124B301A2010E945F
:101890007C04B801660F771F072E000C880B990B8C
:1018A0000E94020888E00E94FB03C3CF823309F044
:1018B0004FC08AE498E00E94420800E1E02E06E072
:1018C000F02E8EE5682E85E0782E92EC892E96E03B
:1018D000992E2CE2A22EBB24B3948E149F0409F4FB
:1018E00023C186E30E94BA07FC01D7016D917D9167
:1018F0007D01C5010E94680F8B01D301CD90DD9061
:101900003D011B01770F4408550825E030E0DF0159
:101910000E94840F2FEF33E040E050E00E94140E4D
:10192000C29EC001C39E900DD29E900D1124B201A3
:10193000A1010E947C04B801660F771F072E000CDE
:10194000880B990B0E94020888E00E94FB03C5CF18
:10195000833309F04DC08AE498E00E944208F2EC1B
:10196000EF2EF4E0FF2EA6E2CA2EA4E0DA2EBCE2AF
:101970008B2E99249394BEE5EB16B5E0FB0609F493
:10198000D3C086E30E94BA07FC01D7016D917D9117
:101990007D01C4010E94680F8B01D601AD90BD90FE
:1019A0006D012B01770F6608770825E030E0DF0135
:1019B0000E94840F2FEF33E040E050E00E94140EAD
:1019C000A29EC001A39E900DB29E900D1124B30162
:1019D000A2010E947C04B801660F771F072E000C3D
:1019E000880B990B0E94020888E00E94FB03C3CF7A
:1019F000843309F04DC08AE498E00E94420836EB37
:101A0000E32E33E0F32E46E4C42E43E0D42E5CE212
:101A1000852E99249394B6E2EB16B4E0FB0609F404
:101A200083C086E30E94BA07FC01D7016D917D91C6
:101A30007D01C4010E94680F8B01D601AD90BD905D
:101A40006D012B01770F6608770825E030E0DF0194
:101A50000E94840F2FEF33E040E050E00E94140E0C
:101A6000A29EC001A39E900DB29E900D1124B301C1
:101A7000A2010E947C04B801660F771F072E000C9C
:101A8000880B990B0E94020888E00E94FB03C3CFD9
:101A90008AE498E00E9442080EE812E092E3292EC0
:101AA00092E0392EE6E4F3E0E017F107E9F186E38E
:101AB0000E94BA076C01D8012D913D914D915D9125
:101AC0008D0160E070E086E993E40E946F0E0E9451
:101AD000E10E2B01F101E190F1901F014B01770F15
:101AE000AA08BB0825E030E0D6010E94840F2FEF42
:101AF00033E040E050E00E94140EE29EC001E39EFD
:101B0000900DF29E900D1124B501A4010E947C0459
:101B1000440C551CB201550C880B990B0E9402080D
:101B200088E00E94FB03BECF80E3809359080E94A7
:101B30000503A6E0AA2E809159089FEC980F9530D6
:101B400008F464CE8DE00E94BA0790935808809301
:101B500057086C01990FEE08FF08F7FE2ACD6DE2D9
:101B60008EE798E00E94980222273327A9012C19BA
:101B70003D094E095F0919A28E010F5D1F4FCA0171
:101B8000B9012AE030E040E050E00E943E0E605D86
:101B9000F80162938F01211531054105510579F74F
:101BA0000115110519F0C8010E9435088CE298E072
:101BB0000E943508BB24B394B09287098FB7F8947C
:101BC00040915A0850915B0860915C0870915D08E3
:101BD0008FBF8091770990917809A0917909B09190
:101BE0007A09481B590B6A0B7B0B809183099091F2
:101BF0008409B0E0A0E084179507A607B707E0F6D0
:101C000010E080918109181708F0EBCCE0917D0974
:101C1000F0917E09E10FF11D62E080810E94400495
:101C20001F5FEFCF6170B0CD052E97FB1EF40094BF
:101C30000E942B0E57FD07D00E943E0E07FC03D0DA
:101C40004EF40C942B0E50954095309521953F4FB6
:101C50004F4F5F4F089590958095709561957F4F98
:101C60008F4F9F4F08950E94600EA59F900DB49FC7
:101C7000900DA49F800D911D11240895A1E21A2EAC
:101C8000AA1BBB1BFD010DC0AA1FBB1FEE1FFF1F20
:101C9000A217B307E407F50720F0A21BB30BE40B70
:101CA000F50B661F771F881F991F1A9469F76095B7
:101CB0007095809590959B01AC01BD01CF01089571
:101CC000A29FB001B39FC001A39F700D811D11247D
:101CD000911DB29F700D811D1124911D08950E94C8
:101CE000830E0C942E0F0E94270F58F00E94200F95
:101CF00040F029F45F3F29F00C94170F51110C9418
:101D0000620F0C941D0F0E943F0F68F39923B1F3EB
:101D1000552391F3951B550BBB27AA276217730711
:101D2000840738F09F5F5F4F220F331F441FAA1FA5
:101D3000A9F335D00E2E3AF0E0E832D09150504061
:101D4000E695001CCAF72BD0FE2F29D0660F771F0F
:101D5000881FBB1F261737074807AB07B0E809F0F5
:101D6000BB0B802DBF01FF2793585F4F3AF09E3F7A
:101D7000510578F00C94170F0C94620F5F3FE4F359
:101D8000983ED4F3869577956795B795F7959F5FBD
:101D9000C9F7880F911D9695879597F90895E1E009
:101DA000660F771F881FBB1F621773078407BA0768
:101DB00020F0621B730B840BBA0BEE1F88F7E095C3
:101DC00008950E94E80E6894B1110C94620F089572
:101DD0000E94470F88F09F5798F0B92F9927B75165
:101DE000B0F0E1F0660F771F881F991F1AF0BA95BF
:101DF000C9F714C0B13091F00E94610FB1E00895AD
:101E00000C94610F672F782F8827B85F39F0B93F9E
:101E1000CCF3869577956795B395D9F73EF4909571
:101E20008095709561957F4F8F4F9F4F089597F9DB
:101E30009F6780E870E060E008959FEF80EC089570
:101E400000240A9416161706180609060895002499
:101E50000A9412161306140605060895092E039413
:101E6000000C11F4882352F0BB0F40F4BF2B11F487
:101E700060FF04C06F5F7F4F8F4F9F4F089557FDE6
:101E80009058440F551F59F05F3F71F04795880FE8
:101E900097FB991F61F09F3F79F08795089512167F
:101EA00013061406551FF2CF4695F1DF08C016162B
:101EB00017061806991FF1CF8695710561050894DC
:101EC0000895E894BB2766277727CB0197F90895F3
:101ED00097FB072E16F4009407D077FD09D00E94D7
:101EE0008B0F07FC05D03EF4909581959F4F089588
:101EF000709561957F4F0895EE0FFF1F881F8BBF70
:101F00000790F691E02D19940E94600EB7FF089596
:101F1000821B930B0895AA1BBB1B51E107C0AA1F8C
:101F2000BB1FA617B70710F0A61BB70B881F991F7A
:101F30005A95A9F780959095BC01CD010895F89424
:021F4000FFCFD1
:101F420001FF3738392F343536783132332D2A3084
:101F52003D2B0601C400C400DC00C4000000F700F1
:101F62000601040008000800040004000400040044
:101F720004004A014A015D01880188015D014A01AC
:101F820026010601060126014A014A01260126010F
:101F92004A014A015D01880188015D014A01260169
:101FA2000601060126014A01260106010601260153
:101FB20026014A01060126014A015D014A01060184
:101FC20026014A015D014A0126010601260100009F
:101FD20000400000004000000040000000400000FF
:101FE20000400000004000000040000000400000EF
:101FF200803F0000803F00000040000000400000E1
:102002000000000080400000803F0000004000000F
:1020120000400000004000000040000000400000BE
:10202200004000000040000000400000803F00002F
:10203200803F00000040000000400000803F0000A0
:10204200803F0000404000000040000000400000CF
:1020520000400000803F000000400000804000007F
:102062008040000000400000803F0000004000006F
:10207200804000008040000000400000004000005E
:10208200803F0000004006010B02DC00B801E900BD
:10209200D2010000000006010B02DC00B801E900D9
:1020A200D20100000000AF005D01930026019C00F8
:1020B200370100000000AF005D01930026019C0083
:1020C2003701000000003701150126011501370113
:1020D2003701D000C4001501060172015D01A5009F
:1020E200D201B8019F013701F700E900DC00D000FE
:1020F2000000000000000C000C000C000C000C00A2
:102102000C00060003000C000C000C000C000C007C
:102112000C00060003000C000C000C000C000C006C
:102122000C00060003000C000C000C000C000C005C
:102132000C00060006001200120012000600060043
:10214200060006000600060012001200120012002D
:10215200120012000A000A000A000A000A000A001D
:102162000300030003004D0A4D0A00004D0A00005F
:102172002D084D0A0000400C00000000000020065F
:102182000000000000002D080000000020060000F2
:102192000000270500000000E0060000B80700006C
:1021A2004907E006000020064D0A400CC00D000061
:1021B200EA0A400C00004D0A00002D082D09B8075C
:1021C200000000002D0800000000200600000000B2
:1021D200270500000000E0060000B80700004907DC
:1021E200E006000020064D0A400CC00D0000EA0A7D
:1021F200400C00004D0A00002D082D09B807000010
:1022020000000C000C000C000C000C000C000C0078
:102212000C000C000C000C000C000C000C000C005C
:102222000C000C000C000C000C000C000C000C004C
:102232000C000C000C000C000C000C000C000C003C
:102242000C000900090009000C000C000C000C0035
:102252000C000C000C000C000C000C000C000C001C
:102262000C000C000C000C000C000C000C000C000C
:102272000C000C000C000C000C000C000C000C00FC
:102282000900090009000C000C000C000C000C00F5
:102292000C000C000C000C000C000C000C002601C1
:1022A20026012601260126012601260126012601F4
:1022B20026012601260126012601260126012601E4
:1022C2002601260126012601260126012601DC001F
:1022D20006012601260126014A015D015D015D011B
:1022E20088014A014A012601060106012601000071
:1022F200DC000601F7002601F7004A015D015D01DD
:10230200060106010601060126010601260100005A
:102312000000DC0006012601260126015D0188017C
:1023220088018801B801B801B801B8018801B80173
:10233200260100002601A5005D015D018801B801AA
:102342002601000026015D014A014A015D012601C4
:102352000400080004000800040008000800080047
:102362000800040008000400080004000800080037
:102372000800080004000800040008000400080027
:102382000800080008000400040008000800040017
:102392000400080008000400040008000800080007
:1023A20004000800080008000400040008000800F7
:1023B20004000400080008000400040008000400EF
:1023C20004000800080008000800040004000800D7
:1023D20008000400040008000800040004000800CB
:1023E20008000800040008000800080004000400B7
:1023F20004000800040008000800080004000400AB
:10240200080008002601B801B801B801260126011A
:10241200B801B801B8012601B801D2010B02B80116
:102422004B020B020B02D201D201B801B8018801A2
:102432005D0188010B02B8012601060126014A014D
:102442005D014A015D018801B8010B02D201B801A8
:1024520088015D014A01260106018801880188017F
:10246200B801D201B80188015D018801B801880173
:102472005D014A015D0188015D014A012601D20127
:10248200B801B801880188015D015D014A01B80106
:10249200880188015D015D014A014A0126015D0151
:1024A2005D018801B801040008000800040004006E
:1024B20004000800080004000400040008000800EA
:1024C20002000800080008000800080008000800D0
:1024D20008000400080008000200080008000800C4
:1024E20008000800080008000800080008000800AA
:1024F200080008000800080008000400080008009E
:1025020004000400040008000800040004000400A1
:10251200080008000400040004000800080002008B
:102522000800080008000800080008000800080069
:102532000800080008000800080008000800080059
:1025420004000800080002000000000098020202D5
:102552002F02E50260023E02520200000000B607AE
:10256200F703C603323334352E2F30310D0A00778C
:10257200656C636F6D652070726573732066726F30
:102582006D203120746F203520006D6172696F0AF1
:02259200000047
:00000001FF
