:100000000C945C010C948D010C948D010C948D0169
:100010000C948D010C948D010C948D010C948D0128
:100020000C948D010C948D010C948D010C948D0118
:100030000C948D010C948D010C948D010C948D0108
:100040000C948D010C948D010C948D010C948D01F8
:100050000C948D010C948D010C948D010C948E04E4
:100060000C948D010C9458040C942E040C948D0166
:100070000C948D010C948D010C948D010C948D01C8
:100080000C948D010C948D010C948D010C948D01B8
:100090000C948D010C948D010C948D010C948D01A8
:1000A0000C948D010C948D010C948D010C948D0198
:1000B0000C948D010C948D010C948D010C948D0188
:1000C0000C948D010C948D010C948D010C948D0178
:1000D0000C948D010C948D010C948D010C948D0168
:1000E0000C948D010C941F0A0C944D020C94F4088E
:1000F0000C94A5030C947F030C94B3070C94AF01EC
:100100000C944B090C9483030C942E090C94A903B2
:100110000C94F9090C9479030C945F070C94D202A7
:100120000C94D7080C9446080C946E030C94580356
:100130000C949B030C946A030C9476030C94970321
:100140000C94B6060C94EB010C9453030C94DC0154
:100150000C94A2090C948D030C949F030C947B07C0
:100160000C9429080C9485020C9463080C943F02AB
:100170000C9472030C9491030C940C080C94BA0820
:100180000C9489030C9468090C94EF070C94BF0934
:100190000C9480080C9485090C949D080C944307DA
:1001A0000C9497070C9411090C94DC090C94D1075A
:1001B00000000A0B02090C0D0E08070304010000E1
:1001C000000000000000000000000000000000002F
:1001D00000000000000000000000000012111000EC
:1001E000000000000000000000000000000000000F
:1001F00000000000000000002200250028002B0065
:100200002E003100340002010000050108010B013D
:1002100000002100240027002A002D0030003300B8
:1002200001010000040107010A0105050505070594
:1002300008080808020202020A0A08080404040462
:10024000010101010101010103030303030303038E
:10025000040707070C0C0C0C0C0C0C0C020202021D
:1002600006060606060606060B0B0B0B0B0B0B0B06
:1002700001021020200808102040102040800201B8
:10028000020108040201010204081020408080409D
:10029000201008040201800402018040201008049C
:1002A000020108040201010204081020408001023A
:1002B0000408102040801F0A11241FBECFEFD1E296
:1002C000DEBFCDBF00E00CBF21E1ACE3B0E101C077
:1002D0001D92A737B207E1F710E1A0E0B2E0E8ED28
:1002E000F8E100E00BBF02C007900D92AC33B107FC
:1002F000D9F711E0CCE5D1E000E006C02197010973
:10030000802FFE010E944C0ACB35D10780E0080700
:10031000A9F70E94D8040C946A0C0C94000090E099
:10032000FC01E059FD4F2491865D9D4FFC018491B5
:10033000882399F090E0880F991FFC01E05FFD4F42
:10034000A591B491FC01EA50FE4F859194918FB72D
:10035000F894EC91E22BEC938FBF08950895AF923F
:10036000BF92CF92DF92EF92FF920F931F93CF93A2
:10037000DF936C017B018B01040F151FEB015E0104
:10038000AE18BF08C017D10759F06991D601ED9199
:10039000FC910190F081E02DC6011995892B79F728
:1003A000C501DF91CF911F910F91FF90EF90DF90EA
:1003B000CF90BF90AF900895FC01538D448D252FB1
:1003C00030E0842F90E0821B930B541710F0CF96EF
:1003D000089501970895FC01918D828D981761F021
:1003E000A28DAE0FBF2FB11D5D968C91928D9F5F38
:1003F0009F73928F90E008958FEF9FEF08952FB72E
:10040000F8948091D2109091D310A091D410B09113
:10041000D5102FBF8093DE109093DF10A093E010D3
:10042000B093E11086ED90E10E94EB0197FF26C0AA
:100430002FB7F8948091D2109091D310A091D4103E
:10044000B091D5102FBF4091DE105091DF10609118
:10045000E0107091E110841B950BA60BB70B409137
:10046000DA105091DB106091DC107091DD10841770
:100470009507A607B707B0F28FEF9FEF0895FC012D
:10048000918D828D981731F0828DE80FF11D858D49
:1004900090E008958FEF9FEF0895FC01918D228DDC
:1004A000892F90E0805C9F4F821B91098F73992761
:1004B000089586ED90E10E944D0221E0892B09F418
:1004C00020E0822F0895FC01A48DA80FB92FB11D43
:1004D000A35ABF4F2C91848D90E001968F7399277A
:1004E000848FA689B7892C93A089B1898C91837058
:1004F00080648C93938D848D981306C00288F38951
:10050000E02D80818F7D80830895EF92FF920F937D
:100510001F93CF93DF93EC0181E0888F9B8D8C8DAF
:1005200098131AC0E889F989808185FF15C09FB7A3
:10053000F894EE89FF896083E889F9898081837066
:10054000806480839FBF81E090E0DF91CF911F9115
:100550000F91FF90EF900895F62E0B8D10E00F5F36
:100560001F4F0F731127E02E8C8D8E110CC00FB60C
:1005700007FCFACFE889F989808185FFF5CFCE01A4
:100580000E946302F1CFEB8DEC0FFD2FF11DE35ABA
:10059000FF4FF0829FB7F8940B8FEA89FB89808127
:1005A0008062CFCFCF93DF93EC01888D8823B9F0A1
:1005B000AA89BB89E889F9898C9185FD03C080816E
:1005C00086FD0DC00FB607FCF7CF8C9185FFF2CFEB
:1005D000808185FFEDCFCE010E946302E9CFDF91DC
:1005E000CF91089580E090E0892B29F00E94590274
:1005F00081110E94000080E090E0892B49F080E0AA
:1006000090E0892B29F00E94000081110E940000D7
:1006100080E090E0892B49F080E090E0892B29F080
:100620000E94000081110E94000080E090E0892B70
:1006300049F080E090E0892B29F00E9400008111B0
:100640000C9400000895282F30E0F901E055FE4F8A
:100650009491F901E059FD4F4491265D3D4FF90118
:100660002491222309F435C0992311F1915092313C
:10067000F8F4E92FF0E08827EF5BFC4F8F4F0C94E4
:100680004C0A7203760353036A036E03580379031B
:100690007F03830389038D03910397039B0358030F
:1006A0009F03A503A903809180008F77809380002A
:1006B000E22FF0E0EE0FFF1FEA50FE4FA591B4913C
:1006C0008FB7F894EC91611148C040954E234C933C
:1006D0008FBF0895809180008F7DE8CF809180004A
:1006E000877FE4CF84B58F7784BDE2CF84B58F7DDB
:1006F000FBCF8091B0008F778093B000D9CF8091ED
:10070000B0008F7DF9CF809190008F77809390001B
:10071000CFCF809190008F7DF9CF80919000877F1F
:10072000F5CF8091A0008F778093A000C1CF8091FA
:10073000A0008F7DF9CF8091A000877FF5CF8091B9
:1007400020018F7780932001B3CF809120018F7D8E
:10075000F9CF80912001877FF5CF4E2BB8CF3FB7DF
:10076000F89480913D1090913E10A0913F10B0916F
:10077000401026B5A89B05C02F3F19F00196A11D7A
:10078000B11D3FBFBA2FA92F982F8827BC01CD01DB
:10079000620F711D811D911D42E0660F771F881F3A
:1007A000991F4A95D1F708958F929F92AF92BF9269
:1007B000CF92DF92EF92FF924B015C010E94AF0358
:1007C0006B017C010E94AF036C197D098E099F09A2
:1007D000683E734081059105A8F321E0821A9108D3
:1007E000A108B10888EEC80E83E0D81EE11CF11CF8
:1007F00081149104A104B10429F7FF90EF90DF90D8
:10080000CF90BF90AF909F908F9008950F931F93BC
:10081000CF93DF93EC0188819981009759F02A8169
:100820003B812617370730F081E0DF91CF911F9190
:100830000F9108958B016F5F7F4F0E94790B009796
:1008400059F0998388831B830A832C813D81232B54
:1008500059F7FC011082E8CF80E0E7CF1F920F929A
:100860000FB60F9211240BB60F922F933F934F9315
:100870005F936F937F938F939F93AF93BF93EF9308
:10088000FF9386ED90E10E946302FF91EF91BF918B
:10089000AF919F918F917F916F915F914F913F9118
:1008A0002F910F900BBE0F900FBE0F901F901895B9
:1008B0001F920F920FB60F9211240BB60F922F9327
:1008C0008F939F93EF93FF93E091E610F091E710E1
:1008D0008081E091EC10F091ED1082FD1DC09081BF
:1008E0008091EF108F5F8F732091F010821741F08D
:1008F000E091EF10F0E0EA52FF4E958F8093EF10F9
:10090000FF91EF919F918F912F910F900BBE0F90C0
:100910000FBE0F901F9018958081F2CF1F920F92FB
:100920000FB60F9211242F933F938F939F93AF9302
:10093000BF938091D2109091D310A091D410B09118
:10094000D51030913C1023E0230F2D3758F5019638
:10095000A11DB11D20933C108093D2109093D31011
:10096000A093D410B093D51080913D1090913E107B
:10097000A0913F10B09140100196A11DB11D809330
:100980003D1090933E10A0933F10B0934010BF9144
:10099000AF919F918F913F912F910F900FBE0F902C
:1009A0001F90189526E8230F0296A11DB11DD2CFE6
:1009B000CF93DF93CDB7DEB72E970FB6F894DEBF97
:1009C0000FBECDBF789484B5826084BD84B581604C
:1009D00084BD85B5826085BD85B5816085BD80910A
:1009E0006E00816080936E00109281008091810082
:1009F000826080938100809181008160809381007A
:100A0000809180008160809380008091B10084603B
:100A10008093B1008091B00081608093B00080919C
:100A20009100826080939100809191008160809319
:100A30009100809190008160809390008091A1004E
:100A400082608093A1008091A10081608093A100C9
:100A50008091A00081608093A0008091210182603C
:100A600080932101809121018160809321018091F7
:100A7000200181608093200180917A0084608093BE
:100A80007A0080917A00826080937A0080917A0067
:100A9000816080937A0080917A00806880937A00E8
:100AA0001092C100E091E610F091E71082E080839F
:100AB000E091E210F091E3101082E091E410F091E7
:100AC000E5108FEC80831092EE10E091EA10F09127
:100AD000EB1086E08083E091E810F091E9108081CE
:100AE00080618083E091E810F091E9108081886056
:100AF0008083E091E810F091E91080818068808324
:100B0000E091E810F091E91080818F7D808386E08C
:100B10000E948F0187E00E948F0188E00E948F0170
:100B200089E00E948F018AE00E948F018BE00E9481
:100B30008F018CE00E948F018DE00E948F0158EEA2
:100B4000252E5DE0352E18861F821A8619861C8692
:100B50001B8670E060E0CE0107960E9406042F819C
:100B60003885811151C02115310519F0C9010E9444
:100B7000F00A18861F821C861B861A86198610E0CA
:100B800000E086ED90E10E944D02181619060CF067
:100B900097C01A8219821C821B821E821D8270E0FD
:100BA00060E0CE0101960E94060429813A818111FC
:100BB00033C02115310519F0C9010E94F00A1A82CB
:100BC00019821E821D821C821B820E94FF0197FDDA
:100BD0002BC08D871E860D811E810F5F1F4FB801B0
:100BE000CE0101960E940604882379F329813A8177
:100BF0008D819E81BE01635F7F4F820F931F0E9494
:100C0000630C1E830D83E1CF1C861B866AE370E1B3
:100C1000C9010E94630CB3CF1E821D826AE370E19A
:100C2000C9010E94630CD1CF8F8198850097B9F1DB
:100C300069817A816115710581F149855A852D8116
:100C40003E814217530748F10E94630C8D819E81BB
:100C50009C878B871E821D8289819A81009711F063
:100C60000E94F00A4FE050E068E270E186ED90E10A
:100C70000E94AF014B855C856F81788586ED90E1A0
:100C80000E94AF0142E050E068E370E186ED90E140
:100C90000E94AF0101E010E074CF0E94F00A898148
:100CA0009A8198878F838B819C819A8789878D8190
:100CB0009E819C878B871A8219821C821B82CACFD5
:100CC0000130110509F0B2C3F12CE12C98E7492E4F
:100CD0009EE0592E28E0622E2FE0722E38E9A32ED6
:100CE0003FE0B32E48E2842E40E1942E8B859C8514
:100CF0009C0121503109E216F30608F097C3E8166B
:100D0000F90628F4EF81F885309709F02CC010928D
:100D10004110E1E4F0E1E081E154EA3108F041C042
:100D20000E2E000CFF0B8827E756F94F8F4F0C94BF
:100D30004C0AB60643075F077B079707B307D1073F
:100D4000EF070C0829084608630880089D08BA08C0
:100D5000D708F40811092E094B0968098509A20969
:100D6000BF09DC09F909EE0DFF1DD5CF28E93FE0E9
:100D700042E450E190E080E0FA01E80FF91FD90168
:100D8000A80FB91F6D917C917183608302968031A9
:100D9000910591F7205F3F4F405F5F4F82169306AA
:100DA00049F702EC10E188E0C82ED12CF8018081CF
:100DB000918161E0019709F060E08DE00E942303DA
:100DC000F8018281938161E0019709F060E08CE095
:100DD0000E942303F8018481958161E0019709F065
:100DE00060E08BE00E942303F8018681978161E037
:100DF000019709F060E08AE00E942303F8018085F2
:100E0000918561E0019709F060E089E00E94230389
:100E1000F8018285938561E0019709F060E088E040
:100E20000E942303F8018485958561E0019709F00C
:100E300060E087E00E942303F8018685978561E0E2
:100E4000019709F060E086E00E94230364EF71E0FF
:100E500080E090E00E94D403C114D10431F460ED2D
:100E600077E080E090E00E94D403F1E0CF1AD1084F
:100E7000005111098FEFC816D80609F097CF9FEFE0
:100E8000E91AF90A33CF28E03FE042E450E190E06C
:100E900080E0FA01E80FF91FD901A80FB91F6D9181
:100EA0007C917183608302968031910591F7205F78
:100EB0003F4F405F5F4FA216B30649F772CF28E756
:100EC0003EE042E450E190E080E0FA01E80FF91FD3
:100ED000D901A80FB91F6D917C917183608302962F
:100EE0008031910591F7205F3F4F405F5F4F621661
:100EF000730649F756CF28EE3DE042E450E190E01A
:100F000080E0FA01E80FF91FD901A80FB91F6D9110
:100F10007C917183608302968031910591F7205F07
:100F20003F4F405F5F4F4216530649F73ACF28E5DF
:100F30003DE042E450E190E080E0FA01E80FF91F63
:100F4000D901A80FB91F6D917C91718360830296BE
:100F50008031910591F7205F3F4F405F5F4F221630
:100F6000330649F71ECF28EC3CE042E450E190E024
:100F700080E0FA01E80FF91FD901A80FB91F6D91A0
:100F80007C917183608302968031910591F7205F97
:100F90003F4F405F5F4F88E59DE08217930739F729
:100FA00000CF28E33CE042E450E190E080E0FA0129
:100FB000E80FF91FD901A80FB91F6D917C917183BA
:100FC000608302968031910591F7205F3F4F405F2B
:100FD0005F4FE8ECFCE0E217F30739F7E2CE28EACE
:100FE0003BE042E450E190E080E0FA01E80FF91FB5
:100FF000D901A80FB91F6D917C917183608302960E
:101000008031910591F7205F3F4F405F5F4FFCE0DB
:1010100028333F0741F7C5CE28E13BE042E450E1E9
:1010200090E080E0FA01E80FF91FD901A80FB91F7D
:101030006D917C917183608302968031910591F767
:10104000205F3F4F405F5F4F8BE0283A380741F702
:10105000A8CE28E83AE042E450E190E080E0FA01CE
:10106000E80FF91FD901A80FB91F6D917C91718309
:10107000608302968031910591F7205F3F4F405F7A
:101080005F4F9BE02831390741F78BCE28EF39E0DD
:1010900042E450E190E080E0FA01E80FF91FD90145
:1010A000A80FB91F6D917C91718360830296803186
:1010B000910591F7205F3F4F405F5F4FEAE028388E
:1010C0003E0741F76ECE28E639E042E450E190E079
:1010D00080E0FA01E80FF91FD901A80FB91F6D913F
:1010E0007C917183608302968031910591F7205F36
:1010F0003F4F405F5F4FF9E0283F3F0741F751CE38
:1011000028ED38E042E450E190E080E0FA01E80F99
:10111000F91FD901A80FB91F6D917C91718360836C
:1011200002968031910591F7205F3F4F405F5F4FFE
:1011300089E02836380741F734CE28E438E042E425
:1011400050E190E080E0FA01E80FF91FD901A80F03
:10115000B91F6D917C9171836083029680319105F6
:1011600091F7205F3F4F405F5F4F98E0283D390780
:1011700041F717CE28EB37E042E450E190E080E001
:10118000FA01E80FF91FD901A80FB91F6D917C91E1
:101190007183608302968031910591F7205F3F4F04
:1011A000405F5F4FE8E028343E0741F7FACD28E280
:1011B00037E042E450E190E080E0FA01E80FF91FE7
:1011C000D901A80FB91F6D917C917183608302963C
:1011D0008031910591F7205F3F4F405F5F4FF7E00F
:1011E000283B3F0741F7DDCD28E936E042E450E1F6
:1011F00090E080E0FA01E80FF91FD901A80FB91FAC
:101200006D917C917183608302968031910591F795
:10121000205F3F4F405F5F4F87E02832380741F73C
:10122000C0CD28E036E042E450E190E080E0FA01F1
:10123000E80FF91FD901A80FB91F6D917C91718337
:10124000608302968031910591F7205F3F4F405FA8
:101250005F4F96E02839390741F7A3CD28E735E0FD
:1012600042E450E190E080E0FA01E80FF91FD90173
:10127000A80FB91F6D917C917183608302968031B4
:10128000910591F7205F3F4F405F5F4FE6E02830C8
:101290003E0741F786CD28EE34E042E450E190E08D
:1012A00080E0FA01E80FF91FD901A80FB91F6D916D
:1012B0007C917183608302968031910591F7205F64
:1012C0003F4F405F5F4FF5E028373F0741F769CD5B
:1012D00028E534E042E450E190E080E0FA01E80FD4
:1012E000F91FD901A80FB91F6D917C91718360839B
:1012F00002968031910591F7205F3F4F405F5F4F2D
:1013000084E0283E380741F74CCD28EC33E042E436
:1013100050E190E080E0FA01E80FF91FD901A80F31
:10132000B91F6D917C917183608302968031910524
:1013300091F7205F3F4F405F5F4F94E028353907BA
:1013400041F72FCD28E93FE042E450E190E080E012
:10135000FA01E80FF91FD901A80FB91F6D917C910F
:101360007183608302968031910591F7205F3F4F32
:10137000405F5F4FE0E128323E0741F712CD28E39E
:1013800033E042E450E190E080E0FA01E80FF91F19
:10139000D901A80FB91F6D917C917183608302966A
:1013A0008031910591F7205F3F4F405F5F4FF3E041
:1013B000283C3F0741F7F5CC28EA32E042E450E10F
:1013C00090E080E0FA01E80FF91FD901A80FB91FDA
:1013D0006D917C917183608302968031910591F7C4
:1013E000205F3F4F405F5F4F83E02833380741F76E
:1013F000D8CC28E132E042E450E190E080E0FA010C
:10140000E80FF91FD901A80FB91F6D917C91718365
:10141000608302968031910591F7205F3F4F405FD6
:101420005F4F92E0283A390741F7BBCC8F8198850E
:10143000009711F00E94F00A0E94F20284CBE6EDC0
:10144000F0E11382128288EE93E0A0E0B0E08483A2
:101450009583A683B7838AE092E09183808385ECAD
:1014600090E09587848784EC90E09787868780EC6E
:1014700090E0918B808B81EC90E0938B828B82EC5F
:1014800090E0958B848B86EC90E0978B868B118E09
:10149000128E138E148E0895EE0FFF1F881F8BBFC0
:1014A0000790F691E02D19940F931F93CF93DF933C
:1014B0008230910510F482E090E0E0917511F09196
:1014C000761130E020E0B0E0A0E0309799F42115EB
:1014D000310509F44AC0281B390B24303105D8F5F1
:1014E0008A819B816115710589F1FB019383828358
:1014F000FE0111C0408151810281138148175907B3
:10150000E0F04817590799F4109761F012960C9380
:10151000129713961C933296CF01DF91CF911F91B2
:101520000F9108950093751110937611F4CF211542
:10153000310551F04217530738F0A901DB019A0138
:10154000BD01DF01F801C1CFEF01F9CF9093761112
:1015500080937511CDCFFE01E20FF31F819391931C
:101560002250310939832883D7CF209173113091CC
:101570007411232B41F42091020230910302309325
:1015800074112093731120910002309101022115F2
:10159000310541F42DB73EB7409104025091050248
:1015A000241B350BE0917311F0917411E217F307CE
:1015B000A0F42E1B3F0B2817390778F0AC014E5FC3
:1015C0005F4F2417350748F04E0F5F1F509374117B
:1015D00040937311819391939FCFF0E0E0E09CCF13
:1015E000CF93DF930097E9F0FC01329713821282C8
:1015F000A0917511B0917611ED0130E020E01097C7
:10160000A1F420813181820F931F209173113091B9
:1016100074112817390709F061C0F0937411E09331
:101620007311DF91CF910895EA01CE17DF07E8F536
:101630004A815B819E0141155105B1F7E901FB83A8
:10164000EA8349915991C40FD51FEC17FD0761F446
:10165000808191810296840F951FE9019983888387
:10166000828193819B838A83F0E0E0E012968D91E2
:101670009C9113970097B9F52D913C911197CD014D
:101680000296820F931F20917311309174112817C5
:10169000390739F6309751F510927611109275117D
:1016A000B0937411A0937311BCCFD383C2834081D4
:1016B0005181840F951FC817D90761F44E5F5F4FA2
:1016C00088819981480F591F518340838A819B816A
:1016D000938382832115310509F0B0CFF093761101
:1016E000E09375119ECFFD01DC01C0CF1382128201
:1016F000D7CF4F925F926F927F928F929F92AF92CD
:10170000BF92CF92DF92EF92FF920F931F93CF93EE
:10171000DF938C01009799F4CB01DF91CF911F915A
:101720000F91FF90EF90DF90CF90BF90AF909F9080
:101730008F907F906F905F904F900C94540AFC01B3
:10174000E60FF71F9C0122503109E217F30708F456
:10175000AEC0D901CD91DC911197C617D70720F102
:10176000C530D10578F0CE0104978617970750F061
:10177000C61BD70B2297C193D1936D937C93CF0156
:101780000E94F00AC801DF91CF911F910F91FF9045
:10179000EF90DF90CF90BF90AF909F908F907F9011
:1017A0006F905F904F9008955B01AC1ABD0A4C0199
:1017B0008C0E9D1EA0917511B0917611512C412C6B
:1017C000F12CE12C109731F58091731190917411E7
:1017D0008815990509F05CC04616570608F058C0F0
:1017E0008091000290910102009741F48DB79EB75D
:1017F0004091040250910502841B950BE817F907EC
:1018000008F055C0F0937411E0937311F9017183DE
:101810006083B8CF8D919C91119712966C9012971E
:1018200013967C901397A815B90559F56C0142E001
:10183000C40ED11CCA14DB0420F1AC014A195B09A7
:10184000DA011296159780F0628273825183408389
:10185000D9016D937C93E114F10471F0D7011396D3
:10186000FC93EE9312978ECF22968C0F9D1FF90159
:1018700091838083F301EFCFF0937611E09375119C
:1018800081CF4816590608F42C017D01D3019ACF67
:10189000CB010E94540A7C01009749F0AE01B801C7
:1018A0000E945A0CC8010E94F00A87016BCF10E019
:1018B00000E068CFFB01DC0102C001900D924150B5
:1018C0005040D8F70895FB01DC0101900D920020F3
:0818D000E1F70895F894FFCF41
:1018D800000077118000000000008502AF01DC01E4
:1018E800D2024D02EB013F020000000000000000A0
:1018F80000000000000000000100010001000100DC
:1019080001000100010000000000000000000000CC
:1019180000000100000000000000000000000000BE
:1019280001000000000000000000000000000100AD
:10193800000000000000000000000000010000009E
:10194800000000000000000000000100010001008C
:10195800010001000100010000000000000000007B
:10196800000000000000000000000000000000006F
:10197800000000000000000000000000000000005F
:10198800000000000000000001000100000000004D
:10199800000000000100010000000100010000003B
:1019A800000001000100000000000000010001002B
:1019B800010001000000000000000000000001001C
:1019C800010000000000000000000000000001000D
:1019D80001000000000000000000000000000100FD
:1019E80001000000000000000000000000000100ED
:1019F80001000000000000000000000000000000DE
:101A080000000000000000000000000000000000CE
:101A180000000000000000000000010000000000BD
:101A280000000000010000000000000001000000AC
:101A3800000001000000000000000000000001009C
:101A4800010000000000000000000000000001008C
:101A5800010000000000000000000000010000007C
:101A6800000001000000000000000100000000006C
:101A7800000000000100000001000000000000005C
:101A8800000000000000010000000000000000004D
:101A9800000000000000000000000000000000003E
:101AA800000000000000000001000100000000002C
:101AB800000000000100010000000100010000001A
:101AC800000001000100000000000100010000000A
:101AD80000000100010000000000000001000100FA
:101AE80001000100000000000000000001000100EA
:101AF80001000100000000000000000000000100DB
:101B080001000000000000000000000000000100CB
:101B180001000000000000000000000000000000BC
:101B280000000000000000000000000000000000AD
:101B3800000000000000000000000100010000009B
:101B48000000010001000000000001000100000089
:101B58000000010001000000000001000100000079
:101B68000000010001000000000001000100000069
:101B78000000010001000000000001000100000059
:101B88000000010001000000000001000100010048
:101B98000100010001000000000000000100010038
:101BA800010001000000000000000000000000002B
:101BB800000000000000000000000000000000001D
:101BC800000000000000000000000100010001000A
:101BD80001000100010000000000010000000100F8
:101BE80001000000010000000000000000000100EA
:101BF80001000000000000000000000000000100DB
:101C080001000000000000000000000000000100CA
:101C180001000000000000000000000000000100BA
:101C280001000000000000000000000001000100A9
:101C3800010001000000000000000000000000009A
:101C4800000000000000000000000000000000008C
:101C58000000000000000000000001000100010079
:101C68000100010001000000000001000100000067
:101C78000000000000000000000001000100010059
:101C88000100010001000000000000000000000049
:101C98000000010001000000000001000100010037
:101CA8000100010001000000000000000100010027
:101CB800010001000000000000000000000000001A
:101CC800000000000000000000000000000000000C
:101CD80000000000000000000000000000000000FC
:101CE80000000000000000000000010001000100E9
:101CF80001000100010000000000010001000000D7
:101D080000000100010000000000010001000000C7
:101D180000000100010000000000010001000100B6
:101D280001000100000000000000010001000100A6
:101D38000100010001000000000001000100000096
:101D48000000000001000100000001000100000087
:101D5800000000000000010000000000000000007A
:101D6800000000000000000000000000000000006B
:101D78000000000000000000000001000100010058
:101D88000100010001000000010001000000000046
:101D98000000000001000100010001000000000037
:101DA8000000000001000100010001000000000027
:101DB8000100000001000100010001000000000016
:101DC8000000010001000100000001000100010005
:101DD80001000100010000000000000001000100F6
:101DE80001000100000001000000000000000000E8
:101DF80000000000000000000000000000000000DB
:101E080000000000000000000000010001000100C7
:101E180001000100010000000000010001000000B5
:101E280000000100010000000000010001000000A6
:101E38000000010001000000000001000100010095
:101E48000100010000000000000001000100000086
:101E58000000000000000000000001000100000078
:101E68000000000000000000000001000100000068
:101E7800000000000000000000000000000000005A
:101E8800000000000000000000000000000000004A
:101E98000000000000000000000001000100010037
:101EA8000100010001000000010001000100000024
:101EB8000000000001000100010001000000000016
:101EC8000000000001000100010001000000000006
:101ED80000000000010001000100010000000000F6
:101EE80000000000010001000000010001000100E5
:101EF80001000100010000000000000001000100D5
:101F080001000100000000000000000000000000C7
:101F180000000000000000000000000000000000B9
:101F280000000000000000000000010001000100A6
:101F38000000000001000100000001000100010094
:101F48000000000001000100000001000100010084
:101F58000100000001000100000001000100010073
:101F68000100000001000100000001000100000064
:101F78000100010001000100000001000100000053
:101F88000100010001000100000001000100000043
:101F98000000000001000100000000000000000037
:101FA8000000000000000000000000000000000029
:101FB8000000000000000000000001000100000017
:101FC8000000000001000100000001000100010004
:101FD80001000100010001000000010001000000F3
:101FE80001000000010001000000010001000000E4
:101FF80001000000010001000000010001000000D4
:1020080001000000010001000000010001000000C3
:1020180000000000010001000000010001000000B4
:1020280000000000010001000000000000000000A6
:102038000000000000000000000000000000000098
:102048000000000000000000000001000100000086
:102058000000000000000000000001000100000076
:102068000000000000000000000001000100000066
:102078000000000000000000000001000100000056
:102088000000000000000000000001000100000046
:102098000000000000000000000001000100010035
:1020A8000100010001000100000001000100010021
:1020B8000100010001000100000000000000000014
:1020C8000000000000000000000000000000000008
:1020D80000000000000000000000010001000000F6
:1020E80000000000010001000000010001000000E4
:1020F80000000100010000000000010001000100D3
:1021080001000100000000000000010001000100C2
:1021180001000100000000000000010001000000B3
:1021280001000100000000000000010001000000A3
:102138000000010001000000000001000100000093
:102148000000000001000100000000000000000085
:102158000000000000000000000000000000000077
:102168000000000000000000000000000000010066
:102178000100000000000000000000000000010055
:102188000100000000000000000000000000010045
:102198000100000000000000000001000000010034
:1021A8000100000000000000010001000000010023
:1021B8000100000000000000010001000100010012
:1021C8000100000000000000000001000100010003
:1021D80000000000000000000000000000000000F7
:1021E80000000000000000000000000000000000E7
:1021F80000000000000000000000000001000100D5
:1022080001000100000000000000000000000100C3
:1022180001000000000000000000000000000100B4
:1022280001000000000000000000000000000100A4
:102238000100000000000000000000000000010094
:102248000100000000000000000000000000010084
:102258000100000000000000000000000100010073
:102268000100010000000000000000000000000064
:102278000000000000000000000000000000000056
:102288000000000000000000000001000100000044
:102298000000010001000000000001000100000032
:1022A8000000010001000000000001000100010021
:1022B8000100010001000000000001000100010010
:1022C8000100010001000000000001000100000001
:1022D80000000100010000000000010001000000F2
:1022E80000000100010000000000010001000000E2
:1022F80000000100010000000000000000000000D4
:1023080000000000000000000000000000000000C5
:1023180000000000000000000000010001000100B2
:10232800010001000100000001000100010000009F
:102338000000000001000000010001000000000092
:102348000000000000000000010001000000000083
:102358000100010001000000010001000000000070
:102368000000000001000000000001000100010061
:102378000100010001000000000000000100010050
:102388000100000000000000000000000000000044
:102398000000000000000000000000000000000035
:1023A8000000000000000000000001000100010022
:1023B8000100010001000000000001000100000010
:1023C8000000000000000000000001000100000003
:1023D80000000000000000000000010001000100F2
:1023E80001000100000000000000010001000100E0
:1023F80001000100000000000000010001000000D1
:1024080000000000000000000000010001000000C2
:1024180000000000000000000000000000000000B4
:1024280000000000000000000000000000000000A4
:102438000000000000000000000001000100010091
:10244800010001000100000000000100010000007F
:102458000000000000000000000001000100010071
:10246800010001000100000000000100010001005E
:10247800010001000100000000000100010000004F
:102488000000000000000000000001000100000042
:102498000000000000000000000001000100010031
:1024A8000100010001000000000000000000000021
:1024B8000000000000000000000000000000000014
:1024C8000000000000000000000001000100010001
:1024D80001000100000000000000010001000000F0
:1024E80000000000010000000000010001000000E1
:1024F80000000000010000000000010001000000D1
:1025080000000000010000000000010001000000C0
:1025180000000000010000000000010001000000B0
:10252800000000000100000000000100010001009F
:102538000100010000000000000000000000000091
:102548000000000000000000000000000000000083
:102558000000000000000000000001000100010070
:10256800010001000100000001000100010000005D
:10257800000001000100000001000100000000004F
:102588000000000000000000010001000000000041
:102598000000000000000000010001000000000031
:1025A800000000000100000000000100010001001F
:1025B800010001000100000000000000010001000E
:1025C8000100000000000000000000000000000002
:1025D80000000000000000000000000000000000F3
:1025E80000000000000000000000010001000100E0
:1025F80001000100000000000000010001000000CF
:1026080000000100000000000000010001000000BF
:1026180000000100010000000000010001000100AD
:10262800010001000100000000000100010000009D
:10263800000000000100000000000100010000008F
:10264800000000000100000000000100010001007E
:10265800010001000100000000000000000000006F
:102668000000000000000000000000000000000062
:102678000000000000000000000000000000010051
:102688000100000000000000000000000000010040
:102698000100000000000000000000000100000030
:1026A800000001000000000000000000010001001F
:1026B800010001000000000000000100010000000E
:1026C80000000100010000000100010000000000FE
:1026D80000000000010001000100000000000000EF
:1026E80000000000000001000000000000000000E1
:1026F8000000000000000000656E746572656420CB
:0C270800776F7264203A20000D0A000078
:00000001FF
