:100000000C94E3000C9414010C9414010C9414014E
:100010000C9414010C9414010C9414010C9414010C
:100020000C9414010C9414010C9414010C941401FC
:100030000C9414010C9414010C9414010C941401EC
:100040000C9414010C9414010C9414010C941401DC
:100050000C9414010C9414010C9414010C94570288
:100060000C9401030C9414010C9414010C941401CD
:100070000C9414010C9414010C9414010C941401AC
:100080000C9414010C9414010C9414010C9414019C
:100090000C9414010C9414010C9414010C9414018C
:1000A0000C9414010C9414010C9414010C9414017C
:1000B0000C9414010C9414010C9414010C9414016C
:1000C0000C9414010C9414010C9414010C9414015C
:1000D0000C9414010C9414010C94CB020C94A10206
:1000E0000C9414010C9414040C9416010C946601E5
:1000F0000C9443010C94AC010C9452010C947401C7
:100100000C94F90100002200250028002B002E008D
:100110003100340002010000050108010B0100005C
:100120002100240027002A002D00300033000101A7
:100130000000040107010A01050505050705080877
:100140000808020202020A0A080804040404010161
:100150000101010101010303030303030303040776
:1001600007070C0C0C0C0C0C0C0C0202020206060D
:100170000606060606060B0B0B0B0B0B0B0B010200
:1001800010202008081020401020408002010201A9
:100190000804020101020408102040808040201061
:1001A00008040201800402018040201008040201BA
:1001B0000804020101020408102040800102040822
:1001C00010204080140411241FBECFEFD1E2DEBF07
:1001D000CDBF00E00CBF12E0A0E0B2E0E6E9F8E03D
:1001E00000E00BBF02C007900D92A631B107D9F70E
:1001F00022E0A6E1B2E001C01D92AA3CB207E1F7FD
:1002000010E0C3EED0E000E006C021970109802F86
:10021000FE010E944104C23ED10780E00807A9F711
:100220000E9427030C9449040C940000AF92BF92E3
:10023000CF92DF92EF92FF920F931F93CF93DF93B2
:100240006C017B018B01040F151FEB015E01AE18E1
:10025000BF08C017D10759F06991D601ED91FC9103
:100260000190F081E02DC6011995892B79F7C50120
:10027000DF91CF911F910F91FF90EF90DF90CF9082
:10028000BF90AF900895FC01538D448D252F30E031
:10029000842F90E0821B930B541710F0CF96089593
:1002A00001970895FC01918D828D981761F0A28DC0
:1002B000AE0FBF2FB11D5D968C91928D9F5F9F7386
:1002C000928F90E008958FEF9FEF0895FC01918D3C
:1002D000828D981731F0828DE80FF11D858D90E0A9
:1002E00008958FEF9FEF0895FC01918D228D892F46
:1002F00090E0805C9F4F821B91098F73992708952E
:100300008DE292E00E94740121E0892B09F420E043
:10031000822F0895FC01A48DA80FB92FB11DA35AF7
:10032000BF4F2C91848D90E001968F739927848F15
:10033000A689B7892C93A089B1898C918370806438
:100340008C93938D848D981306C00288F389E02DD9
:1003500080818F7D80830895EF92FF920F931F938A
:10036000CF93DF93EC0181E0888F9B8D8C8D981368
:100370001AC0E889F989808185FF15C09FB7F89474
:10038000EE89FF896083E889F989808183708064C0
:1003900080839FBF81E090E0DF91CF911F910F910B
:1003A000FF90EF900895F62E0B8D10E00F5F1F4F1A
:1003B0000F731127E02E8C8D8E110CC00FB607FC29
:1003C000FACFE889F989808185FFF5CFCE010E94B7
:1003D0008A01F1CFEB8DEC0FFD2FF11DE35AFF4F9A
:1003E000F0829FB7F8940B8FEA89FB898081806245
:1003F000CFCFCF93DF93EC01888D8823B9F0AA8902
:10040000BB89E889F9898C9185FD03C0808186FDCF
:100410000DC00FB607FCF7CF8C9185FFF2CF80811E
:1004200085FFEDCFCE010E948A01E9CFDF91CF9108
:10043000089580E090E0892B49F080E090E0892BDE
:1004400029F00E94000081110E94000080E090E0ED
:10045000892B49F080E090E0892B29F00E94000070
:1004600081110E94000080E090E0892B49F080E03B
:1004700090E0892B29F00E94000081110E94000069
:1004800080E090E0892B29F00E94800181110C947A
:1004900000000895FC0101900020E9F73197AF01B9
:1004A000481B590BBC018DE292E00C9416011F927F
:1004B0000F920FB60F9211242F933F938F939F9318
:1004C000AF93BF938091290290912A02A0912B02B1
:1004D000B0912C023091280223E0230F2D3758F5DC
:1004E0000196A11DB11D20932802809329029093AB
:1004F0002A02A0932B02B0932C02809124029091A7
:100500002502A0912602B09127020196A11DB11DDE
:100510008093240290932502A0932602B093270291
:10052000BF91AF919F918F913F912F910F900FBEEF
:100530000F901F90189526E8230F0296A11DB11D5C
:10054000D2CF1F920F920FB60F9211240BB60F92BB
:100550002F933F934F935F936F937F938F939F93CB
:10056000AF93BF93EF93FF938DE292E00E948A01D5
:10057000FF91EF91BF91AF919F918F917F916F917B
:100580005F914F913F912F910F900BBE0F900FBE37
:100590000F901F9018951F920F920FB60F92112473
:1005A0000BB60F922F938F939F93EF93FF93E0914E
:1005B0003D02F0913E028081E0914302F0914402BD
:1005C00082FD1DC09081809146028F5F8F732091C4
:1005D0004702821741F0E0914602F0E0E35DFD4FF3
:1005E000958F80934602FF91EF919F918F912F916C
:1005F0000F900BBE0F900FBE0F901F90189580812B
:10060000F2CF1F920F920FB60F9211240BB60F92DA
:100610008F939F93EF93FF939EB580911602E82FDF
:10062000F0E0E95EFD4F90838F5F80931602853086
:1006300019F481E080932302FF91EF919F918F91B4
:100640000F900BBE0F900FBE0F901F9018957894CF
:1006500084B5826084BD84B5816084BD85B58260C7
:1006600085BD85B5816085BD80916E008160809378
:100670006E001092810080918100826080938100E1
:1006800080918100816080938100809180008160F1
:10069000809380008091B10084608093B10080914C
:1006A000B00081608093B00080919100826080935F
:1006B00091008091910081608093910080919000E1
:1006C0008160809390008091A10082608093A1005E
:1006D0008091A10081608093A1008091A000816041
:1006E0008093A000809121018260809321018091FC
:1006F000210181608093210180912001816080939C
:10070000200180917A00846080937A0080917A0041
:10071000826080937A0080917A00816080937A0071
:1007200080917A00806880937A001092C100E091F5
:100730003D02F0913E0282E08083E0913902F09127
:100740003A021082E0913B02F0913C028FEC8083F0
:1007500010924502E0914102F091420286E08083CE
:10076000E0913F02F0914002808180618083E091BE
:100770003F02F0914002808188608083E0913F02D7
:10078000F0914002808180688083E0913F02F09187
:10079000400280818F7D8083E1EBF1E02491EBE6E4
:1007A000F1E084918823C1F090E0880F991FFC014B
:1007B000E25EFE4FC591D491FC01EC5FFE4FA59126
:1007C000B4919FB7F8943881822F809583238883D2
:1007D000EC91E22BEC939FBF8CB580648CBD8CB503
:1007E00080688CBD8CB580688CBD03E212E080917E
:1007F00023028823B1F010922302C7E1D2E069916D
:100800008DE292E00E94AC010C171D07C1F784E154
:1008100092E00E944A0282E192E00E944A02109213
:1008200016020E941902E3CFEDE2F2E01382128277
:1008300088EE93E0A0E0B0E084839583A683B7833D
:1008400084E092E09183808385E391E095878487BB
:1008500084E391E09787868780E391E0918B808B9A
:1008600081E391E0938B828B82E391E0958B848B83
:1008700086E391E0978B868B118E128E138E148EE9
:100880000895EE0FFF1F881F8BBF0790F691E02D94
:060890001994F894FFCF5B
:1008960000000000AC0116014301F9017401520188
:0608A60066010D0A0000CE
:00000001FF
