:100000000C942B010C945C010C945C010C945C012D
:100010000C945C010C945C010C945C010C945C01EC
:100020000C945C010C945C010C945C010C945C01DC
:100030000C945C010C945C010C945C010C945C01CC
:100040000C945C010C94CF050C945C010C945C0145
:100050000C945C010C945C010C945C010C94FB040A
:100060000C945C010C94C5040C949B040C945C01EE
:100070000C945C010C945C010C945C010C945C018C
:100080000C94A1050C945C010C945C010C945C0133
:100090000C945C010C945C010C945C010C945C016C
:1000A0000C945C010C945C010C9473050C945C0141
:1000B0000C945C010C945C010C945C010C9445055F
:1000C0000C945C010C945C010C945C010C945C013C
:1000D0000C945C010C945C010C945C010C945C012C
:1000E0000C945C010C945B030C9417030C943A037E
:1000F0000C943D030C94EF010C9447030C945103B2
:100100000C944C090C94B3010C9436030C946D03BD
:100110000C942E030C9469030C9443030C94E0019B
:100120000C9496020C9463030C945F030C943203BA
:100130000C94FD050C9455030C9449020C944D034A
:100140000C9403020C941C030C94110200000A0B83
:1001500002090C0D0E080703040100000000000056
:10016000000000000000000000000000000000008F
:10017000000000000000000012111000000000004C
:10018000000000000000000000000000000000006F
:10019000000000002200250028002B002E00310066
:1001A000340002010000050108010B0100002100DC
:1001B000240027002A002D00300033000101000038
:1001C000040107010A0105050505070508080808D7
:1001D000020202020A0A08080404040401010101DF
:1001E00001010101030303030303030304070707DA
:1001F0000C0C0C0C0C0C0C0C02020202060606067F
:10020000060606060B0B0B0B0B0B0B0B010210204B
:10021000200808102040102040800201020108043C
:1002200002010102040810204080804020100804D0
:100230000201800402018040201008040201080429
:10024000020101020408102040800102040810206D
:100250004080FD054C0911241FBECFEFD1E2DEBF67
:10026000CDBF00E00CBF12E0A0E0B2E0E8E6FCE1A8
:1002700000E00BBF02C007900D92A434B107D9F77C
:1002800023E0A4E4B2E001C01D92AF38B207E1F769
:1002900011E0CAE2D1E000E006C021970109802FF9
:1002A000FE010E94040CC932D10780E00807A9F7BB
:1002B0000E948B060C94220E0C94000090E0FC012E
:1002C000E45FFD4F24918A539E4FFC018491882363
:1002D00099F090E0880F991FFC01E455FE4FA5911D
:1002E000B491FC01EE56FE4F859194918FB7F8942E
:1002F000EC91E22BEC938FBF0895E0918803E033FB
:1003000088F54091890328E830E0241B310947FD36
:100310003395220F331F220F331F8217930784F068
:1003200040918A0328E532E0241B310947FD3395CB
:10033000220F331F220F331F821793070CF49C01E7
:1003400022503109220F331F4FB7F8948E2F90E0BF
:10035000FC01EE0FFF1FE80FF91FEF50FD4F328336
:1003600021834FBF0895AF92BF92CF92DF92EF9259
:10037000FF920F931F93CF93DF936C017B018B014F
:10038000040F151FEB015E01AE18BF08C017D1079F
:1003900059F06991D601ED91FC910190F081E02D29
:1003A000C6011995892B79F7C501DF91CF911F916E
:1003B0000F91FF90EF90DF90CF90BF90AF90089596
:1003C000FC01538D448D252F30E0842F90E0821B5B
:1003D000930B541710F0CF96089501970895FC01E0
:1003E000918D828D981761F0A28DAE0FBF2FB11D38
:1003F0005D968C91928D9F5F9F73928F90E0089590
:100400008FEF9FEF0895FC01918D828D981731F049
:10041000828DE80FF11D858D90E008958FEF9FEF9D
:100420000895FC01918D228D892F90E0805C9F4F73
:10043000821B91098F739927089584E592E00E94A9
:10044000110221E0892B09F420E0822F0895FC019C
:10045000A48DA80FB92FB11DA35ABF4F2C91848D25
:1004600090E001968F739927848FA689B7892C9382
:10047000A089B1898C91837080648C93938D848DD5
:10048000981306C00288F389E02D80818F7D8083D8
:100490000895EF92FF920F931F93CF93DF93EC0198
:1004A00081E0888F9B8D8C8D98131AC0E889F9891B
:1004B000808185FF15C09FB7F894EE89FF8960831E
:1004C000E889F98980818370806480839FBF81E09F
:1004D00090E0DF91CF911F910F91FF90EF900895E1
:1004E000F62E0B8D10E00F5F1F4F0F731127E02EBC
:1004F0008C8D8E110CC00FB607FCFACFE889F989F4
:10050000808185FFF5CFCE010E942702F1CFEB8DD0
:10051000EC0FFD2FF11DE35AFF4FF0829FB7F894C7
:100520000B8FEA89FB8980818062CFCFCF93DF93E5
:10053000EC01888D8823B9F0AA89BB89E889F989FB
:100540008C9185FD03C0808186FD0DC00FB607FC30
:10055000F7CF8C9185FFF2CF808185FFEDCFCE0163
:100560000E942702E9CFDF91CF91089580E090E0CB
:10057000892B29F00E941D0281110E94000080E059
:1005800090E0892B49F080E090E0892B29F00E94CF
:10059000000081110E94000080E090E0892B49F06A
:1005A00080E090E0892B29F00E94000081110E94D8
:1005B000000080E090E0892B49F080E090E0892BFA
:1005C00029F00E94000081110C9400000895282F4A
:1005D00030E0F901E45BFE4F9491F901E45FFD4FD7
:1005E00044912A533E4FF9012491222309F435C046
:1005F000992311F191509231F8F4E92FF0E0882716
:10060000EB5FFC4F8F4F0C94040C36033A03170337
:100610002E0332031C033D03430347034D035103E1
:1006200055035B035F031C03630369036D03809140
:1006300080008F7780938000E22FF0E0EE0FFF1FA5
:10064000EE56FE4FA591B4918FB7F894EC916111DD
:1006500048C040954E234C938FBF089580918000F1
:100660008F7DE8CF80918000877FE4CF84B58F773E
:1006700084BDE2CF84B58F7DFBCF8091B0008F77B2
:100680008093B000D9CF8091B0008F7DF9CF809159
:1006900090008F7780939000CFCF809190008F7DD6
:1006A000F9CF80919000877FF5CF8091A0008F7760
:1006B0008093A000C1CF8091A0008F7DF9CF809161
:1006C000A000877FF5CF809120018F778093200154
:1006D000B3CF809120018F7DF9CF80912001877F5A
:1006E000F5CF4E2BB8CF3FB7F89480914D02909143
:1006F0004E02A0914F02B091500226B5A89B05C0B2
:100700002F3F19F00196A11DB11D3FBFBA2FA92F90
:10071000982F8827BC01CD01620F711D811D911D8D
:1007200042E0660F771F881F991F4A95D1F70895F9
:10073000AF92BF92CF92DF92EF92FF920F931F93EF
:10074000CF93DF936B017A01EC01CC5BDD4F288105
:100750003CE0389F8001399F100D1124A090810347
:10076000B12C27FF1FC0FB011182108288818F5F8F
:10077000888388819801280F311D87FD3A95F601FD
:100780002A153B051CF488818C30C4F1808191814D
:10079000049680349C4908F473C0F60180819181ED
:1007A000049670C088819801280F311D87FD3A9505
:1007B0002A153B05DCF68881A801480F511D87FDED
:1007C0005A95FA01EE0FFF1FE40FF51FEF50FD4F92
:1007D000808186FFCBCF8881F801E80FF11D87FD6E
:1007E000FA95CF01EE0FFF1FE80FF91FEF50FD4FF5
:1007F000808160E08F730E94E702B8CF8081918191
:100800002881A801420F511D27FD5A959A01FA012E
:10081000EE0FFF1FE20FF31FEF50FD4F21813281DA
:10082000820F931FF7019183808388819801280F9D
:10083000311D87FD3A95F901EE0FFF1FE20FF31FFF
:10084000EF50FD4F808186FF22C08881080F111D67
:1008500087FD1A95F801EE0FFF1FE00FF11FEF5013
:10086000FD4F808161E08F73DF91CF911F910F91D8
:10087000FF90EF90DF90CF90BF90AF900C94E70285
:1008800080E49CE9F701918380838FEF8883DF9177
:10089000CF911F910F91FF90EF90DF90CF90BF907D
:1008A000AF900895FC0101900020E9F73197AF0166
:1008B000481B590BBC0184E592E00C94B301CF9323
:1008C000DF930E945204EC018AE192E00E945204FC
:1008D0008C0F9D1FDF91CF910895CF93DF93EC0193
:1008E0008091820390918303009759F020918403B3
:1008F000309185032C173D0720F081E0DF91CF91E7
:100900000895BE016F5F7F4F0E94310D009789F0FF
:100910009093830380938203D0938503C0938403D1
:100920002091860330918703232B39F7FC01108235
:10093000E4CF80E0E3CF1F920F920FB60F92112405
:100940000BB60F922F933F934F935F936F937F93C9
:100950008F939F93AF93BF93EF93FF9384E592E0C0
:100960000E942702FF91EF91BF91AF919F918F91CC
:100970007F916F915F914F913F912F910F900BBE9F
:100980000F900FBE0F901F9018951F920F920FB6E9
:100990000F9211240BB60F922F938F939F93EF9387
:1009A000FF93E0916402F09165028081E0916A0218
:1009B000F0916B0282FD1DC0908180916D028F5F6E
:1009C0008F7320916E02821741F0E0916D02F0E08A
:1009D000EC5AFD4F958F80936D02FF91EF919F919F
:1009E0008F912F910F900BBE0F900FBE0F901F9005
:1009F00018958081F2CF1F920F920FB60F9211249B
:100A00002F933F938F939F93AF93BF93809149020E
:100A100090914A02A0914B02B0914C023091480251
:100A200023E0230F2D3758F50196A11DB11D20930A
:100A300048028093490290934A02A0934B02B093DC
:100A40004C0280914D0290914E02A0914F02B091C4
:100A500050020196A11DB11D80934D0290934E024C
:100A6000A0934F02B0935002BF91AF919F918F918D
:100A70003F912F910F900FBE0F901F90189526E871
:100A8000230F0296A11DB11DD2CF1F920F920FB658
:100A90000F9211240BB60F922F933F934F935F93B6
:100AA0006F937F938F939F93AF93BF93EF93FF9336
:100AB00048E251E064E271E090E080E00E94980337
:100AC000FF91EF91BF91AF919F918F917F916F9126
:100AD0005F914F913F912F910F900BBE0F900FBEE2
:100AE0000F901F9018951F920F920FB60F9211241E
:100AF0000BB60F922F933F934F935F936F937F9318
:100B00008F939F93AF93BF93EF93FF9348EA50E087
:100B100064EA70E083E090E00E949803FF91EF9117
:100B2000BF91AF919F918F917F916F915F914F9105
:100B30003F912F910F900BBE0F900FBE0F901F9003
:100B400018951F920F920FB60F9211240BB60F92A9
:100B50002F933F934F935F936F937F938F939F93C5
:100B6000AF93BF93EF93FF9348E950E064E970E0DF
:100B700082E090E00E949803FF91EF91BF91AF91C6
:100B80009F918F917F916F915F914F913F912F91A5
:100B90000F900BBE0F900FBE0F901F9018951F92D5
:100BA0000F920FB60F9211240BB60F922F933F9313
:100BB0004F935F936F937F938F939F93AF93BF9365
:100BC000EF93FF9348E850E064E870E081E090E044
:100BD0000E949803FF91EF91BF91AF919F918F91E8
:100BE0007F916F915F914F913F912F910F900BBE2D
:100BF0000F900FBE0F901F901895109257021092F1
:100C0000560288EE93E0A0E0B0E080935802909303
:100C10005902A0935A02B0935B028CE092E0909349
:100C200055028093540285EC90E09093610280938A
:100C3000600284EC90E0909363028093620280EC07
:100C400090E0909365028093640281EC90E0909331
:100C500067028093660282EC90E090936902809331
:100C6000680286EC90E090936B0280936A02109287
:100C70006D0210926E0210926F02109270028091BB
:100C800081038033D8F591E0980F9093810380938E
:100C9000880390E0FC01EE0FFF1FE80FF91FEF50F3
:100CA000FD4F88EB9BE09283818310928303109227
:100CB000820310928503109284031092870310928E
:100CC000860390E080E00E946D04209182033091C1
:100CD0008303811117C02115310519F0C9010E9444
:100CE000A80C109283031092820310928703109233
:100CF0008603109285031092840308958FEF8093EA
:100D00008803D3CF10928703109286036CE172E0C0
:100D1000C9010C941B0ECF93DF93CDB7DEB7A1971B
:100D20000FB6F894DEBF0FBECDBF789484B5826055
:100D300084BD84B5816084BD85B5826085BD85B57F
:100D4000816085BD80916E00816080936E001092FD
:100D50008100809181008260809381008091810078
:100D60008160809381008091800081608093800009
:100D70008091B10084608093B1008091B000816067
:100D80008093B00080919100826080939100809167
:100D900091008160809391008091900081608093A8
:100DA00090008091A10082608093A1008091A100B9
:100DB00081608093A1008091A00081608093A00059
:100DC00080912101826080932101809121018160C5
:100DD0008093210180912001816080932001809186
:100DE0007A00846080937A0080917A008260809398
:100DF0007A0080917A00816080937A0080917A00F5
:100E0000806880937A001092C100E0916402F091B2
:100E1000650282E08083E0916002F09161021082BD
:100E2000E0916202F09163028FEC808310926C0279
:100E3000E0916802F091690286E08083E0916602A9
:100E4000F0916702808180618083E0916602F09179
:100E50006702808188608083E0916602F09167027A
:100E6000808180688083E0916602F09167028081D2
:100E70008F7D808380918803803308F051C087E1A3
:100E80000E945E0180918803282F30E0F901EE0F67
:100E9000FF1FE20FF31FEF50FD4F9081907C976191
:100EA00090831092890310928A032CE0622F0E9493
:100EB000F80B829FB001112430E020E0AB01420F1B
:100EC000531FFA01EE0FFF1FE40FF51FEF50FD4F08
:100ED000908196FD17C02F5F3F4F2C30310571F781
:100EE000813009F07AC01092800082E08093810006
:100EF0001092850010928400B19A80916F008260F8
:100F000080936F00E09188038E2F90E0FC01EE0F3C
:100F1000FF1FE80FF91FEF50FD4F80818064808331
:100F200080910002909101020E947D0186E10E9461
:100F30005E0187E10E945E0188E10E945E0189E115
:100F40000E945E018E010F5F1F4F9AE0892E912C47
:100F5000A12CB12C84E592E00E941102181619060A
:100F6000CCF584E592E00E94EF01C09782339105B1
:100F700009F05FC08DE192E00E945F0461E088E1CA
:100F80000E94E7020E9473032B013C0184E6C82EF5
:100F9000D12CE12CF12C0E94730364197509860988
:100FA0009709683E734081059105A8F321E0C21AB4
:100FB000D108E108F10888EE480E83E0581E611C54
:100FC000711CC114D104E104F10429F760E088E147
:100FD0000E94E7020E94B602BDCF823061F41092F7
:100FE000900080939100109295001092940088BB1D
:100FF0008093710087CF833069F41092A00082E063
:101000008093A1001092A5001092A40089BB809348
:10101000720078CF811176CF1092200182E0809308
:10102000210110922501109224018ABB8093730044
:1010300069CF8C33910579F485E292E00E945F04D8
:101040008091530291E089278093530260E08111DF
:1010500061E086E1BDCF8434910539F48AE292E003
:101060000E945F0461E089E1B3CF8633910531F4DA
:1010700083E392E00E945F0460E0F5CF8D3DFFEFD7
:101080009F0709F0AAC08091820390918303C12C2D
:10109000D12C7601009719F00E9455096B01D0926E
:1010A0005202C092510260E284E592E00E9449023D
:1010B0000D2C000CEE08FF08F7FE55C06DE284E52C
:1010C00092E00E94490222273327A9012C193D09E9
:1010D0004E095F0919A2CE0181967C01CA01B901AE
:1010E000A50194010E94C10A605DF70162937F012E
:1010F000211531054105510589F7E114F10419F075
:10110000C7010E94520460E284E592E00E94490215
:10111000E0905102F0905202B7010F2C000C880BA6
:10112000990B0E94C80920E030E044E353E40E9498
:10113000500B20E030E04AEF53E40E94030A20E025
:1011400030E84BEB54E40E94E40A0E94C20B709317
:10115000010260930002F4EBEF16F104D4F4CB012A
:101160000E947D0137CFA701960119A2CE01819679
:101170007C01CA01B901A50194010E94C10A605D08
:10118000F70162937F01211531054105510589F76A
:10119000B4CFB701645B7109072E000C880B990B63
:1011A0000E94C80920E030E044E353E40E94500B61
:1011B00020E030E04AEF53E40E94030A9B01AC01B7
:1011C00060E070E88BEB94E40E94E30A0E94C20B9B
:1011D0007093010260930002C2CF8E3F2FEF9207FF
:1011E00081F590E080E00E946D04209182033091AF
:1011F000830381111CC02115310519F0C9010E941A
:10120000A80C10928303109282031092870310920D
:101210008603109285031092840360E284E592E0D5
:101220000E9449028DE392E00E945F04D3CE1092A7
:101230008703109286036CE172E0C9010E941B0EC5
:10124000ECCF4AE0B8010E947C09F801019000202F
:10125000E9F73197E01BF10B09F4BCCEE09086036F
:10126000F0908703EE0EFF1EC7010E946D048823D5
:1012700009F4B0CE209182033091830380918603DC
:1012800090918703B801820F931F0E941B0EF0926A
:101290008703E09286039ECE809182039091830320
:1012A000009711F00C94A80C08951F93FC01992746
:1012B0008827BC01E89411911032E9F3193010F03D
:1012C0001E30C8F31B3251F01D3249F4689406C039
:1012D0000E948709610F711D811D911D119110538D
:1012E0001A30B0F33EF490958095709561957F4FDC
:1012F0008F4F9F4F1F910895BB274A3031F4992398
:1013000022F4BDE2909581959F4F0C949D09592F31
:10131000482F372F262F660F771F881F991F660FBC
:10132000771F881F991F620F731F841F951F660FF9
:10133000771F881F991F0895BB27FB015527AA27F0
:10134000880F991FAA1FA41710F0A41B8395505152
:10135000B9F7A05DAA3308F0A95DA193009779F7CA
:10136000B111B1931192CB010C94B609DC01FC01CF
:10137000672F71917723E1F7329704C07C916D93C9
:1013800070836291AE17BF07C8F30895E89409C04F
:1013900097FB3EF490958095709561957F4F8F4FA8
:1013A0009F4F9923A9F0F92F96E9BB279395F695BE
:1013B000879577956795B795F111F8CFFAF4BB0F3C
:1013C00011F460FF1BC06F5F7F4F8F4F9F4F16C0A0
:1013D000882311F096E911C0772321F09EE8872F2A
:1013E000762F05C0662371F096E8862F70E060E0E6
:1013F0002AF09A95660F771F881FDAF7880F96955F
:10140000879597F908950E94160A0C94870A0E94FE
:10141000790A38F00E94800A20F0952311F00C948C
:10142000700A0C94760A11240C94BB0A0E94980A44
:1014300070F3959FC1F3950F50E0551F629FF00127
:10144000729FBB27F00DB11D639FAA27F00DB11D40
:10145000AA1F649F6627B00DA11D661F829F2227C9
:10146000B00DA11D621F739FB00DA11D621F839F50
:10147000A00D611D221F749F3327A00D611D231F26
:10148000849F600D211D822F762F6A2F11249F5774
:1014900050409AF0F1F088234AF0EE0FFF1FBB1F77
:1014A000661F771F881F91505040A9F79E3F510536
:1014B00080F00C94700A0C94BB0A5F3FE4F3983EF2
:1014C000D4F3869577956795B795F795E7959F5FE0
:1014D000C1F7FE2B880F911D9695879597F9089572
:1014E00097F99F6780E870E060E008959FEF80ECD7
:1014F000089500240A94161617061806090608957A
:1015000000240A9412161306140605060895092EDF
:101510000394000C11F4882352F0BB0F40F4BF2B4E
:1015200011F460FF04C06F5F7F4F8F4F9F4F08958E
:1015300057FD9058440F551F59F05F3F71F0479584
:10154000880F97FB991F61F09F3F79F08795089569
:10155000121613061406551FF2CF4695F1DF08C088
:10156000161617061806991FF1CF869571056105A5
:1015700008940895E894BB2766277727CB0197F94D
:101580000895A1E21A2EAA1BBB1BFD010DC0AA1FC4
:10159000BB1FEE1FFF1FA217B307E407F50720F0DC
:1015A000A21BB30BE40BF50B661F771F881F991F57
:1015B0001A9469F760957095809590959B01AC01A0
:1015C000BD01CF0108955058BB27AA270E94FB0AEE
:1015D0000C94870A0E94790A38F00E94800A20F051
:1015E00039F49F3F19F426F40C94760A0EF4E09532
:1015F000E7FB0C94700AE92F0E94980A58F3BA1777
:10160000620773078407950720F079F4A6F50C9418
:10161000BA0A0EF4E0950B2EBA2FA02D0B01B901DA
:1016200090010C01CA01A0011124FF27591B99F058
:10163000593F50F4503E68F11A16F040A22F232F64
:10164000342F4427585FF3CF469537952795A795B4
:10165000F0405395C9F77EF41F16BA0B620B730B5B
:10166000840BBAF09150A1F0FF0FBB1F661F771FCC
:10167000881FC2F70EC0BA0F621F731F841F48F481
:10168000879577956795B795F7959E3F08F0B0CF0A
:101690009395880F08F09927EE0F979587950895F1
:1016A0000E94640B0C94870A0E94800A58F00E94E2
:1016B000790A40F029F45F3F29F00C94700A511127
:1016C0000C94BB0A0C94760A0E94980A68F399233A
:1016D000B1F3552391F3951B550BBB27AA2762172E
:1016E0007307840738F09F5F5F4F220F331F441F3B
:1016F000AA1FA9F335D00E2E3AF0E0E832D091506F
:101700005040E695001CCAF72BD0FE2F29D0660F5B
:10171000771F881FBB1F261737074807AB07B0E89E
:1017200009F0BB0B802DBF01FF2793585F4F3AF0A4
:101730009E3F510578F00C94700A0C94BB0A5F3FF1
:10174000E4F3983ED4F3869577956795B795F7952A
:101750009F5FC9F7880F911D9695879597F9089512
:10176000E1E0660F771F881FBB1F621773078407AE
:10177000BA0720F0621B730B840BBA0BEE1F88F7BD
:10178000E09508950E94C90B6894B1110C94BB0AAE
:1017900008950E94A00A88F09F5798F0B92F9927C2
:1017A000B751B0F0E1F0660F771F881F991F1AF04C
:1017B000BA95C9F714C0B13091F00E94BA0AB1E0ED
:1017C00008950C94BA0A672F782F8827B85F39F0EC
:1017D000B93FCCF3869577956795B395D9F73EF4E5
:1017E00090958095709561957F4F8F4F9F4F08958D
:1017F000991B79E004C0991F961708F0961B881F63
:101800007A95C9F780950895EE0FFF1F881F8BBF4B
:101810000790F691E02D19940F931F93CF93DF93C8
:101820008230910510F482E090E0E0918D03F09118
:101830008E0330E020E0B0E0A0E0309799F421156D
:10184000310509F44AC0281B390B24303105D8F57D
:101850008A819B816115710589F1FB0193838283E4
:10186000FE0111C04081518102811381481759073F
:10187000E0F04817590799F4109761F012960C930D
:10188000129713961C933296CF01DF91CF911F913F
:101890000F91089500938D0310938E03F4CF2115BB
:1018A000310551F04217530738F0A901DB019A01C5
:1018B000BD01DF01F801C1CFEF01F9CF90938E0395
:1018C00080938D03CDCFFE01E20FF31F819391939F
:1018D0002250310939832883D7CF20918B0330914F
:1018E0008C03232B41F420910402309105023093A4
:1018F0008C0320938B032091020230910302211567
:10190000310541F42DB73EB74091060250910702D0
:10191000241B350BE0918B03F0918C03E217F30746
:10192000A0F42E1B3F0B2817390778F0AC014E5F4F
:101930005F4F2417350748F04E0F5F1F50938C03FD
:1019400040938B03819391939FCFF0E0E0E09CCF95
:10195000CF93DF930097E9F0FC0132971382128254
:10196000A0918D03B0918E03ED0130E020E010973F
:10197000A1F420813181820F931F20918B0330913C
:101980008C032817390709F061C0F0938C03E093AA
:101990008B03DF91CF910895EA01CE17DF07E8F5B9
:1019A0004A815B819E0141155105B1F7E901FB8335
:1019B000EA8349915991C40FD51FEC17FD0761F4D3
:1019C000808191810296840F951FE9019983888314
:1019D000828193819B838A83F0E0E0E012968D916F
:1019E0009C9113970097B9F52D913C911197CD01DA
:1019F0000296820F931F20918B0330918C0328173E
:101A0000390739F6309751F510928E0310928D03F5
:101A1000B0938C03A0938B03BCCFD383C28340814C
:101A20005181840F951FC817D90761F44E5F5F4F2E
:101A300088819981480F591F518340838A819B81F6
:101A4000938382832115310509F0B0CFF0938E0383
:101A5000E0938D039ECFFD01DC01C0CF1382128283
:101A6000D7CF4F925F926F927F928F929F92AF9259
:101A7000BF92CF92DF92EF92FF920F931F93CF937B
:101A8000DF938C01009799F4CB01DF91CF911F91E7
:101A90000F91FF90EF90DF90CF90BF90AF909F900D
:101AA0008F907F906F905F904F900C940C0CFC0186
:101AB000E60FF71F9C0122503109E217F30708F4E3
:101AC000AEC0D901CD91DC911197C617D70720F18F
:101AD000C530D10578F0CE0104978617970750F0EE
:101AE000C61BD70B2297C193D1936D937C93CF01E3
:101AF0000E94A80CC801DF91CF911F910F91FF9018
:101B0000EF90DF90CF90BF90AF909F908F907F909D
:101B10006F905F904F9008955B01AC1ABD0A4C0125
:101B20008C0E9D1EA0918D03B0918E03512C412CE3
:101B3000F12CE12C109731F580918B0390918C035F
:101B40008815990509F05CC04616570608F058C07C
:101B50008091020290910302009741F48DB79EB7E5
:101B60004091060250910702841B950BE817F90774
:101B700008F055C0F0938C03E0938B03F901718357
:101B80006083B8CF8D919C91119712966C901297AB
:101B900013967C901397A815B90559F56C0142E08E
:101BA000C40ED11CCA14DB0420F1AC014A195B0934
:101BB000DA011296159780F0628273825183408316
:101BC000D9016D937C93E114F10471F0D701139660
:101BD000FC93EE9312978ECF22968C0F9D1FF901E6
:101BE00091838083F301EFCFF0938E03E0938D0315
:101BF00081CF4816590608F42C017D01D3019ACFF4
:101C0000CB010E940C0C7C01009749F0AE01B80199
:101C10000E94120EC8010E94A80C87016BCF10E031
:101C200000E068CFFB01DC0102C001900D92415041
:101C30005040D8F70895FB01DC0101900D9200207F
:101C4000E1F7089511E0CAE2D1E000E006C0802F7C
:101C5000FE010E94040C2196011DCB32D10780E0C9
:081C60000807A9F7F894FFCF73
:101C6800DC0500008F038000000000004902B3017A
:101C7800E00196021102EF0103020D0A0042757A93
:101C88007A657220004C4544200052656172204FED
:101C98004E200052656172204F46462000636C65F5
:041CA8006172000065
:00000001FF
