:100000000C9427010C9458010C9458010C9458013D
:100010000C9458010C9458010C9458010C945801FC
:100020000C9458010C9458010C9458010C945801EC
:100030000C9458010C9458010C9458010C945801DC
:100040000C9458010C9458010C9458010C945801CC
:100050000C9458010C9458010C9458010C94920281
:100060000C9458010C9458010C9458010C945801AC
:100070000C9458010C9458010C9458010C9458019C
:100080000C9458010C9458010C9458010C9458018C
:100090000C9458010C9458010C9458010C9458017C
:1000A0000C9458010C9458010C9458010C9458016C
:1000B0000C9458010C9458010C9458010C9458015C
:1000C0000C9458010C9458010C9458010C9458014C
:1000D0000C9458010C9458010C9458010C9458013C
:1000E0000C9458010C94D7010C94A9010C94BC01F8
:1000F0000C94B2010C94AC010C94DC010C94CA0178
:100100000C94D2010C94E5030C9497010C94C0015B
:100110000C94A5010C94CE010C94B6010C94D8015A
:100120000C949D010C94C4010C94A10100002000CA
:100130002300260029002C002F00320000010000BF
:1001400003010601090100000A0B02090C0D0E084B
:100150000703040100000000000000000000000090
:10016000000000000000000000000000000000008F
:10017000000012111000000000000000000000004C
:10018000000000000000000000000000000022004D
:10019000250028002B002E00310034000201000051
:1001A000050108010B0100002100240027002A009E
:1001B0002D003000330001010000040107010A0195
:1001C00005050505070508080808020202020A0AD3
:1001D00008080404040401010101010101010303F1
:1001E000030303030303040707070C0C0C0C0C0C9C
:1001F0000C0C0202020206060606060606060B0B99
:100200000B0B0B0B0B0B01021020200808102040D9
:1002100010204080020102010804020101020408CA
:100220001020408080402010080402018004020158
:1002300080402010080402010804020101020408A1
:10024000102040800102040810204080E5031124A2
:100250001FBECFEFD1E2DEBFCDBF00E00CBF12E08A
:10026000A0E0B2E0EAEFF7E000E00BBF02C00790C9
:100270000D92A630B107D9F722E0A6E0B2E001C0A6
:100280001D92A131B207E1F711E0C7E2D1E000E031
:1002900006C021970109802FFE010E94F303C63298
:1002A000D10780E00807A9F70E94DC020C94FB0349
:1002B0000C94000090E0FC01EA5FFD4F2491805413
:1002C0009E4FFC018491882399F090E0880F991F3C
:1002D000FC01EA55FE4FA591B491FC01E457FE4F95
:1002E000859194918FB7F894EC91E22BEC938FBFAA
:1002F00008958150823108F05AC0E82FF0E0882735
:10030000EB57FE4F8F4F0C94F303A501A901970102
:100310009D01A101D701AC01B201B601BC01C00130
:10032000C401CA01CE01D701D201D801DC018091FC
:1003300080008F77809380000895809180008F7D6A
:10034000F9CF80918000877FF5CF84B58F7784BD0A
:10035000089584B58F7DFBCF8091B0008F77809317
:10036000B00008958091B0008F7DF9CF809190000A
:100370008F77809390000895809190008F7DF9CFC2
:1003800080919000877FF5CF8091A0008F77809338
:10039000A00008958091A0008F7DF9CF8091A000EA
:1003A000877FF5CF809120018F778093200108957A
:1003B000809120018F7DF9CF80912001877FF5CF3B
:1003C000CF93DF93282F30E0F901EA5BFE4F849151
:1003D000F901EA5FFD4FD491F901E054FE4FC49159
:1003E000CC23A1F081110E947901EC2FF0E0EE0FF7
:1003F000FF1FE45DFE4FA591B491EC91ED2381E0E8
:1004000090E009F480E0DF91CF91089580E090E0E2
:10041000FACF1F93CF93DF93282F30E0F901EA5BE7
:10042000FE4F8491F901EA5FFD4FD491F901E05448
:10043000FE4FC491CC23A9F0162F81110E9479019F
:10044000EC2FF0E0EE0FFF1FE457FE4FA591B491A3
:100450008FB7F894EC91111108C0D095DE23DC938E
:100460008FBFDF91CF911F910895DE2BF8CF3FB75B
:10047000F89480910B0290910C02A0910D02B09122
:100480000E0226B5A89B05C02F3F19F00196A11DAD
:10049000B11D3FBFBA2FA92F982F8827BC01CD01CE
:1004A000620F711D811D911D42E0660F771F881F2D
:1004B000991F4A95D1F708958F929F92AF92BF925C
:1004C000CF92DF92EF92FF920E9437024B015C01C4
:1004D0008CE2C82EDD24D394E12CF12C0E9437024B
:1004E000681979098A099B09683E7340810591055D
:1004F000A8F321E0C21AD108E108F10888EE880EBD
:1005000083E0981EA11CB11CC114D104E104F104C4
:1005100029F7FF90EF90DF90CF90BF90AF909F9022
:100520008F9008951F920F920FB60F9211242F9360
:100530003F938F939F93AF93BF93809107029091C6
:100540000802A0910902B0910A023091060223E04C
:10055000230F2D3758F50196A11DB11D20930602DA
:100560008093070290930802A0930902B0930A02B5
:1005700080910B0290910C02A0910D02B0910E029D
:100580000196A11DB11D80930B0290930C02A093C4
:100590000D02B0930E02BF91AF919F918F913F9149
:1005A0002F910F900FBE0F901F90189526E8230FE4
:1005B0000296A11DB11DD2CF789484B5826084BD0E
:1005C00084B5816084BD85B5826085BD85B5816057
:1005D00085BD80916E00816080936E0010928100D5
:1005E0008091810082608093810080918100816090
:1005F0008093810080918000816080938000809151
:10060000B10084608093B1008091B00081608093DC
:10061000B000809191008260809391008091910060
:100620008160809391008091900081608093900020
:100630008091A10082608093A1008091A1008160DF
:100640008093A1008091A00081608093A0008091A0
:10065000210182608093210180912101816080933A
:1006600021018091200181608093200180917A0096
:10067000846080937A0080917A00826080937A000F
:1006800080917A00816080937A0080917A008068FE
:1006900080937A001092C10086E00E945A0185E0A2
:1006A0000E945A0184E00E945A0183E00E945A018C
:1006B00082E00E945A0181E00E945A0100E012E0AB
:1006C00020E0E22E20E0F22E8CE00E94E001019773
:1006D00069F561E086E00E9409020E945C0261E027
:1006E00085E00E9409020E945C0261E084E00E94B1
:1006F00009020E945C0261E083E00E9409020E94FC
:100700005C0261E082E00E9409020E945C0261E0FA
:1007100081E00E940902F80101900020E9F7CF0171
:10072000815092409093100280930F028BE00E94C0
:10073000E001019761F5C0910F02D09110021C16E3
:100740001D06E4F496E0D92E61E08D2D0E94090289
:10075000DA94D110F9CF0E945C0286E0D82E60E0D6
:100760008D2D0E940902DA94D110F9CF0E945C020B
:100770002197D0931002C0930F02DDCFCD2B39F417
:10078000C6E061E08C2F0E940902C150D1F78AE0D7
:100790000E94E001019791F4C6E060E08C2F0E9476
:1007A0000902C150D1F7F80101900020E9F7CF010B
:1007B000815092409093100280930F02E114F10453
:1007C00009F482CF0E9400007FCF80E092E0FC011C
:1007D00001900020E9F7CF018150924090931002E0
:1007E00080930F020895EE0FFF1F881F8BBF0790A5
:0A07F000F691E02D1994F894FFCF64
:0607FA0061726D616E00EA
:00000001FF
