:100000000C946C010C949D010C949D010C949D0129
:100010000C949D010C949D010C949D010C949D01E8
:100020000C949D010C949D010C949D010C949D01D8
:100030000C949D010C949D010C949D010C949D01C8
:100040000C949D010C9491060C949D010C949D01BF
:100050000C949D010C949D010C949D010C94BD0584
:100060000C949D010C9487050C945D050C949D01E6
:100070000C949D010C949D010C949D010C949D0188
:100080000C9463060C949D010C949D010C949D01AD
:100090000C949D010C949D010C949D010C949D0168
:1000A0000C949D010C949D010C9435060C949D01BB
:1000B0000C949D010C949D010C949D010C940706D9
:1000C0000C949D010C949D010C949D010C949D0138
:1000D0000C949D010C949D010C949D010C949D0128
:1000E0000C949D0107634236B79BD8A71A3968560E
:1000F00018AEBAAB558C1D3CB7CC5763BD6DEDFD4A
:10010000753EF6177231BF000000803F0800000006
:10011000BE922449123EABAAAA2ABECDCCCC4C3EFC
:1001200000000080BEABAAAAAA3E00000000BF00EB
:100130000000803F0000000000084178D3BB4387E7
:10014000D1133D190E3CC3BD4282AD2B3E68EC82FB
:1001500076BED98FE1A93E4C80EFFFBE01C4FF7F80
:100160003F00000000000C94BE030C94D6010C94D8
:1001700099030C94B4030C94A6030C9491030C946F
:10018000B0030C94C2030C949D030C94BF060C9412
:10019000B8030C947A030C94F9020C94D0030C94D9
:1001A000CC030C9474020C9495030C94A0030C944F
:1001B000AA030C947F030C94AC020C94DE090C94FB
:1001C00066020C9412020C9403020C94C603000005
:1001D0000A0B02090C0D0E080703040100000000C1
:1001E000000000000000000000000000000000000F
:1001F00000000000000000000000121110000000CC
:1002000000000000000000000000000000000000EE
:100210000000000000002200250028002B002E0016
:100220003100340002010000050108010B0100004B
:100230002100240027002A002D0030003300010196
:100240000000040107010A01050505050705080866
:100250000808020202020A0A080804040404010150
:100260000101010101010303030303030303040765
:1002700007070C0C0C0C0C0C0C0C020202020606FC
:100280000606060606060B0B0B0B0B0B0B0B0102EF
:100290001020200808102040102040800201020198
:1002A0000804020101020408102040808040201050
:1002B00008040201800402018040201008040201A9
:1002C0000804020101020408102040800102040811
:1002D00010204080BF06DE0911241FBECFEFD1E2FF
:1002E000DEBFCDBF00E00CBF12E0A0E0B2E0EAEF5D
:1002F000FFE100E00BBF02C007900D92A032B107F2
:10030000D9F723E0A0E2B2E001C01D92AB36B207FC
:10031000E1F711E0CBE6D1E000E006C0219701094A
:10032000802FFE010E94B90DCA36D10780E0080770
:10033000A9F70E942F070C94EB0F0C940000E0919A
:100340006403E03388F54091650328E830E0241B1E
:10035000310947FD3395220F331F220F331F8217B8
:10036000930784F04091660328E532E0241B3109AD
:1003700047FD3395220F331F220F331F8217930738
:100380000CF49C0122503109220F331F4FB7F8940F
:100390008E2F90E0FC01EE0FFF1FE80FF91FE353D3
:1003A000FD4F328321834FBF08950895AF92BF92CE
:1003B000CF92DF92EF92FF920F931F93CF93DF9331
:1003C0006C017B018B01040F151FEB015E01AE1860
:1003D000BF08C017D10759F06991D601ED91FC9182
:1003E0000190F081E02DC6011995892B79F7C5019F
:1003F000DF91CF911F910F91FF90EF90DF90CF9001
:10040000BF90AF900895FC01538D448D252F30E0AF
:10041000842F90E0821B930B541710F0CF96089511
:1004200001970895FC01918D828D981761F0A28D3E
:10043000AE0FBF2FB11D5D968C91928D9F5F9F7304
:10044000928F90E008958FEF9FEF08952FB7F89463
:1004500080912C0290912D02A0912E02B0912F023A
:100460002FBF8093380290933902A0933A02B09341
:100470003B0280E392E00E94120297FF26C02FB752
:10048000F89480912C0290912D02A0912E02B091AF
:100490002F022FBF409138025091390260913A02E9
:1004A00070913B02841B950BA60BB70B4091340255
:1004B000509135026091360270913702841795078A
:1004C000A607B707B0F28FEF9FEF0895FC01918D5B
:1004D000828D981731F0828DE80FF11D858D90E0A7
:1004E00008958FEF9FEF0895FC01918D228D892F44
:1004F00090E0805C9F4F821B91098F73992708952C
:1005000080E392E00E94740221E0892B09F420E04C
:10051000822F0895FC01A48DA80FB92FB11DA35AF5
:10052000BF4F2C91848D90E001968F739927848F13
:10053000A689B7892C93A089B1898C918370806436
:100540008C93938D848D981306C00288F389E02DD7
:1005500080818F7D80830895EF92FF920F931F9388
:10056000CF93DF93EC0181E0888F9B8D8C8D981366
:100570001AC0E889F989808185FF15C09FB7F89472
:10058000EE89FF896083E889F989808183708064BE
:1005900080839FBF81E090E0DF91CF911F910F9109
:1005A000FF90EF900895F62E0B8D10E00F5F1F4F18
:1005B0000F731127E02E8C8D8E110CC00FB607FC27
:1005C000FACFE889F989808185FFF5CFCE010E94B5
:1005D0008A02F1CFEB8DEC0FFD2FF11DE35AFF4F97
:1005E000F0829FB7F8940B8FEA89FB898081806243
:1005F000CFCFCF93DF93EC01888D8823B9F0AA8900
:10060000BB89E889F9898C9185FD03C0808186FDCD
:100610000DC00FB607FCF7CF8C9185FFF2CF80811C
:1006200085FFEDCFCE010E948A02E9CFDF91CF9105
:10063000089580E090E0892B29F00E9480028111CA
:100640000E94000080E090E0892B49F080E090E07B
:10065000892B29F00E94000081110E94000080E097
:1006600090E0892B49F080E090E0892B29F00E94EE
:10067000000081110E94000080E090E0892B49F089
:1006800080E090E0892B29F00E94000081110C94F9
:1006900000000895282F30E0F901E253FE4F9491B5
:1006A000F901E257FD4F4491285B3D4FF901249138
:1006B000222309F435C0992311F191509231F8F4B5
:1006C000E92FF0E08827E859FC4F8F4F0C94B90DC3
:1006D00099039D037A03910395037F03A003A60367
:1006E000AA03B003B403B803BE03C2037F03C60367
:1006F000CC03D003809180008F7780938000E22F1D
:10070000F0E0EE0FFF1FEC5EFD4FA591B4918FB7A7
:10071000F894EC91611148C040954E234C938FBFE3
:100720000895809180008F7DE8CF80918000877F41
:10073000E4CF84B58F7784BDE2CF84B58F7DFBCFC6
:100740008091B0008F778093B000D9CF8091B000B6
:100750008F7DF9CF809190008F7780939000CFCFDD
:10076000809190008F7DF9CF80919000877FF5CFA9
:100770008091A0008F778093A000C1CF8091A000CE
:100780008F7DF9CF8091A000877FF5CF80912001E8
:100790008F7780932001B3CF809120018F7DF9CF97
:1007A00080912001877FF5CF4E2BB8CFAF92BF92BB
:1007B000CF92DF92EF92FF920F931F93CF93DF932D
:1007C0006B017A01EC01C05EDD4F28813CE0389F6F
:1007D0008001399F100D1124A0905D03B12C27FFDB
:1007E0001FC0FB011182108288818F5F88838881FE
:1007F0009801280F311D87FD3A95F6012A153B0512
:100800001CF488818C30C4F18081918104968034FD
:100810009C4908F473C0F60180819181049670C0F0
:1008200088819801280F311D87FD3A952A153B05CF
:10083000DCF68881A801480F511D87FD5A95FA0101
:10084000EE0FFF1FE40FF51FE353FD4F808186FF7E
:10085000CBCF8881F801E80FF11D87FDFA95CF0114
:10086000EE0FFF1FE80FF91FE353FD4F808160E09B
:100870008F730E944A03B8CF808191812881A8019B
:10088000420F511D27FD5A959A01FA01EE0FFF1FE5
:10089000E20FF31FE353FD4F21813281820F931F3B
:1008A000F7019183808388819801280F311D87FD8E
:1008B0003A95F901EE0FFF1FE20FF31FE353FD4FCF
:1008C000808186FF22C08881080F111D87FD1A953F
:1008D000F801EE0FFF1FE00FF11FE353FD4F808182
:1008E00061E08F73DF91CF911F910F91FF90EF9097
:1008F000DF90CF90BF90AF900C944A0380E49CE9C6
:10090000F701918380838FEF8883DF91CF911F91CF
:100910000F91FF90EF90DF90CF90BF90AF90089530
:10092000FC0101900020E9F73197AF01481B590BFA
:10093000BC0180E392E00C94D6018F929F92AF921B
:10094000BF920F931F93CF93DF93CDB7DEB7A197DD
:100950000FB6F894DEBF0FBECDBF19A2423008F427
:100960004AE08E010F5D1F4F842E912CB12CA12CDB
:10097000A50194010E94DD0AE62FB901CA01EA30FF
:10098000F4F4E05DD801EE938D01232B242B252B6D
:1009900079F790E080E0109719F0CD010E94900463
:1009A000A1960FB6F894DEBF0FBECDBFDF91CF91F9
:1009B0001F910F91BF90AF909F908F900895E95C29
:1009C000E1CFCF92DF92EF92FF92CF93DF936B0153
:1009D0007C016DE280E392E00E94AC02EC016627AC
:1009E0007727CB016C197D098E099F094AE00E9487
:1009F0009D048C0F9D1FDF91CF91FF90EF90DF90B2
:100A0000CF900895FC0180819181009711F00C94A2
:100A1000710E08950F931F93CF93DF93EC0188819C
:100A20009981009759F02A813B812617370730F0CA
:100A300081E0DF91CF911F910F9108958B016F5F3E
:100A40007F4F0E94FA0E009759F0998388831B8389
:100A50000A832C813D81232B59F7FC011082E8CFBA
:100A600080E0E7CFEF92FF920F931F93CF93DF9336
:100A7000EC017B018A01BA010E940A0528813981B3
:100A8000811114C02115310519F0C9010E94710EA0
:100A9000198218821D821C821B821A82CE01DF916C
:100AA000CF911F910F91FF90EF9008951D830C83BC
:100AB000B701C9010E94E40FF1CF1F920F920FB648
:100AC0000F9211240BB60F922F933F934F935F9386
:100AD0006F937F938F939F93AF93BF93EF93FF9306
:100AE00080E392E00E948A02FF91EF91BF91AF9163
:100AF0009F918F917F916F915F914F913F912F9136
:100B00000F900BBE0F900FBE0F901F9018951F9265
:100B10000F920FB60F9211240BB60F922F938F9353
:100B20009F93EF93FF93E0914002F0914102808107
:100B3000E0914602F091470282FD1DC090818091B4
:100B400049028F5F8F7320914A02821741F0E09132
:100B50004902F0E0E05DFD4F958F80934902FF91DF
:100B6000EF919F918F912F910F900BBE0F900FBE21
:100B70000F901F9018958081F2CF1F920F920FB6A1
:100B80000F9211242F933F938F939F93AF93BF9313
:100B900080912C0290912D02A0912E02B0912F02F3
:100BA0003091280223E0230F2D3758F50196A11D1F
:100BB000B11D2093280280932C0290932D02A093C4
:100BC0002E02B0932F028091240290912502A091D1
:100BD0002602B09127020196A11DB11D8093240227
:100BE00090932502A0932602B0932702BF91AF9164
:100BF0009F918F913F912F910F900FBE0F901F905B
:100C0000189526E8230F0296A11DB11DD2CF1F9281
:100C10000F920FB60F9211240BB60F922F933F93A2
:100C20004F935F936F937F938F939F93AF93BF93F4
:100C3000EF93FF9348E251E064E271E090E080E0DE
:100C40000E94D603FF91EF91BF91AF919F918F9139
:100C50007F916F915F914F913F912F910F900BBEBC
:100C60000F900FBE0F901F9018951F920F920FB606
:100C70000F9211240BB60F922F933F934F935F93D4
:100C80006F937F938F939F93AF93BF93EF93FF9354
:100C900048EA50E064EA70E083E090E00E94D60306
:100CA000FF91EF91BF91AF919F918F917F916F9144
:100CB0005F914F913F912F910F900BBE0F900FBE00
:100CC0000F901F9018951F920F920FB60F9211243C
:100CD0000BB60F922F933F934F935F936F937F9336
:100CE0008F939F93AF93BF93EF93FF9348E950E0A7
:100CF00064E970E082E090E00E94D603FF91EF91FA
:100D0000BF91AF919F918F917F916F915F914F9123
:100D10003F912F910F900BBE0F900FBE0F901F9021
:100D200018951F920F920FB60F9211240BB60F92C7
:100D30002F933F934F935F936F937F938F939F93E3
:100D4000AF93BF93EF93FF9348E850E064E870E0FF
:100D500081E090E00E94D603FF91EF91BF91AF91A7
:100D60009F918F917F916F915F914F913F912F91C3
:100D70000F900BBE0F900FBE0F901F901895109202
:100D800033021092320288EE93E0A0E0B0E080934C
:100D9000340290933502A0933602B09337028CE070
:100DA00092E0909331028093300285EC90E0909332
:100DB0003D0280933C0284EC90E090933F0280934C
:100DC0003E0280EC90E0909341028093400281ECDF
:100DD00090E0909343028093420282EC90E09093E3
:100DE00045028093440286EC90E090934702809302
:100DF00046021092490210924A0210924B0210923F
:100E00004C0280915D03803330F591E0980F909310
:100E10005D038093640390E0FC01EE0FFF1FE80F79
:100E2000F91FE353FD4F88EB9BE09283818310927F
:100E30005F0310925E0310926103109260031092A0
:100E400063031092620350E040E06EE172E08EE5D1
:100E500093E00C9432058FEF80936403E8CFCF9337
:100E6000DF9300D000D01F921F92CDB7DEB77894E9
:100E700084B5826084BD84B5816084BD85B582609F
:100E800085BD85B5816085BD80916E008160809350
:100E90006E001092810080918100826080938100B9
:100EA00080918100816080938100809180008160C9
:100EB000809380008091B10084608093B100809124
:100EC000B00081608093B000809191008260809337
:100ED00091008091910081608093910080919000B9
:100EE0008160809390008091A10082608093A10036
:100EF0008091A10081608093A1008091A000816019
:100F00008093A000809121018260809321018091D3
:100F10002101816080932101809120018160809373
:100F2000200180917A00846080937A0080917A0019
:100F3000826080937A0080917A00816080937A0049
:100F400080917A00806880937A001092C100E091CD
:100F50004002F091410282E08083E0913C02F091F6
:100F60003D021082E0913E02F0913F028FEC8083BF
:100F700010924802E0914402F091450286E080839D
:100F8000E0914202F0914302808180618083E09190
:100F90004202F0914302808188608083E0914202A6
:100FA000F0914302808180688083E0914202F09159
:100FB000430280818F7D808380916403803308F0B9
:100FC00069C0E7E9F2E02491E1E5F2E08491882349
:100FD00099F090E0880F991FFC01E25DFD4FA5910B
:100FE000B491FC01EC5EFD4F859194918FB7F8941C
:100FF000EC91E22BEC938FBF80916403282F30E0BB
:10100000F901EE0FFF1FE20FF31FE353FD4F908135
:10101000907C9960908310926503109266032CE097
:10102000622F0E94990D829FB001112430E020E0D0
:10103000AB01420F531FFA01EE0FFF1FE40FF51F24
:10104000E353FD4F908196FD17C02F5F3F4F2C302B
:10105000310571F7813009F05FC01092800082E0A5
:10106000809381001092850010928400B19A809143
:101070006F00826080936F00E09164038E2F90E098
:10108000FC01EE0FFF1FE80FF91FE353FD4F8081B6
:101090008064808380910002909101020E949F01F0
:1010A0009AE0C92ED12C80E392E00E9474021816B7
:1010B00019060CF042C11A8219821C821B821E8200
:1010C0001D8250E040E06EE172E0CE0101960E9488
:1010D00032050E94260297FD4BC08A30910509F423
:1010E00047C08F8318860D811E810F5F1F4FB80187
:1010F000CE0101960E940A05882359F329813A817D
:101100008D819E81BE01695F7F4F820F931F0E9478
:10111000E40F1E830D83DDCF823061F410929000C6
:1011200080939100109295001092940088BB809358
:101130007100A2CF833069F41092A00082E0809306
:10114000A1001092A5001092A40089BB80937200A8
:1011500093CF811191CF1092200182E080932101E1
:1011600010922501109224018ABB8093730084CFD2
:1011700080915E0390915F03009709F49BC06981A1
:101180007A816115710509F493C040916003509113
:1011900061032D813E814217530708F489C00E94E4
:1011A000E40F8D819E8190936303809362031E827E
:1011B0001D82CE0101960E9402051A8219821C82AC
:1011C0001B821E821D8260915E0370915F03611518
:1011D000710541F04091620350916303CE01019685
:1011E0000E9432050D811E81B8016150710990E0A5
:1011F00080E00E94E2099B01AC0160E070E080E2C7
:1012000091E40E94A70B0E94710B7B01011511054F
:1012100021F0E981FA81309721F410922902E9E264
:10122000F2E08081B12CA12C8D3241F4C701B601CE
:101230000E94A50D7B01AA24A394B12C0A151B05BD
:1012400009F47EC0450110E000E08D819E81881682
:10125000990608F04DC0E981FA81309709F041C044
:1012600010922902E9E2F2E08081082E000C990B2D
:10127000C0978E9D90018F9D300D9E9D300D112445
:10128000020F131FC701B6010E94A50D7B018AE161
:1012900092E00E949004B801012E000C880B990B7B
:1012A00097FF22C00E94E1042FEF821A920ACDCF4D
:1012B0000E94710E89819A8190935F0380935E03EF
:1012C0008B819C8190936103809360038D819E81CB
:1012D00090936303809362031A8219821C821B829B
:1012E00066CFE80DF91DC0CF4AE00E949D04DCCF17
:1012F000AA94AB2819F411950195110910932B02AA
:1013000000932A02CE0101960E94020501151105E3
:1013100061F08091000290910102101611069CF478
:10132000801B910B873E93409CF450E040E06EE1BF
:1013300072E08EE593E00E9432050E941903B3CE5D
:1013400010E000E0DBCF800F911F823D97406CF7EB
:10135000B801110F880B990B97FF2CC00E94E10474
:101360008CE192E00E94900460912A0270912B021D
:10137000072E000C880B990B0E94E40920E030E056
:1013800044E353E40E94FF0A20E030E04AEF53E4D4
:101390000E941F0A0E94710B2091000230910102ED
:1013A000C901861B970B90930102809300020E9453
:1013B0009F01BBCF4AE00E949D04D2CF8EE593E00F
:1013C0000C940205E89409C097FB3EF49095809533
:1013D000709561957F4F8F4F9F4F9923A9F0F92FFB
:1013E00096E9BB279395F695879577956795B79579
:1013F000F111F8CFFAF4BB0F11F460FF1BC06F5F5F
:101400007F4F8F4F9F4F16C0882311F096E911C070
:10141000772321F09EE8872F762F05C0662371F091
:1014200096E8862F70E060E02AF09A95660F771FA5
:10143000881FDAF7880F9695879597F908950E9487
:10144000320A0C94A30A0E94950A38F00E949C0A62
:1014500020F0952311F00C948C0A0C94920A11241C
:101460000C94D70A0E94B40A70F3959FC1F3950FAC
:1014700050E0551F629FF001729FBB27F00DB11D18
:10148000639FAA27F00DB11DAA1F649F6627B00DA8
:10149000A11D661F829F2227B00DA11D621F739F91
:1014A000B00DA11D621F839FA00D611D221F749F9F
:1014B0003327A00D611D231F849F600D211D822FE6
:1014C000762F6A2F11249F5750409AF0F1F088230D
:1014D0004AF0EE0FFF1FBB1F661F771F881F91503A
:1014E0005040A9F79E3F510580F00C948C0A0C9453
:1014F000D70A5F3FE4F3983ED4F3869577956795D6
:10150000B795F795E7959F5FC1F7FE2B880F911D63
:101510009695879597F9089597F99F6780E870E009
:1015200060E008959FEF80EC089500240A94161659
:10153000170618060906089500240A9412161306C1
:10154000140605060895092E0394000C11F488234F
:1015500052F0BB0F40F4BF2B11F460FF04C06F5F6B
:101560007F4F8F4F9F4F089557FD9058440F551F41
:1015700059F05F3F71F04795880F97FB991F61F015
:101580009F3F79F087950895121613061406551F8C
:10159000F2CF4695F1DF08C0161617061806991FF8
:1015A000F1CF86957105610508940895E894BB27ED
:1015B00066277727CB0197F90895A1E21A2EAA1B77
:1015C000BB1BFD010DC0AA1FBB1FEE1FFF1FA217F3
:1015D000B307E407F50720F0A21BB30BE40BF50BF0
:1015E000661F771F881F991F1A9469F76095709579
:1015F000809590959B01AC01BD01CF0108950E949B
:10160000130B0C94A30A0E949C0A58F00E94950A9E
:1016100040F029F45F3F29F00C948C0A51110C948E
:10162000D70A0C94920A0E94B40A68F39923B1F382
:10163000552391F3951B550BBB27AA2762177307F8
:10164000840738F09F5F5F4F220F331F441FAA1F8C
:10165000A9F335D00E2E3AF0E0E832D09150504048
:10166000E695001CCAF72BD0FE2F29D0660F771FF6
:10167000881FBB1F261737074807AB07B0E809F0DC
:10168000BB0B802DBF01FF2793585F4F3AF09E3F61
:10169000510578F00C948C0A0C94D70A5F3FE4F360
:1016A000983ED4F3869577956795B795F7959F5FA4
:1016B000C9F7880F911D9695879597F90895E1E0F0
:1016C000660F771F881FBB1F621773078407BA074F
:1016D00020F0621B730B840BBA0BEE1F88F7E095AA
:1016E00008950E94780B6894B1110C94D70A08955C
:1016F0000E94BC0A88F09F5798F0B92F9927B751DC
:10170000B0F0E1F0660F771F881F991F1AF0BA95A5
:10171000C9F714C0B13091F00E94D60AB1E0089523
:101720000C94D60A672F782F8827B85F39F0B93F15
:10173000CCF3869577956795B395D9F73EF4909558
:101740008095709561957F4F8F4F9F4F0895FA0157
:10175000EE0FFF1F309621053105A1F161157105CE
:1017600061F48038BFE39B0749F1689490388105A4
:1017700061F08038BFEF9B0741F099234AF5FF3FA6
:10178000E1053105210519F1E8940894E795D9019F
:10179000AA2329F4AB2FBE2FF85FD0F310C0FF5F50
:1017A00070F4A695E0F7F73950F019F0FF3A38F4E5
:1017B0009F779F930DD00F9007FC9058089546F0A7
:1017C0000C94920A60E070E080E89FE308954FE790
:1017D0009F775F934F933F932F930E94A20C2F917B
:1017E0003F914F915F910E941F0A0C94FF0B29F4C7
:1017F00016F00C948C0A0C94D60A0C94920A0E944F
:10180000BC0AA8F39638A0F707F80F92E8942BE3E8
:101810003AEA48EB5FE70E94350A0F920F920F9267
:101820004DB75EB70F920E94EA0CE4EEF0E00E9422
:10183000310C4F915F91EF91FF91E595EE1FFF1FE6
:1018400049F0FE57E0684427EE0F441FFA95E1F790
:101850004195550B0E94640C0F9007FE0C94580C98
:101860000895DF93CF931F930F93FF92EF92DF9230
:101870007B018C01689406C0DA2EEF010E94320AC7
:10188000FE01E894A5912591359145915591A6F3D6
:10189000EF010E94360DFE019701A801DA9469F765
:1018A000DF90EF90FF900F911F91CF91DF910895FE
:1018B0009B01AC0160E070E080E89FE30C94FF0ABC
:1018C0000C948C0A0C948B0D0E94BC0AD8F39923BB
:1018D000C9F3940F511DA3F39150504094F059F067
:1018E000882332F0660F771F881F91505040C1F750
:1018F0009E3F51052CF7880F911D9695879597F976
:1019000008955F3FACF0983E9CF0BB278695779595
:101910006795B79508F4B1609395C1F7BB0F58F779
:1019200011F460FFE8CF6F5F7F4F8F4F9F4FE3CF82
:101930000C94D70A16F00C948B0D0C94920A6894B0
:101940000C948C0A0E94BC0AA8F39923C1F3AEF34D
:10195000DF93CF931F930F93FF92C92FDD27882327
:101960002AF02197660F771F881FDAF720E030E012
:1019700040E85FEB9FE3883920F0803E38F0219605
:101980008F770E941F0DECE0F1E004C00E941F0D54
:10199000E9E3F1E00E94310C8B01BE01EC01FB2E6A
:1019A0006F5771097595771F880B990B0E94E40991
:1019B00028E132E741E35FE30E94320AAF2D98014C
:1019C000AE01FF900F911F91CF91DF910E94360DD4
:1019D0000C94A30AFA01DC01AA0FBB1F9B01AC0106
:1019E000BF5728F4222733274427507820C0B75107
:1019F00090F4AB2F0024469537952795011CA395AD
:101A0000D2F3002071F0220F331F441FB395DAF395
:101A10000ED00C941E0D61307105A0E88A07B946FE
:101A200030F49B01AC0166277727882790783096A1
:101A300021F0208331834283538308955058BB277C
:101A4000AA270E94360D0C94A30A0E94950A38F02A
:101A50000E949C0A20F039F49F3F19F426F40C945C
:101A6000920A0EF4E095E7FB0C948C0AE92F0E9491
:101A7000B40A58F3BA17620773078407950720F072
:101A800079F4A6F50C94D60A0EF4E0950B2EBA2F35
:101A9000A02D0B01B90190010C01CA01A001112474
:101AA000FF27591B99F0593F50F4503E68F11A1620
:101AB000F040A22F232F342F4427585FF3CF4695B1
:101AC00037952795A795F0405395C9F77EF41F16D3
:101AD000BA0B620B730B840BBAF09150A1F0FF0F9D
:101AE000BB1F661F771F881FC2F70EC0BA0F621F89
:101AF000731F841F48F4879577956795B795F79579
:101B00009E3F08F0B0CF9395880F08F09927EE0F0D
:101B10009795879508959F3F31F0915020F48795D0
:101B200077956795B795880F911D9695879597F945
:101B30000895991B79E004C0991F961708F0961B29
:101B4000881F7A95C9F78095089597FB072E16F49C
:101B5000009407D077FD09D00E94C10D07FC05D085
:101B60003EF4909581959F4F0895709561957F4FB4
:101B70000895EE0FFF1F881F8BBF0790F691E02D91
:101B80001994AA1BBB1B51E107C0AA1FBB1FA617B4
:101B9000B70710F0A61BB70B881F991F5A95A9F716
:101BA00080959095BC01CD0108950F931F93CF931D
:101BB000DF938230910510F482E090E0E0916903B8
:101BC000F0916A0330E020E0B0E0A0E0309799F4B3
:101BD0002115310509F44AC0281B390B2430310581
:101BE000D8F58A819B816115710589F1FB01938389
:101BF0008283FE0111C04081518102811381481707
:101C00005907E0F04817590799F4109761F01296B8
:101C10000C93129713961C933296CF01DF91CF91BC
:101C20001F910F9108950093690310936A03F4CFF5
:101C30002115310551F04217530738F0A901DB0196
:101C40009A01BD01DF01F801C1CFEF01F9CF9093F7
:101C50006A0380936903CDCFFE01E20FF31F8193E6
:101C600091932250310939832883D7CF209167037C
:101C700030916803232B41F4209104023091050236
:101C8000309368032093670320910202309103028E
:101C90002115310541F42DB73EB740910602509110
:101CA0000702241B350BE0916703F0916803E217EC
:101CB000F307A0F42E1B3F0B2817390778F0AC016F
:101CC0004E5F5F4F2417350748F04E0F5F1F50934C
:101CD000680340936703819391939FCFF0E0E0E026
:101CE0009CCFCF93DF930097E9F0FC0132971382EA
:101CF0001282A0916903B0916A03ED0130E020E007
:101D00001097A1F420813181820F931F20916703E6
:101D1000309168032817390709F061C0F093680310
:101D2000E0936703DF91CF910895EA01CE17DF07B3
:101D3000E8F54A815B819E0141155105B1F7E90142
:101D4000FB83EA8349915991C40FD51FEC17FD0716
:101D500061F4808191810296840F951FE901998336
:101D60008883828193819B838A83F0E0E0E01296EE
:101D70008D919C9113970097B9F52D913C911197F6
:101D8000CD010296820F931F209167033091680363
:101D90002817390739F6309751F510926A031092D7
:101DA0006903B0936803A0936703BCCFD383C28356
:101DB00040815181840F951FC817D90761F44E5F88
:101DC0005F4F88819981480F591F518340838A81D1
:101DD0009B81938382832115310509F0B0CFF09365
:101DE0006A03E09369039ECFFD01DC01C0CF13823B
:101DF0001282D7CF4F925F926F927F928F929F9273
:101E0000AF92BF92CF92DF92EF92FF920F931F9308
:101E1000CF93DF938C01009799F4CB01DF91CF91A1
:101E20001F910F91FF90EF90DF90CF90BF90AF90F8
:101E30009F908F907F906F905F904F900C94D50DF6
:101E4000FC01E60FF71F9C0122503109E217F3074E
:101E500008F4AEC0D901CD91DC911197C617D70710
:101E600020F1C530D10578F0CE0104978617970789
:101E700050F0C61BD70B2297C193D1936D937C93DF
:101E8000CF010E94710EC801DF91CF911F910F9178
:101E9000FF90EF90DF90CF90BF90AF909F908F908A
:101EA0007F906F905F904F9008955B01AC1ABD0AD0
:101EB0004C018C0E9D1EA0916903B0916A03512CB8
:101EC000412CF12CE12C109731F580916703909112
:101ED00068038815990509F05CC04616570608F096
:101EE00058C08091020290910302009741F48DB78F
:101EF0009EB74091060250910702841B950BE8178C
:101F0000F90708F055C0F0936803E0936703F901FF
:101F100071836083B8CF8D919C91119712966C90CC
:101F2000129713967C901397A815B90559F56C0173
:101F300042E0C40ED11CCA14DB0420F1AC014A19E2
:101F40005B09DA011296159780F0628273825183E1
:101F50004083D9016D937C93E114F10471F0D701B2
:101F60001396FC93EE9312978ECF22968C0F9D1FA3
:101F7000F90191838083F301EFCFF0936A03E0933B
:101F8000690381CF4816590608F42C017D01D3015D
:101F90009ACFCB010E94D50D7C01009749F0AE018C
:101FA000B8010E94DB0FC8010E94710E87016BCF40
:101FB00010E000E068CFFB01DC0102C001900D924F
:101FC00041505040D8F70895FB01DC0101900D927B
:101FD0000020E1F7089511E0CBE6D1E000E006C073
:101FE000802FFE010E94B90D2196011DCC36D1072C
:0A1FF00080E00807A9F7F894FFCF7E
:101FFA00DC0500006B03800000000000AC02D60183
:10200A000302F9027402120266022A000D0A000093
:00000001FF
