:100000000C943B010C946C010C946C010C946C01ED
:100010000C946C010C946C010C946C010C946C01AC
:100020000C946C010C946C010C946C010C946C019C
:100030000C946C010C946C010C946C010C946C018C
:100040000C946C010C946C010C946C010C946C017C
:100050000C946C010C946C010C946C010C940205D2
:100060000C946C010C94CC040C94A2040C946C01C0
:100070000C946C010C946C010C946C010C946C014C
:100080000C946C010C946C010C946C010C946C013C
:100090000C946C010C946C010C946C010C946C012C
:1000A0000C946C010C946C010C946C010C946C011C
:1000B0000C946C010C946C010C946C010C946C010C
:1000C0000C946C010C946C010C946C010C946C01FC
:1000D0000C946C010C946C010C946C010C946C01EC
:1000E0000C946C010C945D030C948E030C948003AF
:1000F0000C9465030C9461030C946E030C948603BA
:100100000C9494030C9468030C9493030C9478035C
:100110000C94F6030C9459030C9472030C943D0256
:100120000C9451020C9436040C9498030C945303D1
:100130000C944C050C9497020C94C5030C948A0300
:100140000C947C030C945F020C94E4020C94010266
:100150000C942E0200002100240027002A002D000C
:100160003000330001010000040107010A01000012
:100170002200250028002B002E003100340002014F
:100180000000050108010B010000200023002600EB
:1001900029002C002F00320000010000030106019D
:1001A00009010505050507050808080802020202FD
:1001B0000A0A080804040404010101010101010103
:1001C0000303030303030303040707070C0C0C0CCE
:1001D0000C0C0C0C020202020606060606060606B7
:1001E0000B0B0B0B0B0B0B0B010210202008081044
:1001F0002040102040800201020108040201010297
:10020000040810204080804020100804020180046F
:1002100002018040201008040201080402010102CA
:1002200004081020408001020408102040800000D3
:100230000A0B02090C0D0E08070304010000000060
:1002400000000000000000000000000000000000AE
:10025000000000000000000000001211100000006B
:10026000000000000000000000000000000000008E
:10027000000000004C0511241FBECFEFD1E2DEBF0D
:10028000CDBF00E00CBF12E0A0E0B2E0E8EEF2E18A
:1002900000E00BBF02C007900D92A234B107D9F75E
:1002A00023E0A2E4B2E001C01D92A735B207E1F756
:1002B00011E0CBE3D1E000E006C021970109802FD7
:1002C000FE010E946A09CA33D10780E00807A9F736
:1002D0000E94DA050C9472090C94000096E0899F44
:1002E000D0011124A851BD4F90967C936E935F97D7
:1002F00091E091969C939197E0915503F09156036C
:1003000090915403992339F0309751F0811108C02E
:10031000809104031994309719F05C968C91FACF70
:100320000895CF92DF92EF92FF920F931F9396E082
:10033000899FF0011124E851FD4F11A2278D30A1B2
:100340002130310551F178F02230310509F451C0E6
:100350002330310509F452C01F910F91FF90EF90A7
:10036000DF90CF9008956623B9F361E070E00E94BA
:100370006E012FB7F8948091470290914802A091A6
:100380004902B0914A022FBF8093400390934103EA
:10039000A0934203B0934303DFCF9FB7F894C0907C
:1003A0004702D0904802E0904902F0904A029FBF75
:1003B0000091400310914103209142033091430387
:1003C000C01AD10AE20AF30A0091520310915303B2
:1003D00030E020E00C151D052E053F0550F462E0CD
:1003E00070E01F910F91FF90EF90DF90CF900C94F1
:1003F0006E016111B1CF63E070E0F3CF70E060E0B7
:10040000F0CFAF92BF92CF92DF92EF92FF920F9315
:100410001F93CF93DF936C017B018B01040F151F9A
:10042000EB015E01AE18BF08C017D10759F0699102
:10043000D601ED91FC910190F081E02DC601199556
:10044000892B79F7C501DF91CF911F910F91FF9013
:10045000EF90DF90CF90BF90AF900895FC01538D47
:10046000448D252F30E0842F90E0821B930B54178E
:1004700010F0CF96089501970895FC01918D828D1B
:10048000981761F0A28DAE0FBF2FB11D5D968C91B4
:10049000928D9F5F9F73928F90E008958FEF9FEFF3
:1004A0000895FC01918D828D981731F0828DE80FAF
:1004B000F11D858D90E008958FEF9FEF0895FC0169
:1004C000918D228D892F90E0805C9F4F821B910936
:1004D0008F73992708958BE492E00E945F0221E0D8
:1004E000892B09F420E0822F0895FC01A48DA80F28
:1004F000B92FB11DA35ABF4F2C91848D90E0019666
:100500008F739927848FA689B7892C93A089B18985
:100510008C91837080648C93938D848D981306C026
:100520000288F389E02D80818F7D80830895EF928A
:10053000FF920F931F93CF93DF93EC0181E0888F9D
:100540009B8D8C8D98131AC0E889F989808185FF6D
:1005500015C09FB7F894EE89FF896083E889F9890F
:1005600080818370806480839FBF81E090E0DF9111
:10057000CF911F910F91FF90EF900895F62E0B8D64
:1005800010E00F5F1F4F0F731127E02E8C8D8E111F
:100590000CC00FB607FCFACFE889F989808185FF86
:1005A000F5CFCE010E947502F1CFEB8DEC0FFD2F40
:1005B000F11DE35AFF4FF0829FB7F8940B8FEA8941
:1005C000FB8980818062CFCFCF93DF93EC01888D50
:1005D0008823B9F0AA89BB89E889F9898C9185FDBE
:1005E00003C0808186FD0DC00FB607FCF7CF8C914C
:1005F00085FFF2CF808185FFEDCFCE010E9475028D
:10060000E9CFDF91CF91089580E090E0892B29F028
:100610000E946B0281110E94000080E090E0892B13
:1006200049F080E090E0892B29F00E9400008111C0
:100630000E94000080E090E0892B49F080E090E08B
:10064000892B29F00E94000081110E94000080E0A7
:1006500090E0892B49F080E090E0892B29F00E94FE
:10066000000081110C94000008958150823108F03F
:100670005AC0E82FF0E08827EF5BFC4F8F4F0C94B7
:100680006A0961036503530359035D039303680318
:100690006E03720378037C03800386038A0393034B
:1006A0008E0394039803809180008F77809380005D
:1006B0000895809180008F7DF9CF80918000877FA1
:1006C000F5CF84B58F7784BD089584B58F7DFBCF3A
:1006D0008091B0008F778093B00008958091B00032
:1006E0008F7DF9CF809190008F778093900008954F
:1006F000809190008F7DF9CF80919000877FF5CF1A
:100700008091A0008F778093A00008958091A00031
:100710008F7DF9CF8091A000877FF5CF8091200158
:100720008F77809320010895809120018F7DF9CFEC
:1007300080912001877FF5CFCF93DF93282F30E082
:10074000F901E25DFD4F8491F901E851FE4FD4912A
:10075000F901EE55FE4FC491CC23A1F081110E9406
:100760003503EC2FF0E0EE0FFF1FE857FE4FA59189
:10077000B491EC91ED2381E090E009F480E0DF9109
:10078000CF91089580E090E0FACF862F0C949C03DF
:100790001F93CF93DF93282F30E0F901E25DFD4FE7
:1007A0008491F901E851FE4FD491F901EE55FE4FC5
:1007B000C491CC23A9F0162F81110E943503EC2F90
:1007C000F0E0EE0FFF1FE259FE4FA591B4918FB7F5
:1007D000F894EC91111108C0D095DE23DC938FBF03
:1007E000DF91CF911F910895DE2BF8CF862F642FD4
:1007F0000C94C803CF93DF9390E0FC01E851FE4FC7
:1008000024918E559E4FFC0184918823C9F090E07D
:10081000880F991FFC01EC5AFE4FA591B491FC0181
:10082000E259FE4FC591D49161110DC09FB7F89464
:100830008C91209582238C938881282328839FBFC5
:10084000DF91CF910895623051F49FB7F8943C91B5
:10085000822F809583238C93E8812E2BEFCF8FB747
:10086000F894EC912E2B2C938FBFEACF862F642F18
:100870000C94FA033FB7F89480914302909144029C
:10088000A0914502B091460226B5A89B05C02F3F16
:1008900019F00196A11DB11D3FBFBA2FA92F982FA6
:1008A0008827BC01CD01620F711D811D911D42E0A1
:1008B000660F771F881F991F4A95D1F708958F9269
:1008C0009F92AF92BF92CF92DF92EF92FF920E94DF
:1008D0003A044B015C018CE2C82EDD24D394E12C58
:1008E000F12C0E943A04681979098A099B09683E2B
:1008F000734081059105A8F321E0C21AD108E108EF
:10090000F10888EE880E83E0981EA11CB11CC1146A
:10091000D104E104F10429F7FF90EF90DF90CF902C
:10092000BF90AF909F908F900895FC0101900020A0
:10093000E9F73197AF01481B590BBC018BE492E0FA
:100940000C9401021F920F920FB60F9211240BB656
:100950000F922F933F934F935F936F937F938F9358
:100960009F93AF93BF93EF93FF938BE492E00E942A
:100970007502FF91EF91BF91AF919F918F917F9100
:100980006F915F914F913F912F910F900BBE0F9000
:100990000FBE0F901F9018951F920F920FB60F92D7
:1009A00011240BB60F922F938F939F93EF93FF9386
:1009B000E0915B02F0915C028081E0916102F09134
:1009C000620282FD1DC09081809164028F5F8F73EF
:1009D00020916502821741F0E0916402F0E0E55B4E
:1009E000FD4F958F80936402FF91EF919F918F91BE
:1009F0002F910F900BBE0F900FBE0F901F90189568
:100A00008081F2CF1F920F920FB60F9211242F9375
:100A10003F938F939F93AF93BF93809147029091A1
:100A20004802A0914902B0914A023091420223E06B
:100A3000230F2D3758F50196A11DB11D20934202B9
:100A40008093470290934802A0934902B0934A02D0
:100A50008091430290914402A0914502B0914602D8
:100A60000196A11DB11D8093430290934402A0936F
:100A70004502B0934602BF91AF919F918F913F91F4
:100A80002F910F900FBE0F901F90189526E8230FFF
:100A90000296A11DB11DD2CF10924E0210924D02AE
:100AA00088EE93E0A0E0B0E080934F029093500274
:100AB000A0935102B093520287E192E090934C02CE
:100AC00080934B0285EC90E09093580280935702FC
:100AD00084EC90E090935A028093590280EC90E06D
:100AE00090935C0280935B0281EC90E090935E02B5
:100AF00080935D0282EC90E09093600280935F02AD
:100B000086EC90E0909362028093610210926402FE
:100B10001092650210926602109267021092EA0229
:100B20001092EE021092ED021092EF0289E292E032
:100B30009093E9028093E802E4E0F3E010821482EB
:100B400013821582369683E0E034F807B9F783E024
:100B500092E090934B0380934A0380E092E090935D
:100B60004D0380934C0384E080934E0383E0809395
:100B70004F0387E092E090934903809348038AE013
:100B800090E0909351038093500384EF91E0909311
:100B90005303809352031092560310925503109200
:100BA000440310924503109246031092470310929B
:100BB00054030895CF93DF93CDB7DEB7A1970FB657
:100BC000F894DEBF0FBECDBF789484B5826084BD3B
:100BD00084B5816084BD85B5826085BD85B5816041
:100BE00085BD80916E00816080936E0010928100BF
:100BF000809181008260809381008091810081607A
:100C0000809381008091800081608093800080913A
:100C1000B10084608093B1008091B00081608093C6
:100C2000B00080919100826080939100809191004A
:100C3000816080939100809190008160809390000A
:100C40008091A10082608093A1008091A1008160C9
:100C50008093A1008091A00081608093A00080918A
:100C60002101826080932101809121018160809324
:100C700021018091200181608093200180917A0080
:100C8000846080937A0080917A00826080937A00F9
:100C900080917A00816080937A0080917A008068E8
:100CA00080937A001092C100E0915B02F0915C02A7
:100CB00082E08083E0915702F09158021082E09127
:100CC0005902F0915A028FEC808310926302E091F6
:100CD0005F02F091600286E08083E0915D02F09116
:100CE0005E02808180618083E0915D02F0915E020E
:100CF000808188608083E0915D02F0915E02808156
:100D000080688083E0915D02F0915E0280818F7D3A
:100D1000808361E086E30E94FA0361E087E30E943A
:100D2000FA0361E088E30E94FA0361E089E30E942C
:100D3000FA0361E08AE30E94FA0361E08BE30E9418
:100D4000FA0361E08CE30E94FA0361E08DE30E9404
:100D5000FA0361E08EE30E94FA03412C512C320128
:100D6000439488248A94982C51E0509354038FB76D
:100D7000F894409147025091480260914902709165
:100D80004A028FBF8091440390914503A09146038E
:100D9000B0914703481B590B6A0B7B0B80915003A2
:100DA00090915103B0E0A0E084179507A607B7071C
:100DB00008F00DC110E080914E03181760F4E09127
:100DC0004A03F0914B03E10FF11D62E080810E9424
:100DD000FA031F5FF0CF312C80914F03381608F0D3
:100DE00061C0E32CF12CE0914C03F0914D03EE0D2A
:100DF000FF1D61E080810E94FA03E0914C03F091B5
:100E00004D03EE0DFF1D60E080810E94C803D301F9
:100E1000C201032C04C0880F991FAA1FBB1F0A948C
:100E2000D2F75C016C01C094D094212C80914E03C8
:100E3000281608F5022D10E0E0914A03F0914B03CB
:100E4000E00FF11F80810E949C030C5F1F4F000F79
:100E5000111FF801E851FD4F892B41F480819181E8
:100E60008A299B29918380832394E0CF808191817B
:100E70008C219D21F7CFE0914C03F0914D03EE0DB5
:100E8000FF1D61E080810E94C80380914C03909116
:100E90004D03E80EF91E60E0F70180810E94FA031D
:100EA00033949ACF08EE12E0F801878D90A1892B38
:100EB00021F4148E968E858E11A2369653E0E4327C
:100EC000F50799F7D12C80914E03D81608F053C03E
:100ED000C12CED2CF12CEE0CFF1CC70180519D4F55
:100EE0007C0120914F03C21608F043C0F7016081D6
:100EF00071810C2C02C0769567950A94E2F7D29E18
:100F0000900111242C0D311DE8EEF2E080E0458DBA
:100F1000568D2417350709F4D8C18F5F36968A306D
:100F2000B1F760FF24C0E8EEF2E090E080E0448D8D
:100F3000411118C0E0914803F0914903E20FF31FFB
:100F4000408156E0589FF001599FF00D1124E8515F
:100F5000FD4F448F368F258F10A2178E61E00E94BF
:100F6000910105C0019636968A30910501F7C39428
:100F7000B8CFD394A8CF80E0F80191A19111892F27
:100F80000A5F1F4FF3E004321F07B1F79FB7F894D1
:100F900040914702509148026091490270914A0283
:100FA0009FBF40934403509345036093460370935F
:100FB0004703882361F080910903882341F08091E1
:100FC000070390910803F0900403019719F0109221
:100FD0005403F12C8BE492E00E943D028C010053FB
:100FE0001109FF2009F473C16F2D8BE492E00E9478
:100FF00097028FE292E00E94950417FD11C082E3F0
:1010000092E00A30110534F419A280E3800F88A31E
:10101000CE0180960E9495048FE292E00E94950492
:1010200051E3F51207C061E086E30E94C8030E9405
:1010300004039ACE01301105B1F382E3F81619F0DA
:101040000230110549F461E086E30E94C8030E9462
:101050005F0461E087E3E9CF93E3F91619F0033009
:10106000110579F461E086E30E94C8030E945F04E1
:1010700061E087E30E94C8030E945F0461E088E3A7
:10108000D4CFE4E3FE1619F004301105A9F461E0B1
:1010900086E30E94C8030E945F0461E087E30E9428
:1010A000C8030E945F0461E088E30E94C8030E94B5
:1010B0005F0461E089E3B9CFF5E3FF1619F005306D
:1010C0001105D9F461E086E30E94C8030E945F0421
:1010D00061E087E30E94C8030E945F0461E088E347
:1010E0000E94C8030E945F0461E089E30E94C80374
:1010F0000E945F0461E08DE398CF56E3F51619F086
:101100000630110509F561E086E30E94C8030E94DC
:101110005F0461E087E30E94C8030E945F0461E00E
:1011200088E30E94C8030E945F0461E089E30E9493
:10113000C8030E945F0461E08DE30E94C8030E941F
:101140005F0461E08CE371CF87E3F81619F0073094
:10115000110539F561E086E30E94C8030E945F042F
:1011600061E087E30E94C8030E945F0461E088E3B6
:101170000E94C8030E945F0461E089E30E94C803E3
:101180000E945F0461E08DE30E94C8030E945F0437
:1011900061E08CE30E94C8030E945F0461E08BE37E
:1011A00044CF98E3F91619F00830110569F561E0AC
:1011B00086E30E94C8030E945F0461E087E30E9407
:1011C000C8030E945F0461E088E30E94C8030E9494
:1011D0005F0461E089E30E94C8030E945F0461E04C
:1011E0008DE30E94C8030E945F0461E08CE30E94CB
:1011F000C8030E945F0461E08BE30E94C8030E9461
:101200005F0461E08AE311CFE9E3FE1619F00930CB
:10121000110599F561E086E30E94C8030E945F040E
:1012200061E087E30E94C8030E945F0461E088E3F5
:101230000E94C8030E945F0461E089E30E94C80322
:101240000E945F0461E08DE30E94C8030E945F0476
:1012500061E08CE30E94C8030E945F0461E08BE3BD
:101260000E94C8030E945F0461E08AE30E94C803F1
:101270000E945F0461E08EE3D8CEF0E3FF1619F020
:10128000012B09F0D4CE60E086E30E94C80360E041
:1012900087E30E94C80360E088E30E94C80360E01F
:1012A00089E30E94C80360E08DE30E94C80360E008
:1012B0008CE30E94C80360E08BE30E94C80360E0F7
:1012C0008AE30E94C80360E0D6CF617048CE17FF62
:1012D00096CEC5CEEE0FFF1F881F8BBF0790F691ED
:0812E000E02D1994F894FFCFF2
:1012E8001B19171D1F21233132333435363738394E
:1012F80023302A00000000970201022E02E4025F58
:10130800023D025102000000003604F603C5030D39
:101318000A00696E76616C696420656E746572791D
:021328000000C3
:00000001FF
