:100000000C943B010C946C010C946C010C946C01ED
:100010000C946C010C946C010C946C010C946C01AC
:100020000C946C010C946C010C946C010C946C019C
:100030000C946C010C946C010C946C010C946C018C
:100040000C946C010C946C010C946C010C946C017C
:100050000C946C010C946C010C946C010C941F05B5
:100060000C946C010C94E9040C94BF040C946C0186
:100070000C946C010C946C010C946C010C946C014C
:100080000C946C010C946C010C946C010C946C013C
:100090000C946C010C946C010C946C010C946C012C
:1000A0000C946C010C946C010C946C010C946C011C
:1000B0000C946C010C946C010C946C010C946C010C
:1000C0000C946C010C946C010C946C010C946C01FC
:1000D0000C946C010C946C010C946C010C946C01EC
:1000E0000C946C010C9474020C9491010C94E30236
:1000F0000C9469050C94EF010C941E030C94C60338
:100100000C9455030C94F5020C9408030C94020310
:100110000C9410030C9428030C94CD010C94E10171
:100120000C9424030C9427020C94FE020C94BE0140
:100130000C94F8020C9423030C94ED020C94E90245
:100140000C9486030C940C030C94F1020C941A0387
:100150000C94160300002100240027002A002D0023
:100160003000330001010000040107010A01000012
:100170002200250028002B002E003100340002014F
:100180000000050108010B010000200023002600EB
:1001900029002C002F00320000010000030106019D
:1001A00009010505050507050808080802020202FD
:1001B0000A0A080804040404010101010101010103
:1001C0000303030303030303040707070C0C0C0CCE
:1001D0000C0C0C0C020202020606060606060606B7
:1001E0000B0B0B0B0B0B0B0B010210202008081044
:1001F0002040102040800201020108040201010297
:10020000040810204080804020100804020180046F
:1002100002018040201008040201080402010102CA
:1002200004081020408001020408102040800000D3
:100230000A0B02090C0D0E08070304010000000060
:1002400000000000000000000000000000000000AE
:10025000000000000000000000001211100000006B
:10026000000000000000000000000000000000008E
:1002700000000000690511241FBECFEFD1E2DEBFF0
:10028000CDBF00E00CBF23E0AAE3B2E001C01D92A5
:10029000AF34B207E1F712E0A0E0B2E0E4E9F3E145
:1002A00000E00BBF02C007900D92AA33B107D9F747
:1002B00011E0CBE3D1E000E006C021970109802FD7
:1002C000FE010E94C009CA33D10780E00807A9F7E0
:1002D0000E94F7050C94C8090C94000096E0899FD1
:1002E000D0011124A052BD4F90967C936E935F97DE
:1002F00091E091969C939197E0914D03F0914E037C
:1003000090914C03992339F0309751F0811108C036
:100310008091FC021994309719F05C968C91FACF79
:100320000895AF92BF92CF92DF92EF92FF920F9318
:100330001F93CF93DF936C017B018B01040F151F7B
:10034000EB015E01AE18BF08C017D10759F06991E3
:10035000D601ED91FC910190F081E02DC601199537
:10036000892B79F7C501DF91CF911F910F91FF90F4
:10037000EF90DF90CF90BF90AF900895FC01538D28
:10038000448D252F30E0842F90E0821B930B54176F
:1003900010F0CF96089501970895FC01918D828DFC
:1003A000981761F0A28DAE0FBF2FB11D5D968C9195
:1003B000928D9F5F9F73928F90E008958FEF9FEFD4
:1003C0000895FC01918D828D981731F0828DE80F90
:1003D000F11D858D90E008958FEF9FEF0895FC014A
:1003E000918D228D892F90E0805C9F4F821B910917
:1003F0008F739927089583E492E00E94EF0121E032
:10040000892B09F420E0822F0895FC01A48DA80F08
:10041000B92FB11DA35ABF4F2C91848D90E0019646
:100420008F739927848FA689B7892C93A089B18966
:100430008C91837080648C93938D848D981306C007
:100440000288F389E02D80818F7D80830895EF926B
:10045000FF920F931F93CF93DF93EC0181E0888F7E
:100460009B8D8C8D98131AC0E889F989808185FF4E
:1004700015C09FB7F894EE89FF896083E889F989F0
:1004800080818370806480839FBF81E090E0DF91F2
:10049000CF911F910F91FF90EF900895F62E0B8D45
:1004A00010E00F5F1F4F0F731127E02E8C8D8E1100
:1004B0000CC00FB607FCFACFE889F989808185FF67
:1004C000F5CFCE010E940502F1CFEB8DEC0FFD2F91
:1004D000F11DE35AFF4FF0829FB7F8940B8FEA8922
:1004E000FB8980818062CFCFCF93DF93EC01888D31
:1004F0008823B9F0AA89BB89E889F9898C9185FD9F
:1005000003C0808186FD0DC00FB607FCF7CF8C912C
:1005100085FFF2CF808185FFEDCFCE010E940502DD
:10052000E9CFDF91CF91089580E090E0892B29F009
:100530000E94FB0181110E94000080E090E0892B65
:1005400049F080E090E0892B29F00E9400008111A1
:100550000E94000080E090E0892B49F080E090E06C
:10056000892B29F00E94000081110E94000080E088
:1005700090E0892B49F080E090E0892B29F00E94DF
:10058000000081110C94000008958150823108F020
:100590005AC0E82FF0E08827EF52FD4F8F4F0C94A0
:1005A000C009F102F502E302E902ED022303F802B9
:1005B000FE02020308030C03100316031A032303AD
:1005C0001E0324032803809180008F77809380008E
:1005D0000895809180008F7DF9CF80918000877F82
:1005E000F5CF84B58F7784BD089584B58F7DFBCF1B
:1005F0008091B0008F778093B00008958091B00013
:100600008F7DF9CF809190008F778093900008952F
:10061000809190008F7DF9CF80919000877FF5CFFA
:100620008091A0008F778093A00008958091A00012
:100630008F7DF9CF8091A000877FF5CF8091200139
:100640008F77809320010895809120018F7DF9CFCD
:1006500080912001877FF5CFCF93DF93282F30E063
:10066000F901E25DFD4F8491F901E851FE4FD4910B
:10067000F901EE55FE4FC491CC23A1F081110E94E7
:10068000C502EC2FF0E0EE0FFF1FE857FE4FA591DB
:10069000B491EC91ED2381E090E009F480E0DF91EA
:1006A000CF91089580E090E0FACF862F0C942C0330
:1006B0001F93CF93DF93282F30E0F901E25DFD4FC8
:1006C0008491F901E851FE4FD491F901EE55FE4FA6
:1006D000C491CC23A9F0162F81110E94C502EC2FE2
:1006E000F0E0EE0FFF1FE259FE4FA591B4918FB7D6
:1006F000F894EC91111108C0D095DE23DC938FBFE4
:10070000DF91CF911F910895DE2BF8CF862F642FB4
:100710000C945803CF93DF9390E0FC01E851FE4F17
:1007200024918E559E4FFC0184918823C9F090E05E
:10073000880F991FFC01EC5AFE4FA591B491FC0162
:10074000E259FE4FC591D49161110DC09FB7F89445
:100750008C91209582238C938881282328839FBFA6
:10076000DF91CF910895623051F49FB7F8943C9196
:10077000822F809583238C93E8812E2BEFCF8FB728
:10078000F894EC912E2B2C938FBFEACF862F642FF9
:100790000C948A033FB7F89480913F0290914002F5
:1007A000A0914102B091420226B5A89B05C02F3FFF
:1007B00019F00196A11DB11D3FBFBA2FA92F982F87
:1007C0008827BC01CD01620F711D811D911D42E082
:1007D000660F771F881F991F4A95D1F708958F924A
:1007E0009F92AF92BF92CF92DF92EF92FF920E94C0
:1007F000CA034B015C018CE2C82EDD24D394E12CAA
:10080000F12C0E94CA03681979098A099B09683E7C
:10081000734081059105A8F321E0C21AD108E108CF
:10082000F10888EE880E83E0981EA11CB11CC1144B
:10083000D104E104F10429F7FF90EF90DF90CF900D
:10084000BF90AF909F908F9008952FB7F8946091CC
:100850003B0270913C0280913D0290913E022FBF7D
:1008600008950F931F930E94250460934B02709389
:100870004C0280934D0290934E0283E492E00E94DA
:10088000E10197FF1DC00E94250400914B021091C9
:100890004C0220914D0230914E02601B710B820B75
:1008A000930B009147021091480220914902309128
:1008B0004A026017710782079307F8F28FEF9FEFE4
:1008C0001F910F9108950F931F93CF93DF93C82F1C
:1008D000D62F86E0C89FF0011124E052FD4F11A2EF
:1008E000878D90A181309105F1F058F0823091050B
:1008F000F1F1039709F440C0DF91CF911F910F915F
:1009000008956623C9F361E070E08C2F0E946E01A8
:100910000E942504609338037093390380933A034F
:1009200090933B03E9CF0E94250400913803109176
:10093000390320913A0330913B03AB01BC01401BCA
:10094000510B620B730B80914A0390914B03B0E003
:10095000A0E084179507A607B70748F462E070E0A7
:100960008C2FDF91CF911F910F910C946E0163E05A
:1009700070E0D111C1CFF4CF70E060E0F1CF1F92F1
:100980000F920FB60F9211240BB60F922F933F9335
:100990004F935F936F937F938F939F93AF93BF9387
:1009A000EF93FF9383E492E00E940502FF91EF91A1
:1009B000BF91AF919F918F917F916F915F914F9177
:1009C0003F912F910F900BBE0F900FBE0F901F9075
:1009D00018951F920F920FB60F9211240BB60F921B
:1009E0002F938F939F93EF93FF93E0915302F09196
:1009F00054028081E0915902F0915A0282FD1DC09B
:100A0000908180915C028F5F8F7320915D028217CD
:100A100041F0E0915C02F0E0ED5BFD4F958F80933B
:100A20005C02FF91EF919F918F912F910F900BBEE0
:100A30000F900FBE0F901F9018958081F2CF1F92DC
:100A40000F920FB60F9211242F933F938F939F9382
:100A5000AF93BF9380913B0290913C02A0913D02E5
:100A6000B0913E0230913A0223E0230F2D3758F522
:100A70000196A11DB11D20933A0280933B029093F1
:100A80003C02A0933D02B0933E0280913F029091C0
:100A90004002A0914102B09142020196A11DB11DF8
:100AA00080933F0290934002A0934102B093420290
:100AB000BF91AF919F918F913F912F910F900FBE5A
:100AC0000F901F90189526E8230F0296A11DB11DC7
:100AD000D2CF109246021092450288EE93E0A0E039
:100AE000B0E08093470290934802A0934902B093EC
:100AF0004A0287E192E0909344028093430285EC9E
:100B000090E09093500280934F0284EC90E0909399
:100B100052028093510280EC90E0909354028093B3
:100B2000530281EC90E0909356028093550282EC40
:100B300090E0909358028093570286EC90E0909357
:100B40005A028093590210925C0210925D02109238
:100B50005E0210925F021092E2021092E602109280
:100B6000E5021092E70289E292E09093E10280931D
:100B7000E002ECEFF2E010821482138215823696C6
:100B800083E0E833F807B9F783E092E090934303FA
:100B90008093420380E092E0909345038093440366
:100BA00084E08093460383E08093470387E092E0EC
:100BB00090934103809340038AE090E0909349032F
:100BC0008093480384EF91E090934B0380934A0312
:100BD00010924E0310924D0310923C0310923D036D
:100BE00010923E0310923F0310924C0308957894A4
:100BF00084B5826084BD84B5816084BD85B5826022
:100C000085BD85B5816085BD80916E0081608093D2
:100C10006E0010928100809181008260809381003B
:100C2000809181008160809381008091800081604B
:100C3000809380008091B10084608093B1008091A6
:100C4000B00081608093B0008091910082608093B9
:100C5000910080919100816080939100809190003B
:100C60008160809390008091A10082608093A100B8
:100C70008091A10081608093A1008091A00081609B
:100C80008093A00080912101826080932101809156
:100C900021018160809321018091200181608093F6
:100CA000200180917A00846080937A0080917A009C
:100CB000826080937A0080917A00816080937A00CC
:100CC00080917A00806880937A001092C100E09150
:100CD0005302F091540282E08083E0914F02F09140
:100CE00050021082E0915102F09152028FEC808309
:100CF00010925B02E0915702F091580286E08083E7
:100D0000E0915502F0915602808180618083E091EC
:100D10005502F0915602808188608083E0915502EF
:100D2000F0915602808180688083E0915502F091B5
:100D3000560280818F7D808361E086E30E948A0372
:100D400061E087E30E948A0361E088E30E948A03EE
:100D500061E089E30E948A0361E08AE30E948A03DA
:100D600061E08BE30E948A0361E08CE30E948A03C6
:100D700061E08DE30E948A0361E08EE30E948A03B2
:100D800022242394812C912C5401839466246A9408
:100D9000762C56E0352E20924C030E9425040091BB
:100DA0003C0310913D0320913E0330913F03AB0182
:100DB000BC01401B510B620B730B80914803909157
:100DC0004903B0E0A0E084179507A607B70708F02D
:100DD00000C1C0E080914603C81760F4E09142036F
:100DE000F0914303EC0FF11D62E080810E948A03C1
:100DF000CF5FF0CF512C80914703581608F05FC0A9
:100E0000052D10E0E0914403F0914503E00FF11F40
:100E100061E080810E948A03E0914403F0914503E0
:100E2000E00FF11F60E080810E945803D501C401EA
:100E3000052C04C0880F991FAA1FBB1F0A94D2F764
:100E40006C017C01E094F094412C8091460348169B
:100E5000F8F4C42DD0E0E0914203F0914303EC0F8D
:100E6000FD1F80810E942C032496CC0FDD1FC052F1
:100E7000DD4F892B41F4888199818C299D299983A3
:100E800088834394E2CF888199818E219F21F7CF77
:100E9000E0914403F0914503E00FF11F61E0808190
:100EA0000E9458038091440390914503080F191F35
:100EB00060E0F80180810E948A0353949CCF00EE89
:100EC00012E0E8018F8D98A1892B21F41C8E7E8E73
:100ED0006D8E19A22696F3E0CC31DF0799F7F12C3D
:100EE00080914603F81608F052C0E12CCF2CD12C8B
:100EF000CC0CDD1CC60188519D4F6C01209147032D
:100F0000E21608F042C0F601608171810E2C02C029
:100F1000769567950A94E2F7F29E900111242E0DC2
:100F2000311DE0EEF2E080E0458D568D2417350747
:100F300009F40AC28F5F36968A30B1F760FF23C08A
:100F4000E0EEF2E090E080E0448D411117C0E091C6
:100F50004003F0914103E20FF31F4081389EF001FE
:100F6000399EF00D1124E052FD4F448F368F258FAE
:100F700010A2178E61E00E94630405C001963696A8
:100F80008A30910509F7E394B9CFF394A9CFF12CF6
:100F9000F80181A18111F82E0A5F1F4FC017D107F8
:100FA000B9F70E94250460933C0370933D0380933E
:100FB0003E0390933F03FF2061F08091010388235B
:100FC00041F08091FF0290910003C091FC020197D3
:100FD00019F010924C03C0E00E943104FC0197FD0F
:100FE00068C08D32910521F0C0970A9708F05AC069
:100FF000C12CD12C7601D0E0E130F105D9F0ED32F1
:10100000F10509F454C0CF01C0970A9798F4AAE0FB
:10101000B0E0A70196010E94A6096F01FF0FEE083C
:10102000FF08C60ED71EE81EF91EF0E3CF1AD1083E
:10103000E108F10883E492E00E94CD010E943104AE
:10104000FC01C0970A97C0F2E130F105A9F2DD2357
:1010500041F0F094E094D094C094C11CD11CE11CE8
:10106000F11C8AE0C816D10484F047E050E06FE23A
:1010700072E083E492E00E94910142E050E067E375
:1010800072E083E492E00E949101C13321F091E08B
:10109000C916D10491F461E086E30E9458030E94CE
:1010A000940279CE83E492E00E94CD0195CFD1E005
:1010B000C1CFC12CD12C7601D4CFC23321F0E2E0D4
:1010C000CE16D10449F461E086E30E9458030E94E1
:1010D000EF0361E087E3E1CFC33321F0F3E0CF1604
:1010E000D10479F461E086E30E9458030E94EF0383
:1010F00061E087E30E9458030E94EF0361E088E308
:10110000CCCFC43321F084E0C816D104A9F461E047
:1011100086E30E9458030E94EF0361E087E30E9488
:1011200058030E94EF0361E088E30E9458030E9485
:10113000EF0361E089E3B1CFC53321F095E0C91633
:10114000D104D9F461E086E30E9458030E94EF03C2
:1011500061E087E30E9458030E94EF0361E088E3A7
:101160000E9458030E94EF0361E089E30E94580344
:101170000E94EF0361E08DE390CFC63321F0E6E0FB
:10118000CE16D10409F561E086E30E9458030E945F
:10119000EF0361E087E30E9458030E94EF0361E0E0
:1011A00088E30E9458030E94EF0361E089E30E94F4
:1011B00058030E94EF0361E08DE30E9458030E94F0
:1011C000EF0361E08CE369CFC73321F0F7E0CF167E
:1011D000D10439F561E086E30E9458030E94EF03D1
:1011E00061E087E30E9458030E94EF0361E088E317
:1011F0000E9458030E94EF0361E089E30E945803B4
:101200000E94EF0361E08DE30E9458030E94EF0308
:1012100061E08CE30E9458030E94EF0361E08BE3DE
:101220003CCFC83321F088E0C816D10469F561E0ED
:1012300086E30E9458030E94EF0361E087E30E9467
:1012400058030E94EF0361E088E30E9458030E9464
:10125000EF0361E089E30E9458030E94EF0361E01D
:101260008DE30E9458030E94EF0361E08CE30E942B
:1012700058030E94EF0361E08BE30E9458030E9431
:10128000EF0361E08AE309CFC93321F099E0C91681
:10129000D10499F561E086E30E9458030E94EF03B0
:1012A00061E087E30E9458030E94EF0361E088E356
:1012B0000E9458030E94EF0361E089E30E945803F3
:1012C0000E94EF0361E08DE30E9458030E94EF0348
:1012D00061E08CE30E9458030E94EF0361E08BE31E
:1012E0000E9458030E94EF0361E08AE30E945803C2
:1012F0000E94EF0361E08EE3D0CEC03319F0CD2819
:1013000009F0CDCE60E086E30E94580360E087E3F9
:101310000E94580360E088E30E94580360E089E37C
:101320000E94580360E08DE30E94580360E08CE364
:101330000E94580360E08BE30E94580360E08AE358
:101340000E94580360E0D7CF617015CE0E94B109AA
:10135000A59F900DB49F900DA49F800D911D112409
:101360000895A29FB001B39FC001A39F700D811D7E
:101370001124911DB29F700D811D1124911D08959E
:10138000EE0FFF1F881F8BBF0790F691E02D199479
:04139000F894FFCFFF
:101394001B19171D1F2123313233343536373839A1
:1013A40023302A0000000027029101BE017402EFDD
:1013B40001CD01E10100000000C603860355036965
:0A13C4006E76616C6964000D0A008A
:00000001FF
